{
  "contractName": "ContractManager",
  "abi": [
    {
      "constant": true,
      "inputs": [],
      "name": "owner",
      "outputs": [
        {
          "name": "",
          "type": "address"
        }
      ],
      "payable": false,
      "stateMutability": "view",
      "type": "function"
    },
    {
      "constant": false,
      "inputs": [
        {
          "name": "newOwner",
          "type": "address"
        }
      ],
      "name": "transferOwnership",
      "outputs": [],
      "payable": false,
      "stateMutability": "nonpayable",
      "type": "function"
    },
    {
      "anonymous": false,
      "inputs": [
        {
          "indexed": false,
          "name": "contractName",
          "type": "string"
        },
        {
          "indexed": false,
          "name": "version",
          "type": "string"
        },
        {
          "indexed": true,
          "name": "implementation",
          "type": "address"
        }
      ],
      "name": "VersionAdded",
      "type": "event"
    },
    {
      "anonymous": false,
      "inputs": [
        {
          "indexed": false,
          "name": "contractName",
          "type": "string"
        },
        {
          "indexed": false,
          "name": "version",
          "type": "string"
        },
        {
          "indexed": false,
          "name": "status",
          "type": "uint8"
        }
      ],
      "name": "StatusChanged",
      "type": "event"
    },
    {
      "anonymous": false,
      "inputs": [
        {
          "indexed": false,
          "name": "contractName",
          "type": "string"
        },
        {
          "indexed": false,
          "name": "version",
          "type": "string"
        },
        {
          "indexed": false,
          "name": "bugLevel",
          "type": "uint8"
        }
      ],
      "name": "BugLevelChanged",
      "type": "event"
    },
    {
      "anonymous": false,
      "inputs": [
        {
          "indexed": false,
          "name": "contractName",
          "type": "string"
        },
        {
          "indexed": false,
          "name": "version",
          "type": "string"
        }
      ],
      "name": "VersionAudited",
      "type": "event"
    },
    {
      "anonymous": false,
      "inputs": [
        {
          "indexed": false,
          "name": "contractName",
          "type": "string"
        },
        {
          "indexed": false,
          "name": "version",
          "type": "string"
        }
      ],
      "name": "VersionRecommended",
      "type": "event"
    },
    {
      "anonymous": false,
      "inputs": [
        {
          "indexed": false,
          "name": "contractName",
          "type": "string"
        }
      ],
      "name": "RecommendedVersionRemoved",
      "type": "event"
    },
    {
      "anonymous": false,
      "inputs": [
        {
          "indexed": true,
          "name": "previousOwner",
          "type": "address"
        },
        {
          "indexed": true,
          "name": "newOwner",
          "type": "address"
        }
      ],
      "name": "OwnershipTransferred",
      "type": "event"
    },
    {
      "constant": false,
      "inputs": [
        {
          "name": "contractName",
          "type": "string"
        },
        {
          "name": "version",
          "type": "string"
        },
        {
          "name": "status",
          "type": "uint8"
        },
        {
          "name": "_implementation",
          "type": "address"
        },
        {
          "name": "_auditor",
          "type": "address"
        }
      ],
      "name": "addVersion",
      "outputs": [],
      "payable": false,
      "stateMutability": "nonpayable",
      "type": "function"
    },
    {
      "constant": false,
      "inputs": [
        {
          "name": "contractName",
          "type": "string"
        },
        {
          "name": "version",
          "type": "string"
        },
        {
          "name": "status",
          "type": "uint8"
        }
      ],
      "name": "changeStatus",
      "outputs": [],
      "payable": false,
      "stateMutability": "nonpayable",
      "type": "function"
    },
    {
      "constant": false,
      "inputs": [
        {
          "name": "contractName",
          "type": "string"
        },
        {
          "name": "version",
          "type": "string"
        },
        {
          "name": "bugLevel",
          "type": "uint8"
        }
      ],
      "name": "changeBugLevel",
      "outputs": [],
      "payable": false,
      "stateMutability": "nonpayable",
      "type": "function"
    },
    {
      "constant": false,
      "inputs": [
        {
          "name": "contractName",
          "type": "string"
        },
        {
          "name": "version",
          "type": "string"
        },
        {
          "name": "auditHash",
          "type": "bytes32"
        },
        {
          "name": "auditReportIPFSPointer",
          "type": "bytes"
        }
      ],
      "name": "markVersionAudited",
      "outputs": [],
      "payable": false,
      "stateMutability": "nonpayable",
      "type": "function"
    },
    {
      "constant": false,
      "inputs": [
        {
          "name": "contractName",
          "type": "string"
        },
        {
          "name": "version",
          "type": "string"
        }
      ],
      "name": "markRecommendedVersion",
      "outputs": [],
      "payable": false,
      "stateMutability": "nonpayable",
      "type": "function"
    },
    {
      "constant": false,
      "inputs": [
        {
          "name": "contractName",
          "type": "string"
        }
      ],
      "name": "removeRecommendedVersion",
      "outputs": [],
      "payable": false,
      "stateMutability": "nonpayable",
      "type": "function"
    },
    {
      "constant": true,
      "inputs": [
        {
          "name": "contractName",
          "type": "string"
        }
      ],
      "name": "getRecommendedVersion",
      "outputs": [
        {
          "name": "version",
          "type": "string"
        },
        {
          "name": "status",
          "type": "uint8"
        },
        {
          "name": "bugLevel",
          "type": "uint8"
        },
        {
          "name": "implementation",
          "type": "address"
        },
        {
          "name": "auditor",
          "type": "address"
        },
        {
          "name": "audited",
          "type": "bool"
        },
        {
          "name": "auditHash",
          "type": "bytes32"
        },
        {
          "name": "auditReportIPFSPointer",
          "type": "bytes"
        },
        {
          "name": "dateAdded",
          "type": "uint256"
        },
        {
          "name": "recommended",
          "type": "bool"
        }
      ],
      "payable": false,
      "stateMutability": "view",
      "type": "function"
    },
    {
      "constant": true,
      "inputs": [],
      "name": "getTotalContractCount",
      "outputs": [
        {
          "name": "count",
          "type": "uint256"
        }
      ],
      "payable": false,
      "stateMutability": "view",
      "type": "function"
    },
    {
      "constant": true,
      "inputs": [
        {
          "name": "contractName",
          "type": "string"
        }
      ],
      "name": "getVersionCountForContract",
      "outputs": [
        {
          "name": "count",
          "type": "uint256"
        }
      ],
      "payable": false,
      "stateMutability": "view",
      "type": "function"
    },
    {
      "constant": true,
      "inputs": [
        {
          "name": "index",
          "type": "uint256"
        }
      ],
      "name": "getContractAtIndex",
      "outputs": [
        {
          "name": "contractName",
          "type": "string"
        }
      ],
      "payable": false,
      "stateMutability": "view",
      "type": "function"
    },
    {
      "constant": true,
      "inputs": [
        {
          "name": "contractName",
          "type": "string"
        },
        {
          "name": "index",
          "type": "uint256"
        }
      ],
      "name": "getVersionAtIndex",
      "outputs": [
        {
          "name": "version",
          "type": "string"
        }
      ],
      "payable": false,
      "stateMutability": "view",
      "type": "function"
    },
    {
      "constant": true,
      "inputs": [
        {
          "name": "contractName",
          "type": "string"
        },
        {
          "name": "versionName",
          "type": "string"
        }
      ],
      "name": "getVersionDetails",
      "outputs": [
        {
          "name": "version",
          "type": "string"
        },
        {
          "name": "status",
          "type": "uint8"
        },
        {
          "name": "bugLevel",
          "type": "uint8"
        },
        {
          "name": "implementation",
          "type": "address"
        },
        {
          "name": "auditor",
          "type": "address"
        },
        {
          "name": "audited",
          "type": "bool"
        },
        {
          "name": "auditHash",
          "type": "bytes32"
        },
        {
          "name": "auditReportIPFSPointer",
          "type": "bytes"
        },
        {
          "name": "dateAdded",
          "type": "uint256"
        },
        {
          "name": "recommended",
          "type": "bool"
        }
      ],
      "payable": false,
      "stateMutability": "view",
      "type": "function"
    }
  ],
  "bytecode": "0x6080604052336000806101000a81548173ffffffffffffffffffffffffffffffffffffffff021916908373ffffffffffffffffffffffffffffffffffffffff160217905550614171806100536000396000f3006080604052600436106100d0576000357c0100000000000000000000000000000000000000000000000000000000900463ffffffff1680634890b0c5146100d5578063568d1ee814610135578063751f592b146101955780637e27634e146101c057806389b5173c1461039c5780638ad030c1146104155780638da5cb5b146106095780639b534f1814610660578063acb16d5214610706578063acd820a8146107a6578063af2c7fa31461080f578063ca2e7cf3146108cd578063f2fde38b14610920578063ff93dab414610963575b600080fd5b3480156100e157600080fd5b50610133600480360381019080803590602001908201803590602001919091929391929390803590602001908201803590602001919091929391929390803560ff1690602001909291905050506109b2565b005b34801561014157600080fd5b50610193600480360381019080803590602001908201803590602001919091929391929390803590602001908201803590602001919091929391929390803560ff16906020019092919050505061109e565b005b3480156101a157600080fd5b506101aa611733565b6040518082815260200191505060405180910390f35b3480156101cc57600080fd5b506101f9600480360381019080803590602001908201803590602001919091929391929390505050611740565b60405180806020018b600381111561020d57fe5b60ff1681526020018a600481111561022157fe5b60ff1681526020018973ffffffffffffffffffffffffffffffffffffffff1673ffffffffffffffffffffffffffffffffffffffff1681526020018873ffffffffffffffffffffffffffffffffffffffff1673ffffffffffffffffffffffffffffffffffffffff168152602001871515151581526020018660001916600019168152602001806020018581526020018415151515815260200183810383528d818151815260200191508051906020019080838360005b838110156102f15780820151818401526020810190506102d6565b50505050905090810190601f16801561031e5780820380516001836020036101000a031916815260200191505b50838103825286818151815260200191508051906020019080838360005b8381101561035757808201518184015260208101905061033c565b50505050905090810190601f1680156103845780820380516001836020036101000a031916815260200191505b509c5050505050505050505050505060405180910390f35b3480156103a857600080fd5b506104136004803603810190808035906020019082018035906020019190919293919293908035906020019082018035906020019190919293919293908035600019169060200190929190803590602001908201803590602001919091929391929390505050611b2c565b005b34801561042157600080fd5b506104666004803603810190808035906020019082018035906020019190919293919293908035906020019082018035906020019190919293919293905050506123fb565b60405180806020018b600381111561047a57fe5b60ff1681526020018a600481111561048e57fe5b60ff1681526020018973ffffffffffffffffffffffffffffffffffffffff1673ffffffffffffffffffffffffffffffffffffffff1681526020018873ffffffffffffffffffffffffffffffffffffffff1673ffffffffffffffffffffffffffffffffffffffff168152602001871515151581526020018660001916600019168152602001806020018581526020018415151515815260200183810383528d818151815260200191508051906020019080838360005b8381101561055e578082015181840152602081019050610543565b50505050905090810190601f16801561058b5780820380516001836020036101000a031916815260200191505b50838103825286818151815260200191508051906020019080838360005b838110156105c45780820151818401526020810190506105a9565b50505050905090810190601f1680156105f15780820380516001836020036101000a031916815260200191505b509c5050505050505050505050505060405180910390f35b34801561061557600080fd5b5061061e612652565b604051808273ffffffffffffffffffffffffffffffffffffffff1673ffffffffffffffffffffffffffffffffffffffff16815260200191505060405180910390f35b34801561066c57600080fd5b5061068b60048036038101908080359060200190929190505050612677565b6040518080602001828103825283818151815260200191508051906020019080838360005b838110156106cb5780820151818401526020810190506106b0565b50505050905090810190601f1680156106f85780820380516001836020036101000a031916815260200191505b509250505060405180910390f35b34801561071257600080fd5b506107a4600480360381019080803590602001908201803590602001919091929391929390803590602001908201803590602001919091929391929390803560ff169060200190929190803573ffffffffffffffffffffffffffffffffffffffff169060200190929190803573ffffffffffffffffffffffffffffffffffffffff169060200190929190505050612732565b005b3480156107b257600080fd5b5061080d600480360381019080803590602001908201803590602001908080601f0160208091040260200160405190810160405280939291908181526020018383808284378201915050505050509192919290505050612f9b565b005b34801561081b57600080fd5b5061085260048036038101908080359060200190820180359060200191909192939192939080359060200190929190505050613366565b6040518080602001828103825283818151815260200191508051906020019080838360005b83811015610892578082015181840152602081019050610877565b50505050905090810190601f1680156108bf5780820380516001836020036101000a031916815260200191505b509250505060405180910390f35b3480156108d957600080fd5b5061091e600480360381019080803590602001908201803590602001919091929391929390803590602001908201803590602001919091929391929390505050613446565b005b34801561092c57600080fd5b50610961600480360381019080803573ffffffffffffffffffffffffffffffffffffffff169060200190929190505050613cb6565b005b34801561096f57600080fd5b5061099c600480360381019080803590602001908201803590602001919091929391929390505050613e0b565b6040518082815260200191505060405180910390f35b60008060009054906101000a900473ffffffffffffffffffffffffffffffffffffffff1673ffffffffffffffffffffffffffffffffffffffff163373ffffffffffffffffffffffffffffffffffffffff16141515610a0f57600080fd5b85858080601f0160208091040260200160405190810160405280939291908181526020018383808284378201915050505050506002816040518082805190602001908083835b602083101515610a7a5780518252602082019150602081019050602083039250610a55565b6001836020036101000a038019825116818451168082178552505050505050905001915050908152602001604051809103902060009054906101000a900460ff161515610b2f576040517f08c379a00000000000000000000000000000000000000000000000000000000081526004018080602001828103825260188152602001807f436f6e747261637420646f6573206e6f7420657869737473000000000000000081525060200191505060405180910390fd5b86868080601f01602080910402602001604051908101604052809392919081815260200183838082843782019150505050505085858080601f016020809104026020016040519081016040528093929190818152602001838380828437820191505050505050600073ffffffffffffffffffffffffffffffffffffffff166004836040518082805190602001908083835b602083101515610be55780518252602082019150602081019050602083039250610bc0565b6001836020036101000a0380198251168184511680821785525050505050509050019150509081526020016040518091039020826040518082805190602001908083835b602083101515610c4e5780518252602082019150602081019050602083039250610c29565b6001836020036101000a038019825116818451168082178552505050505050905001915050908152602001604051809103902060010160029054906101000a900473ffffffffffffffffffffffffffffffffffffffff1673ffffffffffffffffffffffffffffffffffffffff1614151515610d57576040517f08c379a00000000000000000000000000000000000000000000000000000000081526004018080602001828103825260248152602001807f56657273696f6e20646f6573206e6f742065786973747320666f7220636f6e7481526020017f726163740000000000000000000000000000000000000000000000000000000081525060400191505060405180910390fd5b6005898960405180838380828437820191505092505050908152602001604051809103902093508686604051602001808383808284378201915050925050506040516020818303038152906040526040518082805190602001908083835b602083101515610dda5780518252602082019150602081019050602083039250610db5565b6001836020036101000a038019825116818451168082178552505050505050905001915050604051809103902060001916846040516020018082805460018160011615610100020316600290048015610e6a5780601f10610e48576101008083540402835291820191610e6a565b820191906000526020600020905b815481529060010190602001808311610e56575b50509150506040516020818303038152906040526040518082805190602001908083835b602083101515610eb35780518252602082019150602081019050602083039250610e8e565b6001836020036101000a038019825116818451168082178552505050505050905001915050604051809103902060001916148015610f065750600380811115610ef857fe5b856003811115610f0457fe5b145b15610f9f576040517f08c379a00000000000000000000000000000000000000000000000000000000081526004018080602001828103825260288152602001807f5265636f6d6d656e6465642076657273696f6e2063616e6e6f7420626520646581526020017f707265636174656400000000000000000000000000000000000000000000000081525060400191505060405180910390fd5b8460048a8a604051808383808284378201915050925050509081526020016040518091039020888860405180838380828437820191505092505050908152602001604051809103902060010160006101000a81548160ff0219169083600381111561100657fe5b02179055507ea1d2d212fdb196f10c2b940b5f032473f79d8fcf0739ae900d576750021387898989898960405180806020018060200184600381111561104857fe5b60ff168152602001838103835288888281815260200192508082843782019150508381038252868682818152602001925080828437820191505097505050505050505060405180910390a1505050505050505050565b60008060009054906101000a900473ffffffffffffffffffffffffffffffffffffffff1673ffffffffffffffffffffffffffffffffffffffff163373ffffffffffffffffffffffffffffffffffffffff161415156110fb57600080fd5b85858080601f0160208091040260200160405190810160405280939291908181526020018383808284378201915050505050506002816040518082805190602001908083835b6020831015156111665780518252602082019150602081019050602083039250611141565b6001836020036101000a038019825116818451168082178552505050505050905001915050908152602001604051809103902060009054906101000a900460ff16151561121b576040517f08c379a00000000000000000000000000000000000000000000000000000000081526004018080602001828103825260188152602001807f436f6e747261637420646f6573206e6f7420657869737473000000000000000081525060200191505060405180910390fd5b86868080601f01602080910402602001604051908101604052809392919081815260200183838082843782019150505050505085858080601f016020809104026020016040519081016040528093929190818152602001838380828437820191505050505050600073ffffffffffffffffffffffffffffffffffffffff166004836040518082805190602001908083835b6020831015156112d157805182526020820191506020810190506020830392506112ac565b6001836020036101000a0380198251168184511680821785525050505050509050019150509081526020016040518091039020826040518082805190602001908083835b60208310151561133a5780518252602082019150602081019050602083039250611315565b6001836020036101000a038019825116818451168082178552505050505050905001915050908152602001604051809103902060010160029054906101000a900473ffffffffffffffffffffffffffffffffffffffff1673ffffffffffffffffffffffffffffffffffffffff1614151515611443576040517f08c379a00000000000000000000000000000000000000000000000000000000081526004018080602001828103825260248152602001807f56657273696f6e20646f6573206e6f742065786973747320666f7220636f6e7481526020017f726163740000000000000000000000000000000000000000000000000000000081525060400191505060405180910390fd5b6005898960405180838380828437820191505092505050908152602001604051809103902093508686604051602001808383808284378201915050925050506040516020818303038152906040526040518082805190602001908083835b6020831015156114c657805182526020820191506020810190506020830392506114a1565b6001836020036101000a0380198251168184511680821785525050505050509050019150506040518091039020600019168460405160200180828054600181600116156101000203166002900480156115565780601f10611534576101008083540402835291820191611556565b820191906000526020600020905b815481529060010190602001808311611542575b50509150506040516020818303038152906040526040518082805190602001908083835b60208310151561159f578051825260208201915060208101905060208303925061157a565b6001836020036101000a0380198251168184511680821785525050505050509050019150506040518091039020600019161480156115f257506004808111156115e457fe5b8560048111156115f057fe5b145b156116335761163289898080601f016020809104026020016040519081016040528093929190818152602001838380828437820191505050505050612f9b565b5b8460048a8a604051808383808284378201915050925050509081526020016040518091039020888860405180838380828437820191505092505050908152602001604051809103902060010160016101000a81548160ff0219169083600481111561169a57fe5b02179055507f92d0e6a4dfcd933ffb179b251aa0d734eb16556c0813246989fddaf08a7d009d89898989896040518080602001806020018460048111156116dd57fe5b60ff168152602001838103835288888281815260200192508082843782019150508381038252868682818152602001925080828437820191505097505050505050505060405180910390a1505050505050505050565b6000600180549050905090565b606060008060008060008060606000806000808d8d8080601f0160208091040260200160405190810160405280939291908181526020018383808284378201915050505050506002816040518082805190602001908083835b6020831015156117be5780518252602082019150602081019050602083039250611799565b6001836020036101000a038019825116818451168082178552505050505050905001915050908152602001604051809103902060009054906101000a900460ff161515611873576040517f08c379a00000000000000000000000000000000000000000000000000000000081526004018080602001828103825260188152602001807f436f6e747261637420646f6573206e6f7420657869737473000000000000000081525060200191505060405180910390fd5b60058f8f604051808383808284378201915050925050509081526020016040518091039020925060048f8f60405180838380828437820191505092505050908152602001604051809103902083604051808280546001816001161561010002031660029004801561191b5780601f106118f957610100808354040283529182019161191b565b820191906000526020600020905b815481529060010190602001808311611907575b505091505090815260200160405180910390209150816000018054600181600116156101000203166002900480601f0160208091040260200160405190810160405280929190818152602001828054600181600116156101000203166002900480156119c85780601f1061199d576101008083540402835291602001916119c8565b820191906000526020600020905b8154815290600101906020018083116119ab57829003601f168201915b50505050509c508160010160009054906101000a900460ff169b508160010160019054906101000a900460ff169a508160010160029054906101000a900473ffffffffffffffffffffffffffffffffffffffff1699508160010160169054906101000a900460ff16975081600201549650816003018054600181600116156101000203166002900480601f016020809104026020016040519081016040528092919081815260200182805460018160011615610100020316600290048015611ad15780601f10611aa657610100808354040283529160200191611ad1565b820191906000526020600020905b815481529060010190602001808311611ab457829003601f168201915b50505050509550816005015494508160040160009054906101000a900473ffffffffffffffffffffffffffffffffffffffff1698508160060160009054906101000a900460ff1693505050509295989b9194979a5092959850565b86868080601f0160208091040260200160405190810160405280939291908181526020018383808284378201915050505050506002816040518082805190602001908083835b602083101515611b975780518252602082019150602081019050602083039250611b72565b6001836020036101000a038019825116818451168082178552505050505050905001915050908152602001604051809103902060009054906101000a900460ff161515611c4c576040517f08c379a00000000000000000000000000000000000000000000000000000000081526004018080602001828103825260188152602001807f436f6e747261637420646f6573206e6f7420657869737473000000000000000081525060200191505060405180910390fd5b87878080601f01602080910402602001604051908101604052809392919081815260200183838082843782019150505050505086868080601f016020809104026020016040519081016040528093929190818152602001838380828437820191505050505050600073ffffffffffffffffffffffffffffffffffffffff166004836040518082805190602001908083835b602083101515611d025780518252602082019150602081019050602083039250611cdd565b6001836020036101000a0380198251168184511680821785525050505050509050019150509081526020016040518091039020826040518082805190602001908083835b602083101515611d6b5780518252602082019150602081019050602083039250611d46565b6001836020036101000a038019825116818451168082178552505050505050905001915050908152602001604051809103902060010160029054906101000a900473ffffffffffffffffffffffffffffffffffffffff1673ffffffffffffffffffffffffffffffffffffffff1614151515611e74576040517f08c379a00000000000000000000000000000000000000000000000000000000081526004018080602001828103825260248152602001807f56657273696f6e20646f6573206e6f742065786973747320666f7220636f6e7481526020017f726163740000000000000000000000000000000000000000000000000000000081525060400191505060405180910390fd5b89898080601f01602080910402602001604051908101604052809392919081815260200183838082843782019150505050505088888080601f0160208091040260200160405190810160405280939291908181526020018383808284378201915050505050506004826040518082805190602001908083835b602083101515611f125780518252602082019150602081019050602083039250611eed565b6001836020036101000a0380198251168184511680821785525050505050509050019150509081526020016040518091039020816040518082805190602001908083835b602083101515611f7b5780518252602082019150602081019050602083039250611f56565b6001836020036101000a038019825116818451168082178552505050505050905001915050908152602001604051809103902060040160009054906101000a900473ffffffffffffffffffffffffffffffffffffffff1673ffffffffffffffffffffffffffffffffffffffff163373ffffffffffffffffffffffffffffffffffffffff16141515612074576040517f08c379a000000000000000000000000000000000000000000000000000000000815260040180806020018281038252601e8152602001807f4e6f6e2061756469746f722063616c6c65642074686973206d6574686f64000081525060200191505060405180910390fd5b6000600102600019168860001916141515156120f8576040517f08c379a00000000000000000000000000000000000000000000000000000000081526004018080602001828103825260138152602001807f4175646974206861736820697320656d7074790000000000000000000000000081525060200191505060405180910390fd5b600087879050111515612199576040517f08c379a00000000000000000000000000000000000000000000000000000000081526004018080602001828103825260308152602001807f4950465320636f6e74656e74206164647265737320666f72206175646974207281526020017f65706f7274206e6f74207061737365640000000000000000000000000000000081525060400191505060405180910390fd5b60048c8c6040518083838082843782019150509250505090815260200160405180910390208a8a60405180838380828437820191505092505050908152602001604051809103902060010160169054906101000a900460ff16151515612267576040517f08c379a000000000000000000000000000000000000000000000000000000000815260040180806020018281038252601a8152602001807f56657273696f6e20697320616c7265616479206175646974656400000000000081525060200191505060405180910390fd5b600160048d8d6040518083838082843782019150509250505090815260200160405180910390208b8b60405180838380828437820191505092505050908152602001604051809103902060010160166101000a81548160ff0219169083151502179055508760048d8d6040518083838082843782019150509250505090815260200160405180910390208b8b6040518083838082843782019150509250505090815260200160405180910390206002018160001916905550868660048e8e6040518083838082843782019150509250505090815260200160405180910390208c8c6040518083838082843782019150509250505090815260200160405180910390206003019190612379929190613e51565b507fdd2996df4158c05ae76d843c929d03eadde75cf3580d1d2f996375ea6cbe96258c8c8c8c6040518080602001806020018381038352878782818152602001925080828437820191505083810382528585828181526020019250808284378201915050965050505050505060405180910390a1505050505050505050505050565b60606000806000806000806060600080600060048f8f6040518083838082843782019150509250505090815260200160405180910390208d8d6040518083838082843782019150509250505090815260200160405180910390209050806000018054600181600116156101000203166002900480601f0160208091040260200160405190810160405280929190818152602001828054600181600116156101000203166002900480156124ef5780601f106124c4576101008083540402835291602001916124ef565b820191906000526020600020905b8154815290600101906020018083116124d257829003601f168201915b50505050509a508060010160009054906101000a900460ff1699508060010160019054906101000a900460ff1698508060010160029054906101000a900473ffffffffffffffffffffffffffffffffffffffff1697508060010160169054906101000a900460ff16955080600201549450806003018054600181600116156101000203166002900480601f0160208091040260200160405190810160405280929190818152602001828054600181600116156101000203166002900480156125f85780601f106125cd576101008083540402835291602001916125f8565b820191906000526020600020905b8154815290600101906020018083116125db57829003601f168201915b50505050509350806005015492508060040160009054906101000a900473ffffffffffffffffffffffffffffffffffffffff1696508060060160009054906101000a900460ff169150509499509499509499509499509499565b6000809054906101000a900473ffffffffffffffffffffffffffffffffffffffff1681565b606060018281548110151561268857fe5b906000526020600020018054600181600116156101000203166002900480601f0160208091040260200160405190810160405280929190818152602001828054600181600116156101000203166002900480156127265780601f106126fb57610100808354040283529160200191612726565b820191906000526020600020905b81548152906001019060200180831161270957829003601f168201915b50505050509050919050565b6000809054906101000a900473ffffffffffffffffffffffffffffffffffffffff1673ffffffffffffffffffffffffffffffffffffffff163373ffffffffffffffffffffffffffffffffffffffff1614151561278d57600080fd5b81600073ffffffffffffffffffffffffffffffffffffffff168173ffffffffffffffffffffffffffffffffffffffff1614151515612859576040517f08c379a00000000000000000000000000000000000000000000000000000000081526004018080602001828103825260238152602001807f5468652070726f7669646564206164647265737320697320612030206164647281526020017f657373000000000000000000000000000000000000000000000000000000000081525060400191505060405180910390fd5b6000868690501115156128d4576040517f08c379a000000000000000000000000000000000000000000000000000000000815260040180806020018281038252601e8152602001807f456d70747920737472696e67207061737365642061732076657273696f6e000081525060200191505060405180910390fd5b600088889050111515612975576040517f08c379a00000000000000000000000000000000000000000000000000000000081526004018080602001828103825260248152602001807f456d70747920737472696e672070617373656420617320636f6e74726163742081526020017f6e616d650000000000000000000000000000000000000000000000000000000081525060400191505060405180910390fd5b61297e83613e3e565b1515612a18576040517f08c379a00000000000000000000000000000000000000000000000000000000081526004018080602001828103825260358152602001807f43616e6e6f7420736574206120696d706c656d656e746174696f6e20746f206181526020017f206e6f6e2d636f6e74726163742061646472657373000000000000000000000081525060400191505060405180910390fd5b6002888860405180838380828437820191505092505050908152602001604051809103902060009054906101000a900460ff161515612ad2576001888890918060018154018082558091505090600182039060005260206000200160009091929390919293909192909192509190612a91929190613ed1565b505060016002898960405180838380828437820191505092505050908152602001604051809103902060006101000a81548160ff0219169083151502179055505b600073ffffffffffffffffffffffffffffffffffffffff1660048989604051808383808284378201915050925050509081526020016040518091039020878760405180838380828437820191505092505050908152602001604051809103902060010160029054906101000a900473ffffffffffffffffffffffffffffffffffffffff1673ffffffffffffffffffffffffffffffffffffffff16141515612c07576040517f08c379a00000000000000000000000000000000000000000000000000000000081526004018080602001828103825260238152602001807f56657273696f6e20616c72656164792065786973747320666f7220636f6e747281526020017f616374000000000000000000000000000000000000000000000000000000000081525060400191505060405180910390fd5b60038888604051808383808284378201915050925050509081526020016040518091039020868690918060018154018082558091505090600182039060005260206000200160009091929390919293909192909192509190612c6a929190613ed1565b50506101406040519081016040528087878080601f0160208091040260200160405190810160405280939291908181526020018383808284378201915050505050508152602001856003811115612cbd57fe5b815260200160006004811115612ccf57fe5b81526020018473ffffffffffffffffffffffffffffffffffffffff1681526020016000151581526020016000600102600019168152602001602060405190810160405280600081525081526020018373ffffffffffffffffffffffffffffffffffffffff168152602001428152602001600015158152506004898960405180838380828437820191505092505050908152602001604051809103902087876040518083838082843782019150509250505090815260200160405180910390206000820151816000019080519060200190612daa929190613f51565b5060208201518160010160006101000a81548160ff02191690836003811115612dcf57fe5b021790555060408201518160010160016101000a81548160ff02191690836004811115612df857fe5b021790555060608201518160010160026101000a81548173ffffffffffffffffffffffffffffffffffffffff021916908373ffffffffffffffffffffffffffffffffffffffff16021790555060808201518160010160166101000a81548160ff02191690831515021790555060a0820151816002019060001916905560c0820151816003019080519060200190612e90929190613fd1565b5060e08201518160040160006101000a81548173ffffffffffffffffffffffffffffffffffffffff021916908373ffffffffffffffffffffffffffffffffffffffff16021790555061010082015181600501556101208201518160060160006101000a81548160ff0219169083151502179055509050508273ffffffffffffffffffffffffffffffffffffffff167f337b109e3f497728f2bdd27545c9ed1cb52ed4a4103cc94da88b868879c982e2898989896040518080602001806020018381038352878782818152602001925080828437820191505083810382528585828181526020019250808284378201915050965050505050505060405180910390a25050505050505050565b6000806000809054906101000a900473ffffffffffffffffffffffffffffffffffffffff1673ffffffffffffffffffffffffffffffffffffffff163373ffffffffffffffffffffffffffffffffffffffff16141515612ff957600080fd5b826002816040518082805190602001908083835b602083101515613032578051825260208201915060208101905060208303925061300d565b6001836020036101000a038019825116818451168082178552505050505050905001915050908152602001604051809103902060009054906101000a900460ff1615156130e7576040517f08c379a00000000000000000000000000000000000000000000000000000000081526004018080602001828103825260188152602001807f436f6e747261637420646f6573206e6f7420657869737473000000000000000081525060200191505060405180910390fd5b6005846040518082805190602001908083835b60208310151561311f57805182526020820191506020810190506020830392506130fa565b6001836020036101000a038019825116818451168082178552505050505050905001915050908152602001604051809103902092506004846040518082805190602001908083835b60208310151561318c5780518252602082019150602081019050602083039250613167565b6001836020036101000a038019825116818451168082178552505050505050905001915050908152602001604051809103902083604051808280546001816001161561010002031660029004801561321b5780601f106131f957610100808354040283529182019161321b565b820191906000526020600020905b815481529060010190602001808311613207575b50509150509081526020016040518091039020915060008260060160006101000a81548160ff0219169083151502179055506005846040518082805190602001908083835b6020831015156132855780518252602082019150602081019050602083039250613260565b6001836020036101000a038019825116818451168082178552505050505050905001915050908152602001604051809103902060006132c49190614051565b7f07b20feb74e0118ee3c73d4cb8d0eb4da169604c68aa233293b094cedcd225f2846040518080602001828103825283818151815260200191508051906020019080838360005b8381101561332657808201518184015260208101905061330b565b50505050905090810190601f1680156133535780820380516001836020036101000a031916815260200191505b509250505060405180910390a150505050565b6060600384846040518083838082843782019150509250505090815260200160405180910390208281548110151561339a57fe5b906000526020600020018054600181600116156101000203166002900480601f0160208091040260200160405190810160405280929190818152602001828054600181600116156101000203166002900480156134385780601f1061340d57610100808354040283529160200191613438565b820191906000526020600020905b81548152906001019060200180831161341b57829003601f168201915b505050505090509392505050565b60008060008060009054906101000a900473ffffffffffffffffffffffffffffffffffffffff1673ffffffffffffffffffffffffffffffffffffffff163373ffffffffffffffffffffffffffffffffffffffff161415156134a657600080fd5b86868080601f0160208091040260200160405190810160405280939291908181526020018383808284378201915050505050506002816040518082805190602001908083835b60208310151561351157805182526020820191506020810190506020830392506134ec565b6001836020036101000a038019825116818451168082178552505050505050905001915050908152602001604051809103902060009054906101000a900460ff1615156135c6576040517f08c379a00000000000000000000000000000000000000000000000000000000081526004018080602001828103825260188152602001807f436f6e747261637420646f6573206e6f7420657869737473000000000000000081525060200191505060405180910390fd5b87878080601f01602080910402602001604051908101604052809392919081815260200183838082843782019150505050505086868080601f016020809104026020016040519081016040528093929190818152602001838380828437820191505050505050600073ffffffffffffffffffffffffffffffffffffffff166004836040518082805190602001908083835b60208310151561367c5780518252602082019150602081019050602083039250613657565b6001836020036101000a0380198251168184511680821785525050505050509050019150509081526020016040518091039020826040518082805190602001908083835b6020831015156136e557805182526020820191506020810190506020830392506136c0565b6001836020036101000a038019825116818451168082178552505050505050905001915050908152602001604051809103902060010160029054906101000a900473ffffffffffffffffffffffffffffffffffffffff1673ffffffffffffffffffffffffffffffffffffffff16141515156137ee576040517f08c379a00000000000000000000000000000000000000000000000000000000081526004018080602001828103825260248152602001807f56657273696f6e20646f6573206e6f742065786973747320666f7220636f6e7481526020017f726163740000000000000000000000000000000000000000000000000000000081525060400191505060405180910390fd5b600260038111156137fb57fe5b60048b8b604051808383808284378201915050925050509081526020016040518091039020898960405180838380828437820191505092505050908152602001604051809103902060010160009054906101000a900460ff16600381111561385f57fe5b1415156138d4576040517f08c379a000000000000000000000000000000000000000000000000000000000815260040180806020018281038252601f8152602001807f56657273696f6e206e6f7420696e2070726f64756374696f6e2073746174650081525060200191505060405180910390fd5b60048a8a604051808383808284378201915050925050509081526020016040518091039020888860405180838380828437820191505092505050908152602001604051809103902060010160169054906101000a900460ff1615156139a1576040517f08c379a00000000000000000000000000000000000000000000000000000000081526004018080602001828103825260168152602001807f56657273696f6e206973206e6f7420617564697465640000000000000000000081525060200191505060405180910390fd5b600360048111156139ae57fe5b60048b8b604051808383808284378201915050925050509081526020016040518091039020898960405180838380828437820191505092505050908152602001604051809103902060010160019054906101000a900460ff166004811115613a1257fe5b101515613aad576040517f08c379a00000000000000000000000000000000000000000000000000000000081526004018080602001828103825260288152602001807f56657273696f6e20627567206c6576656c206973206e6f74206c6f776572207481526020017f68616e204849474800000000000000000000000000000000000000000000000081525060400191505060405180910390fd5b60058a8a604051808383808284378201915050925050509081526020016040518091039020955060048a8a604051808383808284378201915050925050509081526020016040518091039020866040518082805460018160011615610100020316600290048015613b555780601f10613b33576101008083540402835291820191613b55565b820191906000526020600020905b815481529060010190602001808311613b41575b50509150509081526020016040518091039020945060048a8a6040518083838082843782019150509250505090815260200160405180910390208888604051808383808284378201915050925050509081526020016040518091039020935060008560060160006101000a81548160ff02191690831515021790555060018460060160006101000a81548160ff0219169083151502179055508360000160058b8b6040518083838082843782019150509250505090815260200160405180910390209080546001816001161561010002031660029004613c36929190614099565b507fb318550bf93edf51de4bae84db3deabd2a866cc407435a72317ca2503e2a07a68a8a8a8a6040518080602001806020018381038352878782818152602001925080828437820191505083810382528585828181526020019250808284378201915050965050505050505060405180910390a150505050505050505050565b6000809054906101000a900473ffffffffffffffffffffffffffffffffffffffff1673ffffffffffffffffffffffffffffffffffffffff163373ffffffffffffffffffffffffffffffffffffffff16141515613d1157600080fd5b600073ffffffffffffffffffffffffffffffffffffffff168173ffffffffffffffffffffffffffffffffffffffff1614151515613d4d57600080fd5b8073ffffffffffffffffffffffffffffffffffffffff166000809054906101000a900473ffffffffffffffffffffffffffffffffffffffff1673ffffffffffffffffffffffffffffffffffffffff167f8be0079c531659141344cd1fd0a4f28419497f9722a3daafe3b4186f6b6457e060405160405180910390a3806000806101000a81548173ffffffffffffffffffffffffffffffffffffffff021916908373ffffffffffffffffffffffffffffffffffffffff16021790555050565b60006003838360405180838380828437820191505092505050908152602001604051809103902080549050905092915050565b600080823b905060008111915050919050565b828054600181600116156101000203166002900490600052602060002090601f016020900481019282601f10613e9257803560ff1916838001178555613ec0565b82800160010185558215613ec0579182015b82811115613ebf578235825591602001919060010190613ea4565b5b509050613ecd9190614120565b5090565b828054600181600116156101000203166002900490600052602060002090601f016020900481019282601f10613f1257803560ff1916838001178555613f40565b82800160010185558215613f40579182015b82811115613f3f578235825591602001919060010190613f24565b5b509050613f4d9190614120565b5090565b828054600181600116156101000203166002900490600052602060002090601f016020900481019282601f10613f9257805160ff1916838001178555613fc0565b82800160010185558215613fc0579182015b82811115613fbf578251825591602001919060010190613fa4565b5b509050613fcd9190614120565b5090565b828054600181600116156101000203166002900490600052602060002090601f016020900481019282601f1061401257805160ff1916838001178555614040565b82800160010185558215614040579182015b8281111561403f578251825591602001919060010190614024565b5b50905061404d9190614120565b5090565b50805460018160011615610100020316600290046000825580601f106140775750614096565b601f0160209004906000526020600020908101906140959190614120565b5b50565b828054600181600116156101000203166002900490600052602060002090601f016020900481019282601f106140d2578054855561410f565b8280016001018555821561410f57600052602060002091601f016020900482015b8281111561410e5782548255916001019190600101906140f3565b5b50905061411c9190614120565b5090565b61414291905b8082111561413e576000816000905550600101614126565b5090565b905600a165627a7a723058206540f1d46f078c531e7b4321f4bca3e11ff53ab92eb386e1d567a2a58a1e48210029",
  "source": "pragma solidity 0.4.24;\n\nimport \"openzeppelin-solidity/contracts/ownership/Ownable.sol\";\nimport \"openzeppelin-solidity/contracts/AddressUtils.sol\";\n\n/** \n* @dev Contract Version Manager for non-upgradeable contracts\n*/\ncontract ContractManager is Ownable {\n\n\n    event VersionAdded(string contractName, string version, address indexed implementation);\n\n    event StatusChanged(string contractName, string version, Status status);\n\n    event BugLevelChanged(string contractName, string version, BugLevel bugLevel);\n\n    event VersionAudited(string contractName, string version);\n\n    event VersionRecommended(string contractName, string version);\n\n    event RecommendedVersionRemoved(string contractName);\n\n    /**\n    * @dev SIGNIFIES THE STATUS OF THE VERSION\n    */\n    enum Status {BETA, RC, PRODUCTION, DEPRECATED}\n    \n    /**\n    * @dev SIGNIFIES THE LEVEL OF BUG FOUND WITHIN THE VERSION\n    */\n    enum BugLevel{NONE, LOW, MEDIUM, HIGH, CRITICAL}\n\n    /**\n    * @dev The structure of the each version to be followed\n    */\n    struct Version {\n        string version;// the version number string v1.0\n        Status status;// Whether the version is BETA, RC OR PRODUCTION\n        BugLevel bugLevel;// If any found\n        address implementation;// The address of the version contract being referenced\n        bool audited;// The boolean to mark whether the contract was audited or not\n        bytes32 auditHash;// bytes32 hash of the contract code\n        bytes auditReportIPFSPointer;// IPFS content address for the audit report\n        address auditor;// Address of the auditor\n        uint256 dateAdded;// The date when this version was registered with the contract\n        bool recommended;// Whether this version is recommended or not\n    }\n\n    /** \n    * @dev List of all contracts registered\n    */\n    string[] internal contracts;\n\n    /** \n    * @dev To keep track which contracts has been registered so far to save gas while check redundant contracts\n    */\n    mapping(string=>bool)internal contractExists;\n\n    /** \n    * @dev Kepp track of all contract version\n    */\n    mapping(string=>string[])internal contactVsVersionString;     \n\n\n    /** \n    * @dev Mapping of contract name and each of it's different versions\n    */\n    mapping(string=>mapping(string=>Version))internal  contractVsVersions;\n\n    /** \n    * @dev Mapping between contract name and it's recommended version\n    */\n\n    mapping(string=>string)internal contractVsRecommendedVersion;\n\n\n    modifier nonZeroAddress(address _address){\n        require(_address != address(0), \"The provided address is a 0 address\");\n        _;\n    }\n\n    modifier onlyAuditor(string contractName, string version) {\n        \n        require(msg.sender == contractVsVersions[contractName][version].auditor, \"Non auditor called this method\");\n        _;\n    }\n\n    modifier doesContractExists(string contractName) {\n        \n        require(contractExists[contractName], \"Contract does not exists\");\n        _;\n    }\n\n    modifier versionExists(string contractName, string version) {\n        require(contractVsVersions[contractName][version].implementation != address(0), \"Version does not exists for contract\");\n        _;\n    }\n\n    /** \n    * @dev Allow owner to add new version for the contract\n    * @param contractName The contract name for which the version is to be added\n    * @param version The version string\n    * @param status Status of the version\n    * @param _implementation The address of the version implementation\n    * @param _auditor The address of the auditor. It can be 0 address but in the case the version can never be marked as audited and hence can never become a recommended version\n    */\n    function addVersion(string contractName, string version, Status status, address _implementation, address _auditor)external\n     onlyOwner nonZeroAddress(_implementation) {\n\n        //can't pass empty string as version\n        require(bytes(version).length>0, \"Empty string passed as version\");\n\n        //contract name can't be empty string\n        require(bytes(contractName).length>0, \"Empty string passed as contract name\");\n\n        //Check that the implementation corresponds to a contract address\n        require(AddressUtils.isContract(_implementation), \"Cannot set a implementation to a non-contract address\");\n\n        if(!contractExists[contractName]){\n            contracts.push(contractName);\n            contractExists[contractName] = true;\n        }\n\n        //check version should not already exist for the contract\n        require(contractVsVersions[contractName][version].implementation == address(0), \"Version already exists for contract\");\n        contactVsVersionString[contractName].push(version);\n\n        contractVsVersions[contractName][version] = Version({\n            version:version,\n            status:status,\n            bugLevel:BugLevel.NONE,\n            implementation:_implementation,\n            audited:false,\n            auditHash:bytes32(0),\n            auditReportIPFSPointer:\"\",\n            auditor:_auditor,\n            dateAdded:block.timestamp,\n            recommended:false\n\n        });\n\n        emit VersionAdded(contractName, version, _implementation);\n    }\n\n    /** \n    * @dev change status of the version\n    * @param contractName Name of the contract\n    * @param version Version of the contract\n    * @param status Status to be set\n    */\n    function changeStatus(string contractName, string version, Status status)external\n     onlyOwner doesContractExists(contractName) versionExists(contractName, version) {\n         \n        string storage recommendedVersion = contractVsRecommendedVersion[contractName];\n        \n        //Recommended version can't be marked as deprecated\n        if(keccak256(abi.encodePacked(recommendedVersion)) == keccak256(abi.encodePacked(version)) && status == Status.DEPRECATED){\n            revert(\"Recommended version cannot be deprecated\");\n        }\n\n        contractVsVersions[contractName][version].status = status;\n\n        emit StatusChanged(contractName, version, status);\n    }\n\n    /** \n    * @dev Change the bug level for the contract\n    * @param contractName Name of the contract\n    * @param version Version of the contract\n    * @param bugLevel New bug level for the contract\n    */\n    function changeBugLevel(string contractName, string version, BugLevel bugLevel)external\n     onlyOwner doesContractExists(contractName) versionExists(contractName, version) {\n\n        string storage recommendedVersion = contractVsRecommendedVersion[contractName];\n\n        //if recommended version is being marked as critical then it will removed from being recommended\n        if(keccak256(abi.encodePacked(recommendedVersion)) == keccak256(abi.encodePacked(version)) && bugLevel == BugLevel.CRITICAL){\n            removeRecommendedVersion(contractName);\n        } \n\n        contractVsVersions[contractName][version].bugLevel = bugLevel;\n\n        emit BugLevelChanged(contractName, version, bugLevel);\n    }\n\n    /**\n    * @dev Mark version as audited\n    * @param contractName Name of the contract\n    * @param version Version of the contract\n    * @param auditHash Audit hash of the version\n    * @param auditReportIPFSPointer IPFS content address to the audit report\n    * Only auditor can call this method\n    */\n    function markVersionAudited(string contractName, string version, bytes32 auditHash, bytes auditReportIPFSPointer)external\n     doesContractExists(contractName) versionExists(contractName, version) onlyAuditor(contractName, version){\n        \n        //audit hash should not be empty hash\n        require(auditHash != bytes32(0), \"Audit hash is empty\");\n\n        //audit report not passed\n        require(auditReportIPFSPointer.length>0, \"IPFS content address for audit report not passed\");\n        \n        //Version should not be already audited\n        require(!contractVsVersions[contractName][version].audited, \"Version is already audited\");\n\n        contractVsVersions[contractName][version].audited = true;\n        contractVsVersions[contractName][version].auditHash = auditHash;\n        contractVsVersions[contractName][version].auditReportIPFSPointer = auditReportIPFSPointer;\n\n        emit VersionAudited(contractName, version);\n    }  \n\n    /** \n    * @dev Set recommended version\n    * @param contractName Name of the contract\n    * @param version Version of the contract\n    * Version should be in Production stage and bug level should not be high or critical.\n    * Version must be audited\n    */\n    function markRecommendedVersion(string contractName, string version)external\n     onlyOwner doesContractExists(contractName) versionExists(contractName, version){\n\n        //check version should be in production state\n        require(contractVsVersions[contractName][version].status == Status.PRODUCTION, \"Version not in production state\");\n\n        //check version must be audited\n        require(contractVsVersions[contractName][version].audited, \"Version is not audited\");\n\n        //check version has bug level lower than HIGH\n        require(contractVsVersions[contractName][version].bugLevel < BugLevel.HIGH, \"Version bug level is not lower than HIGH\");\n\n        string storage previousRecommendedVersionName = contractVsRecommendedVersion[contractName];\n\n        Version storage previousRecommendedVersion = contractVsVersions[contractName][previousRecommendedVersionName];\n\n        Version storage newRecommendedVersion = contractVsVersions[contractName][version];\n\n        //Mark previous as non-recommended\n        previousRecommendedVersion.recommended = false;\n\n        //Mark new version as recommened\n        newRecommendedVersion.recommended = true;\n\n        //Put new version as recommended version for the contract\n        contractVsRecommendedVersion[contractName] = newRecommendedVersion.version;\n\n        emit VersionRecommended(contractName, version);\n\n    }\n\n    /** \n    * @dev Remove any recommended version for the contract and sets it to NULL\n    * @param contractName Name of the contract\n    */\n    function removeRecommendedVersion(string contractName)public\n     onlyOwner doesContractExists(contractName){\n\n        string storage versionName = contractVsRecommendedVersion[contractName];\n        \n        Version storage previousRecommendedVersion = contractVsVersions[contractName][versionName];\n\n        //Mark previous version as non-recommended\n        previousRecommendedVersion.recommended = false;\n\n        //delete it from mapping\n        delete contractVsRecommendedVersion[contractName];\n\n        emit RecommendedVersionRemoved(contractName);\n\n    }\n\n    /** \n    * @dev Get recommended version for the contract.\n    * @return Details of recommended version    \n    */\n    function getRecommendedVersion(string contractName)external view doesContractExists(contractName)\n     returns(string version, Status status, BugLevel bugLevel, address implementation,  address auditor, bool audited, bytes32 auditHash, bytes auditReportIPFSPointer, uint256 dateAdded, bool recommended){\n\n        string storage versionName = contractVsRecommendedVersion[contractName];\n\n        Version storage recommendedVersion = contractVsVersions[contractName][versionName];\n\n        version = recommendedVersion.version;\n        status = recommendedVersion.status;\n        bugLevel = recommendedVersion.bugLevel;\n        implementation = recommendedVersion.implementation;\n        audited = recommendedVersion.audited;\n        auditHash = recommendedVersion.auditHash;\n        auditReportIPFSPointer = recommendedVersion.auditReportIPFSPointer;\n        dateAdded = recommendedVersion.dateAdded;\n        auditor = recommendedVersion.auditor;\n        recommended = recommendedVersion.recommended;\n    }\n    \n    /** \n    * @dev Get total count of contracts registered\n    */\n    function getTotalContractCount()external view returns(uint256 count) {\n        count = contracts.length;\n    }\n\n    /** \n    * @dev Get total count of versions for the contract\n    * @param contractName Name of the contract\n    */\n    function getVersionCountForContract(string contractName)external view returns(uint256 count){\n        count = contactVsVersionString[contractName].length;\n    }\n\n    /** \n    * @dev Returns the contract at index\n    * @param index The index to be searched for\n    */\n    function getContractAtIndex(uint256 index)external view returns(string contractName){\n        contractName = contracts[index];\n    }\n\n    /** \n    * @dev Returns version of a contract at specific index\n    * @param contractName Name of the contract\n    * @param index The index to be searched for\n    */\n    function getVersionAtIndex(string contractName, uint256 index)external view returns(string version){\n        version = contactVsVersionString[contractName][index];\n    }\n\n    /** \n    * @dev Returns the version details for the given contract and version\n    * @param contractName Name of the contract\n    * @param version Version string for the contract\n    */\n    function getVersionDetails(string contractName, string versionName)external view\n     returns(string version, Status status, BugLevel bugLevel, address implementation,  address auditor, bool audited, bytes32 auditHash, bytes auditReportIPFSPointer, uint256 dateAdded, bool recommended){\n        \n        Version storage v = contractVsVersions[contractName][versionName];\n\n        version = v.version;\n        status = v.status;\n        bugLevel = v.bugLevel;\n        implementation = v.implementation;\n        audited = v.audited;\n        auditHash = v.auditHash;\n        auditReportIPFSPointer = v.auditReportIPFSPointer;\n        dateAdded = v.dateAdded;\n        auditor = v.auditor;\n        recommended = v.recommended;\n\n    }\n}",
  "sourcePath": "/home/sameep/freelancing-projects/toptal/open baazar/openbazaar-smart-contracts/publicReady/contracts/registry/ContractManager.sol",
  "compiler": {
    "name": "solc",
    "version": "0.4.24+commit.e67f0147.Emscripten.clang"
  },
  "schemaVersion": "2.0.1",
  "updatedAt": "2018-08-09T10:08:09.567Z"
}