{
  "contractName": "ContractManager",
  "abi": [
    {
      "constant": false,
      "inputs": [],
      "name": "renounceOwnership",
      "outputs": [],
      "payable": false,
      "stateMutability": "nonpayable",
      "type": "function"
    },
    {
      "constant": true,
      "inputs": [],
      "name": "owner",
      "outputs": [
        {
          "name": "",
          "type": "address"
        }
      ],
      "payable": false,
      "stateMutability": "view",
      "type": "function"
    },
    {
      "constant": true,
      "inputs": [],
      "name": "isOwner",
      "outputs": [
        {
          "name": "",
          "type": "bool"
        }
      ],
      "payable": false,
      "stateMutability": "view",
      "type": "function"
    },
    {
      "constant": false,
      "inputs": [
        {
          "name": "newOwner",
          "type": "address"
        }
      ],
      "name": "transferOwnership",
      "outputs": [],
      "payable": false,
      "stateMutability": "nonpayable",
      "type": "function"
    },
    {
      "anonymous": false,
      "inputs": [
        {
          "indexed": false,
          "name": "contractName",
          "type": "string"
        },
        {
          "indexed": false,
          "name": "versionName",
          "type": "string"
        },
        {
          "indexed": true,
          "name": "implementation",
          "type": "address"
        }
      ],
      "name": "VersionAdded",
      "type": "event"
    },
    {
      "anonymous": false,
      "inputs": [
        {
          "indexed": false,
          "name": "contractName",
          "type": "string"
        },
        {
          "indexed": false,
          "name": "versionName",
          "type": "string"
        },
        {
          "indexed": false,
          "name": "status",
          "type": "uint8"
        },
        {
          "indexed": false,
          "name": "bugLevel",
          "type": "uint8"
        }
      ],
      "name": "VersionUpdated",
      "type": "event"
    },
    {
      "anonymous": false,
      "inputs": [
        {
          "indexed": false,
          "name": "contractName",
          "type": "string"
        },
        {
          "indexed": false,
          "name": "versionName",
          "type": "string"
        }
      ],
      "name": "VersionRecommended",
      "type": "event"
    },
    {
      "anonymous": false,
      "inputs": [
        {
          "indexed": false,
          "name": "contractName",
          "type": "string"
        }
      ],
      "name": "RecommendedVersionRemoved",
      "type": "event"
    },
    {
      "anonymous": false,
      "inputs": [
        {
          "indexed": true,
          "name": "previousOwner",
          "type": "address"
        },
        {
          "indexed": true,
          "name": "newOwner",
          "type": "address"
        }
      ],
      "name": "OwnershipTransferred",
      "type": "event"
    },
    {
      "constant": false,
      "inputs": [
        {
          "name": "contractName",
          "type": "string"
        },
        {
          "name": "versionName",
          "type": "string"
        },
        {
          "name": "status",
          "type": "uint8"
        },
        {
          "name": "implementation",
          "type": "address"
        }
      ],
      "name": "addVersion",
      "outputs": [],
      "payable": false,
      "stateMutability": "nonpayable",
      "type": "function"
    },
    {
      "constant": false,
      "inputs": [
        {
          "name": "contractName",
          "type": "string"
        },
        {
          "name": "versionName",
          "type": "string"
        },
        {
          "name": "status",
          "type": "uint8"
        },
        {
          "name": "bugLevel",
          "type": "uint8"
        }
      ],
      "name": "updateVersion",
      "outputs": [],
      "payable": false,
      "stateMutability": "nonpayable",
      "type": "function"
    },
    {
      "constant": false,
      "inputs": [
        {
          "name": "contractName",
          "type": "string"
        },
        {
          "name": "versionName",
          "type": "string"
        }
      ],
      "name": "markRecommendedVersion",
      "outputs": [],
      "payable": false,
      "stateMutability": "nonpayable",
      "type": "function"
    },
    {
      "constant": true,
      "inputs": [
        {
          "name": "contractName",
          "type": "string"
        }
      ],
      "name": "getRecommendedVersion",
      "outputs": [
        {
          "name": "versionName",
          "type": "string"
        },
        {
          "name": "status",
          "type": "uint8"
        },
        {
          "name": "bugLevel",
          "type": "uint8"
        },
        {
          "name": "implementation",
          "type": "address"
        },
        {
          "name": "dateAdded",
          "type": "uint256"
        }
      ],
      "payable": false,
      "stateMutability": "view",
      "type": "function"
    },
    {
      "constant": false,
      "inputs": [
        {
          "name": "contractName",
          "type": "string"
        }
      ],
      "name": "removeRecommendedVersion",
      "outputs": [],
      "payable": false,
      "stateMutability": "nonpayable",
      "type": "function"
    },
    {
      "constant": true,
      "inputs": [],
      "name": "getTotalContractCount",
      "outputs": [
        {
          "name": "count",
          "type": "uint256"
        }
      ],
      "payable": false,
      "stateMutability": "view",
      "type": "function"
    },
    {
      "constant": true,
      "inputs": [
        {
          "name": "contractName",
          "type": "string"
        }
      ],
      "name": "getVersionCountForContract",
      "outputs": [
        {
          "name": "count",
          "type": "uint256"
        }
      ],
      "payable": false,
      "stateMutability": "view",
      "type": "function"
    },
    {
      "constant": true,
      "inputs": [
        {
          "name": "index",
          "type": "uint256"
        }
      ],
      "name": "getContractAtIndex",
      "outputs": [
        {
          "name": "contractName",
          "type": "string"
        }
      ],
      "payable": false,
      "stateMutability": "view",
      "type": "function"
    },
    {
      "constant": true,
      "inputs": [
        {
          "name": "contractName",
          "type": "string"
        },
        {
          "name": "index",
          "type": "uint256"
        }
      ],
      "name": "getVersionAtIndex",
      "outputs": [
        {
          "name": "versionName",
          "type": "string"
        }
      ],
      "payable": false,
      "stateMutability": "view",
      "type": "function"
    },
    {
      "constant": true,
      "inputs": [
        {
          "name": "contractName",
          "type": "string"
        },
        {
          "name": "versionName",
          "type": "string"
        }
      ],
      "name": "getVersionDetails",
      "outputs": [
        {
          "name": "versionString",
          "type": "string"
        },
        {
          "name": "status",
          "type": "uint8"
        },
        {
          "name": "bugLevel",
          "type": "uint8"
        },
        {
          "name": "implementation",
          "type": "address"
        },
        {
          "name": "dateAdded",
          "type": "uint256"
        }
      ],
      "payable": false,
      "stateMutability": "view",
      "type": "function"
    }
  ],
  "bytecode": "0x6080604052336000806101000a81548173ffffffffffffffffffffffffffffffffffffffff021916908373ffffffffffffffffffffffffffffffffffffffff1602179055506000809054906101000a900473ffffffffffffffffffffffffffffffffffffffff1673ffffffffffffffffffffffffffffffffffffffff16600073ffffffffffffffffffffffffffffffffffffffff167f8be0079c531659141344cd1fd0a4f28419497f9722a3daafe3b4186f6b6457e060405160405180910390a361235d806100cf6000396000f3006080604052600436106100d0576000357c0100000000000000000000000000000000000000000000000000000000900463ffffffff1680633de5311a146100d55780635c047fa214610155578063715018a6146101c2578063751f592b146101d95780637e27634e146102045780638ad030c11461031c5780638da5cb5b1461044c5780638f32d59b146104a35780639b534f18146104d2578063acd820a814610578578063af2c7fa3146105b3578063ca2e7cf314610671578063f2fde38b146106c4578063ff93dab414610707575b600080fd5b3480156100e157600080fd5b50610153600480360381019080803590602001908201803590602001919091929391929390803590602001908201803590602001919091929391929390803560ff169060200190929190803573ffffffffffffffffffffffffffffffffffffffff169060200190929190505050610756565b005b34801561016157600080fd5b506101c0600480360381019080803590602001908201803590602001919091929391929390803590602001908201803590602001919091929391929390803560ff169060200190929190803560ff169060200190929190505050610e6d565b005b3480156101ce57600080fd5b506101d761134a565b005b3480156101e557600080fd5b506101ee61141c565b6040518082815260200191505060405180910390f35b34801561021057600080fd5b5061023d60048036038101908080359060200190820180359060200191909192939192939050505061142c565b604051808060200186600381111561025157fe5b60ff16815260200185600481111561026557fe5b60ff1681526020018473ffffffffffffffffffffffffffffffffffffffff1673ffffffffffffffffffffffffffffffffffffffff168152602001838152602001828103825287818151815260200191508051906020019080838360005b838110156102dd5780820151818401526020810190506102c2565b50505050905090810190601f16801561030a5780820380516001836020036101000a031916815260200191505b50965050505050505060405180910390f35b34801561032857600080fd5b5061036d600480360381019080803590602001908201803590602001919091929391929390803590602001908201803590602001919091929391929390505050611717565b604051808060200186600381111561038157fe5b60ff16815260200185600481111561039557fe5b60ff1681526020018473ffffffffffffffffffffffffffffffffffffffff1673ffffffffffffffffffffffffffffffffffffffff168152602001838152602001828103825287818151815260200191508051906020019080838360005b8381101561040d5780820151818401526020810190506103f2565b50505050905090810190601f16801561043a5780820380516001836020036101000a031916815260200191505b50965050505050505060405180910390f35b34801561045857600080fd5b5061046161187b565b604051808273ffffffffffffffffffffffffffffffffffffffff1673ffffffffffffffffffffffffffffffffffffffff16815260200191505060405180910390f35b3480156104af57600080fd5b506104b86118a4565b604051808215151515815260200191505060405180910390f35b3480156104de57600080fd5b506104fd600480360381019080803590602001909291905050506118fb565b6040518080602001828103825283818151815260200191508051906020019080838360005b8381101561053d578082015181840152602081019050610522565b50505050905090810190601f16801561056a5780820380516001836020036101000a031916815260200191505b509250505060405180910390f35b34801561058457600080fd5b506105b16004803603810190808035906020019082018035906020019190919293919293905050506119b9565b005b3480156105bf57600080fd5b506105f660048036038101908080359060200190820180359060200191909192939192939080359060200190929190505050611b73565b6040518080602001828103825283818151815260200191508051906020019080838360005b8381101561063657808201518184015260208101905061061b565b50505050905090810190601f1680156106635780820380516001836020036101000a031916815260200191505b509250505060405180910390f35b34801561067d57600080fd5b506106c2600480360381019080803590602001908201803590602001919091929391929390803590602001908201803590602001919091929391929390505050611c56565b005b3480156106d057600080fd5b50610705600480360381019080803573ffffffffffffffffffffffffffffffffffffffff169060200190929190505050612062565b005b34801561071357600080fd5b50610740600480360381019080803590602001908201803590602001919091929391929390505050612081565b6040518082815260200191505060405180910390f35b61075e6118a4565b151561076957600080fd5b80600073ffffffffffffffffffffffffffffffffffffffff168173ffffffffffffffffffffffffffffffffffffffff1614151515610835576040517f08c379a00000000000000000000000000000000000000000000000000000000081526004018080602001828103825260258152602001807f5468652070726f7669646564206164647265737320697320746865203020616481526020017f647265737300000000000000000000000000000000000000000000000000000081525060400191505060405180910390fd5b6000858590501115156108b0576040517f08c379a000000000000000000000000000000000000000000000000000000000815260040180806020018281038252601e8152602001807f456d70747920737472696e67207061737365642061732076657273696f6e000081525060200191505060405180910390fd5b600087879050111515610951576040517f08c379a00000000000000000000000000000000000000000000000000000000081526004018080602001828103825260248152602001807f456d70747920737472696e672070617373656420617320636f6e74726163742081526020017f6e616d650000000000000000000000000000000000000000000000000000000081525060400191505060405180910390fd5b61095a826120b7565b15156109f4576040517f08c379a00000000000000000000000000000000000000000000000000000000081526004018080602001828103825260368152602001807f43616e6e6f742073657420616e20696d706c656d656e746174696f6e20746f2081526020017f61206e6f6e2d636f6e747261637420616464726573730000000000000000000081525060400191505060405180910390fd5b6002878760405180838380828437820191505092505050908152602001604051809103902060009054906101000a900460ff161515610aae576001878790918060018154018082558091505090600182039060005260206000200160009091929390919293909192909192509190610a6d9291906121c4565b505060016002888860405180838380828437820191505092505050908152602001604051809103902060006101000a81548160ff0219169083151502179055505b600073ffffffffffffffffffffffffffffffffffffffff1660048888604051808383808284378201915050925050509081526020016040518091039020868660405180838380828437820191505092505050908152602001604051809103902060010160029054906101000a900473ffffffffffffffffffffffffffffffffffffffff1673ffffffffffffffffffffffffffffffffffffffff16141515610be3576040517f08c379a00000000000000000000000000000000000000000000000000000000081526004018080602001828103825260238152602001807f56657273696f6e20616c72656164792065786973747320666f7220636f6e747281526020017f616374000000000000000000000000000000000000000000000000000000000081525060400191505060405180910390fd5b60038787604051808383808284378201915050925050509081526020016040518091039020858590918060018154018082558091505090600182039060005260206000200160009091929390919293909192909192509190610c469291906121c4565b505060a06040519081016040528086868080601f0160208091040260200160405190810160405280939291908181526020018383808284378201915050505050508152602001846003811115610c9857fe5b815260200160006004811115610caa57fe5b81526020018373ffffffffffffffffffffffffffffffffffffffff168152602001428152506004888860405180838380828437820191505092505050908152602001604051809103902086866040518083838082843782019150509250505090815260200160405180910390206000820151816000019080519060200190610d33929190612244565b5060208201518160010160006101000a81548160ff02191690836003811115610d5857fe5b021790555060408201518160010160016101000a81548160ff02191690836004811115610d8157fe5b021790555060608201518160010160026101000a81548173ffffffffffffffffffffffffffffffffffffffff021916908373ffffffffffffffffffffffffffffffffffffffff160217905550608082015181600201559050508173ffffffffffffffffffffffffffffffffffffffff167f337b109e3f497728f2bdd27545c9ed1cb52ed4a4103cc94da88b868879c982e2888888886040518080602001806020018381038352878782818152602001925080828437820191505083810382528585828181526020019250808284378201915050965050505050505060405180910390a250505050505050565b610e756118a4565b1515610e8057600080fd5b85858080601f0160208091040260200160405190810160405280939291908181526020018383808284378201915050505050506002816040518082805190602001908083835b602083101515610eeb5780518252602082019150602081019050602083039250610ec6565b6001836020036101000a038019825116818451168082178552505050505050905001915050908152602001604051809103902060009054906101000a900460ff161515610fa0576040517f08c379a00000000000000000000000000000000000000000000000000000000081526004018080602001828103825260188152602001807f436f6e747261637420646f6573206e6f7420657869737473000000000000000081525060200191505060405180910390fd5b86868080601f01602080910402602001604051908101604052809392919081815260200183838082843782019150505050505085858080601f016020809104026020016040519081016040528093929190818152602001838380828437820191505050505050600073ffffffffffffffffffffffffffffffffffffffff166004836040518082805190602001908083835b6020831015156110565780518252602082019150602081019050602083039250611031565b6001836020036101000a0380198251168184511680821785525050505050509050019150509081526020016040518091039020826040518082805190602001908083835b6020831015156110bf578051825260208201915060208101905060208303925061109a565b6001836020036101000a038019825116818451168082178552505050505050905001915050908152602001604051809103902060010160029054906101000a900473ffffffffffffffffffffffffffffffffffffffff1673ffffffffffffffffffffffffffffffffffffffff16141515156111c8576040517f08c379a00000000000000000000000000000000000000000000000000000000081526004018080602001828103825260248152602001807f56657273696f6e20646f6573206e6f742065786973747320666f7220636f6e7481526020017f726163740000000000000000000000000000000000000000000000000000000081525060400191505060405180910390fd5b8460048a8a604051808383808284378201915050925050509081526020016040518091039020888860405180838380828437820191505092505050908152602001604051809103902060010160006101000a81548160ff0219169083600381111561122f57fe5b02179055508360048a8a604051808383808284378201915050925050509081526020016040518091039020888860405180838380828437820191505092505050908152602001604051809103902060010160016101000a81548160ff0219169083600481111561129b57fe5b02179055507f0acf3e1a00b57bfc05ebf65957f42293847dc0938bfa1744660d6df56036d7518989898989896040518080602001806020018560038111156112df57fe5b60ff1681526020018460048111156112f357fe5b60ff16815260200183810383528989828181526020019250808284378201915050838103825287878281815260200192508082843782019150509850505050505050505060405180910390a1505050505050505050565b6113526118a4565b151561135d57600080fd5b600073ffffffffffffffffffffffffffffffffffffffff166000809054906101000a900473ffffffffffffffffffffffffffffffffffffffff1673ffffffffffffffffffffffffffffffffffffffff167f8be0079c531659141344cd1fd0a4f28419497f9722a3daafe3b4186f6b6457e060405160405180910390a360008060006101000a81548173ffffffffffffffffffffffffffffffffffffffff021916908373ffffffffffffffffffffffffffffffffffffffff160217905550565b6000600180549050905080905090565b6060600080600080600087878080601f0160208091040260200160405190810160405280939291908181526020018383808284378201915050505050506002816040518082805190602001908083835b6020831015156114a1578051825260208201915060208101905060208303925061147c565b6001836020036101000a038019825116818451168082178552505050505050905001915050908152602001604051809103902060009054906101000a900460ff161515611556576040517f08c379a00000000000000000000000000000000000000000000000000000000081526004018080602001828103825260188152602001807f436f6e747261637420646f6573206e6f7420657869737473000000000000000081525060200191505060405180910390fd5b600589896040518083838082843782019150509250505090815260200160405180910390208054600181600116156101000203166002900480601f01602080910402602001604051908101604052809291908181526020018280546001816001161561010002031660029004801561160f5780601f106115e45761010080835404028352916020019161160f565b820191906000526020600020905b8154815290600101906020018083116115f257829003601f168201915b5050505050965060048989604051808383808284378201915050925050509081526020016040518091039020876040518082805190602001908083835b602083101515611671578051825260208201915060208101905060208303925061164c565b6001836020036101000a038019825116818451168082178552505050505050905001915050908152602001604051809103902091508160010160009054906101000a900460ff1695508160010160019054906101000a900460ff1694508160010160029054906101000a900473ffffffffffffffffffffffffffffffffffffffff1693508160020154925086868686869650965096509650965050509295509295909350565b6060600080600080600060048a8a60405180838380828437820191505092505050908152602001604051809103902088886040518083838082843782019150509250505090815260200160405180910390209050806000018054600181600116156101000203166002900480601f0160208091040260200160405190810160405280929190818152602001828054600181600116156101000203166002900480156118035780601f106117d857610100808354040283529160200191611803565b820191906000526020600020905b8154815290600101906020018083116117e657829003601f168201915b505050505095508060010160009054906101000a900460ff1694508060010160019054906101000a900460ff1693508060010160029054906101000a900473ffffffffffffffffffffffffffffffffffffffff1692508060020154915085858585859550955095509550955050945094509450945094565b60008060009054906101000a900473ffffffffffffffffffffffffffffffffffffffff16905090565b60008060009054906101000a900473ffffffffffffffffffffffffffffffffffffffff1673ffffffffffffffffffffffffffffffffffffffff163373ffffffffffffffffffffffffffffffffffffffff1614905090565b606060018281548110151561190c57fe5b906000526020600020018054600181600116156101000203166002900480601f0160208091040260200160405190810160405280929190818152602001828054600181600116156101000203166002900480156119aa5780601f1061197f576101008083540402835291602001916119aa565b820191906000526020600020905b81548152906001019060200180831161198d57829003601f168201915b50505050509050809050919050565b6119c16118a4565b15156119cc57600080fd5b81818080601f0160208091040260200160405190810160405280939291908181526020018383808284378201915050505050506002816040518082805190602001908083835b602083101515611a375780518252602082019150602081019050602083039250611a12565b6001836020036101000a038019825116818451168082178552505050505050905001915050908152602001604051809103902060009054906101000a900460ff161515611aec576040517f08c379a00000000000000000000000000000000000000000000000000000000081526004018080602001828103825260188152602001807f436f6e747261637420646f6573206e6f7420657869737473000000000000000081525060200191505060405180910390fd5b600583836040518083838082843782019150509250505090815260200160405180910390206000611b1d91906122c4565b7f07b20feb74e0118ee3c73d4cb8d0eb4da169604c68aa233293b094cedcd225f28383604051808060200182810382528484828181526020019250808284378201915050935050505060405180910390a1505050565b60606003848460405180838380828437820191505092505050908152602001604051809103902082815481101515611ba757fe5b906000526020600020018054600181600116156101000203166002900480601f016020809104026020016040519081016040528092919081815260200182805460018160011615610100020316600290048015611c455780601f10611c1a57610100808354040283529160200191611c45565b820191906000526020600020905b815481529060010190602001808311611c2857829003601f168201915b505050505090508090509392505050565b611c5e6118a4565b1515611c6957600080fd5b83838080601f0160208091040260200160405190810160405280939291908181526020018383808284378201915050505050506002816040518082805190602001908083835b602083101515611cd45780518252602082019150602081019050602083039250611caf565b6001836020036101000a038019825116818451168082178552505050505050905001915050908152602001604051809103902060009054906101000a900460ff161515611d89576040517f08c379a00000000000000000000000000000000000000000000000000000000081526004018080602001828103825260188152602001807f436f6e747261637420646f6573206e6f7420657869737473000000000000000081525060200191505060405180910390fd5b84848080601f01602080910402602001604051908101604052809392919081815260200183838082843782019150505050505083838080601f016020809104026020016040519081016040528093929190818152602001838380828437820191505050505050600073ffffffffffffffffffffffffffffffffffffffff166004836040518082805190602001908083835b602083101515611e3f5780518252602082019150602081019050602083039250611e1a565b6001836020036101000a0380198251168184511680821785525050505050509050019150509081526020016040518091039020826040518082805190602001908083835b602083101515611ea85780518252602082019150602081019050602083039250611e83565b6001836020036101000a038019825116818451168082178552505050505050905001915050908152602001604051809103902060010160029054906101000a900473ffffffffffffffffffffffffffffffffffffffff1673ffffffffffffffffffffffffffffffffffffffff1614151515611fb1576040517f08c379a00000000000000000000000000000000000000000000000000000000081526004018080602001828103825260248152602001807f56657273696f6e20646f6573206e6f742065786973747320666f7220636f6e7481526020017f726163740000000000000000000000000000000000000000000000000000000081525060400191505060405180910390fd5b8484600589896040518083838082843782019150509250505090815260200160405180910390209190611fe59291906121c4565b507fb318550bf93edf51de4bae84db3deabd2a866cc407435a72317ca2503e2a07a6878787876040518080602001806020018381038352878782818152602001925080828437820191505083810382528585828181526020019250808284378201915050965050505050505060405180910390a150505050505050565b61206a6118a4565b151561207557600080fd5b61207e816120ca565b50565b60006003838360405180838380828437820191505092505050908152602001604051809103902080549050905080905092915050565b600080823b905060008111915050919050565b600073ffffffffffffffffffffffffffffffffffffffff168173ffffffffffffffffffffffffffffffffffffffff161415151561210657600080fd5b8073ffffffffffffffffffffffffffffffffffffffff166000809054906101000a900473ffffffffffffffffffffffffffffffffffffffff1673ffffffffffffffffffffffffffffffffffffffff167f8be0079c531659141344cd1fd0a4f28419497f9722a3daafe3b4186f6b6457e060405160405180910390a3806000806101000a81548173ffffffffffffffffffffffffffffffffffffffff021916908373ffffffffffffffffffffffffffffffffffffffff16021790555050565b828054600181600116156101000203166002900490600052602060002090601f016020900481019282601f1061220557803560ff1916838001178555612233565b82800160010185558215612233579182015b82811115612232578235825591602001919060010190612217565b5b509050612240919061230c565b5090565b828054600181600116156101000203166002900490600052602060002090601f016020900481019282601f1061228557805160ff19168380011785556122b3565b828001600101855582156122b3579182015b828111156122b2578251825591602001919060010190612297565b5b5090506122c0919061230c565b5090565b50805460018160011615610100020316600290046000825580601f106122ea5750612309565b601f016020900490600052602060002090810190612308919061230c565b5b50565b61232e91905b8082111561232a576000816000905550600101612312565b5090565b905600a165627a7a72305820a92a44221bef6dc0b8319c5a85137bc69c659e49f403d01b858bb17017eac23f0029",
  "source": "/* solium-disable security/no-block-members */\n\npragma solidity 0.4.24;\n\nimport \"openzeppelin-solidity/contracts/ownership/Ownable.sol\";\nimport \"openzeppelin-solidity/contracts/utils/Address.sol\";\n\n\n/**\n* @dev Contract Version Manager for non-upgradeable contracts\n*/\ncontract ContractManager is Ownable {\n\n    event VersionAdded(\n        string contractName,\n        string versionName,\n        address indexed implementation\n    );\n\n    event VersionUpdated(\n        string contractName,\n        string versionName,\n        Status status,\n        BugLevel bugLevel\n    );\n\n    event VersionRecommended(string contractName, string versionName);\n\n    event RecommendedVersionRemoved(string contractName);\n\n    /**\n    * @dev Signifies the status of a version\n    */\n    enum Status {BETA, RC, PRODUCTION, DEPRECATED}\n\n    /**\n    * @dev Indicated the highest level of bug found in the version\n    */\n    enum BugLevel {NONE, LOW, MEDIUM, HIGH, CRITICAL}\n\n    /**\n    * @dev A struct to encode version details\n    */\n    struct Version {\n        // the version number string ex. \"v1.0\"\n        string versionName;\n\n        Status status;\n\n        BugLevel bugLevel;\n        // the address of the instantiation of the version\n        address implementation;\n        // the date when this version was registered with the contract\n        uint256 dateAdded;\n    }\n\n    /**\n    * @dev List of all contracts registered (append-only)\n    */\n    string[] internal contracts;\n\n    /**\n    * @dev Mapping to keep track which contract names have been registered.\n    * Used to save gas when checking for redundant contract names\n    */\n    mapping(string=>bool) internal contractExists;\n\n    /**\n    * @dev Mapping to keep track of all version names for easch contract name\n    */\n    mapping(string=>string[]) internal contractVsVersionString;\n\n    /**\n    * @dev Mapping from contract names to version names to version structs\n    */\n    mapping(string=>mapping(string=>Version)) internal contractVsVersions;\n\n    /**\n    * @dev Mapping from contract names to the version names of their\n    * recommended versions\n    */\n    mapping(string=>string) internal contractVsRecommendedVersion;\n\n    modifier nonZeroAddress(address _address) {\n        require(\n            _address != address(0),\n            \"The provided address is the 0 address\"\n        );\n        _;\n    }\n\n    modifier contractRegistered(string contractName) {\n\n        require(contractExists[contractName], \"Contract does not exists\");\n        _;\n    }\n\n    modifier versionExists(string contractName, string versionName) {\n        require(\n            contractVsVersions[contractName][versionName].implementation != address(0),\n            \"Version does not exists for contract\"\n        );\n        _;\n    }\n\n    /**\n    * @dev Allows owner to register a new version of a contract\n    * @param contractName The contract name of the contract to be added\n    * @param versionName The name of the version to be added\n    * @param status Status of the version to be added\n    * @param implementation The address of the implementation of the version\n    */\n    function addVersion(\n        string contractName,\n        string versionName,\n        Status status,\n        address implementation\n    )\n        external\n        onlyOwner\n        nonZeroAddress(implementation)\n    {\n        // version name must not be the empty string\n        require(bytes(versionName).length>0, \"Empty string passed as version\");\n\n        // contract name must not be the empty string\n        require(\n            bytes(contractName).length>0,\n            \"Empty string passed as contract name\"\n        );\n\n        // implementation must be a contract\n        require(\n            Address.isContract(implementation),\n            \"Cannot set an implementation to a non-contract address\"\n        );\n\n        if (!contractExists[contractName]) {\n            contracts.push(contractName);\n            contractExists[contractName] = true;\n        }\n\n        // the version name should not already be registered for\n        // the given contract\n        require(\n            contractVsVersions[contractName][versionName].implementation == address(0),\n            \"Version already exists for contract\"\n        );\n        contractVsVersionString[contractName].push(versionName);\n\n        contractVsVersions[contractName][versionName] = Version({\n            versionName:versionName,\n            status:status,\n            bugLevel:BugLevel.NONE,\n            implementation:implementation,\n            dateAdded:block.timestamp\n        });\n\n        emit VersionAdded(contractName, versionName, implementation);\n    }\n\n    /**\n    * @dev Allows owner to update a contract version\n    * @param contractName Name of the contract\n    * @param versionName Version of the contract\n    * @param status Status of the contract\n    * @param bugLevel New bug level for the contract\n    */\n    function updateVersion(\n        string contractName,\n        string versionName,\n        Status status,\n        BugLevel bugLevel\n    )\n        external\n        onlyOwner\n        contractRegistered(contractName)\n        versionExists(contractName, versionName)\n    {\n\n        contractVsVersions[contractName][versionName].status = status;\n        contractVsVersions[contractName][versionName].bugLevel = bugLevel;\n\n        emit VersionUpdated(\n            contractName,\n            versionName,\n            status,\n            bugLevel\n        );\n    }\n\n    /**\n    * @dev Allows owner to set the recommended version\n    * @param contractName Name of the contract\n    * @param versionName Version of the contract\n    */\n    function markRecommendedVersion(\n        string contractName,\n        string versionName\n    )\n        external\n        onlyOwner\n        contractRegistered(contractName)\n        versionExists(contractName, versionName)\n    {\n        // set the version name as the recommended version\n        contractVsRecommendedVersion[contractName] = versionName;\n\n        emit VersionRecommended(contractName, versionName);\n    }\n\n    /**\n    * @dev Get recommended version for the contract.\n    * @return Details of recommended version\n    */\n    function getRecommendedVersion(\n        string contractName\n    )\n        external\n        view\n        contractRegistered(contractName)\n        returns (\n            string versionName,\n            Status status,\n            BugLevel bugLevel,\n            address implementation,\n            uint256 dateAdded\n        )\n    {\n        versionName = contractVsRecommendedVersion[contractName];\n\n        Version storage recommendedVersion = contractVsVersions[\n            contractName\n        ][\n            versionName\n        ];\n\n        status = recommendedVersion.status;\n        bugLevel = recommendedVersion.bugLevel;\n        implementation = recommendedVersion.implementation;\n        dateAdded = recommendedVersion.dateAdded;\n\n        return (\n            versionName,\n            status,\n            bugLevel,\n            implementation,\n            dateAdded\n        );\n    }\n\n    /**\n    * @dev Allows owner to remove a version from being recommended\n    * @param contractName Name of the contract\n    */\n    function removeRecommendedVersion(string contractName)\n        external\n        onlyOwner\n        contractRegistered(contractName)\n    {\n        // delete the recommended version name from the mapping\n        delete contractVsRecommendedVersion[contractName];\n\n        emit RecommendedVersionRemoved(contractName);\n    }\n\n    /**\n    * @dev Get total count of contracts registered\n    */\n    function getTotalContractCount() external view returns (uint256 count) {\n        count = contracts.length;\n        return count;\n    }\n\n    /**\n    * @dev Get total count of versions for the contract\n    * @param contractName Name of the contract\n    */\n    function getVersionCountForContract(string contractName)\n        external\n        view\n        returns (uint256 count)\n    {\n        count = contractVsVersionString[contractName].length;\n        return count;\n    }\n\n    /**\n    * @dev Returns the contract at a given index in the contracts array\n    * @param index The index to be searched for\n    */\n    function getContractAtIndex(uint256 index)\n        external\n        view\n        returns (string contractName)\n    {\n        contractName = contracts[index];\n        return contractName;\n    }\n\n    /**\n    * @dev Returns the version name of a contract at specific index in a\n    * contractVsVersionString[contractName] array\n    * @param contractName Name of the contract\n    * @param index The index to be searched for\n    */\n    function getVersionAtIndex(string contractName, uint256 index)\n        external\n        view\n        returns (string versionName)\n    {\n        versionName = contractVsVersionString[contractName][index];\n        return versionName;\n    }\n\n    /**\n    * @dev Returns the version details for the given contract and version name\n    * @param contractName Name of the contract\n    * @param versionName Version string for the contract\n    */\n    function getVersionDetails(string contractName, string versionName)\n        external\n        view\n        returns (\n            string versionString,\n            Status status,\n            BugLevel bugLevel,\n            address implementation,\n            uint256 dateAdded\n        )\n    {\n        Version storage v = contractVsVersions[contractName][versionName];\n\n        versionString = v.versionName;\n        status = v.status;\n        bugLevel = v.bugLevel;\n        implementation = v.implementation;\n        dateAdded = v.dateAdded;\n\n        return (\n            versionString,\n            status,\n            bugLevel,\n            implementation,\n            dateAdded\n        );\n    }\n}\n",
  "sourcePath": "/Users/austin/Documents/dev/ob/smart-contracts/contracts/registry/ContractManager.sol",
  "compiler": {
    "name": "solc",
    "version": "0.4.24+commit.e67f0147.Emscripten.clang"
  },
  "schemaVersion": "2.0.1",
  "updatedAt": "2019-01-08T22:09:06.804Z"
}