{
  "contractName": "ContractManager",
  "abi": [
    {
      "constant": false,
      "inputs": [],
      "name": "renounceOwnership",
      "outputs": [],
      "payable": false,
      "stateMutability": "nonpayable",
      "type": "function"
    },
    {
      "constant": true,
      "inputs": [],
      "name": "owner",
      "outputs": [
        {
          "name": "",
          "type": "address"
        }
      ],
      "payable": false,
      "stateMutability": "view",
      "type": "function"
    },
    {
      "constant": true,
      "inputs": [],
      "name": "isOwner",
      "outputs": [
        {
          "name": "",
          "type": "bool"
        }
      ],
      "payable": false,
      "stateMutability": "view",
      "type": "function"
    },
    {
      "constant": false,
      "inputs": [
        {
          "name": "newOwner",
          "type": "address"
        }
      ],
      "name": "transferOwnership",
      "outputs": [],
      "payable": false,
      "stateMutability": "nonpayable",
      "type": "function"
    },
    {
      "anonymous": false,
      "inputs": [
        {
          "indexed": false,
          "name": "contractName",
          "type": "string"
        },
        {
          "indexed": false,
          "name": "versionName",
          "type": "string"
        },
        {
          "indexed": true,
          "name": "implementation",
          "type": "address"
        }
      ],
      "name": "VersionAdded",
      "type": "event"
    },
    {
      "anonymous": false,
      "inputs": [
        {
          "indexed": false,
          "name": "contractName",
          "type": "string"
        },
        {
          "indexed": false,
          "name": "versionName",
          "type": "string"
        },
        {
          "indexed": false,
          "name": "status",
          "type": "uint8"
        }
      ],
      "name": "StatusChanged",
      "type": "event"
    },
    {
      "anonymous": false,
      "inputs": [
        {
          "indexed": false,
          "name": "contractName",
          "type": "string"
        },
        {
          "indexed": false,
          "name": "versionName",
          "type": "string"
        },
        {
          "indexed": false,
          "name": "bugLevel",
          "type": "uint8"
        }
      ],
      "name": "BugLevelChanged",
      "type": "event"
    },
    {
      "anonymous": false,
      "inputs": [
        {
          "indexed": false,
          "name": "contractName",
          "type": "string"
        },
        {
          "indexed": false,
          "name": "versionName",
          "type": "string"
        }
      ],
      "name": "VersionAudited",
      "type": "event"
    },
    {
      "anonymous": false,
      "inputs": [
        {
          "indexed": false,
          "name": "contractName",
          "type": "string"
        },
        {
          "indexed": false,
          "name": "versionName",
          "type": "string"
        }
      ],
      "name": "VersionRecommended",
      "type": "event"
    },
    {
      "anonymous": false,
      "inputs": [
        {
          "indexed": false,
          "name": "contractName",
          "type": "string"
        }
      ],
      "name": "RecommendedVersionRemoved",
      "type": "event"
    },
    {
      "anonymous": false,
      "inputs": [
        {
          "indexed": true,
          "name": "previousOwner",
          "type": "address"
        },
        {
          "indexed": true,
          "name": "newOwner",
          "type": "address"
        }
      ],
      "name": "OwnershipTransferred",
      "type": "event"
    },
    {
      "constant": false,
      "inputs": [
        {
          "name": "contractName",
          "type": "string"
        },
        {
          "name": "versionName",
          "type": "string"
        },
        {
          "name": "status",
          "type": "uint8"
        },
        {
          "name": "implementation",
          "type": "address"
        }
      ],
      "name": "addVersion",
      "outputs": [],
      "payable": false,
      "stateMutability": "nonpayable",
      "type": "function"
    },
    {
      "constant": false,
      "inputs": [
        {
          "name": "contractName",
          "type": "string"
        },
        {
          "name": "versionName",
          "type": "string"
        },
        {
          "name": "status",
          "type": "uint8"
        }
      ],
      "name": "changeStatus",
      "outputs": [],
      "payable": false,
      "stateMutability": "nonpayable",
      "type": "function"
    },
    {
      "constant": false,
      "inputs": [
        {
          "name": "contractName",
          "type": "string"
        },
        {
          "name": "versionName",
          "type": "string"
        },
        {
          "name": "bugLevel",
          "type": "uint8"
        }
      ],
      "name": "changeBugLevel",
      "outputs": [],
      "payable": false,
      "stateMutability": "nonpayable",
      "type": "function"
    },
    {
      "constant": false,
      "inputs": [
        {
          "name": "contractName",
          "type": "string"
        },
        {
          "name": "versionName",
          "type": "string"
        }
      ],
      "name": "markVersionAudited",
      "outputs": [],
      "payable": false,
      "stateMutability": "nonpayable",
      "type": "function"
    },
    {
      "constant": false,
      "inputs": [
        {
          "name": "contractName",
          "type": "string"
        },
        {
          "name": "versionName",
          "type": "string"
        }
      ],
      "name": "markRecommendedVersion",
      "outputs": [],
      "payable": false,
      "stateMutability": "nonpayable",
      "type": "function"
    },
    {
      "constant": true,
      "inputs": [
        {
          "name": "contractName",
          "type": "string"
        }
      ],
      "name": "getRecommendedVersion",
      "outputs": [
        {
          "name": "versionName",
          "type": "string"
        },
        {
          "name": "status",
          "type": "uint8"
        },
        {
          "name": "bugLevel",
          "type": "uint8"
        },
        {
          "name": "implementation",
          "type": "address"
        },
        {
          "name": "audited",
          "type": "bool"
        },
        {
          "name": "dateAdded",
          "type": "uint256"
        }
      ],
      "payable": false,
      "stateMutability": "view",
      "type": "function"
    },
    {
      "constant": true,
      "inputs": [],
      "name": "getTotalContractCount",
      "outputs": [
        {
          "name": "count",
          "type": "uint256"
        }
      ],
      "payable": false,
      "stateMutability": "view",
      "type": "function"
    },
    {
      "constant": true,
      "inputs": [
        {
          "name": "contractName",
          "type": "string"
        }
      ],
      "name": "getVersionCountForContract",
      "outputs": [
        {
          "name": "count",
          "type": "uint256"
        }
      ],
      "payable": false,
      "stateMutability": "view",
      "type": "function"
    },
    {
      "constant": true,
      "inputs": [
        {
          "name": "index",
          "type": "uint256"
        }
      ],
      "name": "getContractAtIndex",
      "outputs": [
        {
          "name": "contractName",
          "type": "string"
        }
      ],
      "payable": false,
      "stateMutability": "view",
      "type": "function"
    },
    {
      "constant": true,
      "inputs": [
        {
          "name": "contractName",
          "type": "string"
        },
        {
          "name": "index",
          "type": "uint256"
        }
      ],
      "name": "getVersionAtIndex",
      "outputs": [
        {
          "name": "versionName",
          "type": "string"
        }
      ],
      "payable": false,
      "stateMutability": "view",
      "type": "function"
    },
    {
      "constant": true,
      "inputs": [
        {
          "name": "contractName",
          "type": "string"
        },
        {
          "name": "versionName",
          "type": "string"
        }
      ],
      "name": "getVersionDetails",
      "outputs": [
        {
          "name": "versionString",
          "type": "string"
        },
        {
          "name": "status",
          "type": "uint8"
        },
        {
          "name": "bugLevel",
          "type": "uint8"
        },
        {
          "name": "implementation",
          "type": "address"
        },
        {
          "name": "audited",
          "type": "bool"
        },
        {
          "name": "dateAdded",
          "type": "uint256"
        }
      ],
      "payable": false,
      "stateMutability": "view",
      "type": "function"
    },
    {
      "constant": false,
      "inputs": [
        {
          "name": "contractName",
          "type": "string"
        }
      ],
      "name": "removeRecommendedVersion",
      "outputs": [],
      "payable": false,
      "stateMutability": "nonpayable",
      "type": "function"
    }
  ],
  "bytecode": "0x6080604052336000806101000a81548173ffffffffffffffffffffffffffffffffffffffff021916908373ffffffffffffffffffffffffffffffffffffffff1602179055506000809054906101000a900473ffffffffffffffffffffffffffffffffffffffff1673ffffffffffffffffffffffffffffffffffffffff16600073ffffffffffffffffffffffffffffffffffffffff167f8be0079c531659141344cd1fd0a4f28419497f9722a3daafe3b4186f6b6457e060405160405180910390a361346a806100cf6000396000f3006080604052600436106100e6576000357c0100000000000000000000000000000000000000000000000000000000900463ffffffff1680633de5311a146100eb578063437fe3a31461016b5780634890b0c5146101be578063568d1ee81461021e578063715018a61461027e578063751f592b146102955780637e27634e146102c05780638ad030c1146103e35780638da5cb5b1461051e5780638f32d59b146105755780639b534f18146105a4578063acd820a81461064a578063af2c7fa3146106b3578063ca2e7cf314610771578063f2fde38b146107c4578063ff93dab414610807575b600080fd5b3480156100f757600080fd5b50610169600480360381019080803590602001908201803590602001919091929391929390803590602001908201803590602001919091929391929390803560ff169060200190929190803573ffffffffffffffffffffffffffffffffffffffff169060200190929190505050610856565b005b34801561017757600080fd5b506101bc600480360381019080803590602001908201803590602001919091929391929390803590602001908201803590602001919091929391929390505050610f96565b005b3480156101ca57600080fd5b5061021c600480360381019080803590602001908201803590602001919091929391929390803590602001908201803590602001919091929391929390803560ff16906020019092919050505061149f565b005b34801561022a57600080fd5b5061027c600480360381019080803590602001908201803590602001919091929391929390803590602001908201803590602001919091929391929390803560ff169060200190929190505050611aeb565b005b34801561028a57600080fd5b50610293612138565b005b3480156102a157600080fd5b506102aa61220a565b6040518082815260200191505060405180910390f35b3480156102cc57600080fd5b506102f9600480360381019080803590602001908201803590602001919091929391929390505050612217565b604051808060200187600381111561030d57fe5b60ff16815260200186600481111561032157fe5b60ff1681526020018573ffffffffffffffffffffffffffffffffffffffff1673ffffffffffffffffffffffffffffffffffffffff16815260200184151515158152602001838152602001828103825288818151815260200191508051906020019080838360005b838110156103a3578082015181840152602081019050610388565b50505050905090810190601f1680156103d05780820380516001836020036101000a031916815260200191505b5097505050505050505060405180910390f35b3480156103ef57600080fd5b50610434600480360381019080803590602001908201803590602001919091929391929390803590602001908201803590602001919091929391929390505050612508565b604051808060200187600381111561044857fe5b60ff16815260200186600481111561045c57fe5b60ff1681526020018573ffffffffffffffffffffffffffffffffffffffff1673ffffffffffffffffffffffffffffffffffffffff16815260200184151515158152602001838152602001828103825288818151815260200191508051906020019080838360005b838110156104de5780820151818401526020810190506104c3565b50505050905090810190601f16801561050b5780820380516001836020036101000a031916815260200191505b5097505050505050505060405180910390f35b34801561052a57600080fd5b50610533612674565b604051808273ffffffffffffffffffffffffffffffffffffffff1673ffffffffffffffffffffffffffffffffffffffff16815260200191505060405180910390f35b34801561058157600080fd5b5061058a61269d565b604051808215151515815260200191505060405180910390f35b3480156105b057600080fd5b506105cf600480360381019080803590602001909291905050506126f4565b6040518080602001828103825283818151815260200191508051906020019080838360005b8381101561060f5780820151818401526020810190506105f4565b50505050905090810190601f16801561063c5780820380516001836020036101000a031916815260200191505b509250505060405180910390f35b34801561065657600080fd5b506106b1600480360381019080803590602001908201803590602001908080601f01602080910402602001604051908101604052809392919081815260200183838082843782019150505050505091929192905050506127af565b005b3480156106bf57600080fd5b506106f6600480360381019080803590602001908201803590602001919091929391929390803590602001909291905050506129c7565b6040518080602001828103825283818151815260200191508051906020019080838360005b8381101561073657808201518184015260208101905061071b565b50505050905090810190601f1680156107635780820380516001836020036101000a031916815260200191505b509250505060405180910390f35b34801561077d57600080fd5b506107c2600480360381019080803590602001908201803590602001919091929391929390803590602001908201803590602001919091929391929390505050612aa7565b005b3480156107d057600080fd5b50610805600480360381019080803573ffffffffffffffffffffffffffffffffffffffff169060200190929190505050613172565b005b34801561081357600080fd5b50610840600480360381019080803590602001908201803590602001919091929391929390505050613191565b6040518082815260200191505060405180910390f35b61085e61269d565b151561086957600080fd5b80600073ffffffffffffffffffffffffffffffffffffffff168173ffffffffffffffffffffffffffffffffffffffff1614151515610935576040517f08c379a00000000000000000000000000000000000000000000000000000000081526004018080602001828103825260238152602001807f5468652070726f7669646564206164647265737320697320612030206164647281526020017f657373000000000000000000000000000000000000000000000000000000000081525060400191505060405180910390fd5b6000858590501115156109b0576040517f08c379a000000000000000000000000000000000000000000000000000000000815260040180806020018281038252601e8152602001807f456d70747920737472696e67207061737365642061732076657273696f6e000081525060200191505060405180910390fd5b600087879050111515610a51576040517f08c379a00000000000000000000000000000000000000000000000000000000081526004018080602001828103825260248152602001807f456d70747920737472696e672070617373656420617320636f6e74726163742081526020017f6e616d650000000000000000000000000000000000000000000000000000000081525060400191505060405180910390fd5b610a5a826131c4565b1515610af4576040517f08c379a00000000000000000000000000000000000000000000000000000000081526004018080602001828103825260358152602001807f43616e6e6f7420736574206120696d706c656d656e746174696f6e20746f206181526020017f206e6f6e2d636f6e74726163742061646472657373000000000000000000000081525060400191505060405180910390fd5b6002878760405180838380828437820191505092505050908152602001604051809103902060009054906101000a900460ff161515610bae576001878790918060018154018082558091505090600182039060005260206000200160009091929390919293909192909192509190610b6d9291906132d1565b505060016002888860405180838380828437820191505092505050908152602001604051809103902060006101000a81548160ff0219169083151502179055505b600073ffffffffffffffffffffffffffffffffffffffff1660048888604051808383808284378201915050925050509081526020016040518091039020868660405180838380828437820191505092505050908152602001604051809103902060010160029054906101000a900473ffffffffffffffffffffffffffffffffffffffff1673ffffffffffffffffffffffffffffffffffffffff16141515610ce3576040517f08c379a00000000000000000000000000000000000000000000000000000000081526004018080602001828103825260238152602001807f56657273696f6e20616c72656164792065786973747320666f7220636f6e747281526020017f616374000000000000000000000000000000000000000000000000000000000081525060400191505060405180910390fd5b60038787604051808383808284378201915050925050509081526020016040518091039020858590918060018154018082558091505090600182039060005260206000200160009091929390919293909192909192509190610d469291906132d1565b505060c06040519081016040528086868080601f0160208091040260200160405190810160405280939291908181526020018383808284378201915050505050508152602001846003811115610d9857fe5b815260200160006004811115610daa57fe5b81526020018373ffffffffffffffffffffffffffffffffffffffff168152602001600015158152602001428152506004888860405180838380828437820191505092505050908152602001604051809103902086866040518083838082843782019150509250505090815260200160405180910390206000820151816000019080519060200190610e3c929190613351565b5060208201518160010160006101000a81548160ff02191690836003811115610e6157fe5b021790555060408201518160010160016101000a81548160ff02191690836004811115610e8a57fe5b021790555060608201518160010160026101000a81548173ffffffffffffffffffffffffffffffffffffffff021916908373ffffffffffffffffffffffffffffffffffffffff16021790555060808201518160010160166101000a81548160ff02191690831515021790555060a082015181600201559050508173ffffffffffffffffffffffffffffffffffffffff167f337b109e3f497728f2bdd27545c9ed1cb52ed4a4103cc94da88b868879c982e2888888886040518080602001806020018381038352878782818152602001925080828437820191505083810382528585828181526020019250808284378201915050965050505050505060405180910390a250505050505050565b83838080601f0160208091040260200160405190810160405280939291908181526020018383808284378201915050505050506002816040518082805190602001908083835b6020831015156110015780518252602082019150602081019050602083039250610fdc565b6001836020036101000a038019825116818451168082178552505050505050905001915050908152602001604051809103902060009054906101000a900460ff1615156110b6576040517f08c379a00000000000000000000000000000000000000000000000000000000081526004018080602001828103825260188152602001807f436f6e747261637420646f6573206e6f7420657869737473000000000000000081525060200191505060405180910390fd5b84848080601f01602080910402602001604051908101604052809392919081815260200183838082843782019150505050505083838080601f016020809104026020016040519081016040528093929190818152602001838380828437820191505050505050600073ffffffffffffffffffffffffffffffffffffffff166004836040518082805190602001908083835b60208310151561116c5780518252602082019150602081019050602083039250611147565b6001836020036101000a0380198251168184511680821785525050505050509050019150509081526020016040518091039020826040518082805190602001908083835b6020831015156111d557805182526020820191506020810190506020830392506111b0565b6001836020036101000a038019825116818451168082178552505050505050905001915050908152602001604051809103902060010160029054906101000a900473ffffffffffffffffffffffffffffffffffffffff1673ffffffffffffffffffffffffffffffffffffffff16141515156112de576040517f08c379a00000000000000000000000000000000000000000000000000000000081526004018080602001828103825260248152602001807f56657273696f6e20646f6573206e6f742065786973747320666f7220636f6e7481526020017f726163740000000000000000000000000000000000000000000000000000000081525060400191505060405180910390fd5b6112e661269d565b15156112f157600080fd5b60048787604051808383808284378201915050925050509081526020016040518091039020858560405180838380828437820191505092505050908152602001604051809103902060010160169054906101000a900460ff161515156113bf576040517f08c379a000000000000000000000000000000000000000000000000000000000815260040180806020018281038252601a8152602001807f56657273696f6e20697320616c7265616479206175646974656400000000000081525060200191505060405180910390fd5b600160048888604051808383808284378201915050925050509081526020016040518091039020868660405180838380828437820191505092505050908152602001604051809103902060010160166101000a81548160ff0219169083151502179055507fdd2996df4158c05ae76d843c929d03eadde75cf3580d1d2f996375ea6cbe9625878787876040518080602001806020018381038352878782818152602001925080828437820191505083810382528585828181526020019250808284378201915050965050505050505060405180910390a150505050505050565b60006114a961269d565b15156114b457600080fd5b85858080601f0160208091040260200160405190810160405280939291908181526020018383808284378201915050505050506002816040518082805190602001908083835b60208310151561151f57805182526020820191506020810190506020830392506114fa565b6001836020036101000a038019825116818451168082178552505050505050905001915050908152602001604051809103902060009054906101000a900460ff1615156115d4576040517f08c379a00000000000000000000000000000000000000000000000000000000081526004018080602001828103825260188152602001807f436f6e747261637420646f6573206e6f7420657869737473000000000000000081525060200191505060405180910390fd5b86868080601f01602080910402602001604051908101604052809392919081815260200183838082843782019150505050505085858080601f016020809104026020016040519081016040528093929190818152602001838380828437820191505050505050600073ffffffffffffffffffffffffffffffffffffffff166004836040518082805190602001908083835b60208310151561168a5780518252602082019150602081019050602083039250611665565b6001836020036101000a0380198251168184511680821785525050505050509050019150509081526020016040518091039020826040518082805190602001908083835b6020831015156116f357805182526020820191506020810190506020830392506116ce565b6001836020036101000a038019825116818451168082178552505050505050905001915050908152602001604051809103902060010160029054906101000a900473ffffffffffffffffffffffffffffffffffffffff1673ffffffffffffffffffffffffffffffffffffffff16141515156117fc576040517f08c379a00000000000000000000000000000000000000000000000000000000081526004018080602001828103825260248152602001807f56657273696f6e20646f6573206e6f742065786973747320666f7220636f6e7481526020017f726163740000000000000000000000000000000000000000000000000000000081525060400191505060405180910390fd5b6005898960405180838380828437820191505092505050908152602001604051809103902093508686604051602001808383808284378201915050925050506040516020818303038152906040526040518082805190602001908083835b60208310151561187f578051825260208201915060208101905060208303925061185a565b6001836020036101000a03801982511681845116808217855250505050505090500191505060405180910390206000191684604051602001808280546001816001161561010002031660029004801561190f5780601f106118ed57610100808354040283529182019161190f565b820191906000526020600020905b8154815290600101906020018083116118fb575b50509150506040516020818303038152906040526040518082805190602001908083835b6020831015156119585780518252602082019150602081019050602083039250611933565b6001836020036101000a0380198251168184511680821785525050505050509050019150506040518091039020600019161480156119ab575060038081111561199d57fe5b8560038111156119a957fe5b145b156119ec576119eb89898080601f0160208091040260200160405190810160405280939291908181526020018383808284378201915050505050506127af565b5b8460048a8a604051808383808284378201915050925050509081526020016040518091039020888860405180838380828437820191505092505050908152602001604051809103902060010160006101000a81548160ff02191690836003811115611a5357fe5b02179055507ea1d2d212fdb196f10c2b940b5f032473f79d8fcf0739ae900d5767500213878989898989604051808060200180602001846003811115611a9557fe5b60ff168152602001838103835288888281815260200192508082843782019150508381038252868682818152602001925080828437820191505097505050505050505060405180910390a1505050505050505050565b6000611af561269d565b1515611b0057600080fd5b85858080601f0160208091040260200160405190810160405280939291908181526020018383808284378201915050505050506002816040518082805190602001908083835b602083101515611b6b5780518252602082019150602081019050602083039250611b46565b6001836020036101000a038019825116818451168082178552505050505050905001915050908152602001604051809103902060009054906101000a900460ff161515611c20576040517f08c379a00000000000000000000000000000000000000000000000000000000081526004018080602001828103825260188152602001807f436f6e747261637420646f6573206e6f7420657869737473000000000000000081525060200191505060405180910390fd5b86868080601f01602080910402602001604051908101604052809392919081815260200183838082843782019150505050505085858080601f016020809104026020016040519081016040528093929190818152602001838380828437820191505050505050600073ffffffffffffffffffffffffffffffffffffffff166004836040518082805190602001908083835b602083101515611cd65780518252602082019150602081019050602083039250611cb1565b6001836020036101000a0380198251168184511680821785525050505050509050019150509081526020016040518091039020826040518082805190602001908083835b602083101515611d3f5780518252602082019150602081019050602083039250611d1a565b6001836020036101000a038019825116818451168082178552505050505050905001915050908152602001604051809103902060010160029054906101000a900473ffffffffffffffffffffffffffffffffffffffff1673ffffffffffffffffffffffffffffffffffffffff1614151515611e48576040517f08c379a00000000000000000000000000000000000000000000000000000000081526004018080602001828103825260248152602001807f56657273696f6e20646f6573206e6f742065786973747320666f7220636f6e7481526020017f726163740000000000000000000000000000000000000000000000000000000081525060400191505060405180910390fd5b6005898960405180838380828437820191505092505050908152602001604051809103902093508686604051602001808383808284378201915050925050506040516020818303038152906040526040518082805190602001908083835b602083101515611ecb5780518252602082019150602081019050602083039250611ea6565b6001836020036101000a038019825116818451168082178552505050505050905001915050604051809103902060001916846040516020018082805460018160011615610100020316600290048015611f5b5780601f10611f39576101008083540402835291820191611f5b565b820191906000526020600020905b815481529060010190602001808311611f47575b50509150506040516020818303038152906040526040518082805190602001908083835b602083101515611fa45780518252602082019150602081019050602083039250611f7f565b6001836020036101000a038019825116818451168082178552505050505050905001915050604051809103902060001916148015611ff75750600480811115611fe957fe5b856004811115611ff557fe5b145b156120385761203789898080601f0160208091040260200160405190810160405280939291908181526020018383808284378201915050505050506127af565b5b8460048a8a604051808383808284378201915050925050509081526020016040518091039020888860405180838380828437820191505092505050908152602001604051809103902060010160016101000a81548160ff0219169083600481111561209f57fe5b02179055507f92d0e6a4dfcd933ffb179b251aa0d734eb16556c0813246989fddaf08a7d009d89898989896040518080602001806020018460048111156120e257fe5b60ff168152602001838103835288888281815260200192508082843782019150508381038252868682818152602001925080828437820191505097505050505050505060405180910390a1505050505050505050565b61214061269d565b151561214b57600080fd5b600073ffffffffffffffffffffffffffffffffffffffff166000809054906101000a900473ffffffffffffffffffffffffffffffffffffffff1673ffffffffffffffffffffffffffffffffffffffff167f8be0079c531659141344cd1fd0a4f28419497f9722a3daafe3b4186f6b6457e060405160405180910390a360008060006101000a81548173ffffffffffffffffffffffffffffffffffffffff021916908373ffffffffffffffffffffffffffffffffffffffff160217905550565b6000600180549050905090565b606060008060008060008088888080601f0160208091040260200160405190810160405280939291908181526020018383808284378201915050505050506002816040518082805190602001908083835b60208310151561228d5780518252602082019150602081019050602083039250612268565b6001836020036101000a038019825116818451168082178552505050505050905001915050908152602001604051809103902060009054906101000a900460ff161515612342576040517f08c379a00000000000000000000000000000000000000000000000000000000081526004018080602001828103825260188152602001807f436f6e747261637420646f6573206e6f7420657869737473000000000000000081525060200191505060405180910390fd5b60058a8a6040518083838082843782019150509250505090815260200160405180910390208054600181600116156101000203166002900480601f0160208091040260200160405190810160405280929190818152602001828054600181600116156101000203166002900480156123fb5780601f106123d0576101008083540402835291602001916123fb565b820191906000526020600020905b8154815290600101906020018083116123de57829003601f168201915b5050505050975060048a8a604051808383808284378201915050925050509081526020016040518091039020886040518082805190602001908083835b60208310151561245d5780518252602082019150602081019050602083039250612438565b6001836020036101000a038019825116818451168082178552505050505050905001915050908152602001604051809103902091508160010160009054906101000a900460ff1696508160010160019054906101000a900460ff1695508160010160029054906101000a900473ffffffffffffffffffffffffffffffffffffffff1694508160010160169054906101000a900460ff1693508160020154925050509295509295509295565b606060008060008060008060048b8b60405180838380828437820191505092505050908152602001604051809103902089896040518083838082843782019150509250505090815260200160405180910390209050806000018054600181600116156101000203166002900480601f0160208091040260200160405190810160405280929190818152602001828054600181600116156101000203166002900480156125f55780601f106125ca576101008083540402835291602001916125f5565b820191906000526020600020905b8154815290600101906020018083116125d857829003601f168201915b505050505096508060010160009054906101000a900460ff1695508060010160019054906101000a900460ff1694508060010160029054906101000a900473ffffffffffffffffffffffffffffffffffffffff1693508060010160169054906101000a900460ff16925080600201549150509499939850945094509450565b60008060009054906101000a900473ffffffffffffffffffffffffffffffffffffffff16905090565b60008060009054906101000a900473ffffffffffffffffffffffffffffffffffffffff1673ffffffffffffffffffffffffffffffffffffffff163373ffffffffffffffffffffffffffffffffffffffff1614905090565b606060018281548110151561270557fe5b906000526020600020018054600181600116156101000203166002900480601f0160208091040260200160405190810160405280929190818152602001828054600181600116156101000203166002900480156127a35780601f10612778576101008083540402835291602001916127a3565b820191906000526020600020905b81548152906001019060200180831161278657829003601f168201915b50505050509050919050565b6127b761269d565b15156127c257600080fd5b806002816040518082805190602001908083835b6020831015156127fb57805182526020820191506020810190506020830392506127d6565b6001836020036101000a038019825116818451168082178552505050505050905001915050908152602001604051809103902060009054906101000a900460ff1615156128b0576040517f08c379a00000000000000000000000000000000000000000000000000000000081526004018080602001828103825260188152602001807f436f6e747261637420646f6573206e6f7420657869737473000000000000000081525060200191505060405180910390fd5b6005826040518082805190602001908083835b6020831015156128e857805182526020820191506020810190506020830392506128c3565b6001836020036101000a0380198251168184511680821785525050505050509050019150509081526020016040518091039020600061292791906133d1565b7f07b20feb74e0118ee3c73d4cb8d0eb4da169604c68aa233293b094cedcd225f2826040518080602001828103825283818151815260200191508051906020019080838360005b8381101561298957808201518184015260208101905061296e565b50505050905090810190601f1680156129b65780820380516001836020036101000a031916815260200191505b509250505060405180910390a15050565b606060038484604051808383808284378201915050925050509081526020016040518091039020828154811015156129fb57fe5b906000526020600020018054600181600116156101000203166002900480601f016020809104026020016040519081016040528092919081815260200182805460018160011615610100020316600290048015612a995780601f10612a6e57610100808354040283529160200191612a99565b820191906000526020600020905b815481529060010190602001808311612a7c57829003601f168201915b505050505090509392505050565b612aaf61269d565b1515612aba57600080fd5b83838080601f0160208091040260200160405190810160405280939291908181526020018383808284378201915050505050506002816040518082805190602001908083835b602083101515612b255780518252602082019150602081019050602083039250612b00565b6001836020036101000a038019825116818451168082178552505050505050905001915050908152602001604051809103902060009054906101000a900460ff161515612bda576040517f08c379a00000000000000000000000000000000000000000000000000000000081526004018080602001828103825260188152602001807f436f6e747261637420646f6573206e6f7420657869737473000000000000000081525060200191505060405180910390fd5b84848080601f01602080910402602001604051908101604052809392919081815260200183838082843782019150505050505083838080601f016020809104026020016040519081016040528093929190818152602001838380828437820191505050505050600073ffffffffffffffffffffffffffffffffffffffff166004836040518082805190602001908083835b602083101515612c905780518252602082019150602081019050602083039250612c6b565b6001836020036101000a0380198251168184511680821785525050505050509050019150509081526020016040518091039020826040518082805190602001908083835b602083101515612cf95780518252602082019150602081019050602083039250612cd4565b6001836020036101000a038019825116818451168082178552505050505050905001915050908152602001604051809103902060010160029054906101000a900473ffffffffffffffffffffffffffffffffffffffff1673ffffffffffffffffffffffffffffffffffffffff1614151515612e02576040517f08c379a00000000000000000000000000000000000000000000000000000000081526004018080602001828103825260248152602001807f56657273696f6e20646f6573206e6f742065786973747320666f7220636f6e7481526020017f726163740000000000000000000000000000000000000000000000000000000081525060400191505060405180910390fd5b60026003811115612e0f57fe5b60048888604051808383808284378201915050925050509081526020016040518091039020868660405180838380828437820191505092505050908152602001604051809103902060010160009054906101000a900460ff166003811115612e7357fe5b141515612ee8576040517f08c379a000000000000000000000000000000000000000000000000000000000815260040180806020018281038252601f8152602001807f56657273696f6e206e6f7420696e2070726f64756374696f6e2073746174650081525060200191505060405180910390fd5b60048787604051808383808284378201915050925050509081526020016040518091039020858560405180838380828437820191505092505050908152602001604051809103902060010160169054906101000a900460ff161515612fb5576040517f08c379a00000000000000000000000000000000000000000000000000000000081526004018080602001828103825260168152602001807f56657273696f6e206973206e6f7420617564697465640000000000000000000081525060200191505060405180910390fd5b60036004811115612fc257fe5b60048888604051808383808284378201915050925050509081526020016040518091039020868660405180838380828437820191505092505050908152602001604051809103902060010160019054906101000a900460ff16600481111561302657fe5b1015156130c1576040517f08c379a00000000000000000000000000000000000000000000000000000000081526004018080602001828103825260288152602001807f56657273696f6e20627567206c6576656c206973206e6f74206c6f776572207481526020017f68616e204849474800000000000000000000000000000000000000000000000081525060400191505060405180910390fd5b84846005898960405180838380828437820191505092505050908152602001604051809103902091906130f59291906132d1565b507fb318550bf93edf51de4bae84db3deabd2a866cc407435a72317ca2503e2a07a6878787876040518080602001806020018381038352878782818152602001925080828437820191505083810382528585828181526020019250808284378201915050965050505050505060405180910390a150505050505050565b61317a61269d565b151561318557600080fd5b61318e816131d7565b50565b60006003838360405180838380828437820191505092505050908152602001604051809103902080549050905092915050565b600080823b905060008111915050919050565b600073ffffffffffffffffffffffffffffffffffffffff168173ffffffffffffffffffffffffffffffffffffffff161415151561321357600080fd5b8073ffffffffffffffffffffffffffffffffffffffff166000809054906101000a900473ffffffffffffffffffffffffffffffffffffffff1673ffffffffffffffffffffffffffffffffffffffff167f8be0079c531659141344cd1fd0a4f28419497f9722a3daafe3b4186f6b6457e060405160405180910390a3806000806101000a81548173ffffffffffffffffffffffffffffffffffffffff021916908373ffffffffffffffffffffffffffffffffffffffff16021790555050565b828054600181600116156101000203166002900490600052602060002090601f016020900481019282601f1061331257803560ff1916838001178555613340565b82800160010185558215613340579182015b8281111561333f578235825591602001919060010190613324565b5b50905061334d9190613419565b5090565b828054600181600116156101000203166002900490600052602060002090601f016020900481019282601f1061339257805160ff19168380011785556133c0565b828001600101855582156133c0579182015b828111156133bf5782518255916020019190600101906133a4565b5b5090506133cd9190613419565b5090565b50805460018160011615610100020316600290046000825580601f106133f75750613416565b601f0160209004906000526020600020908101906134159190613419565b5b50565b61343b91905b8082111561343757600081600090555060010161341f565b5090565b905600a165627a7a72305820ee552e375d42b5a54333ddaa3c7fa1bdb33de87670e5f5839e5d1f6a23b0d7a80029",
  "source": "pragma solidity 0.4.24;\n\nimport \"openzeppelin-solidity/contracts/ownership/Ownable.sol\";\nimport \"openzeppelin-solidity/contracts/utils/Address.sol\";\n\n\n/**\n* @dev Contract Version Manager for non-upgradeable contracts\n*/\ncontract ContractManager is Ownable {\n\n    event VersionAdded(\n        string contractName,\n        string versionName,\n        address indexed implementation\n    );\n\n    event StatusChanged(\n        string contractName,\n        string versionName,\n        Status status\n    );\n\n    event BugLevelChanged(\n        string contractName,\n        string versionName,\n        BugLevel bugLevel\n    );\n\n    event VersionAudited(string contractName, string versionName);\n\n    event VersionRecommended(string contractName, string versionName);\n\n    event RecommendedVersionRemoved(string contractName);\n\n    /**\n    * @dev SIGNIFIES THE STATUS OF THE VERSION\n    */\n    enum Status {BETA, RC, PRODUCTION, DEPRECATED}\n\n    /**\n    * @dev SIGNIFIES THE LEVEL OF BUG FOUND WITHIN THE VERSION\n    */\n    enum BugLevel{NONE, LOW, MEDIUM, HIGH, CRITICAL}\n\n    /**\n    * @dev The structure of the each version to be followed\n    */\n    struct Version {\n        // the version number string ex. v1.0\n        string versionName;\n        // Whether the version is BETA, RC OR PRODUCTION\n        Status status;\n        BugLevel bugLevel;\n        // The address of the version contract being referenced\n        address implementation;\n        // The boolean to mark whether the contract was audited or not\n        bool audited;\n        // The date when this version was registered with the contract\n        uint256 dateAdded;\n    }\n\n    /**\n    * @dev List of all contracts registered\n    */\n    string[] internal contracts;\n\n    /**\n    * @dev To keep track which contracts has been registered so far to save gas while check redundant contracts\n    */\n    mapping(string=>bool) internal contractExists;\n\n    /**\n    * @dev Kepp track of all contract version\n    */\n    mapping(string=>string[]) internal contractVsVersionString;\n\n\n    /**\n    * @dev Mapping of contract name and each of it's different versions\n    */\n    mapping(string=>mapping(string=>Version)) internal  contractVsVersions;\n\n    /**\n    * @dev Mapping between contract name and it's recommended version\n    */\n\n    mapping(string=>string) internal contractVsRecommendedVersion;\n\n\n    modifier nonZeroAddress(address _address){\n        require(_address != address(0), \"The provided address is a 0 address\");\n        _;\n    }\n\n    modifier contractRegistered(string contractName) {\n\n        require(contractExists[contractName], \"Contract does not exists\");\n        _;\n    }\n\n    modifier versionExists(string contractName, string versionName) {\n        require(\n            contractVsVersions[contractName][versionName].implementation != address(0), \n            \"Version does not exists for contract\"\n        );\n        _;\n    }\n\n    /**\n    * @dev Allow owner to add new version for the contract\n    * @param contractName The contract name for which the version is to be added\n    * @param versionName The version string\n    * @param status Status of the version\n    * @param implementation The address of the version implementation\n    */\n    function addVersion(\n        string contractName,\n        string versionName,\n        Status status,\n        address implementation\n    )\n        external\n        onlyOwner\n        nonZeroAddress(implementation)\n    {\n\n        //can't pass empty string as version\n        require(bytes(versionName).length>0, \"Empty string passed as version\");\n\n        //contract name can't be empty string\n        require(\n            bytes(contractName).length>0, \"Empty string passed as contract name\"\n        );\n\n        //Check that the implementation corresponds to a contract address\n        require(\n            Address.isContract(implementation), \n            \"Cannot set a implementation to a non-contract address\"\n        );\n\n        if (!contractExists[contractName]) {\n            contracts.push(contractName);\n            contractExists[contractName] = true;\n        }\n\n        //check version should not already exist for the contract\n        require(\n            contractVsVersions[contractName][versionName].implementation == address(0), \n            \"Version already exists for contract\"\n        );\n        contractVsVersionString[contractName].push(versionName);\n\n        contractVsVersions[contractName][versionName] = Version({\n            versionName:versionName,\n            status:status,\n            bugLevel:BugLevel.NONE,\n            implementation:implementation,\n            audited:false,\n            dateAdded:block.timestamp\n        });\n\n        emit VersionAdded(contractName, versionName, implementation);\n    }\n\n    /**\n    * @dev change status of the version\n    * @param contractName Name of the contract\n    * @param versionName Version of the contract\n    * @param status Status to be set\n    */\n    function changeStatus(\n        string contractName,\n        string versionName,\n        Status status\n    )\n        external\n        onlyOwner\n        contractRegistered(contractName)\n        versionExists(contractName, versionName)\n    {\n        string storage recommendedVersion = contractVsRecommendedVersion[\n            contractName\n        ];\n\n        //if recommended version is being marked as DEPRECATED then it will removed from being recommended\n        if (\n            keccak256(\n                abi.encodePacked(\n                    recommendedVersion\n                )\n            ) == keccak256(\n                abi.encodePacked(\n                    versionName\n                )\n            ) && status == Status.DEPRECATED\n        )\n        {\n            removeRecommendedVersion(contractName);\n        }\n\n        contractVsVersions[contractName][versionName].status = status;\n\n        emit StatusChanged(contractName, versionName, status);\n    }\n\n    /**\n    * @dev Change the bug level for the contract\n    * @param contractName Name of the contract\n    * @param versionName Version of the contract\n    * @param bugLevel New bug level for the contract\n    */\n    function changeBugLevel(\n        string contractName,\n        string versionName,\n        BugLevel bugLevel\n    )\n        external\n        onlyOwner\n        contractRegistered(contractName)\n        versionExists(contractName, versionName)\n    {\n        string storage recommendedVersion = contractVsRecommendedVersion[\n            contractName\n        ];\n\n        //if recommended version is being marked as critical then it will removed from being recommended\n        if (\n            keccak256(\n                abi.encodePacked(\n                    recommendedVersion\n                )\n            ) == keccak256(\n                abi.encodePacked(\n                    versionName\n                )\n            ) && bugLevel == BugLevel.CRITICAL\n        )\n        {\n            removeRecommendedVersion(contractName);\n        }\n\n        contractVsVersions[contractName][versionName].bugLevel = bugLevel;\n\n        emit BugLevelChanged(contractName, versionName, bugLevel);\n    }\n\n    /**\n    * @dev Mark version as audited\n    * @param contractName Name of the contract\n    * @param versionName Version of the contract\n    */\n    function markVersionAudited(\n        string contractName,\n        string versionName\n    )\n        external\n        contractRegistered(contractName)\n        versionExists(contractName, versionName)\n        onlyOwner\n    {\n        //Version should not be already audited\n        require(\n            !contractVsVersions[contractName][versionName].audited, \n            \"Version is already audited\"\n        );\n\n        contractVsVersions[contractName][versionName].audited = true;\n\n        emit VersionAudited(contractName, versionName);\n    }\n\n    /**\n    * @dev Set recommended version\n    * @param contractName Name of the contract\n    * @param versionName Version of the contract\n    * Version should be in Production stage and bug level should not be high or critical.\n    * Version must be audited\n    */\n    function markRecommendedVersion(\n        string contractName,\n        string versionName\n    )\n        external\n        onlyOwner\n        contractRegistered(contractName)\n        versionExists(contractName, versionName)\n    {\n        //check version should be in production state\n        require(\n            contractVsVersions[contractName][versionName].status == Status.PRODUCTION, \n            \"Version not in production state\"\n        );\n\n        //check version must be audited\n        require(\n            contractVsVersions[contractName][versionName].audited, \n            \"Version is not audited\"\n        );\n\n        //check version has bug level lower than HIGH\n        require(\n            contractVsVersions[contractName][versionName].bugLevel < BugLevel.HIGH, \n            \"Version bug level is not lower than HIGH\"\n        );\n\n        //Put new version as recommended version for the contract\n        contractVsRecommendedVersion[contractName] = versionName;\n\n        emit VersionRecommended(contractName, versionName);\n    }\n\n    /**\n    * @dev Get recommended version for the contract.\n    * @return Details of recommended version\n    */\n    function getRecommendedVersion(\n        string contractName\n    )\n        external\n        view\n        contractRegistered(contractName)\n        returns (\n            string versionName,\n            Status status,\n            BugLevel bugLevel,\n            address implementation,\n            bool audited,\n            uint256 dateAdded\n        )\n    {\n        versionName = contractVsRecommendedVersion[contractName];\n\n        Version storage recommendedVersion = contractVsVersions[\n            contractName\n        ][\n            versionName\n        ];\n\n        status = recommendedVersion.status;\n        bugLevel = recommendedVersion.bugLevel;\n        implementation = recommendedVersion.implementation;\n        audited = recommendedVersion.audited;\n        dateAdded = recommendedVersion.dateAdded;\n    }\n\n    /**\n    * @dev Get total count of contracts registered\n    */\n    function getTotalContractCount() external view returns (uint256 count) {\n        count = contracts.length;\n    }\n\n    /**\n    * @dev Get total count of versions for the contract\n    * @param contractName Name of the contract\n    */\n    function getVersionCountForContract(string contractName)\n        external\n        view\n        returns (uint256 count)\n    {\n        count = contractVsVersionString[contractName].length;\n    }\n\n    /**\n    * @dev Returns the contract at index\n    * @param index The index to be searched for\n    */\n    function getContractAtIndex(uint256 index)\n        external\n        view\n        returns (string contractName)\n    {\n        contractName = contracts[index];\n    }\n\n    /**\n    * @dev Returns version of a contract at specific index\n    * @param contractName Name of the contract\n    * @param index The index to be searched for\n    */\n    function getVersionAtIndex(string contractName, uint256 index)\n        external\n        view\n        returns (string versionName)\n    {\n        versionName = contractVsVersionString[contractName][index];\n    }\n\n    /**\n    * @dev Returns the version details for the given contract and version\n    * @param contractName Name of the contract\n    * @param versionName Version string for the contract\n    */\n    function getVersionDetails(string contractName, string versionName)\n        external\n        view\n        returns (\n            string versionString,\n            Status status,\n            BugLevel bugLevel,\n            address implementation,\n            bool audited,\n            uint256 dateAdded\n        )\n    {\n        Version storage v = contractVsVersions[contractName][versionName];\n\n        versionString = v.versionName;\n        status = v.status;\n        bugLevel = v.bugLevel;\n        implementation = v.implementation;\n        audited = v.audited;\n        dateAdded = v.dateAdded;\n    }\n\n    /**\n    * @dev Remove any recommended version for the contract and sets it to NULL\n    * @param contractName Name of the contract\n    */\n    function removeRecommendedVersion(string contractName)\n        public\n        onlyOwner\n        contractRegistered(contractName)\n    {\n        //delete it from mapping\n        delete contractVsRecommendedVersion[contractName];\n\n        emit RecommendedVersionRemoved(contractName);\n    }\n}\n",
  "sourcePath": "/home/sameep/freelancing-projects/toptal/open baazar/publicRepo/smart-contracts/contracts/registry/ContractManager.sol",
  "compiler": {
    "name": "solc",
    "version": "0.4.24+commit.e67f0147.Emscripten.clang"
  },
  "schemaVersion": "2.0.1",
  "updatedAt": "2018-10-24T15:12:01.837Z"
}