{
  "contractName": "ContractManager",
  "abi": [
    {
      "constant": false,
      "inputs": [],
      "name": "renounceOwnership",
      "outputs": [],
      "payable": false,
      "stateMutability": "nonpayable",
      "type": "function"
    },
    {
      "constant": true,
      "inputs": [],
      "name": "owner",
      "outputs": [
        {
          "name": "",
          "type": "address"
        }
      ],
      "payable": false,
      "stateMutability": "view",
      "type": "function"
    },
    {
      "constant": true,
      "inputs": [],
      "name": "isOwner",
      "outputs": [
        {
          "name": "",
          "type": "bool"
        }
      ],
      "payable": false,
      "stateMutability": "view",
      "type": "function"
    },
    {
      "constant": false,
      "inputs": [
        {
          "name": "newOwner",
          "type": "address"
        }
      ],
      "name": "transferOwnership",
      "outputs": [],
      "payable": false,
      "stateMutability": "nonpayable",
      "type": "function"
    },
    {
      "anonymous": false,
      "inputs": [
        {
          "indexed": false,
          "name": "contractName",
          "type": "string"
        },
        {
          "indexed": false,
          "name": "versionName",
          "type": "string"
        },
        {
          "indexed": true,
          "name": "implementation",
          "type": "address"
        }
      ],
      "name": "VersionAdded",
      "type": "event"
    },
    {
      "anonymous": false,
      "inputs": [
        {
          "indexed": false,
          "name": "contractName",
          "type": "string"
        },
        {
          "indexed": false,
          "name": "versionName",
          "type": "string"
        },
        {
          "indexed": false,
          "name": "status",
          "type": "uint8"
        }
      ],
      "name": "StatusChanged",
      "type": "event"
    },
    {
      "anonymous": false,
      "inputs": [
        {
          "indexed": false,
          "name": "contractName",
          "type": "string"
        },
        {
          "indexed": false,
          "name": "versionName",
          "type": "string"
        },
        {
          "indexed": false,
          "name": "bugLevel",
          "type": "uint8"
        }
      ],
      "name": "BugLevelChanged",
      "type": "event"
    },
    {
      "anonymous": false,
      "inputs": [
        {
          "indexed": false,
          "name": "contractName",
          "type": "string"
        },
        {
          "indexed": false,
          "name": "versionName",
          "type": "string"
        }
      ],
      "name": "VersionAudited",
      "type": "event"
    },
    {
      "anonymous": false,
      "inputs": [
        {
          "indexed": false,
          "name": "contractName",
          "type": "string"
        },
        {
          "indexed": false,
          "name": "versionName",
          "type": "string"
        }
      ],
      "name": "VersionRecommended",
      "type": "event"
    },
    {
      "anonymous": false,
      "inputs": [
        {
          "indexed": false,
          "name": "contractName",
          "type": "string"
        }
      ],
      "name": "RecommendedVersionRemoved",
      "type": "event"
    },
    {
      "anonymous": false,
      "inputs": [
        {
          "indexed": true,
          "name": "previousOwner",
          "type": "address"
        },
        {
          "indexed": true,
          "name": "newOwner",
          "type": "address"
        }
      ],
      "name": "OwnershipTransferred",
      "type": "event"
    },
    {
      "constant": false,
      "inputs": [
        {
          "name": "contractName",
          "type": "string"
        },
        {
          "name": "versionName",
          "type": "string"
        },
        {
          "name": "status",
          "type": "uint8"
        },
        {
          "name": "implementation",
          "type": "address"
        }
      ],
      "name": "addVersion",
      "outputs": [],
      "payable": false,
      "stateMutability": "nonpayable",
      "type": "function"
    },
    {
      "constant": false,
      "inputs": [
        {
          "name": "contractName",
          "type": "string"
        },
        {
          "name": "versionName",
          "type": "string"
        },
        {
          "name": "status",
          "type": "uint8"
        }
      ],
      "name": "changeStatus",
      "outputs": [],
      "payable": false,
      "stateMutability": "nonpayable",
      "type": "function"
    },
    {
      "constant": false,
      "inputs": [
        {
          "name": "contractName",
          "type": "string"
        },
        {
          "name": "versionName",
          "type": "string"
        },
        {
          "name": "bugLevel",
          "type": "uint8"
        }
      ],
      "name": "changeBugLevel",
      "outputs": [],
      "payable": false,
      "stateMutability": "nonpayable",
      "type": "function"
    },
    {
      "constant": false,
      "inputs": [
        {
          "name": "contractName",
          "type": "string"
        },
        {
          "name": "versionName",
          "type": "string"
        }
      ],
      "name": "markVersionAudited",
      "outputs": [],
      "payable": false,
      "stateMutability": "nonpayable",
      "type": "function"
    },
    {
      "constant": false,
      "inputs": [
        {
          "name": "contractName",
          "type": "string"
        },
        {
          "name": "versionName",
          "type": "string"
        }
      ],
      "name": "markRecommendedVersion",
      "outputs": [],
      "payable": false,
      "stateMutability": "nonpayable",
      "type": "function"
    },
    {
      "constant": true,
      "inputs": [
        {
          "name": "contractName",
          "type": "string"
        }
      ],
      "name": "getRecommendedVersion",
      "outputs": [
        {
          "name": "versionName",
          "type": "string"
        },
        {
          "name": "status",
          "type": "uint8"
        },
        {
          "name": "bugLevel",
          "type": "uint8"
        },
        {
          "name": "implementation",
          "type": "address"
        },
        {
          "name": "audited",
          "type": "bool"
        },
        {
          "name": "timeAdded",
          "type": "uint256"
        }
      ],
      "payable": false,
      "stateMutability": "view",
      "type": "function"
    },
    {
      "constant": true,
      "inputs": [],
      "name": "getTotalContractCount",
      "outputs": [
        {
          "name": "count",
          "type": "uint256"
        }
      ],
      "payable": false,
      "stateMutability": "view",
      "type": "function"
    },
    {
      "constant": true,
      "inputs": [
        {
          "name": "contractName",
          "type": "string"
        }
      ],
      "name": "getVersionCountForContract",
      "outputs": [
        {
          "name": "count",
          "type": "uint256"
        }
      ],
      "payable": false,
      "stateMutability": "view",
      "type": "function"
    },
    {
      "constant": true,
      "inputs": [
        {
          "name": "index",
          "type": "uint256"
        }
      ],
      "name": "getContractAtIndex",
      "outputs": [
        {
          "name": "contractName",
          "type": "string"
        }
      ],
      "payable": false,
      "stateMutability": "view",
      "type": "function"
    },
    {
      "constant": true,
      "inputs": [
        {
          "name": "contractName",
          "type": "string"
        },
        {
          "name": "index",
          "type": "uint256"
        }
      ],
      "name": "getVersionAtIndex",
      "outputs": [
        {
          "name": "versionName",
          "type": "string"
        }
      ],
      "payable": false,
      "stateMutability": "view",
      "type": "function"
    },
    {
      "constant": true,
      "inputs": [
        {
          "name": "contractName",
          "type": "string"
        },
        {
          "name": "versionName",
          "type": "string"
        }
      ],
      "name": "getVersionDetails",
      "outputs": [
        {
          "name": "versionString",
          "type": "string"
        },
        {
          "name": "status",
          "type": "uint8"
        },
        {
          "name": "bugLevel",
          "type": "uint8"
        },
        {
          "name": "implementation",
          "type": "address"
        },
        {
          "name": "audited",
          "type": "bool"
        },
        {
          "name": "timeAdded",
          "type": "uint256"
        }
      ],
      "payable": false,
      "stateMutability": "view",
      "type": "function"
    },
    {
      "constant": false,
      "inputs": [
        {
          "name": "contractName",
          "type": "string"
        }
      ],
      "name": "removeRecommendedVersion",
      "outputs": [],
      "payable": false,
      "stateMutability": "nonpayable",
      "type": "function"
    }
  ],
  "bytecode": "0x6080604052336000806101000a81548173ffffffffffffffffffffffffffffffffffffffff021916908373ffffffffffffffffffffffffffffffffffffffff1602179055506000809054906101000a900473ffffffffffffffffffffffffffffffffffffffff1673ffffffffffffffffffffffffffffffffffffffff16600073ffffffffffffffffffffffffffffffffffffffff167f8be0079c531659141344cd1fd0a4f28419497f9722a3daafe3b4186f6b6457e060405160405180910390a361349a806100cf6000396000f3006080604052600436106100e6576000357c0100000000000000000000000000000000000000000000000000000000900463ffffffff1680633de5311a146100eb578063437fe3a31461016b5780634890b0c5146101be578063568d1ee81461021e578063715018a61461027e578063751f592b146102955780637e27634e146102c05780638ad030c1146103e35780638da5cb5b1461051e5780638f32d59b146105755780639b534f18146105a4578063acd820a81461064a578063af2c7fa3146106b3578063ca2e7cf314610771578063f2fde38b146107c4578063ff93dab414610807575b600080fd5b3480156100f757600080fd5b50610169600480360381019080803590602001908201803590602001919091929391929390803590602001908201803590602001919091929391929390803560ff169060200190929190803573ffffffffffffffffffffffffffffffffffffffff169060200190929190505050610856565b005b34801561017757600080fd5b506101bc600480360381019080803590602001908201803590602001919091929391929390803590602001908201803590602001919091929391929390505050610f70565b005b3480156101ca57600080fd5b5061021c600480360381019080803590602001908201803590602001919091929391929390803590602001908201803590602001919091929391929390803560ff169060200190929190505050611479565b005b34801561022a57600080fd5b5061027c600480360381019080803590602001908201803590602001919091929391929390803590602001908201803590602001919091929391929390803560ff169060200190929190505050611ac5565b005b34801561028a57600080fd5b50610293612112565b005b3480156102a157600080fd5b506102aa6121e4565b6040518082815260200191505060405180910390f35b3480156102cc57600080fd5b506102f96004803603810190808035906020019082018035906020019190919293919293905050506121f4565b604051808060200187600381111561030d57fe5b60ff16815260200186600481111561032157fe5b60ff1681526020018573ffffffffffffffffffffffffffffffffffffffff1673ffffffffffffffffffffffffffffffffffffffff16815260200184151515158152602001838152602001828103825288818151815260200191508051906020019080838360005b838110156103a3578082015181840152602081019050610388565b50505050905090810190601f1680156103d05780820380516001836020036101000a031916815260200191505b5097505050505050505060405180910390f35b3480156103ef57600080fd5b506104346004803603810190808035906020019082018035906020019190919293919293908035906020019082018035906020019190919293919293905050506124f7565b604051808060200187600381111561044857fe5b60ff16815260200186600481111561045c57fe5b60ff1681526020018573ffffffffffffffffffffffffffffffffffffffff1673ffffffffffffffffffffffffffffffffffffffff16815260200184151515158152602001838152602001828103825288818151815260200191508051906020019080838360005b838110156104de5780820151818401526020810190506104c3565b50505050905090810190601f16801561050b5780820380516001836020036101000a031916815260200191505b5097505050505050505060405180910390f35b34801561052a57600080fd5b50610533612675565b604051808273ffffffffffffffffffffffffffffffffffffffff1673ffffffffffffffffffffffffffffffffffffffff16815260200191505060405180910390f35b34801561058157600080fd5b5061058a61269e565b604051808215151515815260200191505060405180910390f35b3480156105b057600080fd5b506105cf600480360381019080803590602001909291905050506126f5565b6040518080602001828103825283818151815260200191508051906020019080838360005b8381101561060f5780820151818401526020810190506105f4565b50505050905090810190601f16801561063c5780820380516001836020036101000a031916815260200191505b509250505060405180910390f35b34801561065657600080fd5b506106b1600480360381019080803590602001908201803590602001908080601f01602080910402602001604051908101604052809392919081815260200183838082843782019150505050505091929192905050506127b3565b005b3480156106bf57600080fd5b506106f6600480360381019080803590602001908201803590602001919091929391929390803590602001909291905050506129cb565b6040518080602001828103825283818151815260200191508051906020019080838360005b8381101561073657808201518184015260208101905061071b565b50505050905090810190601f1680156107635780820380516001836020036101000a031916815260200191505b509250505060405180910390f35b34801561077d57600080fd5b506107c2600480360381019080803590602001908201803590602001919091929391929390803590602001908201803590602001919091929391929390505050612aae565b005b3480156107d057600080fd5b50610805600480360381019080803573ffffffffffffffffffffffffffffffffffffffff16906020019092919050505061319f565b005b34801561081357600080fd5b506108406004803603810190808035906020019082018035906020019190919293919293905050506131be565b6040518082815260200191505060405180910390f35b61085e61269e565b151561086957600080fd5b80600073ffffffffffffffffffffffffffffffffffffffff168173ffffffffffffffffffffffffffffffffffffffff1614151515610935576040517f08c379a00000000000000000000000000000000000000000000000000000000081526004018080602001828103825260238152602001807f5468652070726f7669646564206164647265737320697320612030206164647281526020017f657373000000000000000000000000000000000000000000000000000000000081525060400191505060405180910390fd5b6000878790501115156109b0576040517f08c379a000000000000000000000000000000000000000000000000000000000815260040180806020018281038252601c8152602001807f436f6e74726163744e616d652063616e6e6f7420626520656d7074790000000081525060200191505060405180910390fd5b600085859050111515610a2b576040517f08c379a000000000000000000000000000000000000000000000000000000000815260040180806020018281038252601b8152602001807f56657273696f6e4e616d652063616e6e6f7420626520656d707479000000000081525060200191505060405180910390fd5b610a34826131f4565b1515610ace576040517f08c379a00000000000000000000000000000000000000000000000000000000081526004018080602001828103825260308152602001807f49696d706c656d656e746174696f6e2063616e6e6f742062652061206e6f6e2d81526020017f636f6e747261637420616464726573730000000000000000000000000000000081525060400191505060405180910390fd5b600073ffffffffffffffffffffffffffffffffffffffff1660048888604051808383808284378201915050925050509081526020016040518091039020868660405180838380828437820191505092505050908152602001604051809103902060010160029054906101000a900473ffffffffffffffffffffffffffffffffffffffff1673ffffffffffffffffffffffffffffffffffffffff16141515610c03576040517f08c379a000000000000000000000000000000000000000000000000000000000815260040180806020018281038252602d8152602001807f546869732056657273696f6e20616c72656164792065786973747320666f722081526020017f7468697320636f6e74726163740000000000000000000000000000000000000081525060400191505060405180910390fd5b6002878760405180838380828437820191505092505050908152602001604051809103902060009054906101000a900460ff161515610cbd576001878790918060018154018082558091505090600182039060005260206000200160009091929390919293909192909192509190610c7c929190613301565b505060016002888860405180838380828437820191505092505050908152602001604051809103902060006101000a81548160ff0219169083151502179055505b60038787604051808383808284378201915050925050509081526020016040518091039020858590918060018154018082558091505090600182039060005260206000200160009091929390919293909192909192509190610d20929190613301565b505060c06040519081016040528086868080601f0160208091040260200160405190810160405280939291908181526020018383808284378201915050505050508152602001846003811115610d7257fe5b815260200160006004811115610d8457fe5b81526020018373ffffffffffffffffffffffffffffffffffffffff168152602001600015158152602001428152506004888860405180838380828437820191505092505050908152602001604051809103902086866040518083838082843782019150509250505090815260200160405180910390206000820151816000019080519060200190610e16929190613381565b5060208201518160010160006101000a81548160ff02191690836003811115610e3b57fe5b021790555060408201518160010160016101000a81548160ff02191690836004811115610e6457fe5b021790555060608201518160010160026101000a81548173ffffffffffffffffffffffffffffffffffffffff021916908373ffffffffffffffffffffffffffffffffffffffff16021790555060808201518160010160166101000a81548160ff02191690831515021790555060a082015181600201559050508173ffffffffffffffffffffffffffffffffffffffff167f337b109e3f497728f2bdd27545c9ed1cb52ed4a4103cc94da88b868879c982e2888888886040518080602001806020018381038352878782818152602001925080828437820191505083810382528585828181526020019250808284378201915050965050505050505060405180910390a250505050505050565b83838080601f0160208091040260200160405190810160405280939291908181526020018383808284378201915050505050506002816040518082805190602001908083835b602083101515610fdb5780518252602082019150602081019050602083039250610fb6565b6001836020036101000a038019825116818451168082178552505050505050905001915050908152602001604051809103902060009054906101000a900460ff161515611090576040517f08c379a00000000000000000000000000000000000000000000000000000000081526004018080602001828103825260188152602001807f436f6e747261637420646f6573206e6f7420657869737473000000000000000081525060200191505060405180910390fd5b84848080601f01602080910402602001604051908101604052809392919081815260200183838082843782019150505050505083838080601f016020809104026020016040519081016040528093929190818152602001838380828437820191505050505050600073ffffffffffffffffffffffffffffffffffffffff166004836040518082805190602001908083835b6020831015156111465780518252602082019150602081019050602083039250611121565b6001836020036101000a0380198251168184511680821785525050505050509050019150509081526020016040518091039020826040518082805190602001908083835b6020831015156111af578051825260208201915060208101905060208303925061118a565b6001836020036101000a038019825116818451168082178552505050505050905001915050908152602001604051809103902060010160029054906101000a900473ffffffffffffffffffffffffffffffffffffffff1673ffffffffffffffffffffffffffffffffffffffff16141515156112b8576040517f08c379a00000000000000000000000000000000000000000000000000000000081526004018080602001828103825260248152602001807f56657273696f6e20646f6573206e6f742065786973747320666f7220636f6e7481526020017f726163740000000000000000000000000000000000000000000000000000000081525060400191505060405180910390fd5b6112c061269e565b15156112cb57600080fd5b60048787604051808383808284378201915050925050509081526020016040518091039020858560405180838380828437820191505092505050908152602001604051809103902060010160169054906101000a900460ff16151515611399576040517f08c379a000000000000000000000000000000000000000000000000000000000815260040180806020018281038252601a8152602001807f56657273696f6e20697320616c7265616479206175646974656400000000000081525060200191505060405180910390fd5b600160048888604051808383808284378201915050925050509081526020016040518091039020868660405180838380828437820191505092505050908152602001604051809103902060010160166101000a81548160ff0219169083151502179055507fdd2996df4158c05ae76d843c929d03eadde75cf3580d1d2f996375ea6cbe9625878787876040518080602001806020018381038352878782818152602001925080828437820191505083810382528585828181526020019250808284378201915050965050505050505060405180910390a150505050505050565b600061148361269e565b151561148e57600080fd5b85858080601f0160208091040260200160405190810160405280939291908181526020018383808284378201915050505050506002816040518082805190602001908083835b6020831015156114f957805182526020820191506020810190506020830392506114d4565b6001836020036101000a038019825116818451168082178552505050505050905001915050908152602001604051809103902060009054906101000a900460ff1615156115ae576040517f08c379a00000000000000000000000000000000000000000000000000000000081526004018080602001828103825260188152602001807f436f6e747261637420646f6573206e6f7420657869737473000000000000000081525060200191505060405180910390fd5b86868080601f01602080910402602001604051908101604052809392919081815260200183838082843782019150505050505085858080601f016020809104026020016040519081016040528093929190818152602001838380828437820191505050505050600073ffffffffffffffffffffffffffffffffffffffff166004836040518082805190602001908083835b602083101515611664578051825260208201915060208101905060208303925061163f565b6001836020036101000a0380198251168184511680821785525050505050509050019150509081526020016040518091039020826040518082805190602001908083835b6020831015156116cd57805182526020820191506020810190506020830392506116a8565b6001836020036101000a038019825116818451168082178552505050505050905001915050908152602001604051809103902060010160029054906101000a900473ffffffffffffffffffffffffffffffffffffffff1673ffffffffffffffffffffffffffffffffffffffff16141515156117d6576040517f08c379a00000000000000000000000000000000000000000000000000000000081526004018080602001828103825260248152602001807f56657273696f6e20646f6573206e6f742065786973747320666f7220636f6e7481526020017f726163740000000000000000000000000000000000000000000000000000000081525060400191505060405180910390fd5b6005898960405180838380828437820191505092505050908152602001604051809103902093508686604051602001808383808284378201915050925050506040516020818303038152906040526040518082805190602001908083835b6020831015156118595780518252602082019150602081019050602083039250611834565b6001836020036101000a0380198251168184511680821785525050505050509050019150506040518091039020600019168460405160200180828054600181600116156101000203166002900480156118e95780601f106118c75761010080835404028352918201916118e9565b820191906000526020600020905b8154815290600101906020018083116118d5575b50509150506040516020818303038152906040526040518082805190602001908083835b602083101515611932578051825260208201915060208101905060208303925061190d565b6001836020036101000a038019825116818451168082178552505050505050905001915050604051809103902060001916148015611985575060038081111561197757fe5b85600381111561198357fe5b145b156119c6576119c589898080601f0160208091040260200160405190810160405280939291908181526020018383808284378201915050505050506127b3565b5b8460048a8a604051808383808284378201915050925050509081526020016040518091039020888860405180838380828437820191505092505050908152602001604051809103902060010160006101000a81548160ff02191690836003811115611a2d57fe5b02179055507ea1d2d212fdb196f10c2b940b5f032473f79d8fcf0739ae900d5767500213878989898989604051808060200180602001846003811115611a6f57fe5b60ff168152602001838103835288888281815260200192508082843782019150508381038252868682818152602001925080828437820191505097505050505050505060405180910390a1505050505050505050565b6000611acf61269e565b1515611ada57600080fd5b85858080601f0160208091040260200160405190810160405280939291908181526020018383808284378201915050505050506002816040518082805190602001908083835b602083101515611b455780518252602082019150602081019050602083039250611b20565b6001836020036101000a038019825116818451168082178552505050505050905001915050908152602001604051809103902060009054906101000a900460ff161515611bfa576040517f08c379a00000000000000000000000000000000000000000000000000000000081526004018080602001828103825260188152602001807f436f6e747261637420646f6573206e6f7420657869737473000000000000000081525060200191505060405180910390fd5b86868080601f01602080910402602001604051908101604052809392919081815260200183838082843782019150505050505085858080601f016020809104026020016040519081016040528093929190818152602001838380828437820191505050505050600073ffffffffffffffffffffffffffffffffffffffff166004836040518082805190602001908083835b602083101515611cb05780518252602082019150602081019050602083039250611c8b565b6001836020036101000a0380198251168184511680821785525050505050509050019150509081526020016040518091039020826040518082805190602001908083835b602083101515611d195780518252602082019150602081019050602083039250611cf4565b6001836020036101000a038019825116818451168082178552505050505050905001915050908152602001604051809103902060010160029054906101000a900473ffffffffffffffffffffffffffffffffffffffff1673ffffffffffffffffffffffffffffffffffffffff1614151515611e22576040517f08c379a00000000000000000000000000000000000000000000000000000000081526004018080602001828103825260248152602001807f56657273696f6e20646f6573206e6f742065786973747320666f7220636f6e7481526020017f726163740000000000000000000000000000000000000000000000000000000081525060400191505060405180910390fd5b6005898960405180838380828437820191505092505050908152602001604051809103902093508686604051602001808383808284378201915050925050506040516020818303038152906040526040518082805190602001908083835b602083101515611ea55780518252602082019150602081019050602083039250611e80565b6001836020036101000a038019825116818451168082178552505050505050905001915050604051809103902060001916846040516020018082805460018160011615610100020316600290048015611f355780601f10611f13576101008083540402835291820191611f35565b820191906000526020600020905b815481529060010190602001808311611f21575b50509150506040516020818303038152906040526040518082805190602001908083835b602083101515611f7e5780518252602082019150602081019050602083039250611f59565b6001836020036101000a038019825116818451168082178552505050505050905001915050604051809103902060001916148015611fd15750600480811115611fc357fe5b856004811115611fcf57fe5b145b156120125761201189898080601f0160208091040260200160405190810160405280939291908181526020018383808284378201915050505050506127b3565b5b8460048a8a604051808383808284378201915050925050509081526020016040518091039020888860405180838380828437820191505092505050908152602001604051809103902060010160016101000a81548160ff0219169083600481111561207957fe5b02179055507f92d0e6a4dfcd933ffb179b251aa0d734eb16556c0813246989fddaf08a7d009d89898989896040518080602001806020018460048111156120bc57fe5b60ff168152602001838103835288888281815260200192508082843782019150508381038252868682818152602001925080828437820191505097505050505050505060405180910390a1505050505050505050565b61211a61269e565b151561212557600080fd5b600073ffffffffffffffffffffffffffffffffffffffff166000809054906101000a900473ffffffffffffffffffffffffffffffffffffffff1673ffffffffffffffffffffffffffffffffffffffff167f8be0079c531659141344cd1fd0a4f28419497f9722a3daafe3b4186f6b6457e060405160405180910390a360008060006101000a81548173ffffffffffffffffffffffffffffffffffffffff021916908373ffffffffffffffffffffffffffffffffffffffff160217905550565b6000600180549050905080905090565b606060008060008060008088888080601f0160208091040260200160405190810160405280939291908181526020018383808284378201915050505050506002816040518082805190602001908083835b60208310151561226a5780518252602082019150602081019050602083039250612245565b6001836020036101000a038019825116818451168082178552505050505050905001915050908152602001604051809103902060009054906101000a900460ff16151561231f576040517f08c379a00000000000000000000000000000000000000000000000000000000081526004018080602001828103825260188152602001807f436f6e747261637420646f6573206e6f7420657869737473000000000000000081525060200191505060405180910390fd5b60058a8a6040518083838082843782019150509250505090815260200160405180910390208054600181600116156101000203166002900480601f0160208091040260200160405190810160405280929190818152602001828054600181600116156101000203166002900480156123d85780601f106123ad576101008083540402835291602001916123d8565b820191906000526020600020905b8154815290600101906020018083116123bb57829003601f168201915b5050505050975060048a8a604051808383808284378201915050925050509081526020016040518091039020886040518082805190602001908083835b60208310151561243a5780518252602082019150602081019050602083039250612415565b6001836020036101000a038019825116818451168082178552505050505050905001915050908152602001604051809103902091508160010160009054906101000a900460ff1696508160010160019054906101000a900460ff1695508160010160029054906101000a900473ffffffffffffffffffffffffffffffffffffffff1694508160010160169054906101000a900460ff1693508160020154925087878787878797509750975097509750975050509295509295509295565b606060008060008060008060048b8b60405180838380828437820191505092505050908152602001604051809103902089896040518083838082843782019150509250505090815260200160405180910390209050806000018054600181600116156101000203166002900480601f0160208091040260200160405190810160405280929190818152602001828054600181600116156101000203166002900480156125e45780601f106125b9576101008083540402835291602001916125e4565b820191906000526020600020905b8154815290600101906020018083116125c757829003601f168201915b505050505096508060010160009054906101000a900460ff1695508060010160019054906101000a900460ff1694508060010160029054906101000a900473ffffffffffffffffffffffffffffffffffffffff1693508060010160169054906101000a900460ff16925080600201549150868686868686965096509650965096509650509499939850945094509450565b60008060009054906101000a900473ffffffffffffffffffffffffffffffffffffffff16905090565b60008060009054906101000a900473ffffffffffffffffffffffffffffffffffffffff1673ffffffffffffffffffffffffffffffffffffffff163373ffffffffffffffffffffffffffffffffffffffff1614905090565b606060018281548110151561270657fe5b906000526020600020018054600181600116156101000203166002900480601f0160208091040260200160405190810160405280929190818152602001828054600181600116156101000203166002900480156127a45780601f10612779576101008083540402835291602001916127a4565b820191906000526020600020905b81548152906001019060200180831161278757829003601f168201915b50505050509050809050919050565b6127bb61269e565b15156127c657600080fd5b806002816040518082805190602001908083835b6020831015156127ff57805182526020820191506020810190506020830392506127da565b6001836020036101000a038019825116818451168082178552505050505050905001915050908152602001604051809103902060009054906101000a900460ff1615156128b4576040517f08c379a00000000000000000000000000000000000000000000000000000000081526004018080602001828103825260188152602001807f436f6e747261637420646f6573206e6f7420657869737473000000000000000081525060200191505060405180910390fd5b6005826040518082805190602001908083835b6020831015156128ec57805182526020820191506020810190506020830392506128c7565b6001836020036101000a0380198251168184511680821785525050505050509050019150509081526020016040518091039020600061292b9190613401565b7f07b20feb74e0118ee3c73d4cb8d0eb4da169604c68aa233293b094cedcd225f2826040518080602001828103825283818151815260200191508051906020019080838360005b8381101561298d578082015181840152602081019050612972565b50505050905090810190601f1680156129ba5780820380516001836020036101000a031916815260200191505b509250505060405180910390a15050565b606060038484604051808383808284378201915050925050509081526020016040518091039020828154811015156129ff57fe5b906000526020600020018054600181600116156101000203166002900480601f016020809104026020016040519081016040528092919081815260200182805460018160011615610100020316600290048015612a9d5780601f10612a7257610100808354040283529160200191612a9d565b820191906000526020600020905b815481529060010190602001808311612a8057829003601f168201915b505050505090508090509392505050565b612ab661269e565b1515612ac157600080fd5b83838080601f0160208091040260200160405190810160405280939291908181526020018383808284378201915050505050506002816040518082805190602001908083835b602083101515612b2c5780518252602082019150602081019050602083039250612b07565b6001836020036101000a038019825116818451168082178552505050505050905001915050908152602001604051809103902060009054906101000a900460ff161515612be1576040517f08c379a00000000000000000000000000000000000000000000000000000000081526004018080602001828103825260188152602001807f436f6e747261637420646f6573206e6f7420657869737473000000000000000081525060200191505060405180910390fd5b84848080601f01602080910402602001604051908101604052809392919081815260200183838082843782019150505050505083838080601f016020809104026020016040519081016040528093929190818152602001838380828437820191505050505050600073ffffffffffffffffffffffffffffffffffffffff166004836040518082805190602001908083835b602083101515612c975780518252602082019150602081019050602083039250612c72565b6001836020036101000a0380198251168184511680821785525050505050509050019150509081526020016040518091039020826040518082805190602001908083835b602083101515612d005780518252602082019150602081019050602083039250612cdb565b6001836020036101000a038019825116818451168082178552505050505050905001915050908152602001604051809103902060010160029054906101000a900473ffffffffffffffffffffffffffffffffffffffff1673ffffffffffffffffffffffffffffffffffffffff1614151515612e09576040517f08c379a00000000000000000000000000000000000000000000000000000000081526004018080602001828103825260248152602001807f56657273696f6e20646f6573206e6f742065786973747320666f7220636f6e7481526020017f726163740000000000000000000000000000000000000000000000000000000081525060400191505060405180910390fd5b60026003811115612e1657fe5b60048888604051808383808284378201915050925050509081526020016040518091039020868660405180838380828437820191505092505050908152602001604051809103902060010160009054906101000a900460ff166003811115612e7a57fe5b141515612f15576040517f08c379a000000000000000000000000000000000000000000000000000000000815260040180806020018281038252603d8152602001807f56657273696f6e206973206e6f7420696e2050524f44554354494f4e2073746181526020017f74652028737461747573206c6576656c2073686f756c6420626520322900000081525060400191505060405180910390fd5b60048787604051808383808284378201915050925050509081526020016040518091039020858560405180838380828437820191505092505050908152602001604051809103902060010160169054906101000a900460ff161515612fe2576040517f08c379a00000000000000000000000000000000000000000000000000000000081526004018080602001828103825260168152602001807f56657273696f6e206973206e6f7420617564697465640000000000000000000081525060200191505060405180910390fd5b60036004811115612fef57fe5b60048888604051808383808284378201915050925050509081526020016040518091039020868660405180838380828437820191505092505050908152602001604051809103902060010160019054906101000a900460ff16600481111561305357fe5b1015156130ee576040517f08c379a000000000000000000000000000000000000000000000000000000000815260040180806020018281038252603e8152602001807f56657273696f6e20627567206c6576656c2069732048494748206f722043524981526020017f544943414c20286275674c6576656c2073686f756c64206265203c203329000081525060400191505060405180910390fd5b8484600589896040518083838082843782019150509250505090815260200160405180910390209190613122929190613301565b507fb318550bf93edf51de4bae84db3deabd2a866cc407435a72317ca2503e2a07a6878787876040518080602001806020018381038352878782818152602001925080828437820191505083810382528585828181526020019250808284378201915050965050505050505060405180910390a150505050505050565b6131a761269e565b15156131b257600080fd5b6131bb81613207565b50565b60006003838360405180838380828437820191505092505050908152602001604051809103902080549050905080905092915050565b600080823b905060008111915050919050565b600073ffffffffffffffffffffffffffffffffffffffff168173ffffffffffffffffffffffffffffffffffffffff161415151561324357600080fd5b8073ffffffffffffffffffffffffffffffffffffffff166000809054906101000a900473ffffffffffffffffffffffffffffffffffffffff1673ffffffffffffffffffffffffffffffffffffffff167f8be0079c531659141344cd1fd0a4f28419497f9722a3daafe3b4186f6b6457e060405160405180910390a3806000806101000a81548173ffffffffffffffffffffffffffffffffffffffff021916908373ffffffffffffffffffffffffffffffffffffffff16021790555050565b828054600181600116156101000203166002900490600052602060002090601f016020900481019282601f1061334257803560ff1916838001178555613370565b82800160010185558215613370579182015b8281111561336f578235825591602001919060010190613354565b5b50905061337d9190613449565b5090565b828054600181600116156101000203166002900490600052602060002090601f016020900481019282601f106133c257805160ff19168380011785556133f0565b828001600101855582156133f0579182015b828111156133ef5782518255916020019190600101906133d4565b5b5090506133fd9190613449565b5090565b50805460018160011615610100020316600290046000825580601f106134275750613446565b601f0160209004906000526020600020908101906134459190613449565b5b50565b61346b91905b8082111561346757600081600090555060010161344f565b5090565b905600a165627a7a72305820be5c88dca3390df0b059b8ca386ea73103368047eb7214b220310e56b593d7ec0029",
  "source": "pragma solidity 0.4.24;\n\nimport \"openzeppelin-solidity/contracts/ownership/Ownable.sol\";\nimport \"openzeppelin-solidity/contracts/utils/Address.sol\";\n\n\n/**\n* @dev Contract Version Manager\n*/\ncontract ContractManager is Ownable {\n\n    event VersionAdded(\n        string contractName,\n        string versionName,\n        address indexed implementation\n    );\n\n    event StatusChanged(\n        string contractName,\n        string versionName,\n        Status status\n    );\n\n    event BugLevelChanged(\n        string contractName,\n        string versionName,\n        BugLevel bugLevel\n    );\n\n    event VersionAudited(string contractName, string versionName);\n\n    event VersionRecommended(string contractName, string versionName);\n\n    event RecommendedVersionRemoved(string contractName);\n\n    /**\n    * @dev Indicates the status of the version\n    */\n    enum Status {BETA, RC, PRODUCTION, DEPRECATED}\n\n    /**\n    * @dev Indicates the highest level of bug found in this version\n    */\n    enum BugLevel{NONE, LOW, MEDIUM, HIGH, CRITICAL}\n\n    /**\n    * @dev struct to store info about each version\n    */\n    struct Version {\n        string versionName; // ie: \"0.0.1\"\n        Status status;\n        BugLevel bugLevel;\n        address implementation;\n        bool audited;\n        uint256 timeAdded;\n    }\n\n    /**\n    * @dev List of all registered contracts\n    */\n    string[] internal _contracts;\n\n    /**\n    * @dev To keep track of which contracts have been registered so far\n    * to save gas while checking for redundant contracts\n    */\n    mapping(string => bool) internal _contractExists;\n\n    /**\n    * @dev To keep track of all versions of a given contract\n    */\n    mapping(string => string[]) internal _contractVsVersionString;\n\n\n    /**\n    * @dev Mapping of contract name & version name to version struct\n    */\n    mapping(string => mapping(string => Version)) internal _contractVsVersions;\n\n    /**\n    * @dev Mapping between contract name and the name of its recommended\n    * version\n    */\n    mapping(string => string) internal _contractVsRecommendedVersion;\n\n\n    modifier nonZeroAddress(address _address){\n        require(_address != address(0), \"The provided address is a 0 address\");\n        _;\n    }\n\n    modifier contractRegistered(string contractName) {\n\n        require(_contractExists[contractName], \"Contract does not exists\");\n        _;\n    }\n\n    modifier versionExists(string contractName, string versionName) {\n        require(\n            _contractVsVersions[contractName][versionName].implementation != address(0),\n            \"Version does not exists for contract\"\n        );\n        _;\n    }\n\n    /**\n    * @dev Allow owner to add a new version for a contract\n    * @param contractName The contract name\n    * @param versionName The version name\n    * @param status Status of the new version\n    * @param implementation The address of the new version\n    */\n    function addVersion(\n        string contractName,\n        string versionName,\n        Status status,\n        address implementation\n    )\n        external\n        onlyOwner\n        nonZeroAddress(implementation)\n    {\n\n        //do not allow contract name to be the empty string\n        require(\n            bytes(contractName).length > 0,\n            \"ContractName cannot be empty\"\n        );\n\n        //do not allow empty string as version name\n        require(\n            bytes(versionName).length > 0,\n            \"VersionName cannot be empty\"\n        );\n\n        //implementation must be a contract address\n        require(\n            Address.isContract(implementation),\n            \"Iimplementation cannot be a non-contract address\"\n        );\n\n        //version should not already exist for the contract\n        require(\n            _contractVsVersions[contractName][versionName].implementation == address(0),\n            \"This Version already exists for this contract\"\n        );\n\n        //if this is a new contractName then push it to the contracts[] array\n        if (!_contractExists[contractName]) {\n            _contracts.push(contractName);\n            _contractExists[contractName] = true;\n        }\n\n        _contractVsVersionString[contractName].push(versionName);\n\n        _contractVsVersions[contractName][versionName] = Version({\n            versionName:versionName,\n            status:status,\n            bugLevel:BugLevel.NONE,\n            implementation:implementation,\n            audited:false,\n            timeAdded:block.timestamp\n        });\n\n        emit VersionAdded(contractName, versionName, implementation);\n    }\n\n    /**\n    * @dev Change the status of a version of a contract\n    * @param contractName Name of the contract\n    * @param versionName Version of the contract\n    * @param status Status to be set\n    */\n    function changeStatus(\n        string contractName,\n        string versionName,\n        Status status\n    )\n        external\n        onlyOwner\n        contractRegistered(contractName)\n        versionExists(contractName, versionName)\n    {\n        string storage recommendedVersion = _contractVsRecommendedVersion[\n            contractName\n        ];\n\n        //if the recommended version is being marked as DEPRECATED then it will\n        //be removed from being recommended\n        if (\n            keccak256(\n                abi.encodePacked(\n                    recommendedVersion\n                )\n            ) == keccak256(\n                abi.encodePacked(\n                    versionName\n                )\n            ) && status == Status.DEPRECATED\n        )\n        {\n            removeRecommendedVersion(contractName);\n        }\n\n        _contractVsVersions[contractName][versionName].status = status;\n\n        emit StatusChanged(contractName, versionName, status);\n    }\n\n    /**\n    * @dev Change the bug level for a version of a contract\n    * @param contractName Name of the contract\n    * @param versionName Version of the contract\n    * @param bugLevel New bug level for the contract\n    */\n    function changeBugLevel(\n        string contractName,\n        string versionName,\n        BugLevel bugLevel\n    )\n        external\n        onlyOwner\n        contractRegistered(contractName)\n        versionExists(contractName, versionName)\n    {\n        string storage recommendedVersion = _contractVsRecommendedVersion[\n            contractName\n        ];\n\n        //if the recommended version of this contract is being marked as\n        // CRITICAL (status level 4) then it will no longer be marked as\n        // recommended\n        if (\n            keccak256(\n                abi.encodePacked(\n                    recommendedVersion\n                )\n            ) == keccak256(\n                abi.encodePacked(\n                    versionName\n                )\n            ) && bugLevel == BugLevel.CRITICAL\n        )\n        {\n            removeRecommendedVersion(contractName);\n        }\n\n        _contractVsVersions[contractName][versionName].bugLevel = bugLevel;\n\n        emit BugLevelChanged(contractName, versionName, bugLevel);\n    }\n\n    /**\n    * @dev Mark a version of a contract as having been audited\n    * @param contractName Name of the contract\n    * @param versionName Version of the contract\n    */\n    function markVersionAudited(\n        string contractName,\n        string versionName\n    )\n        external\n        contractRegistered(contractName)\n        versionExists(contractName, versionName)\n        onlyOwner\n    {\n        //this version should not already be marked audited\n        require(\n            !_contractVsVersions[contractName][versionName].audited,\n            \"Version is already audited\"\n        );\n\n        _contractVsVersions[contractName][versionName].audited = true;\n\n        emit VersionAudited(contractName, versionName);\n    }\n\n    /**\n    * @dev Set recommended version\n    * @param contractName Name of the contract\n    * @param versionName Version of the contract\n    * Version should be in Production stage (status 2) and bug level should\n    * not be HIGH or CRITICAL (status level should be less than 3).\n    * Version must be marked as audited\n    */\n    function markRecommendedVersion(\n        string contractName,\n        string versionName\n    )\n        external\n        onlyOwner\n        contractRegistered(contractName)\n        versionExists(contractName, versionName)\n    {\n        //version must be in PRODUCTION state (status 2)\n        require(\n            _contractVsVersions[contractName][versionName].status == Status.PRODUCTION,\n            \"Version is not in PRODUCTION state (status level should be 2)\"\n        );\n\n        //check version must be audited\n        require(\n            _contractVsVersions[contractName][versionName].audited,\n            \"Version is not audited\"\n        );\n\n        //version must have bug level lower than HIGH\n        require(\n            _contractVsVersions[contractName][versionName].bugLevel < BugLevel.HIGH,\n            \"Version bug level is HIGH or CRITICAL (bugLevel should be < 3)\"\n        );\n\n        //mark new version as recommended version for the contract\n        _contractVsRecommendedVersion[contractName] = versionName;\n\n        emit VersionRecommended(contractName, versionName);\n    }\n\n    /**\n    * @dev Get the version of the recommended version for a contract.\n    * @return Details of recommended version\n    */\n    function getRecommendedVersion(\n        string contractName\n    )\n        external\n        view\n        contractRegistered(contractName)\n        returns (\n            string versionName,\n            Status status,\n            BugLevel bugLevel,\n            address implementation,\n            bool audited,\n            uint256 timeAdded\n        )\n    {\n        versionName = _contractVsRecommendedVersion[contractName];\n\n        Version storage recommendedVersion = _contractVsVersions[\n            contractName\n        ][\n            versionName\n        ];\n\n        status = recommendedVersion.status;\n        bugLevel = recommendedVersion.bugLevel;\n        implementation = recommendedVersion.implementation;\n        audited = recommendedVersion.audited;\n        timeAdded = recommendedVersion.timeAdded;\n\n        return (\n            versionName,\n            status,\n            bugLevel,\n            implementation,\n            audited,\n            timeAdded\n        );\n    }\n\n    /**\n    * @dev Get the total number of contracts registered\n    */\n    function getTotalContractCount() external view returns (uint256 count) {\n        count = _contracts.length;\n        return count;\n    }\n\n    /**\n    * @dev Get total count of versions for a contract\n    * @param contractName Name of the contract\n    */\n    function getVersionCountForContract(string contractName)\n        external\n        view\n        returns (uint256 count)\n    {\n        count = _contractVsVersionString[contractName].length;\n        return count;\n    }\n\n    /**\n    * @dev Returns the contract at index\n    * @param index The index to be searched for\n    */\n    function getContractAtIndex(uint256 index)\n        external\n        view\n        returns (string contractName)\n    {\n        contractName = _contracts[index];\n        return contractName;\n    }\n\n    /**\n    * @dev Returns versionName of a contract at a specific index\n    * @param contractName Name of the contract\n    * @param index The index to be searched for\n    */\n    function getVersionAtIndex(string contractName, uint256 index)\n        external\n        view\n        returns (string versionName)\n    {\n        versionName = _contractVsVersionString[contractName][index];\n        return versionName;\n    }\n\n    /**\n    * @dev Returns the version details for the given contract and version\n    * @param contractName Name of the contract\n    * @param versionName Version string for the contract\n    */\n    function getVersionDetails(string contractName, string versionName)\n        external\n        view\n        returns (\n            string versionString,\n            Status status,\n            BugLevel bugLevel,\n            address implementation,\n            bool audited,\n            uint256 timeAdded\n        )\n    {\n        Version storage v = _contractVsVersions[contractName][versionName];\n\n        versionString = v.versionName;\n        status = v.status;\n        bugLevel = v.bugLevel;\n        implementation = v.implementation;\n        audited = v.audited;\n        timeAdded = v.timeAdded;\n\n        return (\n            versionString,\n            status,\n            bugLevel,\n            implementation,\n            audited,\n            timeAdded\n        );\n    }\n\n    /**\n    * @dev Remove the \"recommended\" status of the currently recommended version\n    * of a contract (if any)\n    * @param contractName Name of the contract\n    */\n    function removeRecommendedVersion(string contractName)\n        public\n        onlyOwner\n        contractRegistered(contractName)\n    {\n        //delete it from mapping\n        delete _contractVsRecommendedVersion[contractName];\n\n        emit RecommendedVersionRemoved(contractName);\n    }\n}\n",
  "sourcePath": "/Users/austin/Documents/dev/ob/smart-contracts/contracts/registry/ContractManager.sol",
  "compiler": {
    "name": "solc",
    "version": "0.4.24+commit.e67f0147.Emscripten.clang"
  },
  "schemaVersion": "2.0.1",
  "updatedAt": "2018-11-26T17:06:33.799Z"
}