{
  "contractName": "ContractManager",
  "abi": [
    {
      "constant": false,
      "inputs": [],
      "name": "renounceOwnership",
      "outputs": [],
      "payable": false,
      "stateMutability": "nonpayable",
      "type": "function"
    },
    {
      "constant": true,
      "inputs": [],
      "name": "owner",
      "outputs": [
        {
          "name": "",
          "type": "address"
        }
      ],
      "payable": false,
      "stateMutability": "view",
      "type": "function"
    },
    {
      "constant": false,
      "inputs": [
        {
          "name": "_newOwner",
          "type": "address"
        }
      ],
      "name": "transferOwnership",
      "outputs": [],
      "payable": false,
      "stateMutability": "nonpayable",
      "type": "function"
    },
    {
      "anonymous": false,
      "inputs": [
        {
          "indexed": false,
          "name": "contractName",
          "type": "string"
        },
        {
          "indexed": false,
          "name": "versionName",
          "type": "string"
        },
        {
          "indexed": true,
          "name": "implementation",
          "type": "address"
        }
      ],
      "name": "VersionAdded",
      "type": "event"
    },
    {
      "anonymous": false,
      "inputs": [
        {
          "indexed": false,
          "name": "contractName",
          "type": "string"
        },
        {
          "indexed": false,
          "name": "versionName",
          "type": "string"
        },
        {
          "indexed": false,
          "name": "status",
          "type": "uint8"
        }
      ],
      "name": "StatusChanged",
      "type": "event"
    },
    {
      "anonymous": false,
      "inputs": [
        {
          "indexed": false,
          "name": "contractName",
          "type": "string"
        },
        {
          "indexed": false,
          "name": "versionName",
          "type": "string"
        },
        {
          "indexed": false,
          "name": "bugLevel",
          "type": "uint8"
        }
      ],
      "name": "BugLevelChanged",
      "type": "event"
    },
    {
      "anonymous": false,
      "inputs": [
        {
          "indexed": false,
          "name": "contractName",
          "type": "string"
        },
        {
          "indexed": false,
          "name": "versionName",
          "type": "string"
        }
      ],
      "name": "VersionAudited",
      "type": "event"
    },
    {
      "anonymous": false,
      "inputs": [
        {
          "indexed": false,
          "name": "contractName",
          "type": "string"
        },
        {
          "indexed": false,
          "name": "versionName",
          "type": "string"
        }
      ],
      "name": "VersionRecommended",
      "type": "event"
    },
    {
      "anonymous": false,
      "inputs": [
        {
          "indexed": false,
          "name": "contractName",
          "type": "string"
        }
      ],
      "name": "RecommendedVersionRemoved",
      "type": "event"
    },
    {
      "anonymous": false,
      "inputs": [
        {
          "indexed": true,
          "name": "previousOwner",
          "type": "address"
        }
      ],
      "name": "OwnershipRenounced",
      "type": "event"
    },
    {
      "anonymous": false,
      "inputs": [
        {
          "indexed": true,
          "name": "previousOwner",
          "type": "address"
        },
        {
          "indexed": true,
          "name": "newOwner",
          "type": "address"
        }
      ],
      "name": "OwnershipTransferred",
      "type": "event"
    },
    {
      "constant": false,
      "inputs": [
        {
          "name": "contractName",
          "type": "string"
        },
        {
          "name": "versionName",
          "type": "string"
        },
        {
          "name": "status",
          "type": "uint8"
        },
        {
          "name": "_implementation",
          "type": "address"
        }
      ],
      "name": "addVersion",
      "outputs": [],
      "payable": false,
      "stateMutability": "nonpayable",
      "type": "function"
    },
    {
      "constant": false,
      "inputs": [
        {
          "name": "contractName",
          "type": "string"
        },
        {
          "name": "versionName",
          "type": "string"
        },
        {
          "name": "status",
          "type": "uint8"
        }
      ],
      "name": "changeStatus",
      "outputs": [],
      "payable": false,
      "stateMutability": "nonpayable",
      "type": "function"
    },
    {
      "constant": false,
      "inputs": [
        {
          "name": "contractName",
          "type": "string"
        },
        {
          "name": "versionName",
          "type": "string"
        },
        {
          "name": "bugLevel",
          "type": "uint8"
        }
      ],
      "name": "changeBugLevel",
      "outputs": [],
      "payable": false,
      "stateMutability": "nonpayable",
      "type": "function"
    },
    {
      "constant": false,
      "inputs": [
        {
          "name": "contractName",
          "type": "string"
        },
        {
          "name": "versionName",
          "type": "string"
        }
      ],
      "name": "markVersionAudited",
      "outputs": [],
      "payable": false,
      "stateMutability": "nonpayable",
      "type": "function"
    },
    {
      "constant": false,
      "inputs": [
        {
          "name": "contractName",
          "type": "string"
        },
        {
          "name": "versionName",
          "type": "string"
        }
      ],
      "name": "markRecommendedVersion",
      "outputs": [],
      "payable": false,
      "stateMutability": "nonpayable",
      "type": "function"
    },
    {
      "constant": false,
      "inputs": [
        {
          "name": "contractName",
          "type": "string"
        }
      ],
      "name": "removeRecommendedVersion",
      "outputs": [],
      "payable": false,
      "stateMutability": "nonpayable",
      "type": "function"
    },
    {
      "constant": true,
      "inputs": [
        {
          "name": "contractName",
          "type": "string"
        }
      ],
      "name": "getRecommendedVersion",
      "outputs": [
        {
          "name": "versionName",
          "type": "string"
        },
        {
          "name": "status",
          "type": "uint8"
        },
        {
          "name": "bugLevel",
          "type": "uint8"
        },
        {
          "name": "implementation",
          "type": "address"
        },
        {
          "name": "audited",
          "type": "bool"
        },
        {
          "name": "dateAdded",
          "type": "uint256"
        }
      ],
      "payable": false,
      "stateMutability": "view",
      "type": "function"
    },
    {
      "constant": true,
      "inputs": [],
      "name": "getTotalContractCount",
      "outputs": [
        {
          "name": "count",
          "type": "uint256"
        }
      ],
      "payable": false,
      "stateMutability": "view",
      "type": "function"
    },
    {
      "constant": true,
      "inputs": [
        {
          "name": "contractName",
          "type": "string"
        }
      ],
      "name": "getVersionCountForContract",
      "outputs": [
        {
          "name": "count",
          "type": "uint256"
        }
      ],
      "payable": false,
      "stateMutability": "view",
      "type": "function"
    },
    {
      "constant": true,
      "inputs": [
        {
          "name": "index",
          "type": "uint256"
        }
      ],
      "name": "getContractAtIndex",
      "outputs": [
        {
          "name": "contractName",
          "type": "string"
        }
      ],
      "payable": false,
      "stateMutability": "view",
      "type": "function"
    },
    {
      "constant": true,
      "inputs": [
        {
          "name": "contractName",
          "type": "string"
        },
        {
          "name": "index",
          "type": "uint256"
        }
      ],
      "name": "getVersionAtIndex",
      "outputs": [
        {
          "name": "versionName",
          "type": "string"
        }
      ],
      "payable": false,
      "stateMutability": "view",
      "type": "function"
    },
    {
      "constant": true,
      "inputs": [
        {
          "name": "contractName",
          "type": "string"
        },
        {
          "name": "versionName",
          "type": "string"
        }
      ],
      "name": "getVersionDetails",
      "outputs": [
        {
          "name": "versionString",
          "type": "string"
        },
        {
          "name": "status",
          "type": "uint8"
        },
        {
          "name": "bugLevel",
          "type": "uint8"
        },
        {
          "name": "implementation",
          "type": "address"
        },
        {
          "name": "audited",
          "type": "bool"
        },
        {
          "name": "dateAdded",
          "type": "uint256"
        }
      ],
      "payable": false,
      "stateMutability": "view",
      "type": "function"
    }
  ],
  "bytecode": "0x6080604052336000806101000a81548173ffffffffffffffffffffffffffffffffffffffff021916908373ffffffffffffffffffffffffffffffffffffffff1602179055506135fd806100536000396000f3006080604052600436106100db576000357c0100000000000000000000000000000000000000000000000000000000900463ffffffff1680633de5311a146100e0578063437fe3a3146101605780634890b0c5146101b3578063568d1ee814610213578063715018a614610273578063751f592b1461028a5780637e27634e146102b55780638ad030c1146103d85780638da5cb5b146105135780639b534f181461056a578063acd820a814610610578063af2c7fa314610679578063ca2e7cf314610737578063f2fde38b1461078a578063ff93dab4146107cd575b600080fd5b3480156100ec57600080fd5b5061015e600480360381019080803590602001908201803590602001919091929391929390803590602001908201803590602001919091929391929390803560ff169060200190929190803573ffffffffffffffffffffffffffffffffffffffff16906020019092919050505061081c565b005b34801561016c57600080fd5b506101b1600480360381019080803590602001908201803590602001919091929391929390803590602001908201803590602001919091929391929390505050610fa4565b005b3480156101bf57600080fd5b50610211600480360381019080803590602001908201803590602001919091929391929390803590602001908201803590602001919091929391929390803560ff1690602001909291905050506114f5565b005b34801561021f57600080fd5b50610271600480360381019080803590602001908201803590602001919091929391929390803590602001908201803590602001919091929391929390803560ff169060200190929190505050611b89565b005b34801561027f57600080fd5b5061028861221e565b005b34801561029657600080fd5b5061029f612320565b6040518082815260200191505060405180910390f35b3480156102c157600080fd5b506102ee60048036038101908080359060200190820180359060200191909192939192939050505061232d565b604051808060200187600381111561030257fe5b60ff16815260200186600481111561031657fe5b60ff1681526020018573ffffffffffffffffffffffffffffffffffffffff1673ffffffffffffffffffffffffffffffffffffffff16815260200184151515158152602001838152602001828103825288818151815260200191508051906020019080838360005b8381101561039857808201518184015260208101905061037d565b50505050905090810190601f1680156103c55780820380516001836020036101000a031916815260200191505b5097505050505050505060405180910390f35b3480156103e457600080fd5b5061042960048036038101908080359060200190820180359060200191909192939192939080359060200190820180359060200191909192939192939050505061261e565b604051808060200187600381111561043d57fe5b60ff16815260200186600481111561045157fe5b60ff1681526020018573ffffffffffffffffffffffffffffffffffffffff1673ffffffffffffffffffffffffffffffffffffffff16815260200184151515158152602001838152602001828103825288818151815260200191508051906020019080838360005b838110156104d35780820151818401526020810190506104b8565b50505050905090810190601f1680156105005780820380516001836020036101000a031916815260200191505b5097505050505050505060405180910390f35b34801561051f57600080fd5b5061052861278a565b604051808273ffffffffffffffffffffffffffffffffffffffff1673ffffffffffffffffffffffffffffffffffffffff16815260200191505060405180910390f35b34801561057657600080fd5b50610595600480360381019080803590602001909291905050506127af565b6040518080602001828103825283818151815260200191508051906020019080838360005b838110156105d55780820151818401526020810190506105ba565b50505050905090810190601f1680156106025780820380516001836020036101000a031916815260200191505b509250505060405180910390f35b34801561061c57600080fd5b50610677600480360381019080803590602001908201803590602001908080601f016020809104026020016040519081016040528093929190818152602001838380828437820191505050505050919291929050505061286a565b005b34801561068557600080fd5b506106bc60048036038101908080359060200190820180359060200191909192939192939080359060200190929190505050612aca565b6040518080602001828103825283818151815260200191508051906020019080838360005b838110156106fc5780820151818401526020810190506106e1565b50505050905090810190601f1680156107295780820380516001836020036101000a031916815260200191505b509250505060405180910390f35b34801561074357600080fd5b50610788600480360381019080803590602001908201803590602001919091929391929390803590602001908201803590602001919091929391929390505050612baa565b005b34801561079657600080fd5b506107cb600480360381019080803573ffffffffffffffffffffffffffffffffffffffff1690602001909291905050506132bd565b005b3480156107d957600080fd5b50610806600480360381019080803590602001908201803590602001919091929391929390505050613324565b6040518082815260200191505060405180910390f35b6000809054906101000a900473ffffffffffffffffffffffffffffffffffffffff1673ffffffffffffffffffffffffffffffffffffffff163373ffffffffffffffffffffffffffffffffffffffff1614151561087757600080fd5b80600073ffffffffffffffffffffffffffffffffffffffff168173ffffffffffffffffffffffffffffffffffffffff1614151515610943576040517f08c379a00000000000000000000000000000000000000000000000000000000081526004018080602001828103825260238152602001807f5468652070726f7669646564206164647265737320697320612030206164647281526020017f657373000000000000000000000000000000000000000000000000000000000081525060400191505060405180910390fd5b6000858590501115156109be576040517f08c379a000000000000000000000000000000000000000000000000000000000815260040180806020018281038252601e8152602001807f456d70747920737472696e67207061737365642061732076657273696f6e000081525060200191505060405180910390fd5b600087879050111515610a5f576040517f08c379a00000000000000000000000000000000000000000000000000000000081526004018080602001828103825260248152602001807f456d70747920737472696e672070617373656420617320636f6e74726163742081526020017f6e616d650000000000000000000000000000000000000000000000000000000081525060400191505060405180910390fd5b610a6882613357565b1515610b02576040517f08c379a00000000000000000000000000000000000000000000000000000000081526004018080602001828103825260358152602001807f43616e6e6f7420736574206120696d706c656d656e746174696f6e20746f206181526020017f206e6f6e2d636f6e74726163742061646472657373000000000000000000000081525060400191505060405180910390fd5b6002878760405180838380828437820191505092505050908152602001604051809103902060009054906101000a900460ff161515610bbc576001878790918060018154018082558091505090600182039060005260206000200160009091929390919293909192909192509190610b7b929190613464565b505060016002888860405180838380828437820191505092505050908152602001604051809103902060006101000a81548160ff0219169083151502179055505b600073ffffffffffffffffffffffffffffffffffffffff1660048888604051808383808284378201915050925050509081526020016040518091039020868660405180838380828437820191505092505050908152602001604051809103902060010160029054906101000a900473ffffffffffffffffffffffffffffffffffffffff1673ffffffffffffffffffffffffffffffffffffffff16141515610cf1576040517f08c379a00000000000000000000000000000000000000000000000000000000081526004018080602001828103825260238152602001807f56657273696f6e20616c72656164792065786973747320666f7220636f6e747281526020017f616374000000000000000000000000000000000000000000000000000000000081525060400191505060405180910390fd5b60038787604051808383808284378201915050925050509081526020016040518091039020858590918060018154018082558091505090600182039060005260206000200160009091929390919293909192909192509190610d54929190613464565b505060c06040519081016040528086868080601f0160208091040260200160405190810160405280939291908181526020018383808284378201915050505050508152602001846003811115610da657fe5b815260200160006004811115610db857fe5b81526020018373ffffffffffffffffffffffffffffffffffffffff168152602001600015158152602001428152506004888860405180838380828437820191505092505050908152602001604051809103902086866040518083838082843782019150509250505090815260200160405180910390206000820151816000019080519060200190610e4a9291906134e4565b5060208201518160010160006101000a81548160ff02191690836003811115610e6f57fe5b021790555060408201518160010160016101000a81548160ff02191690836004811115610e9857fe5b021790555060608201518160010160026101000a81548173ffffffffffffffffffffffffffffffffffffffff021916908373ffffffffffffffffffffffffffffffffffffffff16021790555060808201518160010160166101000a81548160ff02191690831515021790555060a082015181600201559050508173ffffffffffffffffffffffffffffffffffffffff167f337b109e3f497728f2bdd27545c9ed1cb52ed4a4103cc94da88b868879c982e2888888886040518080602001806020018381038352878782818152602001925080828437820191505083810382528585828181526020019250808284378201915050965050505050505060405180910390a250505050505050565b83838080601f0160208091040260200160405190810160405280939291908181526020018383808284378201915050505050506002816040518082805190602001908083835b60208310151561100f5780518252602082019150602081019050602083039250610fea565b6001836020036101000a038019825116818451168082178552505050505050905001915050908152602001604051809103902060009054906101000a900460ff1615156110c4576040517f08c379a00000000000000000000000000000000000000000000000000000000081526004018080602001828103825260188152602001807f436f6e747261637420646f6573206e6f7420657869737473000000000000000081525060200191505060405180910390fd5b84848080601f01602080910402602001604051908101604052809392919081815260200183838082843782019150505050505083838080601f016020809104026020016040519081016040528093929190818152602001838380828437820191505050505050600073ffffffffffffffffffffffffffffffffffffffff166004836040518082805190602001908083835b60208310151561117a5780518252602082019150602081019050602083039250611155565b6001836020036101000a0380198251168184511680821785525050505050509050019150509081526020016040518091039020826040518082805190602001908083835b6020831015156111e357805182526020820191506020810190506020830392506111be565b6001836020036101000a038019825116818451168082178552505050505050905001915050908152602001604051809103902060010160029054906101000a900473ffffffffffffffffffffffffffffffffffffffff1673ffffffffffffffffffffffffffffffffffffffff16141515156112ec576040517f08c379a00000000000000000000000000000000000000000000000000000000081526004018080602001828103825260248152602001807f56657273696f6e20646f6573206e6f742065786973747320666f7220636f6e7481526020017f726163740000000000000000000000000000000000000000000000000000000081525060400191505060405180910390fd5b6000809054906101000a900473ffffffffffffffffffffffffffffffffffffffff1673ffffffffffffffffffffffffffffffffffffffff163373ffffffffffffffffffffffffffffffffffffffff1614151561134757600080fd5b60048787604051808383808284378201915050925050509081526020016040518091039020858560405180838380828437820191505092505050908152602001604051809103902060010160169054906101000a900460ff16151515611415576040517f08c379a000000000000000000000000000000000000000000000000000000000815260040180806020018281038252601a8152602001807f56657273696f6e20697320616c7265616479206175646974656400000000000081525060200191505060405180910390fd5b600160048888604051808383808284378201915050925050509081526020016040518091039020868660405180838380828437820191505092505050908152602001604051809103902060010160166101000a81548160ff0219169083151502179055507fdd2996df4158c05ae76d843c929d03eadde75cf3580d1d2f996375ea6cbe9625878787876040518080602001806020018381038352878782818152602001925080828437820191505083810382528585828181526020019250808284378201915050965050505050505060405180910390a150505050505050565b60008060009054906101000a900473ffffffffffffffffffffffffffffffffffffffff1673ffffffffffffffffffffffffffffffffffffffff163373ffffffffffffffffffffffffffffffffffffffff1614151561155257600080fd5b85858080601f0160208091040260200160405190810160405280939291908181526020018383808284378201915050505050506002816040518082805190602001908083835b6020831015156115bd5780518252602082019150602081019050602083039250611598565b6001836020036101000a038019825116818451168082178552505050505050905001915050908152602001604051809103902060009054906101000a900460ff161515611672576040517f08c379a00000000000000000000000000000000000000000000000000000000081526004018080602001828103825260188152602001807f436f6e747261637420646f6573206e6f7420657869737473000000000000000081525060200191505060405180910390fd5b86868080601f01602080910402602001604051908101604052809392919081815260200183838082843782019150505050505085858080601f016020809104026020016040519081016040528093929190818152602001838380828437820191505050505050600073ffffffffffffffffffffffffffffffffffffffff166004836040518082805190602001908083835b6020831015156117285780518252602082019150602081019050602083039250611703565b6001836020036101000a0380198251168184511680821785525050505050509050019150509081526020016040518091039020826040518082805190602001908083835b602083101515611791578051825260208201915060208101905060208303925061176c565b6001836020036101000a038019825116818451168082178552505050505050905001915050908152602001604051809103902060010160029054906101000a900473ffffffffffffffffffffffffffffffffffffffff1673ffffffffffffffffffffffffffffffffffffffff161415151561189a576040517f08c379a00000000000000000000000000000000000000000000000000000000081526004018080602001828103825260248152602001807f56657273696f6e20646f6573206e6f742065786973747320666f7220636f6e7481526020017f726163740000000000000000000000000000000000000000000000000000000081525060400191505060405180910390fd5b6005898960405180838380828437820191505092505050908152602001604051809103902093508686604051602001808383808284378201915050925050506040516020818303038152906040526040518082805190602001908083835b60208310151561191d57805182526020820191506020810190506020830392506118f8565b6001836020036101000a0380198251168184511680821785525050505050509050019150506040518091039020600019168460405160200180828054600181600116156101000203166002900480156119ad5780601f1061198b5761010080835404028352918201916119ad565b820191906000526020600020905b815481529060010190602001808311611999575b50509150506040516020818303038152906040526040518082805190602001908083835b6020831015156119f657805182526020820191506020810190506020830392506119d1565b6001836020036101000a038019825116818451168082178552505050505050905001915050604051809103902060001916148015611a495750600380811115611a3b57fe5b856003811115611a4757fe5b145b15611a8a57611a8989898080601f01602080910402602001604051908101604052809392919081815260200183838082843782019150505050505061286a565b5b8460048a8a604051808383808284378201915050925050509081526020016040518091039020888860405180838380828437820191505092505050908152602001604051809103902060010160006101000a81548160ff02191690836003811115611af157fe5b02179055507ea1d2d212fdb196f10c2b940b5f032473f79d8fcf0739ae900d5767500213878989898989604051808060200180602001846003811115611b3357fe5b60ff168152602001838103835288888281815260200192508082843782019150508381038252868682818152602001925080828437820191505097505050505050505060405180910390a1505050505050505050565b60008060009054906101000a900473ffffffffffffffffffffffffffffffffffffffff1673ffffffffffffffffffffffffffffffffffffffff163373ffffffffffffffffffffffffffffffffffffffff16141515611be657600080fd5b85858080601f0160208091040260200160405190810160405280939291908181526020018383808284378201915050505050506002816040518082805190602001908083835b602083101515611c515780518252602082019150602081019050602083039250611c2c565b6001836020036101000a038019825116818451168082178552505050505050905001915050908152602001604051809103902060009054906101000a900460ff161515611d06576040517f08c379a00000000000000000000000000000000000000000000000000000000081526004018080602001828103825260188152602001807f436f6e747261637420646f6573206e6f7420657869737473000000000000000081525060200191505060405180910390fd5b86868080601f01602080910402602001604051908101604052809392919081815260200183838082843782019150505050505085858080601f016020809104026020016040519081016040528093929190818152602001838380828437820191505050505050600073ffffffffffffffffffffffffffffffffffffffff166004836040518082805190602001908083835b602083101515611dbc5780518252602082019150602081019050602083039250611d97565b6001836020036101000a0380198251168184511680821785525050505050509050019150509081526020016040518091039020826040518082805190602001908083835b602083101515611e255780518252602082019150602081019050602083039250611e00565b6001836020036101000a038019825116818451168082178552505050505050905001915050908152602001604051809103902060010160029054906101000a900473ffffffffffffffffffffffffffffffffffffffff1673ffffffffffffffffffffffffffffffffffffffff1614151515611f2e576040517f08c379a00000000000000000000000000000000000000000000000000000000081526004018080602001828103825260248152602001807f56657273696f6e20646f6573206e6f742065786973747320666f7220636f6e7481526020017f726163740000000000000000000000000000000000000000000000000000000081525060400191505060405180910390fd5b6005898960405180838380828437820191505092505050908152602001604051809103902093508686604051602001808383808284378201915050925050506040516020818303038152906040526040518082805190602001908083835b602083101515611fb15780518252602082019150602081019050602083039250611f8c565b6001836020036101000a0380198251168184511680821785525050505050509050019150506040518091039020600019168460405160200180828054600181600116156101000203166002900480156120415780601f1061201f576101008083540402835291820191612041565b820191906000526020600020905b81548152906001019060200180831161202d575b50509150506040516020818303038152906040526040518082805190602001908083835b60208310151561208a5780518252602082019150602081019050602083039250612065565b6001836020036101000a0380198251168184511680821785525050505050509050019150506040518091039020600019161480156120dd57506004808111156120cf57fe5b8560048111156120db57fe5b145b1561211e5761211d89898080601f01602080910402602001604051908101604052809392919081815260200183838082843782019150505050505061286a565b5b8460048a8a604051808383808284378201915050925050509081526020016040518091039020888860405180838380828437820191505092505050908152602001604051809103902060010160016101000a81548160ff0219169083600481111561218557fe5b02179055507f92d0e6a4dfcd933ffb179b251aa0d734eb16556c0813246989fddaf08a7d009d89898989896040518080602001806020018460048111156121c857fe5b60ff168152602001838103835288888281815260200192508082843782019150508381038252868682818152602001925080828437820191505097505050505050505060405180910390a1505050505050505050565b6000809054906101000a900473ffffffffffffffffffffffffffffffffffffffff1673ffffffffffffffffffffffffffffffffffffffff163373ffffffffffffffffffffffffffffffffffffffff1614151561227957600080fd5b6000809054906101000a900473ffffffffffffffffffffffffffffffffffffffff1673ffffffffffffffffffffffffffffffffffffffff167ff8df31144d9c2f0f6b59d69b8b98abd5459d07f2742c4df920b25aae33c6482060405160405180910390a260008060006101000a81548173ffffffffffffffffffffffffffffffffffffffff021916908373ffffffffffffffffffffffffffffffffffffffff160217905550565b6000600180549050905090565b606060008060008060008088888080601f0160208091040260200160405190810160405280939291908181526020018383808284378201915050505050506002816040518082805190602001908083835b6020831015156123a3578051825260208201915060208101905060208303925061237e565b6001836020036101000a038019825116818451168082178552505050505050905001915050908152602001604051809103902060009054906101000a900460ff161515612458576040517f08c379a00000000000000000000000000000000000000000000000000000000081526004018080602001828103825260188152602001807f436f6e747261637420646f6573206e6f7420657869737473000000000000000081525060200191505060405180910390fd5b60058a8a6040518083838082843782019150509250505090815260200160405180910390208054600181600116156101000203166002900480601f0160208091040260200160405190810160405280929190818152602001828054600181600116156101000203166002900480156125115780601f106124e657610100808354040283529160200191612511565b820191906000526020600020905b8154815290600101906020018083116124f457829003601f168201915b5050505050975060048a8a604051808383808284378201915050925050509081526020016040518091039020886040518082805190602001908083835b602083101515612573578051825260208201915060208101905060208303925061254e565b6001836020036101000a038019825116818451168082178552505050505050905001915050908152602001604051809103902091508160010160009054906101000a900460ff1696508160010160019054906101000a900460ff1695508160010160029054906101000a900473ffffffffffffffffffffffffffffffffffffffff1694508160010160169054906101000a900460ff1693508160020154925050509295509295509295565b606060008060008060008060048b8b60405180838380828437820191505092505050908152602001604051809103902089896040518083838082843782019150509250505090815260200160405180910390209050806000018054600181600116156101000203166002900480601f01602080910402602001604051908101604052809291908181526020018280546001816001161561010002031660029004801561270b5780601f106126e05761010080835404028352916020019161270b565b820191906000526020600020905b8154815290600101906020018083116126ee57829003601f168201915b505050505096508060010160009054906101000a900460ff1695508060010160019054906101000a900460ff1694508060010160029054906101000a900473ffffffffffffffffffffffffffffffffffffffff1693508060010160169054906101000a900460ff16925080600201549150509499939850945094509450565b6000809054906101000a900473ffffffffffffffffffffffffffffffffffffffff1681565b60606001828154811015156127c057fe5b906000526020600020018054600181600116156101000203166002900480601f01602080910402602001604051908101604052809291908181526020018280546001816001161561010002031660029004801561285e5780601f106128335761010080835404028352916020019161285e565b820191906000526020600020905b81548152906001019060200180831161284157829003601f168201915b50505050509050919050565b6000809054906101000a900473ffffffffffffffffffffffffffffffffffffffff1673ffffffffffffffffffffffffffffffffffffffff163373ffffffffffffffffffffffffffffffffffffffff161415156128c557600080fd5b806002816040518082805190602001908083835b6020831015156128fe57805182526020820191506020810190506020830392506128d9565b6001836020036101000a038019825116818451168082178552505050505050905001915050908152602001604051809103902060009054906101000a900460ff1615156129b3576040517f08c379a00000000000000000000000000000000000000000000000000000000081526004018080602001828103825260188152602001807f436f6e747261637420646f6573206e6f7420657869737473000000000000000081525060200191505060405180910390fd5b6005826040518082805190602001908083835b6020831015156129eb57805182526020820191506020810190506020830392506129c6565b6001836020036101000a03801982511681845116808217855250505050505090500191505090815260200160405180910390206000612a2a9190613564565b7f07b20feb74e0118ee3c73d4cb8d0eb4da169604c68aa233293b094cedcd225f2826040518080602001828103825283818151815260200191508051906020019080838360005b83811015612a8c578082015181840152602081019050612a71565b50505050905090810190601f168015612ab95780820380516001836020036101000a031916815260200191505b509250505060405180910390a15050565b60606003848460405180838380828437820191505092505050908152602001604051809103902082815481101515612afe57fe5b906000526020600020018054600181600116156101000203166002900480601f016020809104026020016040519081016040528092919081815260200182805460018160011615610100020316600290048015612b9c5780601f10612b7157610100808354040283529160200191612b9c565b820191906000526020600020905b815481529060010190602001808311612b7f57829003601f168201915b505050505090509392505050565b6000809054906101000a900473ffffffffffffffffffffffffffffffffffffffff1673ffffffffffffffffffffffffffffffffffffffff163373ffffffffffffffffffffffffffffffffffffffff16141515612c0557600080fd5b83838080601f0160208091040260200160405190810160405280939291908181526020018383808284378201915050505050506002816040518082805190602001908083835b602083101515612c705780518252602082019150602081019050602083039250612c4b565b6001836020036101000a038019825116818451168082178552505050505050905001915050908152602001604051809103902060009054906101000a900460ff161515612d25576040517f08c379a00000000000000000000000000000000000000000000000000000000081526004018080602001828103825260188152602001807f436f6e747261637420646f6573206e6f7420657869737473000000000000000081525060200191505060405180910390fd5b84848080601f01602080910402602001604051908101604052809392919081815260200183838082843782019150505050505083838080601f016020809104026020016040519081016040528093929190818152602001838380828437820191505050505050600073ffffffffffffffffffffffffffffffffffffffff166004836040518082805190602001908083835b602083101515612ddb5780518252602082019150602081019050602083039250612db6565b6001836020036101000a0380198251168184511680821785525050505050509050019150509081526020016040518091039020826040518082805190602001908083835b602083101515612e445780518252602082019150602081019050602083039250612e1f565b6001836020036101000a038019825116818451168082178552505050505050905001915050908152602001604051809103902060010160029054906101000a900473ffffffffffffffffffffffffffffffffffffffff1673ffffffffffffffffffffffffffffffffffffffff1614151515612f4d576040517f08c379a00000000000000000000000000000000000000000000000000000000081526004018080602001828103825260248152602001807f56657273696f6e20646f6573206e6f742065786973747320666f7220636f6e7481526020017f726163740000000000000000000000000000000000000000000000000000000081525060400191505060405180910390fd5b60026003811115612f5a57fe5b60048888604051808383808284378201915050925050509081526020016040518091039020868660405180838380828437820191505092505050908152602001604051809103902060010160009054906101000a900460ff166003811115612fbe57fe5b141515613033576040517f08c379a000000000000000000000000000000000000000000000000000000000815260040180806020018281038252601f8152602001807f56657273696f6e206e6f7420696e2070726f64756374696f6e2073746174650081525060200191505060405180910390fd5b60048787604051808383808284378201915050925050509081526020016040518091039020858560405180838380828437820191505092505050908152602001604051809103902060010160169054906101000a900460ff161515613100576040517f08c379a00000000000000000000000000000000000000000000000000000000081526004018080602001828103825260168152602001807f56657273696f6e206973206e6f7420617564697465640000000000000000000081525060200191505060405180910390fd5b6003600481111561310d57fe5b60048888604051808383808284378201915050925050509081526020016040518091039020868660405180838380828437820191505092505050908152602001604051809103902060010160019054906101000a900460ff16600481111561317157fe5b10151561320c576040517f08c379a00000000000000000000000000000000000000000000000000000000081526004018080602001828103825260288152602001807f56657273696f6e20627567206c6576656c206973206e6f74206c6f776572207481526020017f68616e204849474800000000000000000000000000000000000000000000000081525060400191505060405180910390fd5b8484600589896040518083838082843782019150509250505090815260200160405180910390209190613240929190613464565b507fb318550bf93edf51de4bae84db3deabd2a866cc407435a72317ca2503e2a07a6878787876040518080602001806020018381038352878782818152602001925080828437820191505083810382528585828181526020019250808284378201915050965050505050505060405180910390a150505050505050565b6000809054906101000a900473ffffffffffffffffffffffffffffffffffffffff1673ffffffffffffffffffffffffffffffffffffffff163373ffffffffffffffffffffffffffffffffffffffff1614151561331857600080fd5b6133218161336a565b50565b60006003838360405180838380828437820191505092505050908152602001604051809103902080549050905092915050565b600080823b905060008111915050919050565b600073ffffffffffffffffffffffffffffffffffffffff168173ffffffffffffffffffffffffffffffffffffffff16141515156133a657600080fd5b8073ffffffffffffffffffffffffffffffffffffffff166000809054906101000a900473ffffffffffffffffffffffffffffffffffffffff1673ffffffffffffffffffffffffffffffffffffffff167f8be0079c531659141344cd1fd0a4f28419497f9722a3daafe3b4186f6b6457e060405160405180910390a3806000806101000a81548173ffffffffffffffffffffffffffffffffffffffff021916908373ffffffffffffffffffffffffffffffffffffffff16021790555050565b828054600181600116156101000203166002900490600052602060002090601f016020900481019282601f106134a557803560ff19168380011785556134d3565b828001600101855582156134d3579182015b828111156134d25782358255916020019190600101906134b7565b5b5090506134e091906135ac565b5090565b828054600181600116156101000203166002900490600052602060002090601f016020900481019282601f1061352557805160ff1916838001178555613553565b82800160010185558215613553579182015b82811115613552578251825591602001919060010190613537565b5b50905061356091906135ac565b5090565b50805460018160011615610100020316600290046000825580601f1061358a57506135a9565b601f0160209004906000526020600020908101906135a891906135ac565b5b50565b6135ce91905b808211156135ca5760008160009055506001016135b2565b5090565b905600a165627a7a72305820e3907d652a359c4989702252e7d5f98943e481957deb189eba5cdf5e4b6c38dd0029",
  "source": "pragma solidity 0.4.24;\n\nimport \"openzeppelin-solidity/contracts/ownership/Ownable.sol\";\nimport \"openzeppelin-solidity/contracts/AddressUtils.sol\";\n\n/** \n* @dev Contract Version Manager for non-upgradeable contracts\n*/\ncontract ContractManager is Ownable {\n\n\n    event VersionAdded(string contractName, string versionName, address indexed implementation);\n\n    event StatusChanged(string contractName, string versionName, Status status);\n\n    event BugLevelChanged(string contractName, string versionName, BugLevel bugLevel);\n\n    event VersionAudited(string contractName, string versionName);\n\n    event VersionRecommended(string contractName, string versionName);\n\n    event RecommendedVersionRemoved(string contractName);\n\n    /**\n    * @dev SIGNIFIES THE STATUS OF THE VERSION\n    */\n    enum Status {BETA, RC, PRODUCTION, DEPRECATED}\n    \n    /**\n    * @dev SIGNIFIES THE LEVEL OF BUG FOUND WITHIN THE VERSION\n    */\n    enum BugLevel{NONE, LOW, MEDIUM, HIGH, CRITICAL}\n\n    /**\n    * @dev The structure of the each version to be followed\n    */\n    struct Version {\n        string versionName;// the version number string v1.0\n        Status status;// Whether the version is BETA, RC OR PRODUCTION\n        BugLevel bugLevel;// If any found\n        address implementation;// The address of the version contract being referenced\n        bool audited;// The boolean to mark whether the contract was audited or not\n        uint256 dateAdded;// The date when this version was registered with the contract\n    }\n\n    /** \n    * @dev List of all contracts registered\n    */\n    string[] internal contracts;\n\n    /** \n    * @dev To keep track which contracts has been registered so far to save gas while check redundant contracts\n    */\n    mapping(string=>bool)internal contractExists;\n\n    /** \n    * @dev Kepp track of all contract version\n    */\n    mapping(string=>string[])internal contractVsVersionString;     \n\n\n    /** \n    * @dev Mapping of contract name and each of it's different versions\n    */\n    mapping(string=>mapping(string=>Version))internal  contractVsVersions;\n\n    /** \n    * @dev Mapping between contract name and it's recommended version\n    */\n\n    mapping(string=>string)internal contractVsRecommendedVersion;\n\n\n    modifier nonZeroAddress(address _address){\n        require(_address != address(0), \"The provided address is a 0 address\");\n        _;\n    }\n\n    modifier contractRegistered(string contractName) {\n        \n        require(contractExists[contractName], \"Contract does not exists\");\n        _;\n    }\n\n    modifier versionExists(string contractName, string versionName) {\n        require(contractVsVersions[contractName][versionName].implementation != address(0), \"Version does not exists for contract\");\n        _;\n    }\n\n\n    /** \n    * @dev Allow owner to add new version for the contract\n    * @param contractName The contract name for which the version is to be added\n    * @param versionName The version string\n    * @param status Status of the version\n    * @param _implementation The address of the version implementation\n    */\n    function addVersion(string contractName, string versionName, Status status, address _implementation)external\n     onlyOwner nonZeroAddress(_implementation){\n\n        //can't pass empty string as version\n        require(bytes(versionName).length>0, \"Empty string passed as version\");\n\n        //contract name can't be empty string\n        require(bytes(contractName).length>0, \"Empty string passed as contract name\");\n\n        //Check that the implementation corresponds to a contract address\n        require(AddressUtils.isContract(_implementation), \"Cannot set a implementation to a non-contract address\");\n\n        if(!contractExists[contractName]){\n            contracts.push(contractName);\n            contractExists[contractName] = true;\n        }\n\n        //check version should not already exist for the contract\n        require(contractVsVersions[contractName][versionName].implementation == address(0), \"Version already exists for contract\");\n        contractVsVersionString[contractName].push(versionName);\n\n        contractVsVersions[contractName][versionName] = Version({\n            versionName:versionName,\n            status:status,\n            bugLevel:BugLevel.NONE,\n            implementation:_implementation,\n            audited:false,\n            dateAdded:block.timestamp\n        });\n\n        emit VersionAdded(contractName, versionName, _implementation);\n    }\n\n    /** \n    * @dev change status of the version\n    * @param contractName Name of the contract\n    * @param versionName Version of the contract\n    * @param status Status to be set\n    */\n    function changeStatus(string contractName, string versionName, Status status)external\n     onlyOwner contractRegistered(contractName) versionExists(contractName, versionName) {\n         \n        string storage recommendedVersion = contractVsRecommendedVersion[contractName];\n        \n        //if recommended version is being marked as DEPRECATED then it will removed from being recommended\n        if(keccak256(abi.encodePacked(recommendedVersion)) == keccak256(abi.encodePacked(versionName)) && status == Status.DEPRECATED){\n            removeRecommendedVersion(contractName);\n        }\n\n        contractVsVersions[contractName][versionName].status = status;\n\n        emit StatusChanged(contractName, versionName, status);\n    }\n\n    /** \n    * @dev Change the bug level for the contract\n    * @param contractName Name of the contract\n    * @param versionName Version of the contract\n    * @param bugLevel New bug level for the contract\n    */\n    function changeBugLevel(string contractName, string versionName, BugLevel bugLevel)external\n     onlyOwner contractRegistered(contractName) versionExists(contractName, versionName) {\n\n        string storage recommendedVersion = contractVsRecommendedVersion[contractName];\n\n        //if recommended version is being marked as critical then it will removed from being recommended\n        if(keccak256(abi.encodePacked(recommendedVersion)) == keccak256(abi.encodePacked(versionName)) && bugLevel == BugLevel.CRITICAL){\n            removeRecommendedVersion(contractName);\n        } \n\n        contractVsVersions[contractName][versionName].bugLevel = bugLevel;\n\n        emit BugLevelChanged(contractName, versionName, bugLevel);\n    }\n\n    /**\n    * @dev Mark version as audited\n    * @param contractName Name of the contract\n    * @param versionName Version of the contract\n    */\n    function markVersionAudited(string contractName, string versionName)external\n     contractRegistered(contractName) versionExists(contractName, versionName) onlyOwner{\n        \n        //Version should not be already audited\n        require(!contractVsVersions[contractName][versionName].audited, \"Version is already audited\");\n\n        contractVsVersions[contractName][versionName].audited = true;\n\n        emit VersionAudited(contractName, versionName);\n    }  \n\n    /** \n    * @dev Set recommended version\n    * @param contractName Name of the contract\n    * @param versionName Version of the contract\n    * Version should be in Production stage and bug level should not be high or critical.\n    * Version must be audited\n    */\n    function markRecommendedVersion(string contractName, string versionName)external\n     onlyOwner contractRegistered(contractName) versionExists(contractName, versionName){\n\n        //check version should be in production state\n        require(contractVsVersions[contractName][versionName].status == Status.PRODUCTION, \"Version not in production state\");\n\n        //check version must be audited\n        require(contractVsVersions[contractName][versionName].audited, \"Version is not audited\");\n\n        //check version has bug level lower than HIGH\n        require(contractVsVersions[contractName][versionName].bugLevel < BugLevel.HIGH, \"Version bug level is not lower than HIGH\");\n\n        //Put new version as recommended version for the contract\n        contractVsRecommendedVersion[contractName] = versionName;\n\n        emit VersionRecommended(contractName, versionName);\n\n    }\n\n    /** \n    * @dev Remove any recommended version for the contract and sets it to NULL\n    * @param contractName Name of the contract\n    */\n    function removeRecommendedVersion(string contractName)public\n     onlyOwner contractRegistered(contractName){\n\n        //delete it from mapping\n        delete contractVsRecommendedVersion[contractName];\n\n        emit RecommendedVersionRemoved(contractName);\n\n    }\n\n    /** \n    * @dev Get recommended version for the contract.\n    * @return Details of recommended version    \n    */\n    function getRecommendedVersion(string contractName)external view contractRegistered(contractName)\n     returns(string versionName, Status status, BugLevel bugLevel, address implementation, bool audited, uint256 dateAdded){\n\n        versionName = contractVsRecommendedVersion[contractName];\n\n        Version storage recommendedVersion = contractVsVersions[contractName][versionName];\n\n        status = recommendedVersion.status;\n        bugLevel = recommendedVersion.bugLevel;\n        implementation = recommendedVersion.implementation;\n        audited = recommendedVersion.audited;\n        dateAdded = recommendedVersion.dateAdded;\n    }\n    \n    /** \n    * @dev Get total count of contracts registered\n    */\n    function getTotalContractCount()external view returns(uint256 count) {\n        count = contracts.length;\n    }\n\n    /** \n    * @dev Get total count of versions for the contract\n    * @param contractName Name of the contract\n    */\n    function getVersionCountForContract(string contractName)external view returns(uint256 count){\n        count = contractVsVersionString[contractName].length;\n    }\n\n    /** \n    * @dev Returns the contract at index\n    * @param index The index to be searched for\n    */\n    function getContractAtIndex(uint256 index)external view returns(string contractName){\n        contractName = contracts[index];\n    }\n\n    /** \n    * @dev Returns version of a contract at specific index\n    * @param contractName Name of the contract\n    * @param index The index to be searched for\n    */\n    function getVersionAtIndex(string contractName, uint256 index)external view returns(string versionName){\n        versionName = contractVsVersionString[contractName][index];\n    }\n\n    /** \n    * @dev Returns the version details for the given contract and version\n    * @param contractName Name of the contract\n    * @param versionName Version string for the contract\n    */\n    function getVersionDetails(string contractName, string versionName)external view\n     returns(string versionString, Status status, BugLevel bugLevel, address implementation,  bool audited, uint256 dateAdded){\n        \n        Version storage v = contractVsVersions[contractName][versionName];\n\n        versionString = v.versionName;\n        status = v.status;\n        bugLevel = v.bugLevel;\n        implementation = v.implementation;\n        audited = v.audited;\n        dateAdded = v.dateAdded;\n    }\n}",
  "sourcePath": "/home/sameep/freelancing-projects/toptal/open baazar/publicRepo/smart-contracts/contracts/registry/ContractManager.sol",
  "compiler": {
    "name": "solc",
    "version": "0.4.24+commit.e67f0147.Emscripten.clang"
  },
  "schemaVersion": "2.0.1",
  "updatedAt": "2018-09-17T18:04:07.956Z"
}