{
  "contractName": "Escrow_v1_0",
  "abi": [
    {
      "constant": true,
      "inputs": [
        {
          "name": "",
          "type": "bytes32"
        }
      ],
      "name": "transactions",
      "outputs": [
        {
          "name": "value",
          "type": "uint256"
        },
        {
          "name": "lastModified",
          "type": "uint256"
        },
        {
          "name": "status",
          "type": "uint8"
        },
        {
          "name": "transactionType",
          "type": "uint8"
        },
        {
          "name": "threshold",
          "type": "uint8"
        },
        {
          "name": "timeoutHours",
          "type": "uint32"
        },
        {
          "name": "buyer",
          "type": "address"
        },
        {
          "name": "seller",
          "type": "address"
        },
        {
          "name": "tokenAddress",
          "type": "address"
        },
        {
          "name": "moderator",
          "type": "address"
        }
      ],
      "payable": false,
      "stateMutability": "view",
      "type": "function"
    },
    {
      "constant": true,
      "inputs": [],
      "name": "transactionCount",
      "outputs": [
        {
          "name": "",
          "type": "uint256"
        }
      ],
      "payable": false,
      "stateMutability": "view",
      "type": "function"
    },
    {
      "constant": true,
      "inputs": [
        {
          "name": "",
          "type": "address"
        },
        {
          "name": "",
          "type": "uint256"
        }
      ],
      "name": "partyVsTransaction",
      "outputs": [
        {
          "name": "",
          "type": "bytes32"
        }
      ],
      "payable": false,
      "stateMutability": "view",
      "type": "function"
    },
    {
      "anonymous": false,
      "inputs": [
        {
          "indexed": false,
          "name": "scriptHash",
          "type": "bytes32"
        },
        {
          "indexed": false,
          "name": "destinations",
          "type": "address[]"
        },
        {
          "indexed": false,
          "name": "amounts",
          "type": "uint256[]"
        }
      ],
      "name": "Executed",
      "type": "event"
    },
    {
      "anonymous": false,
      "inputs": [
        {
          "indexed": false,
          "name": "scriptHash",
          "type": "bytes32"
        },
        {
          "indexed": true,
          "name": "from",
          "type": "address"
        },
        {
          "indexed": false,
          "name": "valueAdded",
          "type": "uint256"
        }
      ],
      "name": "FundAdded",
      "type": "event"
    },
    {
      "anonymous": false,
      "inputs": [
        {
          "indexed": false,
          "name": "scriptHash",
          "type": "bytes32"
        },
        {
          "indexed": true,
          "name": "from",
          "type": "address"
        },
        {
          "indexed": false,
          "name": "value",
          "type": "uint256"
        }
      ],
      "name": "Funded",
      "type": "event"
    },
    {
      "constant": false,
      "inputs": [
        {
          "name": "buyer",
          "type": "address"
        },
        {
          "name": "seller",
          "type": "address"
        },
        {
          "name": "moderator",
          "type": "address"
        },
        {
          "name": "threshold",
          "type": "uint8"
        },
        {
          "name": "timeoutHours",
          "type": "uint32"
        },
        {
          "name": "scriptHash",
          "type": "bytes32"
        },
        {
          "name": "uniqueId",
          "type": "bytes20"
        }
      ],
      "name": "addTransaction",
      "outputs": [],
      "payable": true,
      "stateMutability": "payable",
      "type": "function"
    },
    {
      "constant": false,
      "inputs": [
        {
          "name": "buyer",
          "type": "address"
        },
        {
          "name": "seller",
          "type": "address"
        },
        {
          "name": "moderator",
          "type": "address"
        },
        {
          "name": "threshold",
          "type": "uint8"
        },
        {
          "name": "timeoutHours",
          "type": "uint32"
        },
        {
          "name": "scriptHash",
          "type": "bytes32"
        },
        {
          "name": "value",
          "type": "uint256"
        },
        {
          "name": "uniqueId",
          "type": "bytes20"
        },
        {
          "name": "tokenAddress",
          "type": "address"
        }
      ],
      "name": "addTokenTransaction",
      "outputs": [],
      "payable": false,
      "stateMutability": "nonpayable",
      "type": "function"
    },
    {
      "constant": true,
      "inputs": [
        {
          "name": "scriptHash",
          "type": "bytes32"
        },
        {
          "name": "beneficiary",
          "type": "address"
        }
      ],
      "name": "checkBeneficiary",
      "outputs": [
        {
          "name": "",
          "type": "bool"
        }
      ],
      "payable": false,
      "stateMutability": "view",
      "type": "function"
    },
    {
      "constant": true,
      "inputs": [
        {
          "name": "scriptHash",
          "type": "bytes32"
        },
        {
          "name": "party",
          "type": "address"
        }
      ],
      "name": "checkVote",
      "outputs": [
        {
          "name": "",
          "type": "bool"
        }
      ],
      "payable": false,
      "stateMutability": "view",
      "type": "function"
    },
    {
      "constant": false,
      "inputs": [
        {
          "name": "scriptHash",
          "type": "bytes32"
        }
      ],
      "name": "addFundsToTransaction",
      "outputs": [],
      "payable": true,
      "stateMutability": "payable",
      "type": "function"
    },
    {
      "constant": false,
      "inputs": [
        {
          "name": "scriptHash",
          "type": "bytes32"
        },
        {
          "name": "value",
          "type": "uint256"
        }
      ],
      "name": "addTokensToTransaction",
      "outputs": [],
      "payable": false,
      "stateMutability": "nonpayable",
      "type": "function"
    },
    {
      "constant": true,
      "inputs": [
        {
          "name": "partyAddress",
          "type": "address"
        }
      ],
      "name": "getAllTransactionsForParty",
      "outputs": [
        {
          "name": "",
          "type": "bytes32[]"
        }
      ],
      "payable": false,
      "stateMutability": "view",
      "type": "function"
    },
    {
      "constant": false,
      "inputs": [
        {
          "name": "sigV",
          "type": "uint8[]"
        },
        {
          "name": "sigR",
          "type": "bytes32[]"
        },
        {
          "name": "sigS",
          "type": "bytes32[]"
        },
        {
          "name": "scriptHash",
          "type": "bytes32"
        },
        {
          "name": "destinations",
          "type": "address[]"
        },
        {
          "name": "amounts",
          "type": "uint256[]"
        }
      ],
      "name": "execute",
      "outputs": [],
      "payable": false,
      "stateMutability": "nonpayable",
      "type": "function"
    },
    {
      "constant": true,
      "inputs": [
        {
          "name": "uniqueId",
          "type": "bytes20"
        },
        {
          "name": "threshold",
          "type": "uint8"
        },
        {
          "name": "timeoutHours",
          "type": "uint32"
        },
        {
          "name": "buyer",
          "type": "address"
        },
        {
          "name": "seller",
          "type": "address"
        },
        {
          "name": "moderator",
          "type": "address"
        },
        {
          "name": "tokenAddress",
          "type": "address"
        }
      ],
      "name": "calculateRedeemScriptHash",
      "outputs": [
        {
          "name": "",
          "type": "bytes32"
        }
      ],
      "payable": false,
      "stateMutability": "view",
      "type": "function"
    }
  ],
  "bytecode": "0x6080604052600060015534801561001557600080fd5b50614210806100256000396000f3006080604052600436106100ba576000357c0100000000000000000000000000000000000000000000000000000000900463ffffffff16806323b6fd3f146100bf5780632d9ef96e1461017957806346fbcdeb1461019d57806357bced7614610292578063642f2eaf14610383578063b0550c66146104e5578063b719e2801461054e578063b77bf60014610589578063be84ceaf146105b4578063e4ec8b001461064c578063f0786562146106f5578063f5dbe09c1461075e575b600080fd5b610177600480360381019080803573ffffffffffffffffffffffffffffffffffffffff169060200190929190803573ffffffffffffffffffffffffffffffffffffffff169060200190929190803573ffffffffffffffffffffffffffffffffffffffff169060200190929190803560ff169060200190929190803563ffffffff169060200190929190803560001916906020019092919080356bffffffffffffffffffffffff191690602001909291905050506107c7565b005b61019b6004803603810190808035600019169060200190929190505050610a26565b005b3480156101a957600080fd5b5061027460048036038101908080356bffffffffffffffffffffffff19169060200190929190803560ff169060200190929190803563ffffffff169060200190929190803573ffffffffffffffffffffffffffffffffffffffff169060200190929190803573ffffffffffffffffffffffffffffffffffffffff169060200190929190803573ffffffffffffffffffffffffffffffffffffffff169060200190929190803573ffffffffffffffffffffffffffffffffffffffff169060200190929190505050610eb4565b60405180826000191660001916815260200191505060405180910390f35b34801561029e57600080fd5b50610381600480360381019080803573ffffffffffffffffffffffffffffffffffffffff169060200190929190803573ffffffffffffffffffffffffffffffffffffffff169060200190929190803573ffffffffffffffffffffffffffffffffffffffff169060200190929190803560ff169060200190929190803563ffffffff16906020019092919080356000191690602001909291908035906020019092919080356bffffffffffffffffffffffff19169060200190929190803573ffffffffffffffffffffffffffffffffffffffff169060200190929190505050611360565b005b34801561038f57600080fd5b506103b26004803603810190808035600019169060200190929190505050611840565b604051808b81526020018a81526020018960018111156103ce57fe5b60ff1681526020018860018111156103e257fe5b60ff1681526020018760ff1660ff1681526020018663ffffffff1663ffffffff1681526020018573ffffffffffffffffffffffffffffffffffffffff1673ffffffffffffffffffffffffffffffffffffffff1681526020018473ffffffffffffffffffffffffffffffffffffffff1673ffffffffffffffffffffffffffffffffffffffff1681526020018373ffffffffffffffffffffffffffffffffffffffff1673ffffffffffffffffffffffffffffffffffffffff1681526020018273ffffffffffffffffffffffffffffffffffffffff1673ffffffffffffffffffffffffffffffffffffffff1681526020019a505050505050505050505060405180910390f35b3480156104f157600080fd5b506105346004803603810190808035600019169060200190929190803573ffffffffffffffffffffffffffffffffffffffff16906020019092919050505061194b565b604051808215151515815260200191505060405180910390f35b34801561055a57600080fd5b506105876004803603810190808035600019169060200190929190803590602001909291905050506119bd565b005b34801561059557600080fd5b5061059e61209d565b6040518082815260200191505060405180910390f35b3480156105c057600080fd5b506105f5600480360381019080803573ffffffffffffffffffffffffffffffffffffffff1690602001909291905050506120a3565b6040518080602001828103825283818151815260200191508051906020019060200280838360005b8381101561063857808201518184015260208101905061061d565b505050509050019250505060405180910390f35b34801561065857600080fd5b506106f3600480360381019080803590602001908201803590602001919091929391929390803590602001908201803590602001919091929391929390803590602001908201803590602001919091929391929390803560001916906020019092919080359060200190820180359060200191909192939192939080359060200190820180359060200191909192939192939050505061213e565b005b34801561070157600080fd5b506107446004803603810190808035600019169060200190929190803573ffffffffffffffffffffffffffffffffffffffff1690602001909291905050506126a0565b604051808215151515815260200191505060405180910390f35b34801561076a57600080fd5b506107a9600480360381019080803573ffffffffffffffffffffffffffffffffffffffff16906020019092919080359060200190929190505050612712565b60405180826000191660001916815260200191505060405180910390f35b81600080600083600019166000191681526020019081526020016000206000015414151561085d576040517f08c379a00000000000000000000000000000000000000000000000000000000081526004018080602001828103825260128152602001807f5472616e73616374696f6e20657869737473000000000000000000000000000081525060200191505060405180910390fd5b87600073ffffffffffffffffffffffffffffffffffffffff168173ffffffffffffffffffffffffffffffffffffffff1614151515610903576040517f08c379a00000000000000000000000000000000000000000000000000000000081526004018080602001828103825260138152602001807f5a65726f2061646472657373207061737365640000000000000000000000000081525060200191505060405180910390fd5b87600073ffffffffffffffffffffffffffffffffffffffff168173ffffffffffffffffffffffffffffffffffffffff16141515156109a9576040517f08c379a00000000000000000000000000000000000000000000000000000000081526004018080602001828103825260138152602001807f5a65726f2061646472657373207061737365640000000000000000000000000081525060200191505060405180910390fd5b6109bc8a8a8a8a8a8a348b600080612742565b3373ffffffffffffffffffffffffffffffffffffffff167fce7089d0668849fb9ca29778c0cbf1e764d9efb048d81fd71fb34c94f26db36886346040518083600019166000191681526020018281526020019250505060405180910390a250505050505050505050565b600081600080600083600019166000191681526020019081526020016000206000015414151515610abf576040517f08c379a000000000000000000000000000000000000000000000000000000000815260040180806020018281038252601b8152602001807f5472616e73616374696f6e20646f6573206e6f7420657869737473000000000081525060200191505060405180910390fd5b8260006001811115610acd57fe5b600080836000191660001916815260200190815260200160002060020160009054906101000a900460ff166001811115610b0357fe5b141515610b9e576040517f08c379a00000000000000000000000000000000000000000000000000000000081526004018080602001828103825260328152602001807f5472616e73616374696f6e2069732065697468657220696e206469737075746581526020017f206f722072656c6561736564207374617465000000000000000000000000000081525060400191505060405180910390fd5b836000806001811115610bad57fe5b600080846000191660001916815260200190815260200160002060020160019054906101000a900460ff166001811115610be357fe5b141515610c58576040517f08c379a000000000000000000000000000000000000000000000000000000000815260040180806020018281038252601f8152602001807f5472616e73616374696f6e207479706520646f6573206e6f74206d617463680081525060200191505060405180910390fd5b85600080826000191660001916815260200190815260200160002060020160079054906101000a900473ffffffffffffffffffffffffffffffffffffffff1673ffffffffffffffffffffffffffffffffffffffff163373ffffffffffffffffffffffffffffffffffffffff16141515610d5f576040517f08c379a000000000000000000000000000000000000000000000000000000000815260040180806020018281038252602d8152602001807f54686520696e69746961746f72206f6620746865207472616e73616374696f6e81526020017f206973206e6f742062757965720000000000000000000000000000000000000081525060400191505060405180910390fd5b349550600086111515610dda576040517f08c379a00000000000000000000000000000000000000000000000000000000081526004018080602001828103825260208152602001807f56616c7565206d7573742062652067726561746572207468616e207a65726f2e81525060200191505060405180910390fd5b610e0a866000808a60001916600019168152602001908152602001600020600001546130ce90919063ffffffff16565b600080896000191660001916815260200190815260200160002060000181905550426000808960001916600019168152602001908152602001600020600101819055503373ffffffffffffffffffffffffffffffffffffffff167ff66fd2ae9e24a6a24b02e1b5b7512ffde5149a4176085fc0298ae228c9b9d72988886040518083600019166000191681526020018281526020019250505060405180910390a250505050505050565b60008073ffffffffffffffffffffffffffffffffffffffff168273ffffffffffffffffffffffffffffffffffffffff161415611100578787878787873060405160200180886bffffffffffffffffffffffff19166bffffffffffffffffffffffff191681526014018760ff1660ff167f01000000000000000000000000000000000000000000000000000000000000000281526001018663ffffffff1663ffffffff167c01000000000000000000000000000000000000000000000000000000000281526004018573ffffffffffffffffffffffffffffffffffffffff1673ffffffffffffffffffffffffffffffffffffffff166c010000000000000000000000000281526014018473ffffffffffffffffffffffffffffffffffffffff1673ffffffffffffffffffffffffffffffffffffffff166c010000000000000000000000000281526014018373ffffffffffffffffffffffffffffffffffffffff1673ffffffffffffffffffffffffffffffffffffffff166c010000000000000000000000000281526014018273ffffffffffffffffffffffffffffffffffffffff1673ffffffffffffffffffffffffffffffffffffffff166c010000000000000000000000000281526014019750505050505050506040516020818303038152906040526040518082805190602001908083835b6020831015156110cc57805182526020820191506020810190506020830392506110a7565b6001836020036101000a03801982511681845116808217855250505050505090500191505060405180910390209050611355565b878787878787308860405160200180896bffffffffffffffffffffffff19166bffffffffffffffffffffffff191681526014018860ff1660ff167f01000000000000000000000000000000000000000000000000000000000000000281526001018763ffffffff1663ffffffff167c01000000000000000000000000000000000000000000000000000000000281526004018673ffffffffffffffffffffffffffffffffffffffff1673ffffffffffffffffffffffffffffffffffffffff166c010000000000000000000000000281526014018573ffffffffffffffffffffffffffffffffffffffff1673ffffffffffffffffffffffffffffffffffffffff166c010000000000000000000000000281526014018473ffffffffffffffffffffffffffffffffffffffff1673ffffffffffffffffffffffffffffffffffffffff166c010000000000000000000000000281526014018373ffffffffffffffffffffffffffffffffffffffff1673ffffffffffffffffffffffffffffffffffffffff166c010000000000000000000000000281526014018273ffffffffffffffffffffffffffffffffffffffff1673ffffffffffffffffffffffffffffffffffffffff166c01000000000000000000000000028152601401985050505050505050506040516020818303038152906040526040518082805190602001908083835b6020831015156113255780518252602082019150602081019050602083039250611300565b6001836020036101000a038019825116818451168082178552505050505050905001915050604051809103902090505b979650505050505050565b60008460008060008360001916600019168152602001908152602001600020600001541415156113f8576040517f08c379a00000000000000000000000000000000000000000000000000000000081526004018080602001828103825260128152602001807f5472616e73616374696f6e20657869737473000000000000000000000000000081525060200191505060405180910390fd5b8a600073ffffffffffffffffffffffffffffffffffffffff168173ffffffffffffffffffffffffffffffffffffffff161415151561149e576040517f08c379a00000000000000000000000000000000000000000000000000000000081526004018080602001828103825260138152602001807f5a65726f2061646472657373207061737365640000000000000000000000000081525060200191505060405180910390fd5b8a600073ffffffffffffffffffffffffffffffffffffffff168173ffffffffffffffffffffffffffffffffffffffff1614151515611544576040517f08c379a00000000000000000000000000000000000000000000000000000000081526004018080602001828103825260138152602001807f5a65726f2061646472657373207061737365640000000000000000000000000081525060200191505060405180910390fd5b84600073ffffffffffffffffffffffffffffffffffffffff168173ffffffffffffffffffffffffffffffffffffffff16141515156115ea576040517f08c379a00000000000000000000000000000000000000000000000000000000081526004018080602001828103825260138152602001807f5a65726f2061646472657373207061737365640000000000000000000000000081525060200191505060405180910390fd5b6115fd8e8e8e8e8e8e8e8e60018f612742565b8594508473ffffffffffffffffffffffffffffffffffffffff166323b872dd33308b6040518463ffffffff167c0100000000000000000000000000000000000000000000000000000000028152600401808473ffffffffffffffffffffffffffffffffffffffff1673ffffffffffffffffffffffffffffffffffffffff1681526020018373ffffffffffffffffffffffffffffffffffffffff1673ffffffffffffffffffffffffffffffffffffffff1681526020018281526020019350505050602060405180830381600087803b1580156116d757600080fd5b505af11580156116eb573d6000803e3d6000fd5b505050506040513d602081101561170157600080fd5b810190808051906020019092919050505015156117d2576040517f08c379a000000000000000000000000000000000000000000000000000000000815260040180806020018281038252605c8152602001807f546f6b656e207472616e73666572206661696c65642c206d6179626520796f7581526020017f20646964206e6f7420617070726f766520657363726f7720636f6e747261637481526020017f20746f207370656e64206f6e20626568616c66206f662062757965720000000081525060600191505060405180910390fd5b3373ffffffffffffffffffffffffffffffffffffffff167fce7089d0668849fb9ca29778c0cbf1e764d9efb048d81fd71fb34c94f26db3688a8a6040518083600019166000191681526020018281526020019250505060405180910390a25050505050505050505050505050565b60006020528060005260406000206000915090508060000154908060010154908060020160009054906101000a900460ff16908060020160019054906101000a900460ff16908060020160029054906101000a900460ff16908060020160039054906101000a900463ffffffff16908060020160079054906101000a900473ffffffffffffffffffffffffffffffffffffffff16908060030160009054906101000a900473ffffffffffffffffffffffffffffffffffffffff16908060040160009054906101000a900473ffffffffffffffffffffffffffffffffffffffff16908060050160009054906101000a900473ffffffffffffffffffffffffffffffffffffffff1690508a565b6000806000846000191660001916815260200190815260200160002060080160008373ffffffffffffffffffffffffffffffffffffffff1673ffffffffffffffffffffffffffffffffffffffff16815260200190815260200160002060009054906101000a900460ff16905092915050565b60008083600080600083600019166000191681526020019081526020016000206000015414151515611a57576040517f08c379a000000000000000000000000000000000000000000000000000000000815260040180806020018281038252601b8152602001807f5472616e73616374696f6e20646f6573206e6f7420657869737473000000000081525060200191505060405180910390fd5b8460006001811115611a6557fe5b600080836000191660001916815260200190815260200160002060020160009054906101000a900460ff166001811115611a9b57fe5b141515611b36576040517f08c379a00000000000000000000000000000000000000000000000000000000081526004018080602001828103825260328152602001807f5472616e73616374696f6e2069732065697468657220696e206469737075746581526020017f206f722072656c6561736564207374617465000000000000000000000000000081525060400191505060405180910390fd5b856001806001811115611b4557fe5b600080846000191660001916815260200190815260200160002060020160019054906101000a900460ff166001811115611b7b57fe5b141515611bf0576040517f08c379a000000000000000000000000000000000000000000000000000000000815260040180806020018281038252601f8152602001807f5472616e73616374696f6e207479706520646f6573206e6f74206d617463680081525060200191505060405180910390fd5b87600080826000191660001916815260200190815260200160002060020160079054906101000a900473ffffffffffffffffffffffffffffffffffffffff1673ffffffffffffffffffffffffffffffffffffffff163373ffffffffffffffffffffffffffffffffffffffff16141515611cf7576040517f08c379a000000000000000000000000000000000000000000000000000000000815260040180806020018281038252602d8152602001807f54686520696e69746961746f72206f6620746865207472616e73616374696f6e81526020017f206973206e6f742062757965720000000000000000000000000000000000000081525060400191505060405180910390fd5b879650600087111515611d72576040517f08c379a00000000000000000000000000000000000000000000000000000000081526004018080602001828103825260208152602001807f56616c7565206d7573742062652067726561746572207468616e207a65726f2e81525060200191505060405180910390fd5b6000808a6000191660001916815260200190815260200160002060040160009054906101000a900473ffffffffffffffffffffffffffffffffffffffff1695508573ffffffffffffffffffffffffffffffffffffffff166323b872dd6000808c6000191660001916815260200190815260200160002060020160079054906101000a900473ffffffffffffffffffffffffffffffffffffffff16308b6040518463ffffffff167c0100000000000000000000000000000000000000000000000000000000028152600401808473ffffffffffffffffffffffffffffffffffffffff1673ffffffffffffffffffffffffffffffffffffffff1681526020018373ffffffffffffffffffffffffffffffffffffffff1673ffffffffffffffffffffffffffffffffffffffff1681526020018281526020019350505050602060405180830381600087803b158015611ec657600080fd5b505af1158015611eda573d6000803e3d6000fd5b505050506040513d6020811015611ef057600080fd5b81019080805190602001909291905050501515611fc1576040517f08c379a000000000000000000000000000000000000000000000000000000000815260040180806020018281038252605c8152602001807f546f6b656e207472616e73666572206661696c65642c206d6179626520796f7581526020017f20646964206e6f7420617070726f766520657363726f7720636f6e747261637481526020017f20746f207370656e64206f6e20626568616c66206f662062757965720000000081525060600191505060405180910390fd5b611ff1876000808c60001916600019168152602001908152602001600020600001546130ce90919063ffffffff16565b6000808b6000191660001916815260200190815260200160002060000181905550426000808b60001916600019168152602001908152602001600020600101819055503373ffffffffffffffffffffffffffffffffffffffff167ff66fd2ae9e24a6a24b02e1b5b7512ffde5149a4176085fc0298ae228c9b9d7298a896040518083600019166000191681526020018281526020019250505060405180910390a2505050505050505050565b60015481565b6060600260008373ffffffffffffffffffffffffffffffffffffffff1673ffffffffffffffffffffffffffffffffffffffff16815260200190815260200160002080548060200260200160405190810160405280929190818152602001828054801561213257602002820191906000526020600020905b8154600019168152602001906001019080831161211a575b50505050509050919050565b846000806000836000191660001916815260200190815260200160002060000154141515156121d5576040517f08c379a000000000000000000000000000000000000000000000000000000000815260040180806020018281038252601b8152602001807f5472616e73616374696f6e20646f6573206e6f7420657869737473000000000081525060200191505060405180910390fd5b85600060018111156121e357fe5b600080836000191660001916815260200190815260200160002060020160009054906101000a900460ff16600181111561221957fe5b1415156122b4576040517f08c379a00000000000000000000000000000000000000000000000000000000081526004018080602001828103825260328152602001807f5472616e73616374696f6e2069732065697468657220696e206469737075746581526020017f206f722072656c6561736564207374617465000000000000000000000000000081525060400191505060405180910390fd5b6000868690501180156122cc57508383905086869050145b1515612366576040517f08c379a00000000000000000000000000000000000000000000000000000000081526004018080602001828103825260248152602001807f4c656e677468206f662064657374696e6174696f6e7320697320696e636f727281526020017f6563742e0000000000000000000000000000000000000000000000000000000081525060400191505060405180910390fd5b61245f8d8d808060200260200160405190810160405280939291908181526020018383602002808284378201915050505050508c8c808060200260200160405190810160405280939291908181526020018383602002808284378201915050505050508b8b808060200260200160405190810160405280939291908181526020018383602002808284378201915050505050508a8a8a808060200260200160405190810160405280939291908181526020018383602002808284378201915050505050508989808060200260200160405190810160405280939291908181526020018383602002808284378201915050505050506130ef565b6001600080896000191660001916815260200190815260200160002060020160006101000a81548160ff0219169083600181111561249957fe5b021790555042600080896000191660001916815260200190815260200160002060010181905550600080886000191660001916815260200190815260200160002060000154612547888888808060200260200160405190810160405280939291908181526020018383602002808284378201915050505050508787808060200260200160405190810160405280939291908181526020018383602002808284378201915050505050506132d0565b141515612608576040517f08c379a00000000000000000000000000000000000000000000000000000000081526004018080602001828103825260488152602001807f546f74616c2076616c756520746f2062652072656c6561736564206d7573742081526020017f626520657175616c20746f20746865207472616e73616374696f6e206573637281526020017f6f772076616c756500000000000000000000000000000000000000000000000081525060600191505060405180910390fd5b7f688e2a1b34445bcd47b0e11ba2a9c8c4d850a1831b64199b59d1c70e2970154587878787876040518086600019166000191681526020018060200180602001838103835287878281815260200192506020028082843782019150508381038252858582818152602001925060200280828437820191505097505050505050505060405180910390a150505050505050505050505050565b6000806000846000191660001916815260200190815260200160002060070160008373ffffffffffffffffffffffffffffffffffffffff1673ffffffffffffffffffffffffffffffffffffffff16815260200190815260200160002060009054906101000a900460ff16905092915050565b60026020528160005260406000208181548110151561272d57fe5b90600052602060002001600091509150505481565b8873ffffffffffffffffffffffffffffffffffffffff168a73ffffffffffffffffffffffffffffffffffffffff16141515156127e6576040517f08c379a00000000000000000000000000000000000000000000000000000000081526004018080602001828103825260198152602001807f427579657220616e642073656c6c6572206172652073616d650000000000000081525060200191505060405180910390fd5b60008411151561285e576040517f08c379a00000000000000000000000000000000000000000000000000000000081526004018080602001828103825260118152602001807f56616c756520706173736564206973203000000000000000000000000000000081525060200191505060405180910390fd5b60008760ff16118015612875575060038760ff1611155b151561290f576040517f08c379a000000000000000000000000000000000000000000000000000000000815260040180806020018281038252603d8152602001807f5468726573686f6c642063616e6e6f742062652067726561746572207468616e81526020017f203320616e64206d7573742062652067726561746572207468616e203000000081525060400191505060405180910390fd5b60018760ff16148061294e5750600073ffffffffffffffffffffffffffffffffffffffff168873ffffffffffffffffffffffffffffffffffffffff1614155b1515612a0e576040517f08c379a000000000000000000000000000000000000000000000000000000000815260040180806020018281038252604f8152602001807f456974686572207468726573686f6c642073686f756c642062652031206f746881526020017f6572776973652076616c6964206d6f64657261746f722061646472657373207381526020017f686f756c6420626520706173736564000000000000000000000000000000000081525060600191505060405180910390fd5b612a1d8388888d8d8d87610eb4565b600019168560001916141515612ac1576040517f08c379a00000000000000000000000000000000000000000000000000000000081526004018080602001828103825260398152602001807f43616c63756c6174656420736372697074206861736820646f6573206e6f742081526020017f6d61746368207061737365642073637269707420686173682e0000000000000081525060400191505060405180910390fd5b6101406040519081016040528085815260200142815260200160006001811115612ae757fe5b8152602001836001811115612af857fe5b81526020018860ff1681526020018763ffffffff1681526020018b73ffffffffffffffffffffffffffffffffffffffff1681526020018a73ffffffffffffffffffffffffffffffffffffffff1681526020018273ffffffffffffffffffffffffffffffffffffffff1681526020018973ffffffffffffffffffffffffffffffffffffffff168152506000808760001916600019168152602001908152602001600020600082015181600001556020820151816001015560408201518160020160006101000a81548160ff02191690836001811115612bd257fe5b021790555060608201518160020160016101000a81548160ff02191690836001811115612bfb57fe5b021790555060808201518160020160026101000a81548160ff021916908360ff16021790555060a08201518160020160036101000a81548163ffffffff021916908363ffffffff16021790555060c08201518160020160076101000a81548173ffffffffffffffffffffffffffffffffffffffff021916908373ffffffffffffffffffffffffffffffffffffffff16021790555060e08201518160030160006101000a81548173ffffffffffffffffffffffffffffffffffffffff021916908373ffffffffffffffffffffffffffffffffffffffff1602179055506101008201518160040160006101000a81548173ffffffffffffffffffffffffffffffffffffffff021916908373ffffffffffffffffffffffffffffffffffffffff1602179055506101208201518160050160006101000a81548173ffffffffffffffffffffffffffffffffffffffff021916908373ffffffffffffffffffffffffffffffffffffffff1602179055509050506001600080876000191660001916815260200190815260200160002060060160008b73ffffffffffffffffffffffffffffffffffffffff1673ffffffffffffffffffffffffffffffffffffffff16815260200190815260200160002060006101000a81548160ff0219169083151502179055506001600080876000191660001916815260200190815260200160002060060160008c73ffffffffffffffffffffffffffffffffffffffff1673ffffffffffffffffffffffffffffffffffffffff16815260200190815260200160002060006101000a81548160ff021916908315150217905550600080866000191660001916815260200190815260200160002060060160008973ffffffffffffffffffffffffffffffffffffffff1673ffffffffffffffffffffffffffffffffffffffff16815260200190815260200160002060009054906101000a900460ff16151515612f52576040517f08c379a000000000000000000000000000000000000000000000000000000000815260040180806020018281038252602d8152602001807f456974686572206275796572206f722073656c6c65722069732070617373656481526020017f206173206d6f64657261746f720000000000000000000000000000000000000081525060400191505060405180910390fd5b60018760ff161115612fd2576001600080876000191660001916815260200190815260200160002060060160008a73ffffffffffffffffffffffffffffffffffffffff1673ffffffffffffffffffffffffffffffffffffffff16815260200190815260200160002060006101000a81548160ff0219169083151502179055505b600160008154809291906001019190505550600260008b73ffffffffffffffffffffffffffffffffffffffff1673ffffffffffffffffffffffffffffffffffffffff168152602001908152602001600020859080600181540180825580915050906001820390600052602060002001600090919290919091509060001916905550600260008a73ffffffffffffffffffffffffffffffffffffffff1673ffffffffffffffffffffffffffffffffffffffff16815260200190815260200160002085908060018154018082558091505090600182039060005260206000200160009091929091909150906000191690555050505050505050505050565b60008082840190508381101515156130e557600080fd5b8091505092915050565b600080613100888888888888613ab8565b9150613156600080876000191660001916815260200190815260200160002060020160039054906101000a900463ffffffff16600080886000191660001916815260200190815260200160002060010154614131565b9050600080866000191660001916815260200190815260200160002060020160029054906101000a900460ff1660ff16885110801561320757508015806132065750600080866000191660001916815260200190815260200160002060030160009054906101000a900473ffffffffffffffffffffffffffffffffffffffff1673ffffffffffffffffffffffffffffffffffffffff168273ffffffffffffffffffffffffffffffffffffffff1614155b5b156132c6576040517f08c379a00000000000000000000000000000000000000000000000000000000081526004018080602001828103825260588152602001807f4d696e696d756d206e756d626572206f66207369676e6174757265732061726581526020017f206e6f7420636f6c6c656374656420616e642074696d65206c6f636b2065787081526020017f69727920636f6e646974696f6e73206e6f74206d65742121000000000000000081525060600191505060405180910390fd5b5050505050505050565b6000806000806000806000808a600019166000191681526020019081526020016000209450600093506000600181111561330657fe5b8560020160019054906101000a900460ff16600181111561332357fe5b141561363a57600092505b875183101561363557600073ffffffffffffffffffffffffffffffffffffffff16888481518110151561335d57fe5b9060200190602002015173ffffffffffffffffffffffffffffffffffffffff16141580156133ed5750846006016000898581518110151561339a57fe5b9060200190602002015173ffffffffffffffffffffffffffffffffffffffff1673ffffffffffffffffffffffffffffffffffffffff16815260200190815260200160002060009054906101000a900460ff165b1515613461576040517f08c379a00000000000000000000000000000000000000000000000000000000081526004018080602001828103825260178152602001807f4e6f7420612076616c69642064657374696e6174696f6e00000000000000000081525060200191505060405180910390fd5b6000878481518110151561347157fe5b90602001906020020151111515613516576040517f08c379a000000000000000000000000000000000000000000000000000000000815260040180806020018281038252602a8152602001807f416d6f756e7420746f2062652073656e742073686f756c64206265206772656181526020017f746572207468616e20300000000000000000000000000000000000000000000081525060400191505060405180910390fd5b613540878481518110151561352757fe5b90602001906020020151856130ce90919063ffffffff16565b935060018560080160008a8681518110151561355857fe5b9060200190602002015173ffffffffffffffffffffffffffffffffffffffff1673ffffffffffffffffffffffffffffffffffffffff16815260200190815260200160002060006101000a81548160ff02191690831515021790555087838151811015156135c157fe5b9060200190602002015173ffffffffffffffffffffffffffffffffffffffff166108fc88858151811015156135f257fe5b906020019060200201519081150290604051600060405180830381858888f19350505050158015613627573d6000803e3d6000fd5b50828060010193505061332e565b613aa9565b60018081111561364657fe5b8560020160019054906101000a900460ff16600181111561366357fe5b1415613aa8578460040160009054906101000a900473ffffffffffffffffffffffffffffffffffffffff169150600090505b8751811015613aa757600073ffffffffffffffffffffffffffffffffffffffff1688828151811015156136c457fe5b9060200190602002015173ffffffffffffffffffffffffffffffffffffffff16141580156137545750846006016000898381518110151561370157fe5b9060200190602002015173ffffffffffffffffffffffffffffffffffffffff1673ffffffffffffffffffffffffffffffffffffffff16815260200190815260200160002060009054906101000a900460ff165b15156137c8576040517f08c379a00000000000000000000000000000000000000000000000000000000081526004018080602001828103825260178152602001807f4e6f7420612076616c69642064657374696e6174696f6e00000000000000000081525060200191505060405180910390fd5b600087828151811015156137d857fe5b9060200190602002015111151561387d576040517f08c379a000000000000000000000000000000000000000000000000000000000815260040180806020018281038252602a8152602001807f416d6f756e7420746f2062652073656e742073686f756c64206265206772656181526020017f746572207468616e20300000000000000000000000000000000000000000000081525060400191505060405180910390fd5b6138a7878281518110151561388e57fe5b90602001906020020151856130ce90919063ffffffff16565b935060018560080160008a848151811015156138bf57fe5b9060200190602002015173ffffffffffffffffffffffffffffffffffffffff1673ffffffffffffffffffffffffffffffffffffffff16815260200190815260200160002060006101000a81548160ff0219169083151502179055508173ffffffffffffffffffffffffffffffffffffffff1663a9059cbb898381518110151561394457fe5b90602001906020020151898481518110151561395c57fe5b906020019060200201516040518363ffffffff167c0100000000000000000000000000000000000000000000000000000000028152600401808373ffffffffffffffffffffffffffffffffffffffff1673ffffffffffffffffffffffffffffffffffffffff16815260200182815260200192505050602060405180830381600087803b1580156139eb57600080fd5b505af11580156139ff573d6000803e3d6000fd5b505050506040513d6020811015613a1557600080fd5b81019080805190602001909291905050501515613a9a576040517f08c379a00000000000000000000000000000000000000000000000000000000081526004018080602001828103825260168152602001807f546f6b656e207472616e73666572206661696c65642e0000000000000000000081525060200191505060405180910390fd5b8080600101915050613695565b5b5b83955050505050509392505050565b600080600080600088518a51148015613ad257508a518a51145b1515613b46576040517f08c379a00000000000000000000000000000000000000000000000000000000081526004018080602001828103825260168152602001807f522c532c56206c656e677468206d69736d617463682e0000000000000000000081525060200191505060405180910390fd5b60197f01000000000000000000000000000000000000000000000000000000000000000260007f0100000000000000000000000000000000000000000000000000000000000000023089898c60405160200180877effffffffffffffffffffffffffffffffffffffffffffffffffffffffffffff19167effffffffffffffffffffffffffffffffffffffffffffffffffffffffffffff19168152600101867effffffffffffffffffffffffffffffffffffffffffffffffffffffffffffff19167effffffffffffffffffffffffffffffffffffffffffffffffffffffffffffff191681526001018573ffffffffffffffffffffffffffffffffffffffff1673ffffffffffffffffffffffffffffffffffffffff166c01000000000000000000000000028152601401848051906020019060200280838360005b83811015613c9a578082015181840152602081019050613c7f565b50505050905001838051906020019060200280838360005b83811015613ccd578082015181840152602081019050613cb2565b50505050905001826000191660001916815260200196505050505050506040516020818303038152906040526040518082805190602001908083835b602083101515613d2e5780518252602082019150602081019050602083039250613d09565b6001836020036101000a038019825116818451168082178552505050505050905001915050604051809103902060405160200180807f19457468657265756d205369676e6564204d6573736167653a0a333200000000815250601c0182600019166000191681526020019150506040516020818303038152906040526040518082805190602001908083835b602083101515613ddf5780518252602082019150602081019050602083039250613dba565b6001836020036101000a03801982511681845116808217855250505050505090500191505060405180910390209250600091505b8951821015614120576001838c84815181101515613e2d57fe5b906020019060200201518c85815181101515613e4557fe5b906020019060200201518c86815181101515613e5d57fe5b90602001906020020151604051600081526020016040526040518085600019166000191681526020018460ff1660ff1681526020018360001916600019168152602001826000191660001916815260200194505050505060206040516020810390808403906000865af1158015613ed8573d6000803e3d6000fd5b505050602060405103519050600080896000191660001916815260200190815260200160002060060160008273ffffffffffffffffffffffffffffffffffffffff1673ffffffffffffffffffffffffffffffffffffffff16815260200190815260200160002060009054906101000a900460ff161515613fc0576040517f08c379a00000000000000000000000000000000000000000000000000000000081526004018080602001828103825260118152602001807f496e76616c6964207369676e617475726500000000000000000000000000000081525060200191505060405180910390fd5b600080896000191660001916815260200190815260200160002060070160008273ffffffffffffffffffffffffffffffffffffffff1673ffffffffffffffffffffffffffffffffffffffff16815260200190815260200160002060009054906101000a900460ff1615151561409d576040517f08c379a00000000000000000000000000000000000000000000000000000000081526004018080602001828103825260198152602001807f53616d65207369676e61747572652073656e742074776963650000000000000081525060200191505060405180910390fd5b60016000808a6000191660001916815260200190815260200160002060070160008373ffffffffffffffffffffffffffffffffffffffff1673ffffffffffffffffffffffffffffffffffffffff16815260200190815260200160002060006101000a81548160ff0219169083151502179055508093508180600101925050613e13565b839450505050509695505050505050565b600080614147834261418590919063ffffffff16565b905060008463ffffffff161461417957614172610e108563ffffffff166141a690919063ffffffff16565b811161417c565b60005b91505092915050565b60008083831115151561419757600080fd5b82840390508091505092915050565b60008060008414156141bb57600091506141dd565b82840290508284828115156141cc57fe5b041415156141d957600080fd5b8091505b50929150505600a165627a7a723058200eeb999ae398c16c7cdff0b1e0a4386a1714a749b189865fc792d41f9563fcfb0029",
  "source": "pragma solidity 0.4.24;\n\nimport \"openzeppelin-solidity/contracts/math/SafeMath.sol\";\n\nimport \"../token/ITokenContract.sol\";\n\n\n/**\n* @dev Supports ERC20 tokens\n* The escrow smart contract for the open bazaar trades in Ethereum\n* The smart contract is desgined keeping in mind the current wallet interface of the OB-core\n* https://github.com/OpenBazaar/wallet-interface/blob/master/wallet.go\n* Current wallet interface strictly adheres to UTXO(bitcoin) model\n*/\ncontract Escrow_v1_0 {\n\n    using SafeMath for uint256;\n\n    enum Status {FUNDED, RELEASED}\n\n    enum TransactionType {ETHER, TOKEN}\n\n    event Executed(\n        bytes32 scriptHash,\n        address[] destinations,\n        uint256[] amounts\n    );\n\n    event FundAdded(\n        bytes32 scriptHash,\n        address indexed from,\n        uint256 valueAdded\n    );\n\n    event Funded(bytes32 scriptHash, address indexed from, uint256 value);\n\n    struct Transaction {\n        uint256 value;\n        uint256 lastModified;//Time at which transaction was last modified\n        Status status;\n        TransactionType transactionType;\n        uint8 threshold;\n        uint32 timeoutHours;\n        address buyer;\n        address seller;\n        address tokenAddress;// Token address in case of token transfer\n        address moderator;\n        mapping(address=>bool) isOwner;//to keep track of owners/signers.\n        mapping(address=>bool) voted;//to keep track of who all voted\n        mapping(address=>bool) beneficiaries;//Benefeciaries of execution\n    }\n\n    mapping(bytes32 => Transaction) public transactions;\n\n    uint256 public transactionCount = 0;\n\n    //Contains mapping between each party and all of his transactions\n    mapping(address => bytes32[])public partyVsTransaction;\n\n    modifier transactionExists(bytes32 scriptHash) {\n        require(\n            transactions[scriptHash].value != 0, \"Transaction does not exists\"\n        );\n        _;\n    }\n\n    modifier transactionDoesNotExists (bytes32 scriptHash) {\n        require(transactions[scriptHash].value == 0, \"Transaction exists\");\n        _;\n    }\n\n    modifier inFundedState(bytes32 scriptHash) {\n        require(\n            transactions[scriptHash].status == Status.FUNDED, \"Transaction is either in dispute or released state\"\n        );\n        _;\n    }\n\n    modifier nonZeroAddress(address addressToCheck) {\n        require(addressToCheck != address(0), \"Zero address passed\");\n        _;\n    }\n\n    modifier checkTransactionType(\n        bytes32 scriptHash,\n        TransactionType transactionType\n    )\n    {\n        require(\n            transactions[scriptHash].transactionType == transactionType, \"Transaction type does not match\"\n        );\n        _;\n    }\n\n    modifier onlyBuyer(bytes32 scriptHash) {\n        require(\n            msg.sender == transactions[scriptHash].buyer, \"The initiator of the transaction is not buyer\"\n        );\n        _;\n    }\n\n    /**\n    *@dev Add new transaction in the contract\n    *@param buyer The buyer of the transaction\n    *@param seller The seller of the listing associated with the transaction\n    *@param moderator Moderator for this transaction\n    *@param scriptHash keccak256 hash of the redeem script\n    *@param threshold Minimum number of singatures required to released funds\n    *@param timeoutHours Hours after which seller can release funds into his favour by signing transaction\n    *@param uniqueId bytes20 unique id for the transaction, generated by ETH wallet\n    *Redeem Script format will be following\n    <uniqueId: 20><threshold:1><timeoutHours:4><buyer:20><seller:20><moderator:20><multisigAddress:20>\n    * scripthash-> keccak256(uniqueId, threshold, timeoutHours, buyer, seller, moderator)\n    *Pass amount of the ethers to be put in escrow\n    *Please keep in mind you will have to add moderator fees also in the value\n    */\n    function addTransaction(\n        address buyer,\n        address seller,\n        address moderator,\n        uint8 threshold,\n        uint32 timeoutHours,\n        bytes32 scriptHash,\n        bytes20 uniqueId\n    )\n        external\n        payable\n        transactionDoesNotExists(scriptHash)\n        nonZeroAddress(buyer)\n        nonZeroAddress(seller)\n    {\n        _addTransaction(\n            buyer,\n            seller,\n            moderator,\n            threshold,\n            timeoutHours,\n            scriptHash,\n            msg.value,\n            uniqueId,\n            TransactionType.ETHER,\n            address(0)\n        );\n        \n        emit Funded(scriptHash, msg.sender, msg.value);\n\n    }\n\n    /**\n    *@dev Add new transaction in the contract\n    *@param buyer The buyer of the transaction\n    *@param seller The seller of the listing associated with the transaction\n    *@param moderator Moderator for this transaction\n    *@param scriptHash keccak256 hash of the redeem script\n    *@param threshold Minimum number of singatures required to released funds\n    *@param timeoutHours Hours after which seller can release funds into his favour by signing transaction\n    *@param value Amount of tokens to be put in escrow\n    *@param uniqueId bytes20 unique id for the transaction, generated by ETH wallet\n    *@param tokenAddress Address of the token to be used\n    *Redeem Script format will be following\n    <uniqueId: 20><threshold:1><timeoutHours:4><buyer:20><seller:20><moderator:20><multisigAddress:20><tokenAddress:20>\n    * scripthash-> keccak256(uniqueId, threshold, timeoutHours, buyer, seller, moderator, tokenAddress)\n    *approve escrow contract to spend amount of token on your behalf\n    *Please keep in mind you will have to add moderator fees also in the value\n    */\n    function addTokenTransaction(\n        address buyer,\n        address seller,\n        address moderator,\n        uint8 threshold,\n        uint32 timeoutHours,\n        bytes32 scriptHash,\n        uint256 value,\n        bytes20 uniqueId,\n        address tokenAddress\n    )\n        external\n        transactionDoesNotExists(scriptHash)\n        nonZeroAddress(buyer)\n        nonZeroAddress(seller)\n        nonZeroAddress(tokenAddress)\n    {\n\n        _addTransaction(\n            buyer,\n            seller,\n            moderator,\n            threshold,\n            timeoutHours,\n            scriptHash,\n            value,\n            uniqueId,\n            TransactionType.TOKEN,\n            tokenAddress\n        );\n\n        ITokenContract token = ITokenContract(tokenAddress);\n\n        require(\n            token.transferFrom(msg.sender, this, value),\n            \"Token transfer failed, maybe you did not approve escrow contract to spend on behalf of buyer\"\n        );\n        emit Funded(scriptHash, msg.sender, value);\n    }\n\n    /**\n    * @dev Check whether given address was a beneficiary of transaction execution or not\n    * @param scriptHash script hash of the transaction\n    * @param beneficiary Beneficiary address to be checked\n    */\n    function checkBeneficiary(\n        bytes32 scriptHash,\n        address beneficiary\n    )\n        external\n        view\n        returns (bool)\n    {\n        return transactions[scriptHash].beneficiaries[beneficiary];\n    }\n\n    /**\n    * @dev Check whether given party has voted or not\n    * @param scriptHash script hash of the transaction\n    * @param party Address of the party whose vote has to be checked\n    * @return bool vote\n    */\n    function checkVote(\n        bytes32 scriptHash,\n        address party\n    )\n        external\n        view\n        returns (bool)\n    {\n        return transactions[scriptHash].voted[party];\n    }\n\n    /**\n    *@dev Allows buyer of the transaction to add more funds(ether) in the transaction. This will help to cater scenarios wherein initially buyer missed to fund transaction as required\n    *@param scriptHash script hash of the transaction\n    * Only buyer of the transaction can invoke this method\n    */\n    function addFundsToTransaction(\n        bytes32 scriptHash\n    )\n        external\n        transactionExists(scriptHash)\n        inFundedState(scriptHash)\n        checkTransactionType(scriptHash, TransactionType.ETHER)\n        onlyBuyer(scriptHash)\n        payable\n    {\n        uint256 _value = msg.value;\n\n        require(_value > 0, \"Value must be greater than zero.\");\n\n        transactions[scriptHash].value = transactions[scriptHash].value\n            .add(_value);\n        transactions[scriptHash].lastModified = block.timestamp;\n\n        emit FundAdded(scriptHash, msg.sender, _value);\n    }\n\n    /**\n    *@dev Allows buyer of the transaction to add more funds(Tokens) in the transaction. This will help to cater scenarios wherein initially buyer missed to fund transaction as required\n    *@param scriptHash script hash of the transaction\n    */\n    function addTokensToTransaction(\n        bytes32 scriptHash,\n        uint256 value\n    )\n        external\n        transactionExists(scriptHash)\n        inFundedState(scriptHash)\n        checkTransactionType(scriptHash, TransactionType.TOKEN)\n        onlyBuyer(scriptHash)\n    {\n        uint256 _value = value;\n\n        require(_value > 0, \"Value must be greater than zero.\");\n\n        ITokenContract token = ITokenContract(\n            transactions[scriptHash].tokenAddress\n        );\n\n        require(\n            token.transferFrom(transactions[scriptHash].buyer, this, value),\n            \"Token transfer failed, maybe you did not approve escrow contract to spend on behalf of buyer\"\n        );\n\n        transactions[scriptHash].value = transactions[scriptHash].value\n            .add(_value);\n        transactions[scriptHash].lastModified = block.timestamp;\n\n        emit FundAdded(scriptHash, msg.sender, _value);\n    }\n\n    /**\n    *@dev Returns all transaction ids for a party\n    *@param partyAddress Address of the party\n    */\n    function getAllTransactionsForParty(\n        address partyAddress\n    ) \n        external \n        view \n        returns (bytes32[]) \n    {\n        return partyVsTransaction[partyAddress];\n    }\n\n    /**\n    *@dev Allows one of the moderator to collect all the signature to solve dispute and submit it to this method.\n    * If all the required signatures are collected and consensus has been reached than funds will be released to the voted party\n    *@param sigV Array containing V component of all the signatures\n    *@param sigR Array containing R component of all the signatures\n    *@param signS Array containing S component of all the signatures\n    *@param scriptHash script hash of the transaction\n    *@param destinations address of the destination in whose favour dispute resolution is taking place. In case of split payments it will be address of the split payments contract\n    *@param amounts value to send to each destination\n    */\n    function execute(\n        uint8[] sigV,\n        bytes32[] sigR,\n        bytes32[] sigS,\n        bytes32 scriptHash,\n        address[] destinations,\n        uint256[] amounts\n    )\n        external\n        transactionExists(scriptHash)\n        inFundedState(scriptHash)\n    {\n        require(\n            destinations.length>0 && destinations.length == amounts.length, \"Length of destinations is incorrect.\"\n        );\n\n        verifyTransaction(\n            sigV,\n            sigR,\n            sigS,\n            scriptHash,\n            destinations,\n            amounts\n        );\n\n        transactions[scriptHash].status = Status.RELEASED;\n        //Last modified timestamp modified, which will be used by rewards\n        transactions[scriptHash].lastModified = block.timestamp;\n        require(\n            transferFunds(scriptHash, destinations, amounts) == transactions[scriptHash].value,\n            \"Total value to be released must be equal to the transaction escrow value\"\n        );\n        \n        emit Executed(scriptHash, destinations, amounts);\n    }\n\n\n    /**\n    *@dev Method for calculating script hash. Calculation will depend upon the type of transaction\n    * ETHER Type transaction-:\n    * Script Hash- keccak256(uniqueId, threshold, timeoutHours, buyer, seller, moderator)\n    * TOKEN Type transaction\n    * Script Hash- keccak256(uniqueId, threshold, timeoutHours, buyer, seller, moderator, tokenAddress)\n    * Client can use this method to verify whether it has calculated correct script hash or not\n    */\n    function calculateRedeemScriptHash(\n        bytes20 uniqueId,\n        uint8 threshold,\n        uint32 timeoutHours,\n        address buyer,\n        address seller,\n        address moderator,\n        address tokenAddress\n    )\n        public\n        view\n        returns (bytes32)\n    {\n        if (tokenAddress == address(0)) {\n            return keccak256(\n                abi.encodePacked(\n                    uniqueId,\n                    threshold,\n                    timeoutHours,\n                    buyer,\n                    seller,\n                    moderator,\n                    this\n                )\n            );\n        } else {\n            return keccak256(\n                abi.encodePacked(\n                    uniqueId,\n                    threshold,\n                    timeoutHours,\n                    buyer,\n                    seller,\n                    moderator,\n                    this,\n                    tokenAddress\n                )\n            );\n        }\n    }\n\n    /**\n    * @dev This methods checks validity of transaction\n    * 1. Verify Signatures\n    * 2. Check if minimum number of signatures has been acquired\n    * 3. If above condition is false, check if time lock is expired and the execution is signed by seller\n    */\n    function verifyTransaction(\n        uint8[] sigV,\n        bytes32[] sigR,\n        bytes32[] sigS,\n        bytes32 scriptHash,\n        address[] destinations,\n        uint256[] amounts\n    )\n        private\n    {\n        address lastRecovered = verifySignatures(\n            sigV,\n            sigR,\n            sigS,\n            scriptHash,\n            destinations,\n            amounts\n        );\n\n        bool timeLockExpired = isTimeLockExpired(\n            transactions[scriptHash].timeoutHours,\n            transactions[scriptHash].lastModified\n        );\n\n        //if Minimum number of signatures are not gathered and timelock has not expired or transaction was not signed by seller then revert\n        if (\n                sigV.length < transactions[scriptHash].threshold && (!timeLockExpired || lastRecovered != transactions[scriptHash].seller)\n            )\n        {\n            revert(\"Minimum number of signatures are not collected and time lock expiry conditions not met!!\");\n        }\n\n    }\n\n    /**\n    *@dev Private method to transfer funds to the destination addresses on the basis of transaction type\n    */\n    function transferFunds(\n        bytes32 scriptHash,\n        address[]destinations,\n        uint256[]amounts\n    )\n        private\n        returns (uint256)\n    {\n        Transaction storage t = transactions[scriptHash];\n\n        uint256 valueTransferred = 0;\n\n        if (t.transactionType == TransactionType.ETHER) {\n            for (uint256 i = 0; i < destinations.length; i++) {\n\n                require(destinations[i] != address(0) && t.isOwner[destinations[i]], \"Not a valid destination\");\n                require(amounts[i] > 0, \"Amount to be sent should be greater than 0\");\n\n                valueTransferred = valueTransferred.add(amounts[i]);\n\n                t.beneficiaries[destinations[i]] = true;//add receiver as beneficiary\n                destinations[i].transfer(amounts[i]);//shall we use send instead of transfer to stop malicious actors from blocking funds?\n            }\n\n        } else if (t.transactionType == TransactionType.TOKEN) {\n\n            ITokenContract token = ITokenContract(t.tokenAddress);\n\n            for (uint256 j = 0; j<destinations.length; j++) {\n\n                require(destinations[j] != address(0) && t.isOwner[destinations[j]], \"Not a valid destination\");\n                require(amounts[j] > 0, \"Amount to be sent should be greater than 0\");\n\n                valueTransferred = valueTransferred.add(amounts[j]);\n                t.beneficiaries[destinations[j]] = true;//add receiver as beneficiary\n\n                require(token.transfer(destinations[j], amounts[j]), \"Token transfer failed.\");\n            }\n        } \n        return valueTransferred;\n    }\n\n    //to check whether the signature are valid or not and if consensus was reached\n    //returns the last address recovered, in case of timeout this must be the sender's address\n    function verifySignatures(\n        uint8[] sigV,\n        bytes32[] sigR,\n        bytes32[] sigS,\n        bytes32 scriptHash,\n        address[] destinations,\n        uint256[]amounts\n    )\n        private\n        returns (address)\n    {\n\n        require(\n            sigR.length == sigS.length && sigR.length == sigV.length, \n            \"R,S,V length mismatch.\"\n        );\n\n        address lastAddress;\n\n        // Follows ERC191 signature scheme: https://github.com/ethereum/EIPs/issues/191\n        bytes32 txHash = keccak256(\n            abi.encodePacked(\n                \"\\x19Ethereum Signed Message:\\n32\",\n                keccak256(\n                    abi.encodePacked(\n                        byte(0x19),\n                        byte(0),\n                        this,\n                        destinations,\n                        amounts,\n                        scriptHash\n                    )\n                )\n            )\n        );\n\n        for (uint i = 0; i < sigR.length; i++) {\n\n            address recovered = ecrecover(\n                txHash,\n                sigV[i],\n                sigR[i],\n                sigS[i]\n            );\n\n            require(\n                transactions[scriptHash].isOwner[recovered], \n                \"Invalid signature\"\n            );\n            require(\n                !transactions[scriptHash].voted[recovered], \n                \"Same signature sent twice\"\n            );\n            transactions[scriptHash].voted[recovered] = true;\n            lastAddress = recovered;\n        }\n\n        return lastAddress;\n    }\n\n    function isTimeLockExpired(\n        uint32 timeoutHours,\n        uint256 lastModified\n    )\n        private\n        view\n        returns (bool)\n    {\n        uint256 timeSince = now.sub(lastModified);\n        return (\n            timeoutHours == 0 ? false:timeSince > uint256(timeoutHours).mul(3600)\n        );\n    }\n\n    /**\n    * Private method to add transaction to reduce code redundancy\n    */\n    function _addTransaction(\n        address buyer,\n        address seller,\n        address moderator,\n        uint8 threshold,\n        uint32 timeoutHours,\n        bytes32 scriptHash,\n        uint256 value,\n        bytes20 uniqueId,\n        TransactionType transactionType,\n        address tokenAddress\n    )\n        private\n    {        \n        require(buyer != seller, \"Buyer and seller are same\");\n\n        //value passed should be greater than 0\n        require(value > 0, \"Value passed is 0\");\n\n        // For now allowing 0 moderator to support 1-2 multisig wallet\n        require(\n            threshold > 0 && threshold <= 3, \n            \"Threshold cannot be greater than 3 and must be greater than 0\"\n        );\n\n        //if threshold is 1 then moderator can be passed as zero address or any other address(it wont matter aopart from scripthash since we wont add moderator as one of the owner)\n        //otherwise moderator should be a valid address\n        require(\n            threshold == 1 || moderator != address(0),\n            \"Either threshold should be 1 otherwise valid moderator address should be passed\"\n        );\n\n        require(\n            scriptHash == calculateRedeemScriptHash(\n                uniqueId,\n                threshold,\n                timeoutHours,\n                buyer,\n                seller,\n                moderator,\n                tokenAddress\n            ), \n            \"Calculated script hash does not match passed script hash.\"\n        );\n\n        transactions[scriptHash] = Transaction({\n            buyer: buyer,\n            seller: seller,\n            moderator: moderator,\n            value: value,\n            status: Status.FUNDED,\n            lastModified: block.timestamp,\n            threshold: threshold,\n            timeoutHours: timeoutHours,\n            transactionType:transactionType,\n            tokenAddress:tokenAddress\n        });\n\n        transactions[scriptHash].isOwner[seller] = true;\n        transactions[scriptHash].isOwner[buyer] = true;            \n\n        //Check if buyer or seller are not passed as moderator\n        require(\n            !transactions[scriptHash].isOwner[moderator], \n            \"Either buyer or seller is passed as moderator\"\n        );\n\n        //set moderator as one of the owners only if threshold is greater than 1 otherwise only buyer and seller should be able to release funds\n        if (threshold > 1){\n            transactions[scriptHash].isOwner[moderator] = true;\n        }\n       \n\n        transactionCount++;\n\n        partyVsTransaction[buyer].push(scriptHash);\n        partyVsTransaction[seller].push(scriptHash);\n    }\n}\n",
  "sourcePath": "/home/sameep/freelancing-projects/toptal/open baazar/publicRepo/smart-contracts/contracts/escrow/Escrow_v1_0.sol",
  "compiler": {
    "name": "solc",
    "version": "0.4.24+commit.e67f0147.Emscripten.clang"
  },
  "schemaVersion": "2.0.1",
  "updatedAt": "2018-11-19T11:35:06.158Z"
}