{
  "contractName": "EscrowWithoutToken",
  "abi": [
    {
      "constant": true,
      "inputs": [
        {
          "name": "",
          "type": "bytes32"
        }
      ],
      "name": "transactions",
      "outputs": [
        {
          "name": "scriptHash",
          "type": "bytes32"
        },
        {
          "name": "buyer",
          "type": "address"
        },
        {
          "name": "seller",
          "type": "address"
        },
        {
          "name": "value",
          "type": "uint256"
        },
        {
          "name": "status",
          "type": "uint8"
        },
        {
          "name": "ipfsHash",
          "type": "string"
        },
        {
          "name": "lastFunded",
          "type": "uint256"
        },
        {
          "name": "timeoutHours",
          "type": "uint32"
        },
        {
          "name": "threshold",
          "type": "uint8"
        }
      ],
      "payable": false,
      "stateMutability": "view",
      "type": "function"
    },
    {
      "constant": true,
      "inputs": [],
      "name": "transactionCount",
      "outputs": [
        {
          "name": "",
          "type": "uint256"
        }
      ],
      "payable": false,
      "stateMutability": "view",
      "type": "function"
    },
    {
      "constant": true,
      "inputs": [
        {
          "name": "",
          "type": "address"
        },
        {
          "name": "",
          "type": "uint256"
        }
      ],
      "name": "partyVsTransaction",
      "outputs": [
        {
          "name": "",
          "type": "bytes32"
        }
      ],
      "payable": false,
      "stateMutability": "view",
      "type": "function"
    },
    {
      "anonymous": false,
      "inputs": [
        {
          "indexed": false,
          "name": "scriptHash",
          "type": "bytes32"
        },
        {
          "indexed": false,
          "name": "destinations",
          "type": "address[]"
        },
        {
          "indexed": false,
          "name": "amounts",
          "type": "uint256[]"
        }
      ],
      "name": "Executed",
      "type": "event"
    },
    {
      "anonymous": false,
      "inputs": [
        {
          "indexed": false,
          "name": "scriptHash",
          "type": "bytes32"
        },
        {
          "indexed": true,
          "name": "from",
          "type": "address"
        },
        {
          "indexed": false,
          "name": "valueAdded",
          "type": "uint256"
        }
      ],
      "name": "FundAdded",
      "type": "event"
    },
    {
      "anonymous": false,
      "inputs": [
        {
          "indexed": false,
          "name": "scriptHash",
          "type": "bytes32"
        },
        {
          "indexed": true,
          "name": "from",
          "type": "address"
        },
        {
          "indexed": false,
          "name": "value",
          "type": "uint256"
        }
      ],
      "name": "Funded",
      "type": "event"
    },
    {
      "constant": false,
      "inputs": [
        {
          "name": "_buyer",
          "type": "address"
        },
        {
          "name": "_seller",
          "type": "address"
        },
        {
          "name": "_moderators",
          "type": "address[]"
        },
        {
          "name": "threshold",
          "type": "uint8"
        },
        {
          "name": "timeoutHours",
          "type": "uint32"
        },
        {
          "name": "scriptHash",
          "type": "bytes32"
        }
      ],
      "name": "addTransaction",
      "outputs": [],
      "payable": true,
      "stateMutability": "payable",
      "type": "function"
    },
    {
      "constant": false,
      "inputs": [
        {
          "name": "scriptHash",
          "type": "bytes32"
        }
      ],
      "name": "addFundsToTransaction",
      "outputs": [],
      "payable": true,
      "stateMutability": "payable",
      "type": "function"
    },
    {
      "constant": false,
      "inputs": [
        {
          "name": "sigV",
          "type": "uint8[]"
        },
        {
          "name": "sigR",
          "type": "bytes32[]"
        },
        {
          "name": "sigS",
          "type": "bytes32[]"
        },
        {
          "name": "scriptHash",
          "type": "bytes32"
        },
        {
          "name": "uniqueId",
          "type": "bytes20"
        },
        {
          "name": "destinations",
          "type": "address[]"
        },
        {
          "name": "amounts",
          "type": "uint256[]"
        }
      ],
      "name": "execute",
      "outputs": [],
      "payable": false,
      "stateMutability": "nonpayable",
      "type": "function"
    },
    {
      "constant": true,
      "inputs": [
        {
          "name": "_partyAddress",
          "type": "address"
        }
      ],
      "name": "getAllTransactionsForParty",
      "outputs": [
        {
          "name": "scriptHashes",
          "type": "bytes32[]"
        }
      ],
      "payable": false,
      "stateMutability": "view",
      "type": "function"
    }
  ],
  "bytecode": "0x6080604052600060015534801561001557600080fd5b5061276b806100256000396000f300608060405260043610610083576000357c0100000000000000000000000000000000000000000000000000000000900463ffffffff1680632d9ef96e14610088578063642f2eaf146100ac578063b77bf6001461020e578063b8310cac14610239578063be84ceaf146102fd578063c8331de614610395578063f5dbe09c1461052e575b600080fd5b6100aa6004803603810190808035600019169060200190929190505050610597565b005b3480156100b857600080fd5b506100db60048036038101908080356000191690602001909291905050506107f8565b604051808a600019166000191681526020018973ffffffffffffffffffffffffffffffffffffffff1673ffffffffffffffffffffffffffffffffffffffff1681526020018873ffffffffffffffffffffffffffffffffffffffff1673ffffffffffffffffffffffffffffffffffffffff16815260200187815260200186600181111561016357fe5b60ff168152602001806020018581526020018463ffffffff1663ffffffff1681526020018360ff1660ff168152602001828103825286818151815260200191508051906020019080838360005b838110156101cb5780820151818401526020810190506101b0565b50505050905090810190601f1680156101f85780820380516001836020036101000a031916815260200191505b509a505050505050505050505060405180910390f35b34801561021a57600080fd5b50610223610948565b6040518082815260200191505060405180910390f35b6102fb600480360381019080803573ffffffffffffffffffffffffffffffffffffffff169060200190929190803573ffffffffffffffffffffffffffffffffffffffff16906020019092919080359060200190820180359060200190808060200260200160405190810160405280939291908181526020018383602002808284378201915050505050509192919290803560ff169060200190929190803563ffffffff169060200190929190803560001916906020019092919050505061094e565b005b34801561030957600080fd5b5061033e600480360381019080803573ffffffffffffffffffffffffffffffffffffffff1690602001909291905050506113b1565b6040518080602001828103825283818151815260200191508051906020019060200280838360005b83811015610381578082015181840152602081019050610366565b505050509050019250505060405180910390f35b3480156103a157600080fd5b5061052c600480360381019080803590602001908201803590602001908080602002602001604051908101604052809392919081815260200183836020028082843782019150505050505091929192908035906020019082018035906020019080806020026020016040519081016040528093929190818152602001838360200280828437820191505050505050919291929080359060200190820180359060200190808060200260200160405190810160405280939291908181526020018383602002808284378201915050505050509192919290803560001916906020019092919080356bffffffffffffffffffffffff19169060200190929190803590602001908201803590602001908080602002602001604051908101604052809392919081815260200183836020028082843782019150505050505091929192908035906020019082018035906020019080806020026020016040519081016040528093929190818152602001838360200280828437820191505050505050919291929050505061144c565b005b34801561053a57600080fd5b50610579600480360381019080803573ffffffffffffffffffffffffffffffffffffffff16906020019092919080359060200190929190505050611ebf565b60405180826000191660001916815260200191505060405180910390f35b600081600080600083600019166000191681526020019081526020016000206004015414151515610630576040517f08c379a000000000000000000000000000000000000000000000000000000000815260040180806020018281038252601b8152602001807f5472616e73616374696f6e20646f6573206e6f7420657869737473000000000081525060200191505060405180910390fd5b826000600181111561063e57fe5b600080836000191660001916815260200190815260200160002060050160009054906101000a900460ff16600181111561067457fe5b14151561070f576040517f08c379a00000000000000000000000000000000000000000000000000000000081526004018080602001828103825260328152602001807f5472616e73616374696f6e2069732065697468657220696e206469737075746581526020017f206f722072656c6561736564207374617465000000000000000000000000000081525060400191505060405180910390fd5b34925060008311151561072157600080fd5b61075183600080876000191660001916815260200190815260200160002060040154611eef90919063ffffffff16565b600080866000191660001916815260200190815260200160002060040181905550426000808660001916600019168152602001908152602001600020600701819055503373ffffffffffffffffffffffffffffffffffffffff167ff66fd2ae9e24a6a24b02e1b5b7512ffde5149a4176085fc0298ae228c9b9d72985856040518083600019166000191681526020018281526020019250505060405180910390a250505050565b60006020528060005260406000206000915090508060000154908060010160009054906101000a900473ffffffffffffffffffffffffffffffffffffffff16908060020160009054906101000a900473ffffffffffffffffffffffffffffffffffffffff16908060040154908060050160009054906101000a900460ff1690806006018054600181600116156101000203166002900480601f01602080910402602001604051908101604052809291908181526020018280546001816001161561010002031660029004801561090f5780601f106108e45761010080835404028352916020019161090f565b820191906000526020600020905b8154815290600101906020018083116108f257829003601f168201915b5050505050908060070154908060080160009054906101000a900463ffffffff16908060080160049054906101000a900460ff16905089565b60015481565b6000808260008060008360001916600019168152602001908152602001600020600401541415156109e7576040517f08c379a00000000000000000000000000000000000000000000000000000000081526004018080602001828103825260128152602001807f5472616e73616374696f6e20657869737473000000000000000000000000000081525060200191505060405180910390fd5b88600073ffffffffffffffffffffffffffffffffffffffff168173ffffffffffffffffffffffffffffffffffffffff1614151515610a8d576040517f08c379a00000000000000000000000000000000000000000000000000000000081526004018080602001828103825260138152602001807f5a65726f2061646472657373207061737365640000000000000000000000000081525060200191505060405180910390fd5b88600073ffffffffffffffffffffffffffffffffffffffff168173ffffffffffffffffffffffffffffffffffffffff1614151515610b33576040517f08c379a00000000000000000000000000000000000000000000000000000000081526004018080602001828103825260138152602001807f5a65726f2061646472657373207061737365640000000000000000000000000081525060200191505060405180910390fd5b3494508973ffffffffffffffffffffffffffffffffffffffff168b73ffffffffffffffffffffffffffffffffffffffff1614151515610bda576040517f08c379a00000000000000000000000000000000000000000000000000000000081526004018080602001828103825260198152602001807f427579657220616e642073656c6c6572206172652073616d650000000000000081525060200191505060405180910390fd5b600085111515610c52576040517f08c379a00000000000000000000000000000000000000000000000000000000081526004018080602001828103825260118152602001807f56616c756520706173736564206973203000000000000000000000000000000081525060200191505060405180910390fd5b60028951018860ff1611151515610cf7576040517f08c379a00000000000000000000000000000000000000000000000000000000081526004018080602001828103825260268152602001807f5468726573686f6c642069732067726561746572207468616e20746f74616c2081526020017f6f776e657273000000000000000000000000000000000000000000000000000081525060400191505060405180910390fd5b61014060405190810160405280876000191681526020018c73ffffffffffffffffffffffffffffffffffffffff1681526020018b73ffffffffffffffffffffffffffffffffffffffff1681526020018a815260200186815260200160006001811115610d5f57fe5b8152602001602060405190810160405280600081525081526020014281526020018863ffffffff1681526020018960ff1681525060008088600019166000191681526020019081526020016000206000820151816000019060001916905560208201518160010160006101000a81548173ffffffffffffffffffffffffffffffffffffffff021916908373ffffffffffffffffffffffffffffffffffffffff16021790555060408201518160020160006101000a81548173ffffffffffffffffffffffffffffffffffffffff021916908373ffffffffffffffffffffffffffffffffffffffff1602179055506060820151816003019080519060200190610e679291906125cd565b506080820151816004015560a08201518160050160006101000a81548160ff02191690836001811115610e9657fe5b021790555060c0820151816006019080519060200190610eb7929190612657565b5060e082015181600701556101008201518160080160006101000a81548163ffffffff021916908363ffffffff1602179055506101208201518160080160046101000a81548160ff021916908360ff1602179055509050506001600080886000191660001916815260200190815260200160002060090160008c73ffffffffffffffffffffffffffffffffffffffff1673ffffffffffffffffffffffffffffffffffffffff16815260200190815260200160002060006101000a81548160ff0219169083151502179055506001600080886000191660001916815260200190815260200160002060090160008d73ffffffffffffffffffffffffffffffffffffffff1673ffffffffffffffffffffffffffffffffffffffff16815260200190815260200160002060006101000a81548160ff021916908315150217905550600093505b88518460ff16101561125657600073ffffffffffffffffffffffffffffffffffffffff16898560ff1681518110151561102f57fe5b9060200190602002015173ffffffffffffffffffffffffffffffffffffffff16141515156110c5576040517f08c379a00000000000000000000000000000000000000000000000000000000081526004018080602001828103825260138152602001807f5a65726f2061646472657373207061737365640000000000000000000000000081525060200191505060405180910390fd5b600080876000191660001916815260200190815260200160002060090160008a8660ff168151811015156110f557fe5b9060200190602002015173ffffffffffffffffffffffffffffffffffffffff1673ffffffffffffffffffffffffffffffffffffffff16815260200190815260200160002060009054906101000a900460ff161515156111bc576040517f08c379a000000000000000000000000000000000000000000000000000000000815260040180806020018281038252601b8152602001807f4d6f64657261746f7220697320626569676e207265706561746564000000000081525060200191505060405180910390fd5b6001600080886000191660001916815260200190815260200160002060090160008b8760ff168151811015156111ee57fe5b9060200190602002015173ffffffffffffffffffffffffffffffffffffffff1673ffffffffffffffffffffffffffffffffffffffff16815260200190815260200160002060006101000a81548160ff0219169083151502179055508380600101945050610ffa565b600160008154809291906001019190505550600260008c73ffffffffffffffffffffffffffffffffffffffff1673ffffffffffffffffffffffffffffffffffffffff168152602001908152602001600020869080600181540180825580915050906001820390600052602060002001600090919290919091509060001916905550600260008b73ffffffffffffffffffffffffffffffffffffffff1673ffffffffffffffffffffffffffffffffffffffff1681526020019081526020016000208690806001815401808255809150509060018203906000526020600020016000909192909190915090600019169055503373ffffffffffffffffffffffffffffffffffffffff167fce7089d0668849fb9ca29778c0cbf1e764d9efb048d81fd71fb34c94f26db36887876040518083600019166000191681526020018281526020019250505060405180910390a25050505050505050505050565b6060600260008373ffffffffffffffffffffffffffffffffffffffff1673ffffffffffffffffffffffffffffffffffffffff16815260200190815260200160002080548060200260200160405190810160405280929190818152602001828054801561144057602002820191906000526020600020905b81546000191681526020019060010190808311611428575b50505050509050919050565b600080600080600080896000806000836000191660001916815260200190815260200160002060040154141515156114ec576040517f08c379a000000000000000000000000000000000000000000000000000000000815260040180806020018281038252601b8152602001807f5472616e73616374696f6e20646f6573206e6f7420657869737473000000000081525060200191505060405180910390fd5b8a600060018111156114fa57fe5b600080836000191660001916815260200190815260200160002060050160009054906101000a900460ff16600181111561153057fe5b1415156115cb576040517f08c379a00000000000000000000000000000000000000000000000000000000081526004018080602001828103825260328152602001807f5472616e73616374696f6e2069732065697468657220696e206469737075746581526020017f206f722072656c6561736564207374617465000000000000000000000000000081525060400191505060405180910390fd5b60008a511180156115dd575088518a51145b15156115e857600080fd5b6000808d6000191660001916815260200190815260200160002097508a8860080160049054906101000a900460ff168960080160009054906101000a900463ffffffff168a60010160009054906101000a900473ffffffffffffffffffffffffffffffffffffffff168b60020160009054906101000a900473ffffffffffffffffffffffffffffffffffffffff168c600301600081548110151561168857fe5b9060005260206000200160009054906101000a900473ffffffffffffffffffffffffffffffffffffffff1660405160200180876bffffffffffffffffffffffff19166bffffffffffffffffffffffff191681526014018660ff1660ff167f01000000000000000000000000000000000000000000000000000000000000000281526001018563ffffffff1663ffffffff167c01000000000000000000000000000000000000000000000000000000000281526004018473ffffffffffffffffffffffffffffffffffffffff1673ffffffffffffffffffffffffffffffffffffffff166c010000000000000000000000000281526014018373ffffffffffffffffffffffffffffffffffffffff1673ffffffffffffffffffffffffffffffffffffffff166c010000000000000000000000000281526014018273ffffffffffffffffffffffffffffffffffffffff1673ffffffffffffffffffffffffffffffffffffffff166c0100000000000000000000000002815260140196505050505050506040516020818303038152906040526040518082805190602001908083835b60208310151561184c5780518252602082019150602081019050602083039250611827565b6001836020036101000a0380198251168184511680821785525050505050509050019150506040518091039020965086600019168c60001916141515611920576040517f08c379a00000000000000000000000000000000000000000000000000000000081526004018080602001828103825260388152602001807f43616c63756c6174656420736372697074206861736820646f6573206e6f742081526020017f6d6174636820706173736564207363726970742068617368000000000000000081525060400191505060405180910390fd5b61192e8f8f8f8f8e8e611f10565b95506119528860080160009054906101000a900463ffffffff16896007015461251a565b94508760080160049054906101000a900460ff1660ff168f51108015611976575084155b1561198057600080fd5b60018f5114801561198e5750845b80156119ea57508760020160009054906101000a900473ffffffffffffffffffffffffffffffffffffffff1673ffffffffffffffffffffffffffffffffffffffff168673ffffffffffffffffffffffffffffffffffffffff1614155b156119f457600080fd5b8760080160049054906101000a900460ff1660ff168f511015611a1657600080fd5b60016000808e6000191660001916815260200190815260200160002060050160006101000a81548160ff02191690836001811115611a5057fe5b021790555060009350600092505b89518360ff161015611d2257600073ffffffffffffffffffffffffffffffffffffffff168a8460ff16815181101515611a9357fe5b9060200190602002015173ffffffffffffffffffffffffffffffffffffffff1614158015611b3f57506000808d6000191660001916815260200190815260200160002060090160008b8560ff16815181101515611aec57fe5b9060200190602002015173ffffffffffffffffffffffffffffffffffffffff1673ffffffffffffffffffffffffffffffffffffffff16815260200190815260200160002060009054906101000a900460ff165b1515611bb3576040517f08c379a00000000000000000000000000000000000000000000000000000000081526004018080602001828103825260178152602001807f4e6f7420612076616c69642064657374696e6174696f6e00000000000000000081525060200191505060405180910390fd5b6000898460ff16815181101515611bc657fe5b90602001906020020151111515611c6b576040517f08c379a000000000000000000000000000000000000000000000000000000000815260040180806020018281038252602a8152602001807f416d6f756e7420746f2062652073656e742073686f756c64206265206772656181526020017f746572207468616e20300000000000000000000000000000000000000000000081525060400191505060405180910390fd5b611c98898460ff16815181101515611c7f57fe5b9060200190602002015185611eef90919063ffffffff16565b9350898360ff16815181101515611cab57fe5b9060200190602002015173ffffffffffffffffffffffffffffffffffffffff166108fc8a8560ff16815181101515611cdf57fe5b906020019060200201519081150290604051600060405180830381858888f19350505050158015611d14573d6000803e3d6000fd5b508280600101935050611a5e565b6000808d60001916600019168152602001908152602001600020600401548411151515611ddd576040517f08c379a000000000000000000000000000000000000000000000000000000000815260040180806020018281038252603c8152602001807f546f74616c2076616c756520746f2062652073656e742069732067726561746581526020017f72207468616e20746865207472616e73616374696f6e2076616c75650000000081525060400191505060405180910390fd5b7f688e2a1b34445bcd47b0e11ba2a9c8c4d850a1831b64199b59d1c70e297015458c8b8b6040518084600019166000191681526020018060200180602001838103835285818151815260200191508051906020019060200280838360005b83811015611e56578082015181840152602081019050611e3b565b50505050905001838103825284818151815260200191508051906020019060200280838360005b83811015611e98578082015181840152602081019050611e7d565b505050509050019550505050505060405180910390a1505050505050505050505050505050565b600260205281600052604060002081815481101515611eda57fe5b90600052602060002001600091509150505481565b6000808284019050838110151515611f0657600080fd5b8091505092915050565b60008060008087518951148015611f28575089518951145b1515611f3357600080fd5b60197f01000000000000000000000000000000000000000000000000000000000000000260007f0100000000000000000000000000000000000000000000000000000000000000023088888b60405160200180877effffffffffffffffffffffffffffffffffffffffffffffffffffffffffffff19167effffffffffffffffffffffffffffffffffffffffffffffffffffffffffffff19168152600101867effffffffffffffffffffffffffffffffffffffffffffffffffffffffffffff19167effffffffffffffffffffffffffffffffffffffffffffffffffffffffffffff191681526001018573ffffffffffffffffffffffffffffffffffffffff1673ffffffffffffffffffffffffffffffffffffffff166c01000000000000000000000000028152601401848051906020019060200280838360005b8381101561208757808201518184015260208101905061206c565b50505050905001838051906020019060200280838360005b838110156120ba57808201518184015260208101905061209f565b50505050905001826000191660001916815260200196505050505050506040516020818303038152906040526040518082805190602001908083835b60208310151561211b57805182526020820191506020810190506020830392506120f6565b6001836020036101000a038019825116818451168082178552505050505050905001915050604051809103902060405160200180807f19457468657265756d205369676e6564204d6573736167653a0a333200000000815250601c0182600019166000191681526020019150506040516020818303038152906040526040518082805190602001908083835b6020831015156121cc57805182526020820191506020810190506020830392506121a7565b6001836020036101000a03801982511681845116808217855250505050505090500191505060405180910390209250600091505b885182101561250d576001838b8481518110151561221a57fe5b906020019060200201518b8581518110151561223257fe5b906020019060200201518b8681518110151561224a57fe5b90602001906020020151604051600081526020016040526040518085600019166000191681526020018460ff1660ff1681526020018360001916600019168152602001826000191660001916815260200194505050505060206040516020810390808403906000865af11580156122c5573d6000803e3d6000fd5b505050602060405103519050600080886000191660001916815260200190815260200160002060090160008273ffffffffffffffffffffffffffffffffffffffff1673ffffffffffffffffffffffffffffffffffffffff16815260200190815260200160002060009054906101000a900460ff1615156123ad576040517f08c379a00000000000000000000000000000000000000000000000000000000081526004018080602001828103825260118152602001807f496e76616c6964207369676e617475726500000000000000000000000000000081525060200191505060405180910390fd5b6000808860001916600019168152602001908152602001600020600a0160008273ffffffffffffffffffffffffffffffffffffffff1673ffffffffffffffffffffffffffffffffffffffff16815260200190815260200160002060009054906101000a900460ff1615151561248a576040517f08c379a00000000000000000000000000000000000000000000000000000000081526004018080602001828103825260198152602001807f53616d65207369676e61747572652073656e742074776963650000000000000081525060200191505060405180910390fd5b60016000808960001916600019168152602001908152602001600020600a0160008373ffffffffffffffffffffffffffffffffffffffff1673ffffffffffffffffffffffffffffffffffffffff16815260200190815260200160002060006101000a81548160ff0219169083151502179055508093508180600101925050612200565b5050509695505050505050565b600080612530834261256e90919063ffffffff16565b905060008463ffffffff16146125625761255b610e108563ffffffff1661258f90919063ffffffff16565b8111612565565b60005b91505092915050565b60008083831115151561258057600080fd5b82840390508091505092915050565b60008060008414156125a457600091506125c6565b82840290508284828115156125b557fe5b041415156125c257600080fd5b8091505b5092915050565b828054828255906000526020600020908101928215612646579160200282015b828111156126455782518260006101000a81548173ffffffffffffffffffffffffffffffffffffffff021916908373ffffffffffffffffffffffffffffffffffffffff160217905550916020019190600101906125ed565b5b50905061265391906126d7565b5090565b828054600181600116156101000203166002900490600052602060002090601f016020900481019282601f1061269857805160ff19168380011785556126c6565b828001600101855582156126c6579182015b828111156126c55782518255916020019190600101906126aa565b5b5090506126d3919061271a565b5090565b61271791905b8082111561271357600081816101000a81549073ffffffffffffffffffffffffffffffffffffffff0219169055506001016126dd565b5090565b90565b61273c91905b80821115612738576000816000905550600101612720565b5090565b905600a165627a7a72305820209df1a270c306e2100181251f05ccc5dd1d3c4f69079a88d76fddcf43e4c8610029",
  "source": "pragma solidity 0.4.24;\n\nimport \"openzeppelin-solidity/contracts/math/SafeMath.sol\";\n\n/** \n* @dev The escrow smart contract for the open bazaar trades in Ethereum\n* The smart contract is desgined keeping in mind the current wallet interface of the OB-core\n* https://github.com/OpenBazaar/wallet-interface/blob/master/wallet.go\n* Current wallet interface strictly adheres to UTXO(bitcoin) model\n*/\ncontract EscrowWithoutToken{\n    \n    using SafeMath for uint256;\n    \n    enum Status {FUNDED, RELEASED}\n                       \n    event Executed(bytes32 scriptHash, address[] destinations, uint256[] amounts);\n    \n    event FundAdded(bytes32 scriptHash, address indexed from, uint256 valueAdded);\n\n    event Funded(bytes32 scriptHash, address indexed from, uint256 value);\n\n    struct Transaction {\n        bytes32 scriptHash;//This is unique indentifier for a transaction\n        address buyer;\n        address seller;\n        address[] moderators;\n        uint256 value;\n        Status status;\n        string ipfsHash;\n        uint256 lastFunded;//Time at which transaction was last funded\n        uint32 timeoutHours;\n        uint8 threshold;\n        mapping(address=>bool) isOwner;//to keep track of owners/signers. \n        mapping(address=>bool) voted;//to keep track of who all voted       \n    }\n\n    mapping(bytes32 => Transaction) public transactions;\n \n    uint256 public transactionCount = 0;\n\n    mapping(address => bytes32[])public partyVsTransaction;//Contains mapping between each party and all of his transactions\n\n \n    modifier transactionExists(bytes32 scriptHash) {\n        require(transactions[scriptHash].value != 0, \"Transaction does not exists\");\n        _;\n    }\n\n    modifier transactionDoesNotExists (bytes32 scriptHash) {\n        require(transactions[scriptHash].value == 0, \"Transaction exists\");\n        _;\n    }\n \n    modifier inFundedState(bytes32 scriptHash) {\n        require(transactions[scriptHash].status == Status.FUNDED, \"Transaction is either in dispute or released state\");\n        _;\n    }\n\n    modifier nonZeroAddress(address _address) {\n        require(_address != address(0), \"Zero address passed\");\n        _;\n    }\n    \n    /** \n    *@dev Add new transaction in the contract\n    *@param _buyer The buyer of the transaction\n    *@param _seller The seller of the listing associated with the transaction\n    *@param _moderators List of moderators for this transaction. For now only single moderator\n    *@param scriptHash keccak256 hash of the redeem script\n    *@param threshold Minimum number of singatures required to released funds\n    *@param timeoutHours Hours after which seller can release funds into his favour by signing transaction\n    *Redeem Script format will be following\n    <uniqueId: 20><threshold:1><timeoutHours:4><buyer:20><seller:20><moderator:20>\n    * scripthash-> keccak256(uniqueId, threshold, timeoutHours, buyer, seller, moderator)\n    *Pass amount of the ethers to be put in escrow\n    *Please keep in mind you will have to add moderators fees also in the value\n    */\n    function addTransaction(address _buyer, address _seller, address[] _moderators, uint8 threshold, uint32 timeoutHours, bytes32 scriptHash)\n    public payable transactionDoesNotExists(scriptHash) nonZeroAddress(_buyer) nonZeroAddress(_seller){\n        \n       \n        uint256 _value = msg.value;\n\n        require(_buyer != _seller, \"Buyer and seller are same\");\n\n        //value passed should be greater than 0\n        require(_value>0, \"Value passed is 0\");\n        \n        // For now allowing 0 moderators to support 1-2 multisig wallet\n        //require(_moderators.length>0,\"There should be atleast 1 moderator\");//TODO- What to do in case of 1-2 multi sig transaction\n\n        require(threshold <= _moderators.length + 2, \"Threshold is greater than total owners\");\n\n    \n        transactions[scriptHash] = Transaction({\n                \n            buyer: _buyer,\n        \n            seller: _seller,\n        \n            moderators: _moderators,\n        \n            value: _value,\n        \n            status: Status.FUNDED,\n                \n            ipfsHash: \"\",\n\n            lastFunded: block.timestamp,\n\n            scriptHash: scriptHash,\n\n            threshold: threshold,\n\n            timeoutHours: timeoutHours\n\n                        \n        });\n\n        transactions[scriptHash].isOwner[_seller] = true;\n        transactions[scriptHash].isOwner[_buyer] = true;\n\n        \n        //check if moderator is verified moderator or not\n        for(uint8 i=0;i<_moderators.length; i++){\n            \n            require(_moderators[i] != address(0), \"Zero address passed\");\n            require(!transactions[scriptHash].isOwner[_moderators[i]], \"Moderator is beign repeated\");//Check if same moderator is not passed twice in the list\n           \n            transactions[scriptHash].isOwner[_moderators[i]] = true;\n        }    \n        transactionCount++;\n\n        partyVsTransaction[_buyer].push(scriptHash);\n        partyVsTransaction[_seller].push(scriptHash);\n\n        emit Funded(scriptHash, msg.sender, _value);\n    }\n    \n    /** \n    *@dev Allows buyer of the transaction to add more funds in the transaction. This will help to cater scenarios wherein initially buyer missed to fund transaction as required\n    *@param scriptHash script hash of the transaction\n    */\n    function addFundsToTransaction(bytes32 scriptHash)public transactionExists(scriptHash) inFundedState(scriptHash) payable{\n         \n        uint256 _value = msg.value;\n    \n        require(_value > 0);\n\n        transactions[scriptHash].value = transactions[scriptHash].value.add(_value);\n        transactions[scriptHash].lastFunded = block.timestamp;\n\n\n        emit FundAdded(scriptHash, msg.sender, _value);\n\n\n    }\n \n    /**\n    *@dev Allows one of the moderator to collect all the signature to solve dispute and submit it to this method.\n    * If all the required signatures are collected and consensus has been reached than funds will be released to the voted party\n    *@param sigV Array containing V component of all the signatures(signed by each moderator)\n    *@param sigR Array containing R component of all the signatures(signed by each moderator)\n    *@param signS Array containing S component of all the signature(signed by each moderator)\n    *@param scriptHash script hash of the transaction\n    *@param uniqueId bytes20 unique id for the transaction, generated by ETH wallet\n    *@param destinations address of the destination in whose favour dispute resolution is taking place. In case of split payments it will be address of the split payments contract\n    *@param amounts value to send to each destination\n    */  \n    function execute(uint8[] sigV, bytes32[] sigR, bytes32[] sigS, bytes32 scriptHash, bytes20 uniqueId, address[] destinations, uint256[] amounts) public  transactionExists(scriptHash) inFundedState(scriptHash){\n\n        require(destinations.length>0 && destinations.length == amounts.length);\n\n        Transaction storage t = transactions[scriptHash];\n\n        bytes32 calculatedScriptHash = keccak256(abi.encodePacked(uniqueId, t.threshold, t.timeoutHours, t.buyer, t.seller, t.moderators[0]));\n\n        require(scriptHash == calculatedScriptHash, \"Calculated script hash does not match passed script hash\");\n\n        address lastRecovered = verifySignatures(sigV, sigR, sigS, scriptHash, destinations, amounts);\n\n        bool timeLockExpired = isTimeLockExpired(t.timeoutHours, t.lastFunded);\n\n        //assumin threshold will always be greater than 1, else its not multisig\n        if(sigV.length < t.threshold && !timeLockExpired){\n            revert();\n        }else if(sigV.length == 1 && timeLockExpired && lastRecovered != t.seller){\n            revert();\n        }else if(sigV.length < t.threshold){\n            revert();\n        }\n           \n        transactions[scriptHash].status = Status.RELEASED;\n\n        uint256 totalValue = 0;\n\n        for(uint8 i = 0; i<destinations.length; i++) {\n\n            require(destinations[i] != address(0) && transactions[scriptHash].isOwner[destinations[i]], \"Not a valid destination\");\n            require(amounts[i] > 0, \"Amount to be sent should be greater than 0\");\n\n            totalValue = totalValue.add(amounts[i]);\n\n            destinations[i].transfer(amounts[i]);\n        }\n        require(totalValue <= transactions[scriptHash].value, \"Total value to be sent is greater than the transaction value\");\n\n        emit Executed(scriptHash, destinations, amounts);\n            \n       \n    }\n    \n    //to check whether the signature are valid or not and if consensus was reached\n    //returns the last address recovered, in case of timeout this must be the sender's address\n    function verifySignatures(uint8[] sigV, bytes32[] sigR, bytes32[] sigS, bytes32 scriptHash, address[] destinations, uint256[]amounts)\n      private returns (address lastAddress){\n\n        require(sigR.length == sigS.length && sigR.length == sigV.length);\n\n        // Follows ERC191 signature scheme: https://github.com/ethereum/EIPs/issues/191\n        bytes32 txHash = keccak256(abi.encodePacked(\"\\x19Ethereum Signed Message:\\n32\", keccak256(abi.encodePacked(byte(0x19), byte(0), this, destinations, amounts, scriptHash))));\n        \n        for (uint i = 0; i < sigR.length; i++) {\n\n            address recovered = ecrecover(txHash, sigV[i], sigR[i], sigS[i]);\n\n            require(transactions[scriptHash].isOwner[recovered], \"Invalid signature\");\n            require(!transactions[scriptHash].voted[recovered], \"Same signature sent twice\");\n            transactions[scriptHash].voted[recovered] = true;\n            lastAddress = recovered;\n        \n        }\n\n    }\n\n    /** \n    *@dev Returns all transaction ids for a party\n    *@param _partyAddress Address of the party\n    */\n    function getAllTransactionsForParty(address _partyAddress)public view returns(bytes32[] scriptHashes) {\n\n        return partyVsTransaction[_partyAddress];\n    }\n\n\n    function isTimeLockExpired(uint32 timeoutHours, uint256 lastFunded)internal view returns(bool expired){\n        uint256 timeSince = now.sub(lastFunded);\n\n        expired = timeoutHours == 0?false:timeSince > uint256(timeoutHours).mul(3600);\n    }\n}\n\n",
  "sourcePath": "/home/sameep/freelancing-projects/toptal/open baazar/publicRepo/smart-contracts/contracts/test/EscrowWithoutToken.sol",
  "compiler": {
    "name": "solc",
    "version": "0.4.24+commit.e67f0147.Emscripten.clang"
  },
  "schemaVersion": "2.0.1",
  "updatedAt": "2019-02-26T06:26:13.004Z"
}