{
  "contractName": "Escrow_v1_0",
  "abi": [
    {
      "constant": true,
      "inputs": [
        {
          "name": "",
          "type": "bytes32"
        }
      ],
      "name": "transactions",
      "outputs": [
        {
          "name": "scriptHash",
          "type": "bytes32"
        },
        {
          "name": "value",
          "type": "uint256"
        },
        {
          "name": "lastModified",
          "type": "uint256"
        },
        {
          "name": "status",
          "type": "uint8"
        },
        {
          "name": "transactionType",
          "type": "uint8"
        },
        {
          "name": "threshold",
          "type": "uint8"
        },
        {
          "name": "timeoutHours",
          "type": "uint32"
        },
        {
          "name": "buyer",
          "type": "address"
        },
        {
          "name": "seller",
          "type": "address"
        },
        {
          "name": "tokenAddress",
          "type": "address"
        }
      ],
      "payable": false,
      "stateMutability": "view",
      "type": "function"
    },
    {
      "constant": true,
      "inputs": [],
      "name": "transactionCount",
      "outputs": [
        {
          "name": "",
          "type": "uint256"
        }
      ],
      "payable": false,
      "stateMutability": "view",
      "type": "function"
    },
    {
      "constant": true,
      "inputs": [
        {
          "name": "",
          "type": "address"
        },
        {
          "name": "",
          "type": "uint256"
        }
      ],
      "name": "partyVsTransaction",
      "outputs": [
        {
          "name": "",
          "type": "bytes32"
        }
      ],
      "payable": false,
      "stateMutability": "view",
      "type": "function"
    },
    {
      "anonymous": false,
      "inputs": [
        {
          "indexed": false,
          "name": "scriptHash",
          "type": "bytes32"
        },
        {
          "indexed": false,
          "name": "destinations",
          "type": "address[]"
        },
        {
          "indexed": false,
          "name": "amounts",
          "type": "uint256[]"
        }
      ],
      "name": "Executed",
      "type": "event"
    },
    {
      "anonymous": false,
      "inputs": [
        {
          "indexed": false,
          "name": "scriptHash",
          "type": "bytes32"
        },
        {
          "indexed": true,
          "name": "from",
          "type": "address"
        },
        {
          "indexed": false,
          "name": "valueAdded",
          "type": "uint256"
        }
      ],
      "name": "FundAdded",
      "type": "event"
    },
    {
      "anonymous": false,
      "inputs": [
        {
          "indexed": false,
          "name": "scriptHash",
          "type": "bytes32"
        },
        {
          "indexed": true,
          "name": "from",
          "type": "address"
        },
        {
          "indexed": false,
          "name": "value",
          "type": "uint256"
        }
      ],
      "name": "Funded",
      "type": "event"
    },
    {
      "constant": false,
      "inputs": [
        {
          "name": "buyer",
          "type": "address"
        },
        {
          "name": "seller",
          "type": "address"
        },
        {
          "name": "moderators",
          "type": "address[]"
        },
        {
          "name": "threshold",
          "type": "uint8"
        },
        {
          "name": "timeoutHours",
          "type": "uint32"
        },
        {
          "name": "scriptHash",
          "type": "bytes32"
        }
      ],
      "name": "addTransaction",
      "outputs": [],
      "payable": true,
      "stateMutability": "payable",
      "type": "function"
    },
    {
      "constant": false,
      "inputs": [
        {
          "name": "buyer",
          "type": "address"
        },
        {
          "name": "seller",
          "type": "address"
        },
        {
          "name": "moderators",
          "type": "address[]"
        },
        {
          "name": "threshold",
          "type": "uint8"
        },
        {
          "name": "timeoutHours",
          "type": "uint32"
        },
        {
          "name": "scriptHash",
          "type": "bytes32"
        },
        {
          "name": "value",
          "type": "uint256"
        },
        {
          "name": "tokenAddress",
          "type": "address"
        }
      ],
      "name": "addTokenTransaction",
      "outputs": [],
      "payable": false,
      "stateMutability": "nonpayable",
      "type": "function"
    },
    {
      "constant": true,
      "inputs": [
        {
          "name": "scriptHash",
          "type": "bytes32"
        },
        {
          "name": "beneficiary",
          "type": "address"
        }
      ],
      "name": "checkBeneficiary",
      "outputs": [
        {
          "name": "check",
          "type": "bool"
        }
      ],
      "payable": false,
      "stateMutability": "view",
      "type": "function"
    },
    {
      "constant": true,
      "inputs": [
        {
          "name": "scriptHash",
          "type": "bytes32"
        },
        {
          "name": "party",
          "type": "address"
        }
      ],
      "name": "checkVote",
      "outputs": [
        {
          "name": "vote",
          "type": "bool"
        }
      ],
      "payable": false,
      "stateMutability": "view",
      "type": "function"
    },
    {
      "constant": false,
      "inputs": [
        {
          "name": "scriptHash",
          "type": "bytes32"
        }
      ],
      "name": "addFundsToTransaction",
      "outputs": [],
      "payable": true,
      "stateMutability": "payable",
      "type": "function"
    },
    {
      "constant": false,
      "inputs": [
        {
          "name": "scriptHash",
          "type": "bytes32"
        },
        {
          "name": "value",
          "type": "uint256"
        }
      ],
      "name": "addTokensToTransaction",
      "outputs": [],
      "payable": false,
      "stateMutability": "nonpayable",
      "type": "function"
    },
    {
      "constant": true,
      "inputs": [
        {
          "name": "partyAddress",
          "type": "address"
        }
      ],
      "name": "getAllTransactionsForParty",
      "outputs": [
        {
          "name": "scriptHashes",
          "type": "bytes32[]"
        }
      ],
      "payable": false,
      "stateMutability": "view",
      "type": "function"
    },
    {
      "constant": false,
      "inputs": [
        {
          "name": "sigV",
          "type": "uint8[]"
        },
        {
          "name": "sigR",
          "type": "bytes32[]"
        },
        {
          "name": "sigS",
          "type": "bytes32[]"
        },
        {
          "name": "scriptHash",
          "type": "bytes32"
        },
        {
          "name": "uniqueId",
          "type": "bytes20"
        },
        {
          "name": "destinations",
          "type": "address[]"
        },
        {
          "name": "amounts",
          "type": "uint256[]"
        }
      ],
      "name": "execute",
      "outputs": [],
      "payable": false,
      "stateMutability": "nonpayable",
      "type": "function"
    },
    {
      "constant": true,
      "inputs": [
        {
          "name": "uniqueId",
          "type": "bytes20"
        },
        {
          "name": "threshold",
          "type": "uint256"
        },
        {
          "name": "timeoutHours",
          "type": "uint256"
        },
        {
          "name": "buyer",
          "type": "address"
        },
        {
          "name": "seller",
          "type": "address"
        },
        {
          "name": "moderator",
          "type": "address"
        },
        {
          "name": "tokenAddress",
          "type": "address"
        }
      ],
      "name": "calculateRedeemScriptHash",
      "outputs": [
        {
          "name": "hash",
          "type": "bytes32"
        }
      ],
      "payable": false,
      "stateMutability": "view",
      "type": "function"
    }
  ],
  "bytecode": "0x6080604052600060015534801561001557600080fd5b506145b2806100256000396000f3006080604052600436106100ba576000357c0100000000000000000000000000000000000000000000000000000000900463ffffffff1680632d9ef96e146100bf578063342f85fe146100e3578063642f2eaf146101cf578063b0550c661461030d578063b719e28014610376578063b77bf600146103b1578063b8310cac146103dc578063be84ceaf14610475578063c8331de61461050d578063d9006b06146105cf578063f07865621461069f578063f5dbe09c14610708575b600080fd5b6100e16004803603810190808035600019169060200190929190505050610771565b005b3480156100ef57600080fd5b506101b160048036038101908080356bffffffffffffffffffffffff191690602001909291908035906020019092919080359060200190929190803573ffffffffffffffffffffffffffffffffffffffff169060200190929190803573ffffffffffffffffffffffffffffffffffffffff169060200190929190803573ffffffffffffffffffffffffffffffffffffffff169060200190929190803573ffffffffffffffffffffffffffffffffffffffff169060200190929190505050610bff565b60405180826000191660001916815260200191505060405180910390f35b3480156101db57600080fd5b506101fe6004803603810190808035600019169060200190929190505050611005565b604051808b600019166000191681526020018a815260200189815260200188600181111561022857fe5b60ff16815260200187600181111561023c57fe5b60ff1681526020018660ff1660ff1681526020018563ffffffff1663ffffffff1681526020018473ffffffffffffffffffffffffffffffffffffffff1673ffffffffffffffffffffffffffffffffffffffff1681526020018373ffffffffffffffffffffffffffffffffffffffff1673ffffffffffffffffffffffffffffffffffffffff1681526020018273ffffffffffffffffffffffffffffffffffffffff1673ffffffffffffffffffffffffffffffffffffffff1681526020019a505050505050505050505060405180910390f35b34801561031957600080fd5b5061035c6004803603810190808035600019169060200190929190803573ffffffffffffffffffffffffffffffffffffffff1690602001909291905050506110f0565b604051808215151515815260200191505060405180910390f35b34801561038257600080fd5b506103af600480360381019080803560001916906020019092919080359060200190929190505050611162565b005b3480156103bd57600080fd5b506103c6611842565b6040518082815260200191505060405180910390f35b610473600480360381019080803573ffffffffffffffffffffffffffffffffffffffff169060200190929190803573ffffffffffffffffffffffffffffffffffffffff169060200190929190803590602001908201803590602001919091929391929390803560ff169060200190929190803563ffffffff1690602001909291908035600019169060200190929190505050611848565b005b34801561048157600080fd5b506104b6600480360381019080803573ffffffffffffffffffffffffffffffffffffffff169060200190929190505050611a77565b6040518080602001828103825283818151815260200191508051906020019060200280838360005b838110156104f95780820151818401526020810190506104de565b505050509050019250505060405180910390f35b34801561051957600080fd5b506105cd600480360381019080803590602001908201803590602001919091929391929390803590602001908201803590602001919091929391929390803590602001908201803590602001919091929391929390803560001916906020019092919080356bffffffffffffffffffffffff19169060200190929190803590602001908201803590602001919091929391929390803590602001908201803590602001919091929391929390505050611b12565b005b3480156105db57600080fd5b5061069d600480360381019080803573ffffffffffffffffffffffffffffffffffffffff169060200190929190803573ffffffffffffffffffffffffffffffffffffffff169060200190929190803590602001908201803590602001919091929391929390803560ff169060200190929190803563ffffffff169060200190929190803560001916906020019092919080359060200190929190803573ffffffffffffffffffffffffffffffffffffffff1690602001909291905050506123e9565b005b3480156106ab57600080fd5b506106ee6004803603810190808035600019169060200190929190803573ffffffffffffffffffffffffffffffffffffffff169060200190929190505050612899565b604051808215151515815260200191505060405180910390f35b34801561071457600080fd5b50610753600480360381019080803573ffffffffffffffffffffffffffffffffffffffff1690602001909291908035906020019092919050505061290b565b60405180826000191660001916815260200191505060405180910390f35b60008160008060008360001916600019168152602001908152602001600020600101541415151561080a576040517f08c379a000000000000000000000000000000000000000000000000000000000815260040180806020018281038252601b8152602001807f5472616e73616374696f6e20646f6573206e6f7420657869737473000000000081525060200191505060405180910390fd5b826000600181111561081857fe5b600080836000191660001916815260200190815260200160002060030160009054906101000a900460ff16600181111561084e57fe5b1415156108e9576040517f08c379a00000000000000000000000000000000000000000000000000000000081526004018080602001828103825260328152602001807f5472616e73616374696f6e2069732065697468657220696e206469737075746581526020017f206f722072656c6561736564207374617465000000000000000000000000000081525060400191505060405180910390fd5b8360008060018111156108f857fe5b600080846000191660001916815260200190815260200160002060030160019054906101000a900460ff16600181111561092e57fe5b1415156109a3576040517f08c379a000000000000000000000000000000000000000000000000000000000815260040180806020018281038252601f8152602001807f5472616e73616374696f6e207479706520646f6573206e6f74206d617463680081525060200191505060405180910390fd5b85600080826000191660001916815260200190815260200160002060030160079054906101000a900473ffffffffffffffffffffffffffffffffffffffff1673ffffffffffffffffffffffffffffffffffffffff163373ffffffffffffffffffffffffffffffffffffffff16141515610aaa576040517f08c379a000000000000000000000000000000000000000000000000000000000815260040180806020018281038252602d8152602001807f54686520696e69746961746f72206f6620746865207472616e73616374696f6e81526020017f206973206e6f742062757965720000000000000000000000000000000000000081525060400191505060405180910390fd5b349550600086111515610b25576040517f08c379a00000000000000000000000000000000000000000000000000000000081526004018080602001828103825260208152602001807f56616c7565206d7573742062652067726561746572207468616e207a65726f2e81525060200191505060405180910390fd5b610b55866000808a600019166000191681526020019081526020016000206001015461293b90919063ffffffff16565b600080896000191660001916815260200190815260200160002060010181905550426000808960001916600019168152602001908152602001600020600201819055503373ffffffffffffffffffffffffffffffffffffffff167ff66fd2ae9e24a6a24b02e1b5b7512ffde5149a4176085fc0298ae228c9b9d72988886040518083600019166000191681526020018281526020019250505060405180910390a250505050505050565b60008073ffffffffffffffffffffffffffffffffffffffff168273ffffffffffffffffffffffffffffffffffffffff161415610df8578787878787873060405160200180886bffffffffffffffffffffffff19166bffffffffffffffffffffffff191681526014018781526020018681526020018573ffffffffffffffffffffffffffffffffffffffff1673ffffffffffffffffffffffffffffffffffffffff166c010000000000000000000000000281526014018473ffffffffffffffffffffffffffffffffffffffff1673ffffffffffffffffffffffffffffffffffffffff166c010000000000000000000000000281526014018373ffffffffffffffffffffffffffffffffffffffff1673ffffffffffffffffffffffffffffffffffffffff166c010000000000000000000000000281526014018273ffffffffffffffffffffffffffffffffffffffff1673ffffffffffffffffffffffffffffffffffffffff166c010000000000000000000000000281526014019750505050505050506040516020818303038152906040526040518082805190602001908083835b602083101515610dc45780518252602082019150602081019050602083039250610d9f565b6001836020036101000a03801982511681845116808217855250505050505090500191505060405180910390209050610ffa565b878787878787308860405160200180896bffffffffffffffffffffffff19166bffffffffffffffffffffffff191681526014018881526020018781526020018673ffffffffffffffffffffffffffffffffffffffff1673ffffffffffffffffffffffffffffffffffffffff166c010000000000000000000000000281526014018573ffffffffffffffffffffffffffffffffffffffff1673ffffffffffffffffffffffffffffffffffffffff166c010000000000000000000000000281526014018473ffffffffffffffffffffffffffffffffffffffff1673ffffffffffffffffffffffffffffffffffffffff166c010000000000000000000000000281526014018373ffffffffffffffffffffffffffffffffffffffff1673ffffffffffffffffffffffffffffffffffffffff166c010000000000000000000000000281526014018273ffffffffffffffffffffffffffffffffffffffff1673ffffffffffffffffffffffffffffffffffffffff166c01000000000000000000000000028152601401985050505050505050506040516020818303038152906040526040518082805190602001908083835b602083101515610fca5780518252602082019150602081019050602083039250610fa5565b6001836020036101000a038019825116818451168082178552505050505050905001915050604051809103902090505b979650505050505050565b60006020528060005260406000206000915090508060000154908060010154908060020154908060030160009054906101000a900460ff16908060030160019054906101000a900460ff16908060030160029054906101000a900460ff16908060030160039054906101000a900463ffffffff16908060030160079054906101000a900473ffffffffffffffffffffffffffffffffffffffff16908060040160009054906101000a900473ffffffffffffffffffffffffffffffffffffffff16908060050160009054906101000a900473ffffffffffffffffffffffffffffffffffffffff1690508a565b6000806000846000191660001916815260200190815260200160002060090160008373ffffffffffffffffffffffffffffffffffffffff1673ffffffffffffffffffffffffffffffffffffffff16815260200190815260200160002060009054906101000a900460ff16905092915050565b600080836000806000836000191660001916815260200190815260200160002060010154141515156111fc576040517f08c379a000000000000000000000000000000000000000000000000000000000815260040180806020018281038252601b8152602001807f5472616e73616374696f6e20646f6573206e6f7420657869737473000000000081525060200191505060405180910390fd5b846000600181111561120a57fe5b600080836000191660001916815260200190815260200160002060030160009054906101000a900460ff16600181111561124057fe5b1415156112db576040517f08c379a00000000000000000000000000000000000000000000000000000000081526004018080602001828103825260328152602001807f5472616e73616374696f6e2069732065697468657220696e206469737075746581526020017f206f722072656c6561736564207374617465000000000000000000000000000081525060400191505060405180910390fd5b8560018060018111156112ea57fe5b600080846000191660001916815260200190815260200160002060030160019054906101000a900460ff16600181111561132057fe5b141515611395576040517f08c379a000000000000000000000000000000000000000000000000000000000815260040180806020018281038252601f8152602001807f5472616e73616374696f6e207479706520646f6573206e6f74206d617463680081525060200191505060405180910390fd5b87600080826000191660001916815260200190815260200160002060030160079054906101000a900473ffffffffffffffffffffffffffffffffffffffff1673ffffffffffffffffffffffffffffffffffffffff163373ffffffffffffffffffffffffffffffffffffffff1614151561149c576040517f08c379a000000000000000000000000000000000000000000000000000000000815260040180806020018281038252602d8152602001807f54686520696e69746961746f72206f6620746865207472616e73616374696f6e81526020017f206973206e6f742062757965720000000000000000000000000000000000000081525060400191505060405180910390fd5b879650600087111515611517576040517f08c379a00000000000000000000000000000000000000000000000000000000081526004018080602001828103825260208152602001807f56616c7565206d7573742062652067726561746572207468616e207a65726f2e81525060200191505060405180910390fd5b6000808a6000191660001916815260200190815260200160002060050160009054906101000a900473ffffffffffffffffffffffffffffffffffffffff1695508573ffffffffffffffffffffffffffffffffffffffff166323b872dd6000808c6000191660001916815260200190815260200160002060030160079054906101000a900473ffffffffffffffffffffffffffffffffffffffff16308b6040518463ffffffff167c0100000000000000000000000000000000000000000000000000000000028152600401808473ffffffffffffffffffffffffffffffffffffffff1673ffffffffffffffffffffffffffffffffffffffff1681526020018373ffffffffffffffffffffffffffffffffffffffff1673ffffffffffffffffffffffffffffffffffffffff1681526020018281526020019350505050602060405180830381600087803b15801561166b57600080fd5b505af115801561167f573d6000803e3d6000fd5b505050506040513d602081101561169557600080fd5b81019080805190602001909291905050501515611766576040517f08c379a000000000000000000000000000000000000000000000000000000000815260040180806020018281038252605c8152602001807f546f6b656e207472616e73666572206661696c65642c206d6179626520796f7581526020017f20646964206e6f7420617070726f766520657363726f7720636f6e747261637481526020017f20746f207370656e64206f6e20626568616c66206f662062757965720000000081525060600191505060405180910390fd5b611796876000808c600019166000191681526020019081526020016000206001015461293b90919063ffffffff16565b6000808b6000191660001916815260200190815260200160002060010181905550426000808b60001916600019168152602001908152602001600020600201819055503373ffffffffffffffffffffffffffffffffffffffff167ff66fd2ae9e24a6a24b02e1b5b7512ffde5149a4176085fc0298ae228c9b9d7298a896040518083600019166000191681526020018281526020019250505060405180910390a2505050505050505050565b60015481565b8060008060008360001916600019168152602001908152602001600020600101541415156118de576040517f08c379a00000000000000000000000000000000000000000000000000000000081526004018080602001828103825260128152602001807f5472616e73616374696f6e20657869737473000000000000000000000000000081525060200191505060405180910390fd5b87600073ffffffffffffffffffffffffffffffffffffffff168173ffffffffffffffffffffffffffffffffffffffff1614151515611984576040517f08c379a00000000000000000000000000000000000000000000000000000000081526004018080602001828103825260138152602001807f5a65726f2061646472657373207061737365640000000000000000000000000081525060200191505060405180910390fd5b87600073ffffffffffffffffffffffffffffffffffffffff168173ffffffffffffffffffffffffffffffffffffffff1614151515611a2a576040517f08c379a00000000000000000000000000000000000000000000000000000000081526004018080602001828103825260138152602001807f5a65726f2061646472657373207061737365640000000000000000000000000081525060200191505060405180910390fd5b611a6b8a8a8a8a8080602002602001604051908101604052809392919081815260200183836020028082843782019150505050505089898934600080612957565b50505050505050505050565b6060600260008373ffffffffffffffffffffffffffffffffffffffff1673ffffffffffffffffffffffffffffffffffffffff168152602001908152602001600020805480602002602001604051908101604052809291908181526020018280548015611b0657602002820191906000526020600020905b81546000191681526020019060010190808311611aee575b50505050509050919050565b611b1a6143fa565b86600080600083600019166000191681526020019081526020016000206001015414151515611bb1576040517f08c379a000000000000000000000000000000000000000000000000000000000815260040180806020018281038252601b8152602001807f5472616e73616374696f6e20646f6573206e6f7420657869737473000000000081525060200191505060405180910390fd5b8760006001811115611bbf57fe5b600080836000191660001916815260200190815260200160002060030160009054906101000a900460ff166001811115611bf557fe5b141515611c90576040517f08c379a00000000000000000000000000000000000000000000000000000000081526004018080602001828103825260328152602001807f5472616e73616374696f6e2069732065697468657220696e206469737075746581526020017f206f722072656c6561736564207374617465000000000000000000000000000081525060400191505060405180910390fd5b600087879050118015611ca857508484905087879050145b1515611d42576040517f08c379a00000000000000000000000000000000000000000000000000000000081526004018080602001828103825260248152602001807f4c656e677468206f662064657374696e6174696f6e7320697320696e636f727281526020017f6563742e0000000000000000000000000000000000000000000000000000000081525060400191505060405180910390fd5b6000808a60001916600019168152602001908152602001600020610160604051908101604052908160008201546000191660001916815260200160018201548152602001600282015481526020016003820160009054906101000a900460ff166001811115611dad57fe5b6001811115611db857fe5b81526020016003820160019054906101000a900460ff166001811115611dda57fe5b6001811115611de557fe5b81526020016003820160029054906101000a900460ff1660ff1660ff1681526020016003820160039054906101000a900463ffffffff1663ffffffff1663ffffffff1681526020016003820160079054906101000a900473ffffffffffffffffffffffffffffffffffffffff1673ffffffffffffffffffffffffffffffffffffffff1673ffffffffffffffffffffffffffffffffffffffff1681526020016004820160009054906101000a900473ffffffffffffffffffffffffffffffffffffffff1673ffffffffffffffffffffffffffffffffffffffff1673ffffffffffffffffffffffffffffffffffffffff1681526020016005820160009054906101000a900473ffffffffffffffffffffffffffffffffffffffff1673ffffffffffffffffffffffffffffffffffffffff1673ffffffffffffffffffffffffffffffffffffffff16815260200160068201805480602002602001604051908101604052809291908181526020018280548015611fb357602002820191906000526020600020905b8160009054906101000a900473ffffffffffffffffffffffffffffffffffffffff1673ffffffffffffffffffffffffffffffffffffffff1681526020019060010190808311611f69575b5050505050815250509250612009888460a0015160ff168560c0015163ffffffff168660e001518761010001518861014001516000815181101515611ff457fe5b90602001906020020151896101200151610bff565b6000191689600019161415156120ad576040517f08c379a00000000000000000000000000000000000000000000000000000000081526004018080602001828103825260398152602001807f43616c63756c6174656420736372697074206861736820646f6573206e6f742081526020017f6d61746368207061737365642073637269707420686173682e0000000000000081525060400191505060405180910390fd5b6121a68f8f808060200260200160405190810160405280939291908181526020018383602002808284378201915050505050508e8e808060200260200160405190810160405280939291908181526020018383602002808284378201915050505050508d8d808060200260200160405190810160405280939291908181526020018383602002808284378201915050505050508c8b8b808060200260200160405190810160405280939291908181526020018383602002808284378201915050505050508a8a808060200260200160405190810160405280939291908181526020018383602002808284378201915050505050506132b2565b60016000808b6000191660001916815260200190815260200160002060030160006101000a81548160ff021916908360018111156121e057fe5b02179055506000808a600019166000191681526020019081526020016000206001015461226c8a89898080602002602001604051908101604052809392919081815260200183836020028082843782019150505050505088888080602002602001604051908101604052809392919081815260200183836020028082843782019150505050505061346d565b14151561232d576040517f08c379a00000000000000000000000000000000000000000000000000000000081526004018080602001828103825260488152602001807f546f74616c2076616c756520746f2062652072656c6561736564206d7573742081526020017f626520657175616c20746f20746865207472616e73616374696f6e206573637281526020017f6f772076616c756500000000000000000000000000000000000000000000000081525060600191505060405180910390fd5b426000808b60001916600019168152602001908152602001600020600201819055507f688e2a1b34445bcd47b0e11ba2a9c8c4d850a1831b64199b59d1c70e2970154589888888886040518086600019166000191681526020018060200180602001838103835287878281815260200192506020028082843782019150508381038252858582818152602001925060200280828437820191505097505050505050505060405180910390a1505050505050505050505050505050565b6000836000806000836000191660001916815260200190815260200160002060010154141515612481576040517f08c379a00000000000000000000000000000000000000000000000000000000081526004018080602001828103825260128152602001807f5472616e73616374696f6e20657869737473000000000000000000000000000081525060200191505060405180910390fd5b8a600073ffffffffffffffffffffffffffffffffffffffff168173ffffffffffffffffffffffffffffffffffffffff1614151515612527576040517f08c379a00000000000000000000000000000000000000000000000000000000081526004018080602001828103825260138152602001807f5a65726f2061646472657373207061737365640000000000000000000000000081525060200191505060405180910390fd5b8a600073ffffffffffffffffffffffffffffffffffffffff168173ffffffffffffffffffffffffffffffffffffffff16141515156125cd576040517f08c379a00000000000000000000000000000000000000000000000000000000081526004018080602001828103825260138152602001807f5a65726f2061646472657373207061737365640000000000000000000000000081525060200191505060405180910390fd5b84600073ffffffffffffffffffffffffffffffffffffffff168173ffffffffffffffffffffffffffffffffffffffff1614151515612673576040517f08c379a00000000000000000000000000000000000000000000000000000000081526004018080602001828103825260138152602001807f5a65726f2061646472657373207061737365640000000000000000000000000081525060200191505060405180910390fd5b8594508473ffffffffffffffffffffffffffffffffffffffff166323b872dd33308a6040518463ffffffff167c0100000000000000000000000000000000000000000000000000000000028152600401808473ffffffffffffffffffffffffffffffffffffffff1673ffffffffffffffffffffffffffffffffffffffff1681526020018373ffffffffffffffffffffffffffffffffffffffff1673ffffffffffffffffffffffffffffffffffffffff1681526020018281526020019350505050602060405180830381600087803b15801561274d57600080fd5b505af1158015612761573d6000803e3d6000fd5b505050506040513d602081101561277757600080fd5b81019080805190602001909291905050501515612848576040517f08c379a000000000000000000000000000000000000000000000000000000000815260040180806020018281038252605c8152602001807f546f6b656e207472616e73666572206661696c65642c206d6179626520796f7581526020017f20646964206e6f7420617070726f766520657363726f7720636f6e747261637481526020017f20746f207370656e64206f6e20626568616c66206f662062757965720000000081525060600191505060405180910390fd5b6128898e8e8e8e808060200260200160405190810160405280939291908181526020018383602002808284378201915050505050508d8d8d8d60018e612957565b5050505050505050505050505050565b6000806000846000191660001916815260200190815260200160002060080160008373ffffffffffffffffffffffffffffffffffffffff1673ffffffffffffffffffffffffffffffffffffffff16815260200190815260200160002060009054906101000a900460ff16905092915050565b60026020528160005260406000208181548110151561292657fe5b90600052602060002001600091509150505481565b6000818301905082811015151561294e57fe5b80905092915050565b6000808491508973ffffffffffffffffffffffffffffffffffffffff168b73ffffffffffffffffffffffffffffffffffffffff1614151515612a01576040517f08c379a00000000000000000000000000000000000000000000000000000000081526004018080602001828103825260198152602001807f427579657220616e642073656c6c6572206172652073616d650000000000000081525060200191505060405180910390fd5b600082111515612a79576040517f08c379a00000000000000000000000000000000000000000000000000000000081526004018080602001828103825260118152602001807f56616c756520706173736564206973203000000000000000000000000000000081525060200191505060405180910390fd5b60028951018860ff1611151515612b1e576040517f08c379a00000000000000000000000000000000000000000000000000000000081526004018080602001828103825260268152602001807f5468726573686f6c642069732067726561746572207468616e20746f74616c2081526020017f6f776e657273000000000000000000000000000000000000000000000000000081525060400191505060405180910390fd5b60008860ff16111515612b99576040517f08c379a00000000000000000000000000000000000000000000000000000000081526004018080602001828103825260148152602001807f5468726573686f6c642063616e2774206265203000000000000000000000000081525060200191505060405180910390fd5b610160604051908101604052808760001916815260200183815260200142815260200160006001811115612bc957fe5b8152602001856001811115612bda57fe5b81526020018960ff1681526020018863ffffffff1681526020018c73ffffffffffffffffffffffffffffffffffffffff1681526020018b73ffffffffffffffffffffffffffffffffffffffff1681526020018473ffffffffffffffffffffffffffffffffffffffff1681526020018a815250600080886000191660001916815260200190815260200160002060008201518160000190600019169055602082015181600101556040820151816002015560608201518160030160006101000a81548160ff02191690836001811115612cae57fe5b021790555060808201518160030160016101000a81548160ff02191690836001811115612cd757fe5b021790555060a08201518160030160026101000a81548160ff021916908360ff16021790555060c08201518160030160036101000a81548163ffffffff021916908363ffffffff16021790555060e08201518160030160076101000a81548173ffffffffffffffffffffffffffffffffffffffff021916908373ffffffffffffffffffffffffffffffffffffffff1602179055506101008201518160040160006101000a81548173ffffffffffffffffffffffffffffffffffffffff021916908373ffffffffffffffffffffffffffffffffffffffff1602179055506101208201518160050160006101000a81548173ffffffffffffffffffffffffffffffffffffffff021916908373ffffffffffffffffffffffffffffffffffffffff160217905550610140820151816006019080519060200190612e189291906144b9565b509050506001600080886000191660001916815260200190815260200160002060070160008c73ffffffffffffffffffffffffffffffffffffffff1673ffffffffffffffffffffffffffffffffffffffff16815260200190815260200160002060006101000a81548160ff0219169083151502179055506001600080886000191660001916815260200190815260200160002060070160008d73ffffffffffffffffffffffffffffffffffffffff1673ffffffffffffffffffffffffffffffffffffffff16815260200190815260200160002060006101000a81548160ff021916908315150217905550600090505b885181101561315757600073ffffffffffffffffffffffffffffffffffffffff168982815181101515612f3657fe5b9060200190602002015173ffffffffffffffffffffffffffffffffffffffff1614151515612fcc576040517f08c379a00000000000000000000000000000000000000000000000000000000081526004018080602001828103825260138152602001807f5a65726f2061646472657373207061737365640000000000000000000000000081525060200191505060405180910390fd5b600080876000191660001916815260200190815260200160002060070160008a83815181101515612ff957fe5b9060200190602002015173ffffffffffffffffffffffffffffffffffffffff1673ffffffffffffffffffffffffffffffffffffffff16815260200190815260200160002060009054906101000a900460ff161515156130c0576040517f08c379a000000000000000000000000000000000000000000000000000000000815260040180806020018281038252601b8152602001807f4d6f64657261746f7220697320626569676e207265706561746564000000000081525060200191505060405180910390fd5b6001600080886000191660001916815260200190815260200160002060070160008b848151811015156130ef57fe5b9060200190602002015173ffffffffffffffffffffffffffffffffffffffff1673ffffffffffffffffffffffffffffffffffffffff16815260200190815260200160002060006101000a81548160ff0219169083151502179055508080600101915050612f07565b600160008154809291906001019190505550600260008c73ffffffffffffffffffffffffffffffffffffffff1673ffffffffffffffffffffffffffffffffffffffff168152602001908152602001600020869080600181540180825580915050906001820390600052602060002001600090919290919091509060001916905550600260008b73ffffffffffffffffffffffffffffffffffffffff1673ffffffffffffffffffffffffffffffffffffffff1681526020019081526020016000208690806001815401808255809150509060018203906000526020600020016000909192909190915090600019169055503373ffffffffffffffffffffffffffffffffffffffff167fce7089d0668849fb9ca29778c0cbf1e764d9efb048d81fd71fb34c94f26db36887846040518083600019166000191681526020018281526020019250505060405180910390a25050505050505050505050565b6000806132c3888888888888613ce4565b9150613319600080876000191660001916815260200190815260200160002060030160039054906101000a900463ffffffff16600080886000191660001916815260200190815260200160002060020154614355565b9050600080866000191660001916815260200190815260200160002060030160029054906101000a900460ff1660ff1688511080156133ca57508015806133c95750600080866000191660001916815260200190815260200160002060040160009054906101000a900473ffffffffffffffffffffffffffffffffffffffff1673ffffffffffffffffffffffffffffffffffffffff168273ffffffffffffffffffffffffffffffffffffffff1614155b5b15613463576040517f08c379a00000000000000000000000000000000000000000000000000000000081526004018080602001828103825260238152602001807f736967562e6c656e67746820697320756e64657220746865207468726573686f81526020017f6c642e000000000000000000000000000000000000000000000000000000000081525060400191505060405180910390fd5b5050505050505050565b6000806000806000806000896000191660001916815260200190815260200160002093506000600181111561349e57fe5b8460030160019054906101000a900460ff1660018111156134bb57fe5b14156137d257600092505b86518310156137cd57600073ffffffffffffffffffffffffffffffffffffffff1687848151811015156134f557fe5b9060200190602002015173ffffffffffffffffffffffffffffffffffffffff16141580156135855750836007016000888581518110151561353257fe5b9060200190602002015173ffffffffffffffffffffffffffffffffffffffff1673ffffffffffffffffffffffffffffffffffffffff16815260200190815260200160002060009054906101000a900460ff165b15156135f9576040517f08c379a00000000000000000000000000000000000000000000000000000000081526004018080602001828103825260178152602001807f4e6f7420612076616c69642064657374696e6174696f6e00000000000000000081525060200191505060405180910390fd5b6000868481518110151561360957fe5b906020019060200201511115156136ae576040517f08c379a000000000000000000000000000000000000000000000000000000000815260040180806020018281038252602a8152602001807f416d6f756e7420746f2062652073656e742073686f756c64206265206772656181526020017f746572207468616e20300000000000000000000000000000000000000000000081525060400191505060405180910390fd5b6136d886848151811015156136bf57fe5b906020019060200201518661293b90919063ffffffff16565b945086838151811015156136e857fe5b9060200190602002015173ffffffffffffffffffffffffffffffffffffffff166108fc878581518110151561371957fe5b906020019060200201519081150290604051600060405180830381858888f1935050505015801561374e573d6000803e3d6000fd5b506001846009016000898681518110151561376557fe5b9060200190602002015173ffffffffffffffffffffffffffffffffffffffff1673ffffffffffffffffffffffffffffffffffffffff16815260200190815260200160002060006101000a81548160ff02191690831515021790555082806001019350506134c6565b613cd9565b6001808111156137de57fe5b8460030160019054906101000a900460ff1660018111156137fb57fe5b1415613c44578360050160009054906101000a900473ffffffffffffffffffffffffffffffffffffffff169150600090505b8651811015613c3f57600073ffffffffffffffffffffffffffffffffffffffff16878281518110151561385c57fe5b9060200190602002015173ffffffffffffffffffffffffffffffffffffffff16141580156138ec5750836007016000888381518110151561389957fe5b9060200190602002015173ffffffffffffffffffffffffffffffffffffffff1673ffffffffffffffffffffffffffffffffffffffff16815260200190815260200160002060009054906101000a900460ff165b1515613960576040517f08c379a00000000000000000000000000000000000000000000000000000000081526004018080602001828103825260178152602001807f4e6f7420612076616c69642064657374696e6174696f6e00000000000000000081525060200191505060405180910390fd5b6000868281518110151561397057fe5b90602001906020020151111515613a15576040517f08c379a000000000000000000000000000000000000000000000000000000000815260040180806020018281038252602a8152602001807f416d6f756e7420746f2062652073656e742073686f756c64206265206772656181526020017f746572207468616e20300000000000000000000000000000000000000000000081525060400191505060405180910390fd5b613a3f8682815181101515613a2657fe5b906020019060200201518661293b90919063ffffffff16565b94508173ffffffffffffffffffffffffffffffffffffffff1663a9059cbb8883815181101515613a6b57fe5b906020019060200201518884815181101515613a8357fe5b906020019060200201516040518363ffffffff167c0100000000000000000000000000000000000000000000000000000000028152600401808373ffffffffffffffffffffffffffffffffffffffff1673ffffffffffffffffffffffffffffffffffffffff16815260200182815260200192505050602060405180830381600087803b158015613b1257600080fd5b505af1158015613b26573d6000803e3d6000fd5b505050506040513d6020811015613b3c57600080fd5b81019080805190602001909291905050501515613bc1576040517f08c379a00000000000000000000000000000000000000000000000000000000081526004018080602001828103825260168152602001807f546f6b656e207472616e73666572206661696c65642e0000000000000000000081525060200191505060405180910390fd5b60018460090160008984815181101515613bd757fe5b9060200190602002015173ffffffffffffffffffffffffffffffffffffffff1673ffffffffffffffffffffffffffffffffffffffff16815260200190815260200160002060006101000a81548160ff021916908315150217905550808060010191505061382d565b613cd8565b6040517f08c379a00000000000000000000000000000000000000000000000000000000081526004018080602001828103825260218152602001807f5472616e736174696f6e2074797065206973206e6f7420737570706f7274656481526020017f2e0000000000000000000000000000000000000000000000000000000000000081525060400191505060405180910390fd5b5b505050509392505050565b60008060008087518951148015613cfc575089518951145b1515613d70576040517f08c379a00000000000000000000000000000000000000000000000000000000081526004018080602001828103825260168152602001807f522c532c56206c656e677468206d69736d617463682e0000000000000000000081525060200191505060405180910390fd5b60197f01000000000000000000000000000000000000000000000000000000000000000260007f0100000000000000000000000000000000000000000000000000000000000000023088888b60405160200180877effffffffffffffffffffffffffffffffffffffffffffffffffffffffffffff19167effffffffffffffffffffffffffffffffffffffffffffffffffffffffffffff19168152600101867effffffffffffffffffffffffffffffffffffffffffffffffffffffffffffff19167effffffffffffffffffffffffffffffffffffffffffffffffffffffffffffff191681526001018573ffffffffffffffffffffffffffffffffffffffff1673ffffffffffffffffffffffffffffffffffffffff166c01000000000000000000000000028152601401848051906020019060200280838360005b83811015613ec4578082015181840152602081019050613ea9565b50505050905001838051906020019060200280838360005b83811015613ef7578082015181840152602081019050613edc565b50505050905001826000191660001916815260200196505050505050506040516020818303038152906040526040518082805190602001908083835b602083101515613f585780518252602082019150602081019050602083039250613f33565b6001836020036101000a038019825116818451168082178552505050505050905001915050604051809103902060405160200180807f19457468657265756d205369676e6564204d6573736167653a0a333200000000815250601c0182600019166000191681526020019150506040516020818303038152906040526040518082805190602001908083835b6020831015156140095780518252602082019150602081019050602083039250613fe4565b6001836020036101000a03801982511681845116808217855250505050505090500191505060405180910390209250600091505b8851821015614348576001838b8481518110151561405757fe5b906020019060200201518b8581518110151561406f57fe5b906020019060200201518b8681518110151561408757fe5b90602001906020020151604051600081526020016040526040518085600019166000191681526020018460ff1660ff168152602001836000191660001916815260200182600019166000191681526020019450505050506020604051602081039080840390855afa158015614100573d6000803e3d6000fd5b505050602060405103519050600080886000191660001916815260200190815260200160002060070160008273ffffffffffffffffffffffffffffffffffffffff1673ffffffffffffffffffffffffffffffffffffffff16815260200190815260200160002060009054906101000a900460ff1615156141e8576040517f08c379a00000000000000000000000000000000000000000000000000000000081526004018080602001828103825260118152602001807f496e76616c6964207369676e617475726500000000000000000000000000000081525060200191505060405180910390fd5b600080886000191660001916815260200190815260200160002060080160008273ffffffffffffffffffffffffffffffffffffffff1673ffffffffffffffffffffffffffffffffffffffff16815260200190815260200160002060009054906101000a900460ff161515156142c5576040517f08c379a00000000000000000000000000000000000000000000000000000000081526004018080602001828103825260198152602001807f53616d65207369676e61747572652073656e742074776963650000000000000081525060200191505060405180910390fd5b6001600080896000191660001916815260200190815260200160002060080160008373ffffffffffffffffffffffffffffffffffffffff1673ffffffffffffffffffffffffffffffffffffffff16815260200190815260200160002060006101000a81548160ff021916908315150217905550809350818060010192505061403d565b5050509695505050505050565b60008061436b83426143a990919063ffffffff16565b905060008463ffffffff161461439d57614396610e108563ffffffff166143c290919063ffffffff16565b81116143a0565b60005b91505092915050565b60008282111515156143b757fe5b818303905092915050565b6000808314156143d557600090506143f4565b81830290508183828115156143e657fe5b041415156143f057fe5b8090505b92915050565b610160604051908101604052806000801916815260200160008152602001600081526020016000600181111561442c57fe5b81526020016000600181111561443e57fe5b8152602001600060ff168152602001600063ffffffff168152602001600073ffffffffffffffffffffffffffffffffffffffff168152602001600073ffffffffffffffffffffffffffffffffffffffff168152602001600073ffffffffffffffffffffffffffffffffffffffff168152602001606081525090565b828054828255906000526020600020908101928215614532579160200282015b828111156145315782518260006101000a81548173ffffffffffffffffffffffffffffffffffffffff021916908373ffffffffffffffffffffffffffffffffffffffff160217905550916020019190600101906144d9565b5b50905061453f9190614543565b5090565b61458391905b8082111561457f57600081816101000a81549073ffffffffffffffffffffffffffffffffffffffff021916905550600101614549565b5090565b905600a165627a7a723058200315eaad35d55222415c69e5fe38839477649c998b6da1a3edcaeea680c07e490029",
  "source": "pragma solidity 0.4.24;\npragma experimental \"v0.5.0\";\n\nimport \"openzeppelin-solidity/contracts/math/SafeMath.sol\";\n\nimport \"../token/ITokenContract.sol\";\n\n\n/**\n* @dev Supports ERC20 tokens\n* The escrow smart contract for the open bazaar trades in Ethereum\n* The smart contract is desgined keeping in mind the current wallet interface of the OB-core\n* https://github.com/OpenBazaar/wallet-interface/blob/master/wallet.go\n* Current wallet interface strictly adheres to UTXO(bitcoin) model\n*/\ncontract Escrow_v1_0 {\n\n    using SafeMath for uint256;\n\n    enum Status {FUNDED, RELEASED}\n\n    enum TransactionType {ETHER, TOKEN}\n\n    event Executed(\n        bytes32 scriptHash,\n        address[] destinations,\n        uint256[] amounts\n    );\n\n    event FundAdded(\n        bytes32 scriptHash,\n        address indexed from,\n        uint256 valueAdded\n    );\n\n    event Funded(bytes32 scriptHash, address indexed from, uint256 value);\n\n    struct Transaction {\n        bytes32 scriptHash;//This is unique indentifier for a transaction\n        uint256 value;\n        uint256 lastModified;//Time at which transaction was last modified\n        Status status;\n        TransactionType transactionType;\n        uint8 threshold;\n        uint32 timeoutHours;\n        address buyer;\n        address seller;\n        address tokenAddress;// Token address in case of token transfer\n        address[] moderators;\n        mapping(address=>bool) isOwner;//to keep track of owners/signers.\n        mapping(address=>bool) voted;//to keep track of who all voted\n        mapping(address=>bool) beneficiaries;//Benefeciaries of execution\n    }\n\n    mapping(bytes32 => Transaction) public transactions;\n\n    uint256 public transactionCount = 0;\n\n    //Contains mapping between each party and all of his transactions\n    mapping(address => bytes32[])public partyVsTransaction;\n\n    modifier transactionExists(bytes32 scriptHash) {\n        require(\n            transactions[scriptHash].value != 0, \"Transaction does not exists\"\n        );\n        _;\n    }\n\n    modifier transactionDoesNotExists (bytes32 scriptHash) {\n        require(transactions[scriptHash].value == 0, \"Transaction exists\");\n        _;\n    }\n\n    modifier inFundedState(bytes32 scriptHash) {\n        require(\n            transactions[scriptHash].status == Status.FUNDED, \"Transaction is either in dispute or released state\"\n        );\n        _;\n    }\n\n    modifier nonZeroAddress(address addressToCheck) {\n        require(addressToCheck != address(0), \"Zero address passed\");\n        _;\n    }\n\n    modifier checkTransactionType(\n        bytes32 scriptHash,\n        TransactionType transactionType\n    )\n    {\n        require(\n            transactions[scriptHash].transactionType == transactionType, \"Transaction type does not match\"\n        );\n        _;\n    }\n\n    modifier onlyBuyer(bytes32 scriptHash) {\n        require(\n            msg.sender == transactions[scriptHash].buyer, \"The initiator of the transaction is not buyer\"\n        );\n        _;\n    }\n\n    /**\n    *@dev Add new transaction in the contract\n    *@param buyer The buyer of the transaction\n    *@param seller The seller of the listing associated with the transaction\n    *@param moderators List of moderators for this transaction. For now only single moderator\n    *@param scriptHash keccak256 hash of the redeem script\n    *@param threshold Minimum number of singatures required to released funds\n    *@param timeoutHours Hours after which seller can release funds into his favour by signing transaction\n    *Redeem Script format will be following\n    <uniqueId: 20><threshold:1><timeoutHours:4><buyer:20><seller:20><moderator:20><multisigAddress:20>\n    * scripthash-> keccak256(uniqueId, threshold, timeoutHours, buyer, seller, moderator)\n    *Pass amount of the ethers to be put in escrow\n    *Please keep in mind you will have to add moderators fees also in the value\n    */\n    function addTransaction(\n        address buyer,\n        address seller,\n        address[] moderators,\n        uint8 threshold,\n        uint32 timeoutHours,\n        bytes32 scriptHash\n    )\n        external\n        payable\n        transactionDoesNotExists(scriptHash)\n        nonZeroAddress(buyer)\n        nonZeroAddress(seller)\n    {\n        _addTransaction(\n            buyer,\n            seller,\n            moderators,\n            threshold,\n            timeoutHours,\n            scriptHash,\n            msg.value,\n            TransactionType.ETHER,\n            address(0)\n        );\n    }\n\n    /**\n    *@dev Add new transaction in the contract\n    *@param buyer The buyer of the transaction\n    *@param seller The seller of the listing associated with the transaction\n    *@param moderators List of moderators for this transaction. For now only single moderator\n    *@param scriptHash keccak256 hash of the redeem script\n    *@param threshold Minimum number of singatures required to released funds\n    *@param timeoutHours Hours after which seller can release funds into his favour by signing transaction\n    *@param value Amount of tokens to be put in escrow\n    *@param tokenAddress Address of the token to be used\n    *Redeem Script format will be following\n    <uniqueId: 20><threshold:1><timeoutHours:4><buyer:20><seller:20><moderator:20><multisigAddress:20><tokenAddress:20>\n    * scripthash-> keccak256(uniqueId, threshold, timeoutHours, buyer, seller, moderator, tokenAddress)\n    *approve escrow contract to spend amount of token on your behalf\n    *Please keep in mind you will have to add moderators fees also in the value\n    */\n    function addTokenTransaction(\n        address buyer,\n        address seller,\n        address[] moderators,\n        uint8 threshold,\n        uint32 timeoutHours,\n        bytes32 scriptHash,\n        uint256 value,\n        address tokenAddress\n    )\n        external\n        transactionDoesNotExists(scriptHash)\n        nonZeroAddress(buyer)\n        nonZeroAddress(seller)\n        nonZeroAddress(tokenAddress)\n    {\n        ITokenContract token = ITokenContract(tokenAddress);\n\n        require(\n            token.transferFrom(msg.sender, this, value),\n            \"Token transfer failed, maybe you did not approve escrow contract to spend on behalf of buyer\"\n        );\n\n        _addTransaction(\n            buyer,\n            seller,\n            moderators,\n            threshold,\n            timeoutHours,\n            scriptHash,\n            value,\n            TransactionType.TOKEN,\n            tokenAddress\n        );\n    }\n\n    /**\n    * @dev Check whether given address was a beneficiary of transaction execution or not\n    * @param scriptHash script hash of the transaction\n    * @param beneficiary Beneficiary address to be checked\n    */\n    function checkBeneficiary(\n        bytes32 scriptHash,\n        address beneficiary\n    )\n        external\n        view\n        returns (bool check)\n    {\n        check = transactions[scriptHash].beneficiaries[beneficiary];\n    }\n\n    /**\n    * @dev Check whether given party has voted or not\n    * @param scriptHash script hash of the transaction\n    * @param party Address of the party whose vote has to be checked\n    * @return bool vote\n    */\n    function checkVote(\n        bytes32 scriptHash,\n        address party\n    )\n        external\n        view\n        returns (bool vote)\n    {\n        vote = transactions[scriptHash].voted[party];\n    }\n\n    /**\n    *@dev Allows buyer of the transaction to add more funds(ether) in the transaction. This will help to cater scenarios wherein initially buyer missed to fund transaction as required\n    *@param scriptHash script hash of the transaction\n    * Only buyer of the transaction can invoke this method\n    */\n    function addFundsToTransaction(\n        bytes32 scriptHash\n    )\n        external\n        transactionExists(scriptHash)\n        inFundedState(scriptHash)\n        checkTransactionType(scriptHash, TransactionType.ETHER)\n        onlyBuyer(scriptHash)\n        payable\n    {\n        uint256 _value = msg.value;\n\n        require(_value > 0, \"Value must be greater than zero.\");\n\n        transactions[scriptHash].value = transactions[scriptHash].value\n            .add(_value);\n        transactions[scriptHash].lastModified = block.timestamp;\n\n        emit FundAdded(scriptHash, msg.sender, _value);\n    }\n\n    /**\n    *@dev Allows buyer of the transaction to add more funds(Tokens) in the transaction. This will help to cater scenarios wherein initially buyer missed to fund transaction as required\n    *@param scriptHash script hash of the transaction\n    */\n    function addTokensToTransaction(\n        bytes32 scriptHash,\n        uint256 value\n    )\n        external\n        transactionExists(scriptHash)\n        inFundedState(scriptHash)\n        checkTransactionType(scriptHash, TransactionType.TOKEN)\n        onlyBuyer(scriptHash)\n    {\n        uint256 _value = value;\n\n        require(_value > 0, \"Value must be greater than zero.\");\n\n        ITokenContract token = ITokenContract(\n            transactions[scriptHash].tokenAddress\n        );\n\n        require(\n            token.transferFrom(transactions[scriptHash].buyer, this, value),\n            \"Token transfer failed, maybe you did not approve escrow contract to spend on behalf of buyer\"\n        );\n\n        transactions[scriptHash].value = transactions[scriptHash].value\n            .add(_value);\n        transactions[scriptHash].lastModified = block.timestamp;\n\n        emit FundAdded(scriptHash, msg.sender, _value);\n    }\n\n    /**\n    *@dev Returns all transaction ids for a party\n    *@param partyAddress Address of the party\n    */\n    function getAllTransactionsForParty(\n        address partyAddress\n    ) \n        external \n        view \n        returns (bytes32[] scriptHashes) \n    {\n        return partyVsTransaction[partyAddress];\n    }\n\n    /**\n    *@dev Allows one of the moderator to collect all the signature to solve dispute and submit it to this method.\n    * If all the required signatures are collected and consensus has been reached than funds will be released to the voted party\n    *@param sigV Array containing V component of all the signatures(signed by each moderator)\n    *@param sigR Array containing R component of all the signatures(signed by each moderator)\n    *@param signS Array containing S component of all the signature(signed by each moderator)\n    *@param scriptHash script hash of the transaction\n    *@param uniqueId bytes20 unique id for the transaction, generated by ETH wallet\n    *@param destinations address of the destination in whose favour dispute resolution is taking place. In case of split payments it will be address of the split payments contract\n    *@param amounts value to send to each destination\n    */\n    function execute(\n        uint8[] sigV,\n        bytes32[] sigR,\n        bytes32[] sigS,\n        bytes32 scriptHash,\n        bytes20 uniqueId,\n        address[] destinations,\n        uint256[] amounts\n    )\n        external\n        transactionExists(scriptHash)\n        inFundedState(scriptHash)\n    {\n        require(\n            destinations.length>0 && destinations.length == amounts.length, \"Length of destinations is incorrect.\"\n        );\n        Transaction memory t = transactions[scriptHash];\n        require(\n            scriptHash == calculateRedeemScriptHash(\n                uniqueId,\n                t.threshold,\n                t.timeoutHours,\n                t.buyer,\n                t.seller,\n                t.moderators[0],\n                t.tokenAddress\n            ), \n            \"Calculated script hash does not match passed script hash.\"\n        );\n\n        verifyTransaction(\n            sigV,\n            sigR,\n            sigS,\n            scriptHash,\n            destinations,\n            amounts\n        );\n\n        transactions[scriptHash].status = Status.RELEASED;\n\n        require(\n            transferFunds(scriptHash, destinations, amounts) == transactions[scriptHash].value,\n            \"Total value to be released must be equal to the transaction escrow value\"\n        );\n        //Last modified timestamp modified, which will be used by rewards\n        transactions[scriptHash].lastModified = block.timestamp;\n\n        emit Executed(scriptHash, destinations, amounts);\n    }\n\n\n    /**\n    *@dev Method for calculating script hash. Calculation will depend upon the type of transaction\n    * ETHER Type transaction-:\n    * Script Hash- keccak256(uniqueId, threshold, timeoutHours, buyer, seller, moderator)\n    * TOKEN Type transaction\n    * Script Hash- keccak256(uniqueId, threshold, timeoutHours, buyer, seller, moderator, tokenAddress)\n    * Client can use this method to verify whether it has calculated correct script hash or not\n    */\n    function calculateRedeemScriptHash(\n        bytes20 uniqueId,\n        uint256 threshold,\n        uint256 timeoutHours,\n        address buyer,\n        address seller,\n        address moderator,\n        address tokenAddress\n    )\n        public\n        view\n        returns (bytes32 hash)\n    {\n        if (tokenAddress == address(0)) {\n            hash = keccak256(\n                abi.encodePacked(\n                    uniqueId,\n                    threshold,\n                    timeoutHours,\n                    buyer,\n                    seller,\n                    moderator,\n                    this\n                )\n            );\n        } else {\n            hash = keccak256(\n                abi.encodePacked(\n                    uniqueId,\n                    threshold,\n                    timeoutHours,\n                    buyer,\n                    seller,\n                    moderator,\n                    this,\n                    tokenAddress\n                )\n            );\n        }\n    }\n\n    /**\n    * @dev This methods checks validity of transaction\n    * 1. Verify Signatures\n    * 2. Check if minimum number of signatures has been acquired\n    * 3. If above condition is false, check if time lock is expired and the execution is signed by seller\n    */\n    function verifyTransaction(\n        uint8[] sigV,\n        bytes32[] sigR,\n        bytes32[] sigS,\n        bytes32 scriptHash,\n        address[] destinations,\n        uint256[] amounts\n    )\n        private\n    {\n        address lastRecovered = verifySignatures(\n            sigV,\n            sigR,\n            sigS,\n            scriptHash,\n            destinations,\n            amounts\n        );\n\n        bool timeLockExpired = isTimeLockExpired(\n            transactions[scriptHash].timeoutHours,\n            transactions[scriptHash].lastModified\n        );\n\n        //if Minimum number of signatures are not gathered and timelock has not expired or transaction was not signed by seller then revert\n        if (\n                sigV.length < transactions[scriptHash].threshold && (!timeLockExpired || lastRecovered != transactions[scriptHash].seller)\n            )\n        {\n            revert(\"sigV.length is under the threshold.\");\n        }\n\n    }\n\n    /**\n    *@dev Private method to transfer funds to the destination addresses on the basis of transaction type\n    */\n    function transferFunds(\n        bytes32 scriptHash,\n        address[]destinations,\n        uint256[]amounts\n    )\n        private\n        returns (uint256 valueTransferred)\n    {\n        Transaction storage t = transactions[scriptHash];\n\n        if (t.transactionType == TransactionType.ETHER) {\n            for (uint256 i = 0; i < destinations.length; i++) {\n\n                require(destinations[i] != address(0) && t.isOwner[destinations[i]], \"Not a valid destination\");\n                require(amounts[i] > 0, \"Amount to be sent should be greater than 0\");\n\n                valueTransferred = valueTransferred.add(amounts[i]);\n\n                destinations[i].transfer(amounts[i]);//shall we use send instead of transfer to stop malicious actors from blocking funds?\n                t.beneficiaries[destinations[i]] = true;//add receiver as beneficiary\n            }\n\n        } else if (t.transactionType == TransactionType.TOKEN) {\n\n            ITokenContract token = ITokenContract(t.tokenAddress);\n\n            for (uint256 i = 0; i<destinations.length; i++) {\n\n                require(destinations[i] != address(0) && t.isOwner[destinations[i]], \"Not a valid destination\");\n                require(amounts[i] > 0, \"Amount to be sent should be greater than 0\");\n\n                valueTransferred = valueTransferred.add(amounts[i]);\n\n                require(token.transfer(destinations[i], amounts[i]), \"Token transfer failed.\");\n                t.beneficiaries[destinations[i]] = true;//add receiver as beneficiary\n\n            }\n        } else {\n            //transaction type is not supported. Ideally this state should never be reached\n            revert(\"Transation type is not supported.\");\n        }\n    }\n\n    //to check whether the signature are valid or not and if consensus was reached\n    //returns the last address recovered, in case of timeout this must be the sender's address\n    function verifySignatures(\n        uint8[] sigV,\n        bytes32[] sigR,\n        bytes32[] sigS,\n        bytes32 scriptHash,\n        address[] destinations,\n        uint256[]amounts\n    )\n        private\n        returns (address lastAddress)\n    {\n        require(\n            sigR.length == sigS.length && sigR.length == sigV.length, \n            \"R,S,V length mismatch.\"\n        );\n\n        // Follows ERC191 signature scheme: https://github.com/ethereum/EIPs/issues/191\n        bytes32 txHash = keccak256(\n            abi.encodePacked(\n                \"\\x19Ethereum Signed Message:\\n32\",\n                keccak256(\n                    abi.encodePacked(\n                        byte(0x19),\n                        byte(0),\n                        this,\n                        destinations,\n                        amounts,\n                        scriptHash\n                    )\n                )\n            )\n        );\n\n        for (uint i = 0; i < sigR.length; i++) {\n\n            address recovered = ecrecover(\n                txHash,\n                sigV[i],\n                sigR[i],\n                sigS[i]\n            );\n\n            require(\n                transactions[scriptHash].isOwner[recovered], \n                \"Invalid signature\"\n            );\n            require(\n                !transactions[scriptHash].voted[recovered], \n                \"Same signature sent twice\"\n            );\n            transactions[scriptHash].voted[recovered] = true;\n            lastAddress = recovered;\n        }\n    }\n\n    function isTimeLockExpired(\n        uint32 timeoutHours,\n        uint256 lastModified\n    )\n        private\n        view\n        returns (bool expired)\n    {\n        uint256 timeSince = now.sub(lastModified);\n        expired = (\n            timeoutHours == 0 ? false:timeSince > uint256(timeoutHours).mul(3600)\n        );\n    }\n\n    /**\n    * Private method to add transaction to reduce code redundancy\n    */\n    function _addTransaction(\n        address buyer,\n        address seller,\n        address[] moderators,\n        uint8 threshold,\n        uint32 timeoutHours,\n        bytes32 scriptHash,\n        uint256 value,\n        TransactionType transactionType,\n        address tokenAddress\n    )\n        private\n    {\n        uint256 _value = value;\n\n        require(buyer != seller, \"Buyer and seller are same\");\n\n        //value passed should be greater than 0\n        require(_value>0, \"Value passed is 0\");\n\n        // For now allowing 0 moderators to support 1-2 multisig wallet\n        require(\n            threshold <= moderators.length + 2, \n            \"Threshold is greater than total owners\"\n        );\n\n        require(threshold > 0, \"Threshold can't be 0\");\n\n        transactions[scriptHash] = Transaction({\n            buyer: buyer,\n            seller: seller,\n            moderators: moderators,\n            value: _value,\n            status: Status.FUNDED,\n            lastModified: block.timestamp,\n            scriptHash: scriptHash,\n            threshold: threshold,\n            timeoutHours: timeoutHours,\n            transactionType:transactionType,\n            tokenAddress:tokenAddress\n        });\n\n        transactions[scriptHash].isOwner[seller] = true;\n        transactions[scriptHash].isOwner[buyer] = true;\n\n        for (uint256 i = 0;i<moderators.length; i++) {\n\n            require(moderators[i] != address(0), \"Zero address passed\");\n\n            //Check if same moderator is not passed twice in the list\n            require(\n                !transactions[scriptHash].isOwner[moderators[i]], \n                \"Moderator is beign repeated\"\n            );\n\n            transactions[scriptHash].isOwner[moderators[i]] = true;\n        }\n\n        transactionCount++;\n\n        partyVsTransaction[buyer].push(scriptHash);\n        partyVsTransaction[seller].push(scriptHash);\n\n        emit Funded(scriptHash, msg.sender, _value);\n    }\n}\n",
  "sourcePath": "/home/sameep/freelancing-projects/toptal/open baazar/publicRepo/smart-contracts/contracts/escrow/Escrow_v1_0.sol",
  "compiler": {
    "name": "solc",
    "version": "0.4.24+commit.e67f0147.Emscripten.clang"
  },
  "schemaVersion": "2.0.1",
  "updatedAt": "2018-10-09T08:13:05.007Z"
}