{
  "contractName": "EscrowProxy",
  "abi": [
    {
      "constant": true,
      "inputs": [],
      "name": "legacyEscrowVersion",
      "outputs": [
        {
          "name": "",
          "type": "address"
        }
      ],
      "payable": false,
      "stateMutability": "view",
      "type": "function",
      "signature": "0xedecd95c"
    },
    {
      "inputs": [
        {
          "name": "_legacyEscrowVersion",
          "type": "address"
        }
      ],
      "payable": false,
      "stateMutability": "nonpayable",
      "type": "constructor",
      "signature": "constructor"
    },
    {
      "constant": true,
      "inputs": [
        {
          "name": "escrowVersion",
          "type": "address"
        },
        {
          "name": "scriptHash",
          "type": "bytes32"
        },
        {
          "name": "destinations",
          "type": "address[]"
        },
        {
          "name": "amounts",
          "type": "uint256[]"
        }
      ],
      "name": "getTransactionHash",
      "outputs": [
        {
          "name": "",
          "type": "bytes32"
        }
      ],
      "payable": false,
      "stateMutability": "view",
      "type": "function",
      "signature": "0xe0c8d9b4"
    }
  ],
  "bytecode": "0x608060405234801561001057600080fd5b5060405160208061087b83398101806040528101908080519060200190929190505050600073ffffffffffffffffffffffffffffffffffffffff168173ffffffffffffffffffffffffffffffffffffffff16141515156100fe576040517f08c379a00000000000000000000000000000000000000000000000000000000081526004018080602001828103825260218152602001807f496e76616c696420457363726f7720636f6e747261637420616464726573732181526020017f210000000000000000000000000000000000000000000000000000000000000081525060400191505060405180910390fd5b806000806101000a81548173ffffffffffffffffffffffffffffffffffffffff021916908373ffffffffffffffffffffffffffffffffffffffff1602179055505061072d8061014e6000396000f30060806040526004361061004c576000357c0100000000000000000000000000000000000000000000000000000000900463ffffffff168063e0c8d9b414610051578063edecd95c146100ee575b600080fd5b34801561005d57600080fd5b506100d0600480360381019080803573ffffffffffffffffffffffffffffffffffffffff1690602001909291908035600019169060200190929190803590602001908201803590602001919091929391929390803590602001908201803590602001919091929391929390505050610145565b60405180826000191660001916815260200191505060405180910390f35b3480156100fa57600080fd5b506101036103e5565b604051808273ffffffffffffffffffffffffffffffffffffffff1673ffffffffffffffffffffffffffffffffffffffff16815260200191505060405180910390f35b600080600073ffffffffffffffffffffffffffffffffffffffff168873ffffffffffffffffffffffffffffffffffffffff1614151515610213576040517f08c379a00000000000000000000000000000000000000000000000000000000081526004018080602001828103825260218152602001807f496e76616c696420657363726f7720636f6e74726163742076657273696f6e2181526020017f210000000000000000000000000000000000000000000000000000000000000081525060400191505060405180910390fd5b6000809054906101000a900473ffffffffffffffffffffffffffffffffffffffff1673ffffffffffffffffffffffffffffffffffffffff168873ffffffffffffffffffffffffffffffffffffffff1614156102d8576102d18787878080602002602001604051908101604052809392919081815260200183836020028082843782019150505050505086868080602002602001604051908101604052809392919081815260200183836020028082843782019150505050505061040a565b91506103da565b8790508073ffffffffffffffffffffffffffffffffffffffff166351be268888888888886040518663ffffffff167c010000000000000000000000000000000000000000000000000000000002815260040180866000191660001916815260200180602001806020018381038352878782818152602001925060200280828437820191505083810382528585828181526020019250602002808284378201915050975050505050505050602060405180830381600087803b15801561039c57600080fd5b505af11580156103b0573d6000803e3d6000fd5b505050506040513d60208110156103c657600080fd5b810190808051906020019092919050505091505b509695505050505050565b6000809054906101000a900473ffffffffffffffffffffffffffffffffffffffff1681565b60008060197f01000000000000000000000000000000000000000000000000000000000000000260007f0100000000000000000000000000000000000000000000000000000000000000026000809054906101000a900473ffffffffffffffffffffffffffffffffffffffff1686868960405160200180877effffffffffffffffffffffffffffffffffffffffffffffffffffffffffffff19167effffffffffffffffffffffffffffffffffffffffffffffffffffffffffffff19168152600101867effffffffffffffffffffffffffffffffffffffffffffffffffffffffffffff19167effffffffffffffffffffffffffffffffffffffffffffffffffffffffffffff191681526001018573ffffffffffffffffffffffffffffffffffffffff1673ffffffffffffffffffffffffffffffffffffffff166c01000000000000000000000000028152601401848051906020019060200280838360005b83811015610582578082015181840152602081019050610567565b50505050905001838051906020019060200280838360005b838110156105b557808201518184015260208101905061059a565b50505050905001826000191660001916815260200196505050505050506040516020818303038152906040526040518082805190602001908083835b60208310151561061657805182526020820191506020810190506020830392506105f1565b6001836020036101000a038019825116818451168082178552505050505050905001915050604051809103902060405160200180807f19457468657265756d205369676e6564204d6573736167653a0a333200000000815250601c0182600019166000191681526020019150506040516020818303038152906040526040518082805190602001908083835b6020831015156106c757805182526020820191506020810190506020830392506106a2565b6001836020036101000a038019825116818451168082178552505050505050905001915050604051809103902090508091505093925050505600a165627a7a72305820efa3b69c96cf6f443cdcaa066585890ba057ba618042bf7b0864e32a4e42602a0029",
  "source": "pragma solidity 0.4.24;\n\nimport \"./IEscrow.sol\";\n\n\n/** \n* @dev This contract is used as proxy to return the hash which needs to be signed\n* For our current audited version of Escrow contract Proxy will contain code to generate hash\n* For all other furture Escrow contract versions, the version in itself should contain a function\n* And proxy will only be calling that function\n*/\ncontract EscrowProxy {\n\n    address public legacyEscrowVersion;\n\n    constructor(address _legacyEscrowVersion) public {\n\n        require(\n            _legacyEscrowVersion != address(0), \n            \"Invalid Escrow contract address!!\"\n        );\n\n        legacyEscrowVersion = _legacyEscrowVersion;\n    }\n\n    /** \n    * @dev Return Transaction has for the given input\n    * For our current audited version of Escrow contract Proxy will contain code to generate hash\n    * For all other furture Escrow contract versions, the version in itself should contain a function\n    * And proxy will only be calling that function\n    * @param escrowVersion The version of the escrow contract for which this trade is executed\n    * @param scriptHash script hash of the transaction\n    * @param destinations Receivers of the funds\n    * @param amounts Amount distributed to each receiver\n    */\n    function getTransactionHash(\n        address escrowVersion, \n        bytes32 scriptHash, \n        address[] destinations, \n        uint256[] amounts\n    ) \n        external\n        view \n        returns(bytes32) \n    {   \n\n        require(\n            escrowVersion != address(0), \n            \"Invalid escrow contract version!!\"\n        );\n        //if legacy version of escrow is called than\n        //calculate tx hash in this contract\n        if (escrowVersion == legacyEscrowVersion) {\n\n            return _legacyEscrowTxHash(\n                scriptHash,\n                destinations,\n                amounts\n            );\n\n        }\n        //If legacy version is not called\n        //then pass on the call to the escro contract version\n        else {\n            IEscrow escrow = IEscrow(escrowVersion);\n\n            return escrow.getTransactionHash(\n                scriptHash,\n                destinations,\n                amounts\n            );\n        }\n\n    }\n\n    function _legacyEscrowTxHash(\n        bytes32 scriptHash, \n        address[] destinations, \n        uint256[] amounts\n    )\n        private\n        view\n        returns(bytes32)\n    {\n        bytes32 txHash = keccak256(\n            abi.encodePacked(\n                \"\\x19Ethereum Signed Message:\\n32\",\n                keccak256(\n                    abi.encodePacked(\n                        byte(0x19),\n                        byte(0),\n                        legacyEscrowVersion,\n                        destinations,\n                        amounts,\n                        scriptHash\n                    )\n                )\n            )\n        );\n\n        return txHash;\n    }\n    \n}",
  "sourcePath": "/home/sameep/freelancing-projects/toptal/open baazar/publicRepo/smart-contracts/contracts/escrow/EscrowProxy.sol",
  "compiler": {
    "name": "solc",
    "version": "0.4.24+commit.e67f0147.Emscripten.clang"
  },
  "schemaVersion": "3.0.2",
  "updatedAt": "2019-04-02T11:19:30.856Z",
  "devdoc": {
    "methods": {
      "getTransactionHash(address,bytes32,address[],uint256[])": {
        "details": "Return Transaction has for the given input For our current audited version of Escrow contract Proxy will contain code to generate hash For all other furture Escrow contract versions, the version in itself should contain a function And proxy will only be calling that function",
        "params": {
          "amounts": "Amount distributed to each receiver",
          "destinations": "Receivers of the funds",
          "escrowVersion": "The version of the escrow contract for which this trade is executed",
          "scriptHash": "script hash of the transaction"
        }
      }
    }
  },
  "userdoc": {
    "methods": {}
  }
}