{
  "contractName": "Escrow_v1_0",
  "abi": [
    {
      "constant": true,
      "inputs": [
        {
          "name": "",
          "type": "bytes32"
        }
      ],
      "name": "transactions",
      "outputs": [
        {
          "name": "value",
          "type": "uint256"
        },
        {
          "name": "lastModified",
          "type": "uint256"
        },
        {
          "name": "status",
          "type": "uint8"
        },
        {
          "name": "transactionType",
          "type": "uint8"
        },
        {
          "name": "threshold",
          "type": "uint8"
        },
        {
          "name": "timeoutHours",
          "type": "uint32"
        },
        {
          "name": "buyer",
          "type": "address"
        },
        {
          "name": "seller",
          "type": "address"
        },
        {
          "name": "tokenAddress",
          "type": "address"
        },
        {
          "name": "moderator",
          "type": "address"
        }
      ],
      "payable": false,
      "stateMutability": "view",
      "type": "function"
    },
    {
      "constant": true,
      "inputs": [],
      "name": "transactionCount",
      "outputs": [
        {
          "name": "",
          "type": "uint256"
        }
      ],
      "payable": false,
      "stateMutability": "view",
      "type": "function"
    },
    {
      "anonymous": false,
      "inputs": [
        {
          "indexed": true,
          "name": "scriptHash",
          "type": "bytes32"
        },
        {
          "indexed": false,
          "name": "destinations",
          "type": "address[]"
        },
        {
          "indexed": false,
          "name": "amounts",
          "type": "uint256[]"
        }
      ],
      "name": "Executed",
      "type": "event"
    },
    {
      "anonymous": false,
      "inputs": [
        {
          "indexed": true,
          "name": "scriptHash",
          "type": "bytes32"
        },
        {
          "indexed": true,
          "name": "from",
          "type": "address"
        },
        {
          "indexed": false,
          "name": "valueAdded",
          "type": "uint256"
        }
      ],
      "name": "FundAdded",
      "type": "event"
    },
    {
      "anonymous": false,
      "inputs": [
        {
          "indexed": true,
          "name": "scriptHash",
          "type": "bytes32"
        },
        {
          "indexed": true,
          "name": "from",
          "type": "address"
        },
        {
          "indexed": false,
          "name": "value",
          "type": "uint256"
        }
      ],
      "name": "Funded",
      "type": "event"
    },
    {
      "constant": false,
      "inputs": [
        {
          "name": "buyer",
          "type": "address"
        },
        {
          "name": "seller",
          "type": "address"
        },
        {
          "name": "moderator",
          "type": "address"
        },
        {
          "name": "threshold",
          "type": "uint8"
        },
        {
          "name": "timeoutHours",
          "type": "uint32"
        },
        {
          "name": "scriptHash",
          "type": "bytes32"
        },
        {
          "name": "uniqueId",
          "type": "bytes20"
        }
      ],
      "name": "addTransaction",
      "outputs": [],
      "payable": true,
      "stateMutability": "payable",
      "type": "function"
    },
    {
      "constant": false,
      "inputs": [
        {
          "name": "buyer",
          "type": "address"
        },
        {
          "name": "seller",
          "type": "address"
        },
        {
          "name": "moderator",
          "type": "address"
        },
        {
          "name": "threshold",
          "type": "uint8"
        },
        {
          "name": "timeoutHours",
          "type": "uint32"
        },
        {
          "name": "scriptHash",
          "type": "bytes32"
        },
        {
          "name": "value",
          "type": "uint256"
        },
        {
          "name": "uniqueId",
          "type": "bytes20"
        },
        {
          "name": "tokenAddress",
          "type": "address"
        }
      ],
      "name": "addTokenTransaction",
      "outputs": [],
      "payable": false,
      "stateMutability": "nonpayable",
      "type": "function"
    },
    {
      "constant": true,
      "inputs": [
        {
          "name": "scriptHash",
          "type": "bytes32"
        },
        {
          "name": "beneficiary",
          "type": "address"
        }
      ],
      "name": "checkBeneficiary",
      "outputs": [
        {
          "name": "",
          "type": "bool"
        }
      ],
      "payable": false,
      "stateMutability": "view",
      "type": "function"
    },
    {
      "constant": true,
      "inputs": [
        {
          "name": "scriptHash",
          "type": "bytes32"
        },
        {
          "name": "party",
          "type": "address"
        }
      ],
      "name": "checkVote",
      "outputs": [
        {
          "name": "",
          "type": "bool"
        }
      ],
      "payable": false,
      "stateMutability": "view",
      "type": "function"
    },
    {
      "constant": false,
      "inputs": [
        {
          "name": "scriptHash",
          "type": "bytes32"
        }
      ],
      "name": "addFundsToTransaction",
      "outputs": [],
      "payable": true,
      "stateMutability": "payable",
      "type": "function"
    },
    {
      "constant": false,
      "inputs": [
        {
          "name": "scriptHash",
          "type": "bytes32"
        },
        {
          "name": "value",
          "type": "uint256"
        }
      ],
      "name": "addTokensToTransaction",
      "outputs": [],
      "payable": false,
      "stateMutability": "nonpayable",
      "type": "function"
    },
    {
      "constant": true,
      "inputs": [
        {
          "name": "partyAddress",
          "type": "address"
        }
      ],
      "name": "getAllTransactionsForParty",
      "outputs": [
        {
          "name": "",
          "type": "bytes32[]"
        }
      ],
      "payable": false,
      "stateMutability": "view",
      "type": "function"
    },
    {
      "constant": false,
      "inputs": [
        {
          "name": "sigV",
          "type": "uint8[]"
        },
        {
          "name": "sigR",
          "type": "bytes32[]"
        },
        {
          "name": "sigS",
          "type": "bytes32[]"
        },
        {
          "name": "scriptHash",
          "type": "bytes32"
        },
        {
          "name": "destinations",
          "type": "address[]"
        },
        {
          "name": "amounts",
          "type": "uint256[]"
        }
      ],
      "name": "execute",
      "outputs": [],
      "payable": false,
      "stateMutability": "nonpayable",
      "type": "function"
    },
    {
      "constant": true,
      "inputs": [
        {
          "name": "uniqueId",
          "type": "bytes20"
        },
        {
          "name": "threshold",
          "type": "uint8"
        },
        {
          "name": "timeoutHours",
          "type": "uint32"
        },
        {
          "name": "buyer",
          "type": "address"
        },
        {
          "name": "seller",
          "type": "address"
        },
        {
          "name": "moderator",
          "type": "address"
        },
        {
          "name": "tokenAddress",
          "type": "address"
        }
      ],
      "name": "calculateRedeemScriptHash",
      "outputs": [
        {
          "name": "",
          "type": "bytes32"
        }
      ],
      "payable": false,
      "stateMutability": "view",
      "type": "function"
    }
  ],
  "bytecode": "0x6080604052600060015534801561001557600080fd5b5061443c806100256000396000f3006080604052600436106100af576000357c0100000000000000000000000000000000000000000000000000000000900463ffffffff16806323b6fd3f146100b45780632d9ef96e1461016e57806346fbcdeb1461019257806357bced7614610287578063642f2eaf14610378578063b0550c66146104da578063b719e28014610543578063b77bf6001461057e578063be84ceaf146105a9578063e4ec8b0014610641578063f0786562146106ea575b600080fd5b61016c600480360381019080803573ffffffffffffffffffffffffffffffffffffffff169060200190929190803573ffffffffffffffffffffffffffffffffffffffff169060200190929190803573ffffffffffffffffffffffffffffffffffffffff169060200190929190803560ff169060200190929190803563ffffffff169060200190929190803560001916906020019092919080356bffffffffffffffffffffffff19169060200190929190505050610753565b005b61019060048036038101908080356000191690602001909291905050506109a7565b005b34801561019e57600080fd5b5061026960048036038101908080356bffffffffffffffffffffffff19169060200190929190803560ff169060200190929190803563ffffffff169060200190929190803573ffffffffffffffffffffffffffffffffffffffff169060200190929190803573ffffffffffffffffffffffffffffffffffffffff169060200190929190803573ffffffffffffffffffffffffffffffffffffffff169060200190929190803573ffffffffffffffffffffffffffffffffffffffff169060200190929190505050610e02565b60405180826000191660001916815260200191505060405180910390f35b34801561029357600080fd5b50610376600480360381019080803573ffffffffffffffffffffffffffffffffffffffff169060200190929190803573ffffffffffffffffffffffffffffffffffffffff169060200190929190803573ffffffffffffffffffffffffffffffffffffffff169060200190929190803560ff169060200190929190803563ffffffff16906020019092919080356000191690602001909291908035906020019092919080356bffffffffffffffffffffffff19169060200190929190803573ffffffffffffffffffffffffffffffffffffffff1690602001909291905050506112ae565b005b34801561038457600080fd5b506103a76004803603810190808035600019169060200190929190505050611783565b604051808b81526020018a81526020018960018111156103c357fe5b60ff1681526020018860018111156103d757fe5b60ff1681526020018760ff1660ff1681526020018663ffffffff1663ffffffff1681526020018573ffffffffffffffffffffffffffffffffffffffff1673ffffffffffffffffffffffffffffffffffffffff1681526020018473ffffffffffffffffffffffffffffffffffffffff1673ffffffffffffffffffffffffffffffffffffffff1681526020018373ffffffffffffffffffffffffffffffffffffffff1673ffffffffffffffffffffffffffffffffffffffff1681526020018273ffffffffffffffffffffffffffffffffffffffff1673ffffffffffffffffffffffffffffffffffffffff1681526020019a505050505050505050505060405180910390f35b3480156104e657600080fd5b506105296004803603810190808035600019169060200190929190803573ffffffffffffffffffffffffffffffffffffffff16906020019092919050505061188e565b604051808215151515815260200191505060405180910390f35b34801561054f57600080fd5b5061057c600480360381019080803560001916906020019092919080359060200190929190505050611900565b005b34801561058a57600080fd5b50610593611f97565b6040518082815260200191505060405180910390f35b3480156105b557600080fd5b506105ea600480360381019080803573ffffffffffffffffffffffffffffffffffffffff169060200190929190505050611f9d565b6040518080602001828103825283818151815260200191508051906020019060200280838360005b8381101561062d578082015181840152602081019050610612565b505050509050019250505060405180910390f35b34801561064d57600080fd5b506106e86004803603810190808035906020019082018035906020019190919293919293908035906020019082018035906020019190919293919293908035906020019082018035906020019190919293919293908035600019169060200190929190803590602001908201803590602001919091929391929390803590602001908201803590602001919091929391929390505050612038565b005b3480156106f657600080fd5b506107396004803603810190808035600019169060200190929190803573ffffffffffffffffffffffffffffffffffffffff169060200190929190505050612621565b604051808215151515815260200191505060405180910390f35b8160008060008360001916600019168152602001908152602001600020600001541415156107e9576040517f08c379a00000000000000000000000000000000000000000000000000000000081526004018080602001828103825260128152602001807f5472616e73616374696f6e20657869737473000000000000000000000000000081525060200191505060405180910390fd5b87600073ffffffffffffffffffffffffffffffffffffffff168173ffffffffffffffffffffffffffffffffffffffff161415151561088f576040517f08c379a00000000000000000000000000000000000000000000000000000000081526004018080602001828103825260138152602001807f5a65726f2061646472657373207061737365640000000000000000000000000081525060200191505060405180910390fd5b87600073ffffffffffffffffffffffffffffffffffffffff168173ffffffffffffffffffffffffffffffffffffffff1614151515610935576040517f08c379a00000000000000000000000000000000000000000000000000000000081526004018080602001828103825260138152602001807f5a65726f2061646472657373207061737365640000000000000000000000000081525060200191505060405180910390fd5b6109488a8a8a8a8a8a348b600080612693565b3373ffffffffffffffffffffffffffffffffffffffff1685600019167fce7089d0668849fb9ca29778c0cbf1e764d9efb048d81fd71fb34c94f26db368346040518082815260200191505060405180910390a350505050505050505050565b80600080600083600019166000191681526020019081526020016000206000015414151515610a3e576040517f08c379a000000000000000000000000000000000000000000000000000000000815260040180806020018281038252601a8152602001807f5472616e73616374696f6e20646f6573206e6f7420657869737400000000000081525060200191505060405180910390fd5b8160006001811115610a4c57fe5b600080836000191660001916815260200190815260200160002060020160009054906101000a900460ff166001811115610a8257fe5b141515610b1d576040517f08c379a00000000000000000000000000000000000000000000000000000000081526004018080602001828103825260228152602001807f5472616e73616374696f6e206973206e6f7420696e2046554e4445442073746181526020017f746500000000000000000000000000000000000000000000000000000000000081525060400191505060405180910390fd5b826000806001811115610b2c57fe5b600080846000191660001916815260200190815260200160002060020160019054906101000a900460ff166001811115610b6257fe5b141515610bd7576040517f08c379a000000000000000000000000000000000000000000000000000000000815260040180806020018281038252601f8152602001807f5472616e73616374696f6e207479706520646f6573206e6f74206d617463680081525060200191505060405180910390fd5b84600080826000191660001916815260200190815260200160002060020160079054906101000a900473ffffffffffffffffffffffffffffffffffffffff1673ffffffffffffffffffffffffffffffffffffffff163373ffffffffffffffffffffffffffffffffffffffff16141515610cde576040517f08c379a000000000000000000000000000000000000000000000000000000000815260040180806020018281038252602d8152602001807f54686520696e69746961746f72206f6620746865207472616e73616374696f6e81526020017f206973206e6f742062757965720000000000000000000000000000000000000081525060400191505060405180910390fd5b600034111515610d56576040517f08c379a00000000000000000000000000000000000000000000000000000000081526004018080602001828103825260208152602001807f56616c7565206d7573742062652067726561746572207468616e207a65726f2e81525060200191505060405180910390fd5b610d863460008089600019166000191681526020019081526020016000206000015461308b90919063ffffffff16565b6000808860001916600019168152602001908152602001600020600001819055503373ffffffffffffffffffffffffffffffffffffffff1686600019167ff66fd2ae9e24a6a24b02e1b5b7512ffde5149a4176085fc0298ae228c9b9d729346040518082815260200191505060405180910390a3505050505050565b60008073ffffffffffffffffffffffffffffffffffffffff168273ffffffffffffffffffffffffffffffffffffffff16141561104e578787878787873060405160200180886bffffffffffffffffffffffff19166bffffffffffffffffffffffff191681526014018760ff1660ff167f01000000000000000000000000000000000000000000000000000000000000000281526001018663ffffffff1663ffffffff167c01000000000000000000000000000000000000000000000000000000000281526004018573ffffffffffffffffffffffffffffffffffffffff1673ffffffffffffffffffffffffffffffffffffffff166c010000000000000000000000000281526014018473ffffffffffffffffffffffffffffffffffffffff1673ffffffffffffffffffffffffffffffffffffffff166c010000000000000000000000000281526014018373ffffffffffffffffffffffffffffffffffffffff1673ffffffffffffffffffffffffffffffffffffffff166c010000000000000000000000000281526014018273ffffffffffffffffffffffffffffffffffffffff1673ffffffffffffffffffffffffffffffffffffffff166c010000000000000000000000000281526014019750505050505050506040516020818303038152906040526040518082805190602001908083835b60208310151561101a5780518252602082019150602081019050602083039250610ff5565b6001836020036101000a038019825116818451168082178552505050505050905001915050604051809103902090506112a3565b878787878787308860405160200180896bffffffffffffffffffffffff19166bffffffffffffffffffffffff191681526014018860ff1660ff167f01000000000000000000000000000000000000000000000000000000000000000281526001018763ffffffff1663ffffffff167c01000000000000000000000000000000000000000000000000000000000281526004018673ffffffffffffffffffffffffffffffffffffffff1673ffffffffffffffffffffffffffffffffffffffff166c010000000000000000000000000281526014018573ffffffffffffffffffffffffffffffffffffffff1673ffffffffffffffffffffffffffffffffffffffff166c010000000000000000000000000281526014018473ffffffffffffffffffffffffffffffffffffffff1673ffffffffffffffffffffffffffffffffffffffff166c010000000000000000000000000281526014018373ffffffffffffffffffffffffffffffffffffffff1673ffffffffffffffffffffffffffffffffffffffff166c010000000000000000000000000281526014018273ffffffffffffffffffffffffffffffffffffffff1673ffffffffffffffffffffffffffffffffffffffff166c01000000000000000000000000028152601401985050505050505050506040516020818303038152906040526040518082805190602001908083835b602083101515611273578051825260208201915060208101905060208303925061124e565b6001836020036101000a038019825116818451168082178552505050505050905001915050604051809103902090505b979650505050505050565b6000846000806000836000191660001916815260200190815260200160002060000154141515611346576040517f08c379a00000000000000000000000000000000000000000000000000000000081526004018080602001828103825260128152602001807f5472616e73616374696f6e20657869737473000000000000000000000000000081525060200191505060405180910390fd5b8a600073ffffffffffffffffffffffffffffffffffffffff168173ffffffffffffffffffffffffffffffffffffffff16141515156113ec576040517f08c379a00000000000000000000000000000000000000000000000000000000081526004018080602001828103825260138152602001807f5a65726f2061646472657373207061737365640000000000000000000000000081525060200191505060405180910390fd5b8a600073ffffffffffffffffffffffffffffffffffffffff168173ffffffffffffffffffffffffffffffffffffffff1614151515611492576040517f08c379a00000000000000000000000000000000000000000000000000000000081526004018080602001828103825260138152602001807f5a65726f2061646472657373207061737365640000000000000000000000000081525060200191505060405180910390fd5b84600073ffffffffffffffffffffffffffffffffffffffff168173ffffffffffffffffffffffffffffffffffffffff1614151515611538576040517f08c379a00000000000000000000000000000000000000000000000000000000081526004018080602001828103825260138152602001807f5a65726f2061646472657373207061737365640000000000000000000000000081525060200191505060405180910390fd5b61154b8e8e8e8e8e8e8e8e60018f612693565b8594508473ffffffffffffffffffffffffffffffffffffffff166323b872dd33308b6040518463ffffffff167c0100000000000000000000000000000000000000000000000000000000028152600401808473ffffffffffffffffffffffffffffffffffffffff1673ffffffffffffffffffffffffffffffffffffffff1681526020018373ffffffffffffffffffffffffffffffffffffffff1673ffffffffffffffffffffffffffffffffffffffff1681526020018281526020019350505050602060405180830381600087803b15801561162557600080fd5b505af1158015611639573d6000803e3d6000fd5b505050506040513d602081101561164f57600080fd5b81019080805190602001909291905050501515611720576040517f08c379a000000000000000000000000000000000000000000000000000000000815260040180806020018281038252605d8152602001807f546f6b656e207472616e73666572206661696c65642c206d6179626520796f7581526020017f20646964206e6f7420617070726f766520657363726f7720636f6e747261637481526020017f20746f207370656e64206f6e20626568616c66206f662073656e64657200000081525060600191505060405180910390fd5b3373ffffffffffffffffffffffffffffffffffffffff1689600019167fce7089d0668849fb9ca29778c0cbf1e764d9efb048d81fd71fb34c94f26db3688a6040518082815260200191505060405180910390a35050505050505050505050505050565b60006020528060005260406000206000915090508060000154908060010154908060020160009054906101000a900460ff16908060020160019054906101000a900460ff16908060020160029054906101000a900460ff16908060020160039054906101000a900463ffffffff16908060020160079054906101000a900473ffffffffffffffffffffffffffffffffffffffff16908060030160009054906101000a900473ffffffffffffffffffffffffffffffffffffffff16908060040160009054906101000a900473ffffffffffffffffffffffffffffffffffffffff16908060050160009054906101000a900473ffffffffffffffffffffffffffffffffffffffff1690508a565b6000806000846000191660001916815260200190815260200160002060080160008373ffffffffffffffffffffffffffffffffffffffff1673ffffffffffffffffffffffffffffffffffffffff16815260200190815260200160002060009054906101000a900460ff16905092915050565b600082600080600083600019166000191681526020019081526020016000206000015414151515611999576040517f08c379a000000000000000000000000000000000000000000000000000000000815260040180806020018281038252601a8152602001807f5472616e73616374696f6e20646f6573206e6f7420657869737400000000000081525060200191505060405180910390fd5b83600060018111156119a757fe5b600080836000191660001916815260200190815260200160002060020160009054906101000a900460ff1660018111156119dd57fe5b141515611a78576040517f08c379a00000000000000000000000000000000000000000000000000000000081526004018080602001828103825260228152602001807f5472616e73616374696f6e206973206e6f7420696e2046554e4445442073746181526020017f746500000000000000000000000000000000000000000000000000000000000081525060400191505060405180910390fd5b846001806001811115611a8757fe5b600080846000191660001916815260200190815260200160002060020160019054906101000a900460ff166001811115611abd57fe5b141515611b32576040517f08c379a000000000000000000000000000000000000000000000000000000000815260040180806020018281038252601f8152602001807f5472616e73616374696f6e207479706520646f6573206e6f74206d617463680081525060200191505060405180910390fd5b86600080826000191660001916815260200190815260200160002060020160079054906101000a900473ffffffffffffffffffffffffffffffffffffffff1673ffffffffffffffffffffffffffffffffffffffff163373ffffffffffffffffffffffffffffffffffffffff16141515611c39576040517f08c379a000000000000000000000000000000000000000000000000000000000815260040180806020018281038252602d8152602001807f54686520696e69746961746f72206f6620746865207472616e73616374696f6e81526020017f206973206e6f742062757965720000000000000000000000000000000000000081525060400191505060405180910390fd5b600087111515611cb1576040517f08c379a00000000000000000000000000000000000000000000000000000000081526004018080602001828103825260208152602001807f56616c7565206d7573742062652067726561746572207468616e207a65726f2e81525060200191505060405180910390fd5b600080896000191660001916815260200190815260200160002060040160009054906101000a900473ffffffffffffffffffffffffffffffffffffffff1695508573ffffffffffffffffffffffffffffffffffffffff166323b872dd33308a6040518463ffffffff167c0100000000000000000000000000000000000000000000000000000000028152600401808473ffffffffffffffffffffffffffffffffffffffff1673ffffffffffffffffffffffffffffffffffffffff1681526020018373ffffffffffffffffffffffffffffffffffffffff1673ffffffffffffffffffffffffffffffffffffffff1681526020018281526020019350505050602060405180830381600087803b158015611dc857600080fd5b505af1158015611ddc573d6000803e3d6000fd5b505050506040513d6020811015611df257600080fd5b81019080805190602001909291905050501515611ee9576040517f08c379a00000000000000000000000000000000000000000000000000000000081526004018080602001828103825260648152602001807f546f6b656e207472616e73666572206661696c65642c206d6179626520796f7581526020017f20646964206e6f7420617070726f76652074686520657363726f7720636f6e7481526020017f7261637420746f207370656e64206f6e20626568616c66206f6620746865206281526020017f757965720000000000000000000000000000000000000000000000000000000081525060800191505060405180910390fd5b611f19876000808b600019166000191681526020019081526020016000206000015461308b90919063ffffffff16565b6000808a60001916600019168152602001908152602001600020600001819055503373ffffffffffffffffffffffffffffffffffffffff1688600019167ff66fd2ae9e24a6a24b02e1b5b7512ffde5149a4176085fc0298ae228c9b9d729896040518082815260200191505060405180910390a35050505050505050565b60015481565b6060600260008373ffffffffffffffffffffffffffffffffffffffff1673ffffffffffffffffffffffffffffffffffffffff16815260200190815260200160002080548060200260200160405190810160405280929190818152602001828054801561202c57602002820191906000526020600020905b81546000191681526020019060010190808311612014575b50505050509050919050565b846000806000836000191660001916815260200190815260200160002060000154141515156120cf576040517f08c379a000000000000000000000000000000000000000000000000000000000815260040180806020018281038252601a8152602001807f5472616e73616374696f6e20646f6573206e6f7420657869737400000000000081525060200191505060405180910390fd5b85600060018111156120dd57fe5b600080836000191660001916815260200190815260200160002060020160009054906101000a900460ff16600181111561211357fe5b1415156121ae576040517f08c379a00000000000000000000000000000000000000000000000000000000081526004018080602001828103825260228152602001807f5472616e73616374696f6e206973206e6f7420696e2046554e4445442073746181526020017f746500000000000000000000000000000000000000000000000000000000000081525060400191505060405180910390fd5b60008686905011151561224f576040517f08c379a000000000000000000000000000000000000000000000000000000000815260040180806020018281038252602d8152602001807f4e756d626572206f662064657374696e6174696f6e73206d757374206265206781526020017f726561746572207468616e20300000000000000000000000000000000000000081525060400191505060405180910390fd5b83839050868690501415156122f2576040517f08c379a00000000000000000000000000000000000000000000000000000000081526004018080602001828103825260378152602001807f4e756d626572206f662064657374696e6174696f6e73206d757374206d61746381526020017f68206e756d626572206f662076616c7565732073656e7400000000000000000081525060400191505060405180910390fd5b6123eb8d8d808060200260200160405190810160405280939291908181526020018383602002808284378201915050505050508c8c808060200260200160405190810160405280939291908181526020018383602002808284378201915050505050508b8b808060200260200160405190810160405280939291908181526020018383602002808284378201915050505050508a8a8a808060200260200160405190810160405280939291908181526020018383602002808284378201915050505050508989808060200260200160405190810160405280939291908181526020018383602002808284378201915050505050506130ac565b6001600080896000191660001916815260200190815260200160002060020160006101000a81548160ff0219169083600181111561242557fe5b0217905550426000808960001916600019168152602001908152602001600020600101819055506000808860001916600019168152602001908152602001600020600001546124d38888888080602002602001604051908101604052809392919081815260200183836020028082843782019150505050505087878080602002602001604051908101604052809392919081815260200183836020028082843782019150505050505061332c565b141515612594576040517f08c379a00000000000000000000000000000000000000000000000000000000081526004018080602001828103825260488152602001807f546f74616c2076616c756520746f2062652072656c6561736564206d7573742081526020017f626520657175616c20746f20746865207472616e73616374696f6e206573637281526020017f6f772076616c756500000000000000000000000000000000000000000000000081525060600191505060405180910390fd5b86600019167f688e2a1b34445bcd47b0e11ba2a9c8c4d850a1831b64199b59d1c70e29701545878787876040518080602001806020018381038352878782818152602001925060200280828437820191505083810382528585828181526020019250602002808284378201915050965050505050505060405180910390a250505050505050505050505050565b6000806000846000191660001916815260200190815260200160002060070160008373ffffffffffffffffffffffffffffffffffffffff1673ffffffffffffffffffffffffffffffffffffffff16815260200190815260200160002060009054906101000a900460ff16905092915050565b8873ffffffffffffffffffffffffffffffffffffffff168a73ffffffffffffffffffffffffffffffffffffffff1614151515612737576040517f08c379a00000000000000000000000000000000000000000000000000000000081526004018080602001828103825260198152602001807f427579657220616e642073656c6c6572206172652073616d650000000000000081525060200191505060405180910390fd5b6000841115156127af576040517f08c379a00000000000000000000000000000000000000000000000000000000081526004018080602001828103825260118152602001807f56616c756520706173736564206973203000000000000000000000000000000081525060200191505060405180910390fd5b60008760ff1611151561282a576040517f08c379a00000000000000000000000000000000000000000000000000000000081526004018080602001828103825260208152602001807f5468726573686f6c64206d7573742062652067726561746572207468616e203081525060200191505060405180910390fd5b60038760ff16111515156128cc576040517f08c379a00000000000000000000000000000000000000000000000000000000081526004018080602001828103825260248152602001807f5468726573686f6c64206d757374206e6f74206265206772656174657220746881526020017f616e20330000000000000000000000000000000000000000000000000000000081525060400191505060405180910390fd5b60018760ff16148061290b5750600073ffffffffffffffffffffffffffffffffffffffff168873ffffffffffffffffffffffffffffffffffffffff1614155b15156129cb576040517f08c379a00000000000000000000000000000000000000000000000000000000081526004018080602001828103825260488152602001807f456974686572207468726573686f6c642073686f756c642062652031206f722081526020017f76616c6964206d6f64657261746f7220616464726573732073686f756c64206281526020017f652070617373656400000000000000000000000000000000000000000000000081525060600191505060405180910390fd5b6129da8388888d8d8d87610e02565b600019168560001916141515612a7e576040517f08c379a00000000000000000000000000000000000000000000000000000000081526004018080602001828103825260398152602001807f43616c63756c6174656420736372697074206861736820646f6573206e6f742081526020017f6d61746368207061737365642073637269707420686173682e0000000000000081525060400191505060405180910390fd5b6101406040519081016040528085815260200142815260200160006001811115612aa457fe5b8152602001836001811115612ab557fe5b81526020018860ff1681526020018763ffffffff1681526020018b73ffffffffffffffffffffffffffffffffffffffff1681526020018a73ffffffffffffffffffffffffffffffffffffffff1681526020018273ffffffffffffffffffffffffffffffffffffffff1681526020018973ffffffffffffffffffffffffffffffffffffffff168152506000808760001916600019168152602001908152602001600020600082015181600001556020820151816001015560408201518160020160006101000a81548160ff02191690836001811115612b8f57fe5b021790555060608201518160020160016101000a81548160ff02191690836001811115612bb857fe5b021790555060808201518160020160026101000a81548160ff021916908360ff16021790555060a08201518160020160036101000a81548163ffffffff021916908363ffffffff16021790555060c08201518160020160076101000a81548173ffffffffffffffffffffffffffffffffffffffff021916908373ffffffffffffffffffffffffffffffffffffffff16021790555060e08201518160030160006101000a81548173ffffffffffffffffffffffffffffffffffffffff021916908373ffffffffffffffffffffffffffffffffffffffff1602179055506101008201518160040160006101000a81548173ffffffffffffffffffffffffffffffffffffffff021916908373ffffffffffffffffffffffffffffffffffffffff1602179055506101208201518160050160006101000a81548173ffffffffffffffffffffffffffffffffffffffff021916908373ffffffffffffffffffffffffffffffffffffffff1602179055509050506001600080876000191660001916815260200190815260200160002060060160008b73ffffffffffffffffffffffffffffffffffffffff1673ffffffffffffffffffffffffffffffffffffffff16815260200190815260200160002060006101000a81548160ff0219169083151502179055506001600080876000191660001916815260200190815260200160002060060160008c73ffffffffffffffffffffffffffffffffffffffff1673ffffffffffffffffffffffffffffffffffffffff16815260200190815260200160002060006101000a81548160ff021916908315150217905550600080866000191660001916815260200190815260200160002060060160008973ffffffffffffffffffffffffffffffffffffffff1673ffffffffffffffffffffffffffffffffffffffff16815260200190815260200160002060009054906101000a900460ff16151515612f0f576040517f08c379a000000000000000000000000000000000000000000000000000000000815260040180806020018281038252602d8152602001807f456974686572206275796572206f722073656c6c65722069732070617373656481526020017f206173206d6f64657261746f720000000000000000000000000000000000000081525060400191505060405180910390fd5b60018760ff161115612f8f576001600080876000191660001916815260200190815260200160002060060160008a73ffffffffffffffffffffffffffffffffffffffff1673ffffffffffffffffffffffffffffffffffffffff16815260200190815260200160002060006101000a81548160ff0219169083151502179055505b600160008154809291906001019190505550600260008b73ffffffffffffffffffffffffffffffffffffffff1673ffffffffffffffffffffffffffffffffffffffff168152602001908152602001600020859080600181540180825580915050906001820390600052602060002001600090919290919091509060001916905550600260008a73ffffffffffffffffffffffffffffffffffffffff1673ffffffffffffffffffffffffffffffffffffffff16815260200190815260200160002085908060018154018082558091505090600182039060005260206000200160009091929091909150906000191690555050505050505050505050565b60008082840190508381101515156130a257600080fd5b8091505092915050565b60006130bc878787878787613c84565b613110600080866000191660001916815260200190815260200160002060020160039054906101000a900463ffffffff1660008087600019166000191681526020019081526020016000206001015461435d565b9050600080856000191660001916815260200190815260200160002060020160029054906101000a900460ff1660ff1687511015613323578015156131e3576040517f08c379a00000000000000000000000000000000000000000000000000000000081526004018080602001828103825260378152602001807f4d696e206e756d626572206f662073696773206e6f742070726573656e74206181526020017f6e642074696d656c6f636b206e6f74206578706972656400000000000000000081525060400191505060405180910390fd5b60008085600019166000191681526020019081526020016000206007016000806000876000191660001916815260200190815260200160002060030160009054906101000a900473ffffffffffffffffffffffffffffffffffffffff1673ffffffffffffffffffffffffffffffffffffffff1673ffffffffffffffffffffffffffffffffffffffff16815260200190815260200160002060009054906101000a900460ff161515613322576040517f08c379a00000000000000000000000000000000000000000000000000000000081526004018080602001828103825260368152602001807f4d696e206e756d626572206f662073696773206e6f742070726573656e74206181526020017f6e642073656c6c657220646964206e6f74207369676e0000000000000000000081525060400191505060405180910390fd5b5b50505050505050565b6000806000806000806000808a600019166000191681526020019081526020016000209450600093506000600181111561336257fe5b8560020160019054906101000a900460ff16600181111561337f57fe5b141561374e57600092505b875183101561374957600073ffffffffffffffffffffffffffffffffffffffff1688848151811015156133b957fe5b9060200190602002015173ffffffffffffffffffffffffffffffffffffffff1614151515613475576040517f08c379a00000000000000000000000000000000000000000000000000000000081526004018080602001828103825260328152602001807f7a65726f2061646472657373206973206e6f7420616c6c6f776564206173206481526020017f657374696e6174696f6e2061646472657373000000000000000000000000000081525060400191505060405180910390fd5b846006016000898581518110151561348957fe5b9060200190602002015173ffffffffffffffffffffffffffffffffffffffff1673ffffffffffffffffffffffffffffffffffffffff16815260200190815260200160002060009054906101000a900460ff161515613575576040517f08c379a000000000000000000000000000000000000000000000000000000000815260040180806020018281038252602c8152602001807f44657374696e6174696f6e2061646472657373206973206e6f74206f6e65206f81526020017f6620746865206f776e657273000000000000000000000000000000000000000081525060400191505060405180910390fd5b6000878481518110151561358557fe5b9060200190602002015111151561362a576040517f08c379a000000000000000000000000000000000000000000000000000000000815260040180806020018281038252602a8152602001807f416d6f756e7420746f2062652073656e742073686f756c64206265206772656181526020017f746572207468616e20300000000000000000000000000000000000000000000081525060400191505060405180910390fd5b613654878481518110151561363b57fe5b906020019060200201518561308b90919063ffffffff16565b935060018560080160008a8681518110151561366c57fe5b9060200190602002015173ffffffffffffffffffffffffffffffffffffffff1673ffffffffffffffffffffffffffffffffffffffff16815260200190815260200160002060006101000a81548160ff02191690831515021790555087838151811015156136d557fe5b9060200190602002015173ffffffffffffffffffffffffffffffffffffffff166108fc888581518110151561370657fe5b906020019060200201519081150290604051600060405180830381858888f1935050505015801561373b573d6000803e3d6000fd5b50828060010193505061338a565b613c75565b60018081111561375a57fe5b8560020160019054906101000a900460ff16600181111561377757fe5b1415613c74578460040160009054906101000a900473ffffffffffffffffffffffffffffffffffffffff169150600090505b8751811015613c7357600073ffffffffffffffffffffffffffffffffffffffff1688828151811015156137d857fe5b9060200190602002015173ffffffffffffffffffffffffffffffffffffffff1614151515613894576040517f08c379a00000000000000000000000000000000000000000000000000000000081526004018080602001828103825260328152602001807f7a65726f2061646472657373206973206e6f7420616c6c6f776564206173206481526020017f657374696e6174696f6e2061646472657373000000000000000000000000000081525060400191505060405180910390fd5b84600601600089838151811015156138a857fe5b9060200190602002015173ffffffffffffffffffffffffffffffffffffffff1673ffffffffffffffffffffffffffffffffffffffff16815260200190815260200160002060009054906101000a900460ff161515613994576040517f08c379a000000000000000000000000000000000000000000000000000000000815260040180806020018281038252602c8152602001807f44657374696e6174696f6e2061646472657373206973206e6f74206f6e65206f81526020017f6620746865206f776e657273000000000000000000000000000000000000000081525060400191505060405180910390fd5b600087828151811015156139a457fe5b90602001906020020151111515613a49576040517f08c379a000000000000000000000000000000000000000000000000000000000815260040180806020018281038252602a8152602001807f416d6f756e7420746f2062652073656e742073686f756c64206265206772656181526020017f746572207468616e20300000000000000000000000000000000000000000000081525060400191505060405180910390fd5b613a738782815181101515613a5a57fe5b906020019060200201518561308b90919063ffffffff16565b935060018560080160008a84815181101515613a8b57fe5b9060200190602002015173ffffffffffffffffffffffffffffffffffffffff1673ffffffffffffffffffffffffffffffffffffffff16815260200190815260200160002060006101000a81548160ff0219169083151502179055508173ffffffffffffffffffffffffffffffffffffffff1663a9059cbb8983815181101515613b1057fe5b906020019060200201518984815181101515613b2857fe5b906020019060200201516040518363ffffffff167c0100000000000000000000000000000000000000000000000000000000028152600401808373ffffffffffffffffffffffffffffffffffffffff1673ffffffffffffffffffffffffffffffffffffffff16815260200182815260200192505050602060405180830381600087803b158015613bb757600080fd5b505af1158015613bcb573d6000803e3d6000fd5b505050506040513d6020811015613be157600080fd5b81019080805190602001909291905050501515613c66576040517f08c379a00000000000000000000000000000000000000000000000000000000081526004018080602001828103825260168152602001807f546f6b656e207472616e73666572206661696c65642e0000000000000000000081525060200191505060405180910390fd5b80806001019150506137a9565b5b5b83955050505050509392505050565b600080600086518851141515613d02576040517f08c379a00000000000000000000000000000000000000000000000000000000081526004018080602001828103825260138152602001807f522c53206c656e677468206d69736d617463680000000000000000000000000081525060200191505060405180910390fd5b88518851141515613d7b576040517f08c379a00000000000000000000000000000000000000000000000000000000081526004018080602001828103825260138152602001807f522c56206c656e677468206d69736d617463680000000000000000000000000081525060200191505060405180910390fd5b60197f01000000000000000000000000000000000000000000000000000000000000000260007f0100000000000000000000000000000000000000000000000000000000000000023087878a60405160200180877effffffffffffffffffffffffffffffffffffffffffffffffffffffffffffff19167effffffffffffffffffffffffffffffffffffffffffffffffffffffffffffff19168152600101867effffffffffffffffffffffffffffffffffffffffffffffffffffffffffffff19167effffffffffffffffffffffffffffffffffffffffffffffffffffffffffffff191681526001018573ffffffffffffffffffffffffffffffffffffffff1673ffffffffffffffffffffffffffffffffffffffff166c01000000000000000000000000028152601401848051906020019060200280838360005b83811015613ecf578082015181840152602081019050613eb4565b50505050905001838051906020019060200280838360005b83811015613f02578082015181840152602081019050613ee7565b50505050905001826000191660001916815260200196505050505050506040516020818303038152906040526040518082805190602001908083835b602083101515613f635780518252602082019150602081019050602083039250613f3e565b6001836020036101000a038019825116818451168082178552505050505050905001915050604051809103902060405160200180807f19457468657265756d205369676e6564204d6573736167653a0a333200000000815250601c0182600019166000191681526020019150506040516020818303038152906040526040518082805190602001908083835b6020831015156140145780518252602082019150602081019050602083039250613fef565b6001836020036101000a03801982511681845116808217855250505050505090500191505060405180910390209250600091505b8751821015614352576001838a8481518110151561406257fe5b906020019060200201518a8581518110151561407a57fe5b906020019060200201518a8681518110151561409257fe5b90602001906020020151604051600081526020016040526040518085600019166000191681526020018460ff1660ff1681526020018360001916600019168152602001826000191660001916815260200194505050505060206040516020810390808403906000865af115801561410d573d6000803e3d6000fd5b505050602060405103519050600080876000191660001916815260200190815260200160002060060160008273ffffffffffffffffffffffffffffffffffffffff1673ffffffffffffffffffffffffffffffffffffffff16815260200190815260200160002060009054906101000a900460ff1615156141f5576040517f08c379a00000000000000000000000000000000000000000000000000000000081526004018080602001828103825260118152602001807f496e76616c6964207369676e617475726500000000000000000000000000000081525060200191505060405180910390fd5b600080876000191660001916815260200190815260200160002060070160008273ffffffffffffffffffffffffffffffffffffffff1673ffffffffffffffffffffffffffffffffffffffff16815260200190815260200160002060009054906101000a900460ff161515156142d2576040517f08c379a00000000000000000000000000000000000000000000000000000000081526004018080602001828103825260198152602001807f53616d65207369676e61747572652073656e742074776963650000000000000081525060200191505060405180910390fd5b6001600080886000191660001916815260200190815260200160002060070160008373ffffffffffffffffffffffffffffffffffffffff1673ffffffffffffffffffffffffffffffffffffffff16815260200190815260200160002060006101000a81548160ff0219169083151502179055508180600101925050614048565b505050505050505050565b60008061437383426143b190919063ffffffff16565b905060008463ffffffff16146143a55761439e610e108563ffffffff166143d290919063ffffffff16565b81116143a8565b60005b91505092915050565b6000808383111515156143c357600080fd5b82840390508091505092915050565b60008060008414156143e75760009150614409565b82840290508284828115156143f857fe5b0414151561440557600080fd5b8091505b50929150505600a165627a7a72305820b0bc40451e92cce33aecf304324e85600c90ee97480ca236affee39f17c0d8890029",
  "source": "pragma solidity 0.4.24;\n\nimport \"openzeppelin-solidity/contracts/math/SafeMath.sol\";\n\nimport \"../token/ITokenContract.sol\";\n\n\n/**\n* @dev Supports ERC20 tokens\n* The escrow smart contract for the OpenBazaar trades in Ethereum\n* The smart contract is designed keeping in mind the current wallet interface of OB-core\n* https://github.com/OpenBazaar/wallet-interface/blob/master/wallet.go\n* Current wallet interface strictly adheres to UTXO(bitcoin) model\n* Please read below mentioned link for detailed specs\n* https://github.com/OpenBazaar/smart-contracts/blob/master/contracts/escrow/EscrowSpec.md\n*/\ncontract Escrow_v1_0 {\n\n    using SafeMath for uint256;\n\n    enum Status {FUNDED, RELEASED}\n\n    enum TransactionType {ETHER, TOKEN}\n\n    event Executed(\n        bytes32 indexed scriptHash,\n        address[] destinations,\n        uint256[] amounts\n    );\n\n    event FundAdded(\n        bytes32 indexed scriptHash,\n        address indexed from,\n        uint256 valueAdded\n    );\n\n    event Funded(\n        bytes32 indexed scriptHash,\n        address indexed from,\n        uint256 value\n    );\n\n    struct Transaction {\n        uint256 value;\n        uint256 lastModified; //time txn was last modified (in seconds)\n        Status status;\n        TransactionType transactionType;\n        uint8 threshold;\n        uint32 timeoutHours;\n        address buyer;\n        address seller;\n        address tokenAddress; //token address in case of token transfer\n        address moderator;\n        mapping(address => bool) isOwner; //to keep track of owners.\n        mapping(address => bool) voted; //to keep track of who all voted\n        mapping(address => bool) beneficiaries; //beneficiaries of execution\n    }\n\n    mapping(bytes32 => Transaction) public transactions;\n\n    uint256 public transactionCount = 0;\n\n    //Contains mapping between each party and all of their transactions\n    mapping(address => bytes32[]) private partyVsTransaction;\n\n    modifier transactionExists(bytes32 scriptHash) {\n        require(\n            transactions[scriptHash].value != 0, \"Transaction does not exist\"\n        );\n        _;\n    }\n\n    modifier transactionDoesNotExist(bytes32 scriptHash) {\n        require(transactions[scriptHash].value == 0, \"Transaction exists\");\n        _;\n    }\n\n    modifier inFundedState(bytes32 scriptHash) {\n        require(\n            transactions[scriptHash].status == Status.FUNDED, \"Transaction is not in FUNDED state\"\n        );\n        _;\n    }\n\n    modifier nonZeroAddress(address addressToCheck) {\n        require(addressToCheck != address(0), \"Zero address passed\");\n        _;\n    }\n\n    modifier checkTransactionType(\n        bytes32 scriptHash,\n        TransactionType transactionType\n    )\n    {\n        require(\n            transactions[scriptHash].transactionType == transactionType, \"Transaction type does not match\"\n        );\n        _;\n    }\n\n    modifier onlyBuyer(bytes32 scriptHash) {\n        require(\n            msg.sender == transactions[scriptHash].buyer, \"The initiator of the transaction is not buyer\"\n        );\n        _;\n    }\n\n    /**\n    * @dev Add new transaction in the contract\n    * @param buyer The buyer of the transaction\n    * @param seller The seller of the listing associated with the transaction\n    * @param moderator Moderator for this transaction\n    * @param threshold Minimum number of signatures required to released funds\n    * @param timeoutHours Hours after which seller can release funds into his favour by signing transaction unilaterally\n    * @param scriptHash keccak256 hash of the redeem script\n    * @param uniqueId bytes20 unique id for the transaction, generated by ETH wallet\n    * Redeem Script format will be following\n      <uniqueId: 20><threshold:1><timeoutHours:4><buyer:20><seller:20><moderator:20><multisigAddress:20>\n    * Pass amount of the ethers to be put in escrow\n    */\n    function addTransaction(\n        address buyer,\n        address seller,\n        address moderator,\n        uint8 threshold,\n        uint32 timeoutHours,\n        bytes32 scriptHash,\n        bytes20 uniqueId\n    )\n        external\n        payable\n        transactionDoesNotExist(scriptHash)\n        nonZeroAddress(buyer)\n        nonZeroAddress(seller)\n    {\n        _addTransaction(\n            buyer,\n            seller,\n            moderator,\n            threshold,\n            timeoutHours,\n            scriptHash,\n            msg.value,\n            uniqueId,\n            TransactionType.ETHER,\n            address(0)\n        );\n\n        emit Funded(scriptHash, msg.sender, msg.value);\n\n    }\n\n    /**\n    * @dev Add new transaction in the contract\n    * @param buyer The buyer of the transaction\n    * @param seller The seller of the listing associated with the transaction\n    * @param moderator Moderator for this transaction\n    * @param threshold Minimum number of signatures required to released funds\n    * @param timeoutHours Hours after which seller can release funds into his favour by signing transaction unilaterally\n    * @param scriptHash keccak256 hash of the redeem script\n    * @param value Amount of tokens to be put in escrow\n    * @param uniqueId bytes20 unique id for the transaction, generated by ETH wallet\n    * @param tokenAddress Address of the token to be used\n    * Redeem Script format will be following\n      <uniqueId: 20><threshold:1><timeoutHours:4><buyer:20><seller:20><moderator:20><multisigAddress:20><tokenAddress:20>\n    * Approve escrow contract to spend amount of token on sender's behalf\n    */\n    function addTokenTransaction(\n        address buyer,\n        address seller,\n        address moderator,\n        uint8 threshold,\n        uint32 timeoutHours,\n        bytes32 scriptHash,\n        uint256 value,\n        bytes20 uniqueId,\n        address tokenAddress\n    )\n        external\n        transactionDoesNotExist(scriptHash)\n        nonZeroAddress(buyer)\n        nonZeroAddress(seller)\n        nonZeroAddress(tokenAddress)\n    {\n\n        _addTransaction(\n            buyer,\n            seller,\n            moderator,\n            threshold,\n            timeoutHours,\n            scriptHash,\n            value,\n            uniqueId,\n            TransactionType.TOKEN,\n            tokenAddress\n        );\n\n        ITokenContract token = ITokenContract(tokenAddress);\n\n        require(\n            token.transferFrom(msg.sender, address(this), value),\n            \"Token transfer failed, maybe you did not approve escrow contract to spend on behalf of sender\"\n        );\n        emit Funded(scriptHash, msg.sender, value);\n    }\n\n    /**\n    * @dev This method will check whether given address was a beneficiary of transaction execution or not\n    * @param scriptHash script hash of the transaction\n    * @param beneficiary Beneficiary address to be checked\n    */\n    function checkBeneficiary(\n        bytes32 scriptHash,\n        address beneficiary\n    )\n        external\n        view\n        returns (bool)\n    {\n        return transactions[scriptHash].beneficiaries[beneficiary];\n    }\n\n    /**\n    * @dev This method will check whether given party has voted or not\n    * @param scriptHash script hash of the transaction\n    * @param party Address of the party whose vote has to be checked\n    * @return bool vote\n    */\n    function checkVote(\n        bytes32 scriptHash,\n        address party\n    )\n        external\n        view\n        returns (bool)\n    {\n        return transactions[scriptHash].voted[party];\n    }\n\n    /**\n    * @dev Allows buyer of the transaction to add more funds(ether) in the transaction.\n    * This will help to cater scenarios wherein initially buyer missed to fund transaction as required\n    * @param scriptHash script hash of the transaction\n    * Only buyer of the transaction can invoke this method\n    */\n    function addFundsToTransaction(\n        bytes32 scriptHash\n    )\n        external\n        payable\n        transactionExists(scriptHash)\n        inFundedState(scriptHash)\n        checkTransactionType(scriptHash, TransactionType.ETHER)\n        onlyBuyer(scriptHash)\n\n    {\n\n        require(msg.value > 0, \"Value must be greater than zero.\");\n\n        transactions[scriptHash].value = transactions[scriptHash].value\n            .add(msg.value);\n\n        emit FundAdded(scriptHash, msg.sender, msg.value);\n    }\n\n    /**\n    * @dev Allows buyer of the transaction to add more funds(Tokens) in the transaction.\n    * This will help to cater scenarios wherein initially buyer missed to fund transaction as required\n    * @param scriptHash script hash of the transaction\n    * Only buyer of the transaction can invoke this method\n    */\n    function addTokensToTransaction(\n        bytes32 scriptHash,\n        uint256 value\n    )\n        external\n        transactionExists(scriptHash)\n        inFundedState(scriptHash)\n        checkTransactionType(scriptHash, TransactionType.TOKEN)\n        onlyBuyer(scriptHash)\n    {\n\n        require(value > 0, \"Value must be greater than zero.\");\n\n        ITokenContract token = ITokenContract(\n            transactions[scriptHash].tokenAddress\n        );\n\n        require(\n            token.transferFrom(msg.sender, address(this), value),\n            \"Token transfer failed, maybe you did not approve the escrow contract to spend on behalf of the buyer\"\n        );\n\n        transactions[scriptHash].value = transactions[scriptHash].value\n            .add(value);\n\n        emit FundAdded(scriptHash, msg.sender, value);\n    }\n\n    /**\n    *@dev Returns all transaction ids for a party\n    *@param partyAddress Address of the party\n    */\n    function getAllTransactionsForParty(\n        address partyAddress\n    )\n        external\n        view\n        returns (bytes32[])\n    {\n        return partyVsTransaction[partyAddress];\n    }\n\n    /**\n    *@dev This method will be used to release funds associated with the transaction\n    * Please see specs https://github.com/OpenBazaar/smart-contracts/blob/master/contracts/escrow/EscrowSpec.md\n    *@param sigV Array containing V component of all the signatures\n    *@param sigR Array containing R component of all the signatures\n    *@param signS Array containing S component of all the signatures\n    *@param scriptHash script hash of the transaction\n    *@param destinations List of addresses who will receive funds\n    *@param amounts amount released to each destination\n    */\n    function execute(\n        uint8[] sigV,\n        bytes32[] sigR,\n        bytes32[] sigS,\n        bytes32 scriptHash,\n        address[] destinations,\n        uint256[] amounts\n    )\n        external\n        transactionExists(scriptHash)\n        inFundedState(scriptHash)\n    {\n\n        require(\n            destinations.length > 0,\n            \"Number of destinations must be greater than 0\"\n        );\n        require(\n            destinations.length == amounts.length,\n            \"Number of destinations must match number of values sent\"\n        );\n\n        _verifyTransaction(\n            sigV,\n            sigR,\n            sigS,\n            scriptHash,\n            destinations,\n            amounts\n        );\n\n        transactions[scriptHash].status = Status.RELEASED;\n        //Last modified timestamp modified, which will be used by rewards\n        transactions[scriptHash].lastModified = block.timestamp;\n        require(\n            _transferFunds(scriptHash, destinations, amounts) == transactions[scriptHash].value,\n            \"Total value to be released must be equal to the transaction escrow value\"\n        );\n\n        emit Executed(scriptHash, destinations, amounts);\n    }\n\n\n    /**\n    *@dev Method for calculating script hash. Calculation will depend upon the type of transaction\n    * ETHER Type transaction-:\n    * Script Hash- keccak256(uniqueId, threshold, timeoutHours, buyer, seller, moderator, multiSigContractAddress)\n    * TOKEN Type transaction\n    * Script Hash- keccak256(uniqueId, threshold, timeoutHours, buyer, seller, moderator, multiSigContractAddress, tokenAddress)\n    * Client can use this method to verify whether it has calculated correct script hash or not\n    */\n    function calculateRedeemScriptHash(\n        bytes20 uniqueId,\n        uint8 threshold,\n        uint32 timeoutHours,\n        address buyer,\n        address seller,\n        address moderator,\n        address tokenAddress\n    )\n        public\n        view\n        returns (bytes32)\n    {\n        if (tokenAddress == address(0)) {\n            return keccak256(\n                abi.encodePacked(\n                    uniqueId,\n                    threshold,\n                    timeoutHours,\n                    buyer,\n                    seller,\n                    moderator,\n                    address(this)\n                )\n            );\n        } else {\n            return keccak256(\n                abi.encodePacked(\n                    uniqueId,\n                    threshold,\n                    timeoutHours,\n                    buyer,\n                    seller,\n                    moderator,\n                    address(this),\n                    tokenAddress\n                )\n            );\n        }\n    }\n\n    /**\n    * @dev This methods checks validity of transaction\n    * 1. Verify Signatures\n    * 2. Check if minimum number of signatures has been acquired\n    * 3. If above condition is false, check if time lock is expired and the execution is signed by seller\n    */\n    function _verifyTransaction(\n        uint8[] sigV,\n        bytes32[] sigR,\n        bytes32[] sigS,\n        bytes32 scriptHash,\n        address[] destinations,\n        uint256[] amounts\n    )\n        private\n    {\n        _verifySignatures(\n            sigV,\n            sigR,\n            sigS,\n            scriptHash,\n            destinations,\n            amounts\n        );\n\n        bool timeLockExpired = _isTimeLockExpired(\n            transactions[scriptHash].timeoutHours,\n            transactions[scriptHash].lastModified\n        );\n\n        //if the minimum number of signatures are not gathered and timelock has\n        //not expired or transaction was not signed by seller then revert\n        if (sigV.length < transactions[scriptHash].threshold) {\n            if (!timeLockExpired) {\n                revert(\"Min number of sigs not present and timelock not expired\");\n            }\n            if (!transactions[scriptHash].voted[transactions[scriptHash].seller]) {\n                revert(\"Min number of sigs not present and seller did not sign\");\n            }\n        }\n    }\n\n    /**\n    *@dev Private method to transfer funds to the destination addresses on the basis of transaction type\n    */\n    function _transferFunds(\n        bytes32 scriptHash,\n        address[]destinations,\n        uint256[]amounts\n    )\n        private\n        returns (uint256)\n    {\n        Transaction storage t = transactions[scriptHash];\n\n        uint256 valueTransferred = 0;\n\n        if (t.transactionType == TransactionType.ETHER) {\n            for (uint256 i = 0; i < destinations.length; i++) {\n\n                require(destinations[i] != address(0), \"zero address is not allowed as destination address\");\n\n                require(t.isOwner[destinations[i]], \"Destination address is not one of the owners\");\n\n                require(amounts[i] > 0, \"Amount to be sent should be greater than 0\");\n\n                valueTransferred = valueTransferred.add(amounts[i]);\n\n                //add receiver as beneficiary\n                t.beneficiaries[destinations[i]] = true;\n                destinations[i].transfer(amounts[i]);\n            }\n\n        } else if (t.transactionType == TransactionType.TOKEN) {\n\n            ITokenContract token = ITokenContract(t.tokenAddress);\n\n            for (uint256 j = 0; j<destinations.length; j++) {\n\n                require(destinations[j] != address(0), \"zero address is not allowed as destination address\");\n\n                require(t.isOwner[destinations[j]], \"Destination address is not one of the owners\");\n\n                require(amounts[j] > 0, \"Amount to be sent should be greater than 0\");\n\n                valueTransferred = valueTransferred.add(amounts[j]);\n                t.beneficiaries[destinations[j]] = true; //add receiver as beneficiary\n\n                require(token.transfer(destinations[j], amounts[j]), \"Token transfer failed.\");\n            }\n        }\n        return valueTransferred;\n    }\n\n\n    /**\n    *@dev Checks whether the signatures are valid or not and marks signers as\n    * having \"voted\".\n    */\n    function _verifySignatures(\n        uint8[] sigV,\n        bytes32[] sigR,\n        bytes32[] sigS,\n        bytes32 scriptHash,\n        address[] destinations,\n        uint256[]amounts\n    )\n        private\n    {\n        require(sigR.length == sigS.length, \"R,S length mismatch\");\n        require(sigR.length == sigV.length, \"R,V length mismatch\");\n\n        // Follows ERC191 signature scheme: https://github.com/ethereum/EIPs/issues/191\n        bytes32 txHash = keccak256(\n            abi.encodePacked(\n                \"\\x19Ethereum Signed Message:\\n32\",\n                keccak256(\n                    abi.encodePacked(\n                        byte(0x19),\n                        byte(0),\n                        address(this),\n                        destinations,\n                        amounts,\n                        scriptHash\n                    )\n                )\n            )\n        );\n\n        for (uint i = 0; i < sigR.length; i++) {\n\n            address recovered = ecrecover(\n                txHash,\n                sigV[i],\n                sigR[i],\n                sigS[i]\n            );\n\n            require(\n                transactions[scriptHash].isOwner[recovered],\n                \"Invalid signature\"\n            );\n            require(\n                !transactions[scriptHash].voted[recovered],\n                \"Same signature sent twice\"\n            );\n            transactions[scriptHash].voted[recovered] = true;\n        }\n    }\n\n    function _isTimeLockExpired(\n        uint32 timeoutHours,\n        uint256 lastModified\n    )\n        private\n        view\n        returns (bool)\n    {\n        uint256 timeSince = now.sub(lastModified);\n        return (\n            timeoutHours == 0 ? false : timeSince > uint256(timeoutHours).mul(3600)\n        );\n    }\n\n    /**\n    * Private method to add transaction to reduce code redundancy\n    */\n    function _addTransaction(\n        address buyer,\n        address seller,\n        address moderator,\n        uint8 threshold,\n        uint32 timeoutHours,\n        bytes32 scriptHash,\n        uint256 value,\n        bytes20 uniqueId,\n        TransactionType transactionType,\n        address tokenAddress\n    )\n        private\n    {\n        require(buyer != seller, \"Buyer and seller are same\");\n\n        //value passed should be greater than 0\n        require(value > 0, \"Value passed is 0\");\n\n        // For now allowing 0 moderator to support 1-2 multisig wallet\n        require(threshold > 0, \"Threshold must be greater than 0\");\n        require(threshold <= 3, \"Threshold must not be greater than 3\");\n\n        //if threshold is 1 then moderator can be passed as zero address or any other address\n        //(it won't matter apart from scripthash since we wont add moderator as one of the owner),\n        //otherwise moderator should be a valid address\n        require(\n            threshold == 1 || moderator != address(0),\n            \"Either threshold should be 1 or valid moderator address should be passed\"\n        );\n\n        require(\n            scriptHash == calculateRedeemScriptHash(\n                uniqueId,\n                threshold,\n                timeoutHours,\n                buyer,\n                seller,\n                moderator,\n                tokenAddress\n            ),\n            \"Calculated script hash does not match passed script hash.\"\n        );\n\n        transactions[scriptHash] = Transaction({\n            buyer: buyer,\n            seller: seller,\n            moderator: moderator,\n            value: value,\n            status: Status.FUNDED,\n            lastModified: block.timestamp,\n            threshold: threshold,\n            timeoutHours: timeoutHours,\n            transactionType:transactionType,\n            tokenAddress:tokenAddress\n        });\n\n        transactions[scriptHash].isOwner[seller] = true;\n        transactions[scriptHash].isOwner[buyer] = true;\n\n        //Check if buyer or seller are not passed as moderator\n        require(\n            !transactions[scriptHash].isOwner[moderator],\n            \"Either buyer or seller is passed as moderator\"\n        );\n\n        //set moderator as one of the owners only if threshold is greater than 1 otherwise only buyer and seller should be able to release funds\n        if (threshold > 1) {\n            transactions[scriptHash].isOwner[moderator] = true;\n        }\n\n\n        transactionCount++;\n\n        partyVsTransaction[buyer].push(scriptHash);\n        partyVsTransaction[seller].push(scriptHash);\n    }\n}\n",
  "sourcePath": "/Users/austin/Documents/dev/ob/smart-contracts/contracts/escrow/Escrow_v1_0.sol",
  "compiler": {
    "name": "solc",
    "version": "0.4.24+commit.e67f0147.Emscripten.clang"
  },
  "schemaVersion": "2.0.1",
  "updatedAt": "2018-11-19T16:20:12.799Z"
}