{
  "contractName": "Escrow_v1_0",
  "abi": [
    {
      "constant": true,
      "inputs": [
        {
          "name": "",
          "type": "bytes32"
        }
      ],
      "name": "transactions",
      "outputs": [
        {
          "name": "scriptHash",
          "type": "bytes32"
        },
        {
          "name": "buyer",
          "type": "address"
        },
        {
          "name": "seller",
          "type": "address"
        },
        {
          "name": "value",
          "type": "uint256"
        },
        {
          "name": "status",
          "type": "uint8"
        },
        {
          "name": "ipfsHash",
          "type": "string"
        },
        {
          "name": "lastFunded",
          "type": "uint256"
        },
        {
          "name": "timeoutHours",
          "type": "uint32"
        },
        {
          "name": "threshold",
          "type": "uint8"
        },
        {
          "name": "transactionType",
          "type": "uint8"
        },
        {
          "name": "tokenAddress",
          "type": "address"
        }
      ],
      "payable": false,
      "stateMutability": "view",
      "type": "function"
    },
    {
      "constant": true,
      "inputs": [],
      "name": "transactionCount",
      "outputs": [
        {
          "name": "",
          "type": "uint256"
        }
      ],
      "payable": false,
      "stateMutability": "view",
      "type": "function"
    },
    {
      "constant": true,
      "inputs": [
        {
          "name": "",
          "type": "address"
        },
        {
          "name": "",
          "type": "uint256"
        }
      ],
      "name": "partyVsTransaction",
      "outputs": [
        {
          "name": "",
          "type": "bytes32"
        }
      ],
      "payable": false,
      "stateMutability": "view",
      "type": "function"
    },
    {
      "anonymous": false,
      "inputs": [
        {
          "indexed": false,
          "name": "scriptHash",
          "type": "bytes32"
        },
        {
          "indexed": false,
          "name": "destinations",
          "type": "address[]"
        },
        {
          "indexed": false,
          "name": "amounts",
          "type": "uint256[]"
        }
      ],
      "name": "Executed",
      "type": "event"
    },
    {
      "anonymous": false,
      "inputs": [
        {
          "indexed": false,
          "name": "scriptHash",
          "type": "bytes32"
        },
        {
          "indexed": true,
          "name": "from",
          "type": "address"
        },
        {
          "indexed": false,
          "name": "valueAdded",
          "type": "uint256"
        }
      ],
      "name": "FundAdded",
      "type": "event"
    },
    {
      "anonymous": false,
      "inputs": [
        {
          "indexed": false,
          "name": "scriptHash",
          "type": "bytes32"
        },
        {
          "indexed": true,
          "name": "from",
          "type": "address"
        },
        {
          "indexed": false,
          "name": "value",
          "type": "uint256"
        }
      ],
      "name": "Funded",
      "type": "event"
    },
    {
      "constant": false,
      "inputs": [
        {
          "name": "_buyer",
          "type": "address"
        },
        {
          "name": "_seller",
          "type": "address"
        },
        {
          "name": "_moderators",
          "type": "address[]"
        },
        {
          "name": "threshold",
          "type": "uint8"
        },
        {
          "name": "timeoutHours",
          "type": "uint32"
        },
        {
          "name": "scriptHash",
          "type": "bytes32"
        }
      ],
      "name": "addTransaction",
      "outputs": [],
      "payable": true,
      "stateMutability": "payable",
      "type": "function"
    },
    {
      "constant": false,
      "inputs": [
        {
          "name": "_buyer",
          "type": "address"
        },
        {
          "name": "_seller",
          "type": "address"
        },
        {
          "name": "_moderators",
          "type": "address[]"
        },
        {
          "name": "threshold",
          "type": "uint8"
        },
        {
          "name": "timeoutHours",
          "type": "uint32"
        },
        {
          "name": "scriptHash",
          "type": "bytes32"
        },
        {
          "name": "value",
          "type": "uint256"
        },
        {
          "name": "_tokenAddress",
          "type": "address"
        }
      ],
      "name": "addTokenTransaction",
      "outputs": [],
      "payable": false,
      "stateMutability": "nonpayable",
      "type": "function"
    },
    {
      "constant": false,
      "inputs": [
        {
          "name": "scriptHash",
          "type": "bytes32"
        }
      ],
      "name": "addFundsToTransaction",
      "outputs": [],
      "payable": true,
      "stateMutability": "payable",
      "type": "function"
    },
    {
      "constant": false,
      "inputs": [
        {
          "name": "scriptHash",
          "type": "bytes32"
        },
        {
          "name": "value",
          "type": "uint256"
        }
      ],
      "name": "addTokensToTransaction",
      "outputs": [],
      "payable": true,
      "stateMutability": "payable",
      "type": "function"
    },
    {
      "constant": false,
      "inputs": [
        {
          "name": "sigV",
          "type": "uint8[]"
        },
        {
          "name": "sigR",
          "type": "bytes32[]"
        },
        {
          "name": "sigS",
          "type": "bytes32[]"
        },
        {
          "name": "scriptHash",
          "type": "bytes32"
        },
        {
          "name": "uniqueId",
          "type": "bytes20"
        },
        {
          "name": "destinations",
          "type": "address[]"
        },
        {
          "name": "amounts",
          "type": "uint256[]"
        }
      ],
      "name": "execute",
      "outputs": [],
      "payable": false,
      "stateMutability": "nonpayable",
      "type": "function"
    },
    {
      "constant": true,
      "inputs": [
        {
          "name": "_partyAddress",
          "type": "address"
        }
      ],
      "name": "getAllTransactionsForParty",
      "outputs": [
        {
          "name": "scriptHashes",
          "type": "bytes32[]"
        }
      ],
      "payable": false,
      "stateMutability": "view",
      "type": "function"
    }
  ],
  "bytecode": "0x6080604052600060015534801561001557600080fd5b50613dbc806100256000396000f300608060405260043610610099576000357c0100000000000000000000000000000000000000000000000000000000900463ffffffff1680632d9ef96e1461009e578063642f2eaf146100c2578063b719e2801461026c578063b77bf6001461029a578063b8310cac146102c5578063be84ceaf14610389578063c8331de614610421578063d9006b06146105ba578063f5dbe09c146106b5575b600080fd5b6100c0600480360381019080803560001916906020019092919050505061071e565b005b3480156100ce57600080fd5b506100f16004803603810190808035600019169060200190929190505050610ada565b604051808c600019166000191681526020018b73ffffffffffffffffffffffffffffffffffffffff1673ffffffffffffffffffffffffffffffffffffffff1681526020018a73ffffffffffffffffffffffffffffffffffffffff1673ffffffffffffffffffffffffffffffffffffffff16815260200189815260200188600181111561017957fe5b60ff168152602001806020018781526020018663ffffffff1663ffffffff1681526020018560ff1660ff1681526020018460018111156101b557fe5b60ff1681526020018373ffffffffffffffffffffffffffffffffffffffff1673ffffffffffffffffffffffffffffffffffffffff168152602001828103825288818151815260200191508051906020019080838360005b8381101561022757808201518184015260208101905061020c565b50505050905090810190601f1680156102545780820380516001836020036101000a031916815260200191505b509c5050505050505050505050505060405180910390f35b610298600480360381019080803560001916906020019092919080359060200190929190505050610c63565b005b3480156102a657600080fd5b506102af611271565b6040518082815260200191505060405180910390f35b610387600480360381019080803573ffffffffffffffffffffffffffffffffffffffff169060200190929190803573ffffffffffffffffffffffffffffffffffffffff16906020019092919080359060200190820180359060200190808060200260200160405190810160405280939291908181526020018383602002808284378201915050505050509192919290803560ff169060200190929190803563ffffffff1690602001909291908035600019169060200190929190505050611277565b005b34801561039557600080fd5b506103ca600480360381019080803573ffffffffffffffffffffffffffffffffffffffff169060200190929190505050611476565b6040518080602001828103825283818151815260200191508051906020019060200280838360005b8381101561040d5780820151818401526020810190506103f2565b505050509050019250505060405180910390f35b34801561042d57600080fd5b506105b8600480360381019080803590602001908201803590602001908080602002602001604051908101604052809392919081815260200183836020028082843782019150505050505091929192908035906020019082018035906020019080806020026020016040519081016040528093929190818152602001838360200280828437820191505050505050919291929080359060200190820180359060200190808060200260200160405190810160405280939291908181526020018383602002808284378201915050505050509192919290803560001916906020019092919080356bffffffffffffffffffffffff191690602001909291908035906020019082018035906020019080806020026020016040519081016040528093929190818152602001838360200280828437820191505050505050919291929080359060200190820180359060200190808060200260200160405190810160405280939291908181526020018383602002808284378201915050505050509192919290505050611511565b005b3480156105c657600080fd5b506106b3600480360381019080803573ffffffffffffffffffffffffffffffffffffffff169060200190929190803573ffffffffffffffffffffffffffffffffffffffff16906020019092919080359060200190820180359060200190808060200260200160405190810160405280939291908181526020018383602002808284378201915050505050509192919290803560ff169060200190929190803563ffffffff169060200190929190803560001916906020019092919080359060200190929190803573ffffffffffffffffffffffffffffffffffffffff169060200190929190505050611a57565b005b3480156106c157600080fd5b50610700600480360381019080803573ffffffffffffffffffffffffffffffffffffffff16906020019092919080359060200190929190505050611ed7565b60405180826000191660001916815260200191505060405180910390f35b6000816000806000836000191660001916815260200190815260200160002060040154141515156107b7576040517f08c379a000000000000000000000000000000000000000000000000000000000815260040180806020018281038252601b8152602001807f5472616e73616374696f6e20646f6573206e6f7420657869737473000000000081525060200191505060405180910390fd5b82600060018111156107c557fe5b600080836000191660001916815260200190815260200160002060050160009054906101000a900460ff1660018111156107fb57fe5b141515610896576040517f08c379a00000000000000000000000000000000000000000000000000000000081526004018080602001828103825260328152602001807f5472616e73616374696f6e2069732065697468657220696e206469737075746581526020017f206f722072656c6561736564207374617465000000000000000000000000000081525060400191505060405180910390fd5b8360008060018111156108a557fe5b6000808460001916600019168152602001908152602001600020600b0160009054906101000a900460ff1660018111156108db57fe5b1415156108e757600080fd5b85600080826000191660001916815260200190815260200160002060010160009054906101000a900473ffffffffffffffffffffffffffffffffffffffff1673ffffffffffffffffffffffffffffffffffffffff163373ffffffffffffffffffffffffffffffffffffffff161415156109ee576040517f08c379a000000000000000000000000000000000000000000000000000000000815260040180806020018281038252602d8152602001807f54686520696e69746961746f72206f6620746865207472616e73616374696f6e81526020017f206973206e6f742062757965720000000000000000000000000000000000000081525060400191505060405180910390fd5b349550600086111515610a0057600080fd5b610a30866000808a6000191660001916815260200190815260200160002060040154611f0790919063ffffffff16565b600080896000191660001916815260200190815260200160002060040181905550426000808960001916600019168152602001908152602001600020600701819055503373ffffffffffffffffffffffffffffffffffffffff167ff66fd2ae9e24a6a24b02e1b5b7512ffde5149a4176085fc0298ae228c9b9d72988886040518083600019166000191681526020018281526020019250505060405180910390a250505050505050565b60006020528060005260406000206000915090508060000154908060010160009054906101000a900473ffffffffffffffffffffffffffffffffffffffff16908060020160009054906101000a900473ffffffffffffffffffffffffffffffffffffffff16908060040154908060050160009054906101000a900460ff1690806006018054600181600116156101000203166002900480601f016020809104026020016040519081016040528092919081815260200182805460018160011615610100020316600290048015610bf15780601f10610bc657610100808354040283529160200191610bf1565b820191906000526020600020905b815481529060010190602001808311610bd457829003601f168201915b5050505050908060070154908060080160009054906101000a900463ffffffff16908060080160049054906101000a900460ff169080600b0160009054906101000a900460ff169080600b0160019054906101000a900473ffffffffffffffffffffffffffffffffffffffff1690508b565b60008083600080600083600019166000191681526020019081526020016000206004015414151515610cfd576040517f08c379a000000000000000000000000000000000000000000000000000000000815260040180806020018281038252601b8152602001807f5472616e73616374696f6e20646f6573206e6f7420657869737473000000000081525060200191505060405180910390fd5b8460006001811115610d0b57fe5b600080836000191660001916815260200190815260200160002060050160009054906101000a900460ff166001811115610d4157fe5b141515610ddc576040517f08c379a00000000000000000000000000000000000000000000000000000000081526004018080602001828103825260328152602001807f5472616e73616374696f6e2069732065697468657220696e206469737075746581526020017f206f722072656c6561736564207374617465000000000000000000000000000081525060400191505060405180910390fd5b856001806001811115610deb57fe5b6000808460001916600019168152602001908152602001600020600b0160009054906101000a900460ff166001811115610e2157fe5b141515610e2d57600080fd5b87600080826000191660001916815260200190815260200160002060010160009054906101000a900473ffffffffffffffffffffffffffffffffffffffff1673ffffffffffffffffffffffffffffffffffffffff163373ffffffffffffffffffffffffffffffffffffffff16141515610f34576040517f08c379a000000000000000000000000000000000000000000000000000000000815260040180806020018281038252602d8152602001807f54686520696e69746961746f72206f6620746865207472616e73616374696f6e81526020017f206973206e6f742062757965720000000000000000000000000000000000000081525060400191505060405180910390fd5b879650600087111515610f4657600080fd5b6000808a60001916600019168152602001908152602001600020600b0160019054906101000a900473ffffffffffffffffffffffffffffffffffffffff1695508573ffffffffffffffffffffffffffffffffffffffff166323b872dd6000808c6000191660001916815260200190815260200160002060010160009054906101000a900473ffffffffffffffffffffffffffffffffffffffff16308b6040518463ffffffff167c0100000000000000000000000000000000000000000000000000000000028152600401808473ffffffffffffffffffffffffffffffffffffffff1673ffffffffffffffffffffffffffffffffffffffff1681526020018373ffffffffffffffffffffffffffffffffffffffff1673ffffffffffffffffffffffffffffffffffffffff1681526020018281526020019350505050602060405180830381600087803b15801561109a57600080fd5b505af11580156110ae573d6000803e3d6000fd5b505050506040513d60208110156110c457600080fd5b81019080805190602001909291905050501515611195576040517f08c379a000000000000000000000000000000000000000000000000000000000815260040180806020018281038252605c8152602001807f546f6b656e207472616e73666572206661696c65642c206d6179626520796f7581526020017f20646964206e6f7420617070726f766520657363726f7720636f6e747261637481526020017f20746f207370656e64206f6e20626568616c66206f662062757965720000000081525060600191505060405180910390fd5b6111c5876000808c6000191660001916815260200190815260200160002060040154611f0790919063ffffffff16565b6000808b6000191660001916815260200190815260200160002060040181905550426000808b60001916600019168152602001908152602001600020600701819055503373ffffffffffffffffffffffffffffffffffffffff167ff66fd2ae9e24a6a24b02e1b5b7512ffde5149a4176085fc0298ae228c9b9d7298a896040518083600019166000191681526020018281526020019250505060405180910390a2505050505050505050565b60015481565b80600080600083600019166000191681526020019081526020016000206004015414151561130d576040517f08c379a00000000000000000000000000000000000000000000000000000000081526004018080602001828103825260128152602001807f5472616e73616374696f6e20657869737473000000000000000000000000000081525060200191505060405180910390fd5b86600073ffffffffffffffffffffffffffffffffffffffff168173ffffffffffffffffffffffffffffffffffffffff16141515156113b3576040517f08c379a00000000000000000000000000000000000000000000000000000000081526004018080602001828103825260138152602001807f5a65726f2061646472657373207061737365640000000000000000000000000081525060200191505060405180910390fd5b86600073ffffffffffffffffffffffffffffffffffffffff168173ffffffffffffffffffffffffffffffffffffffff1614151515611459576040517f08c379a00000000000000000000000000000000000000000000000000000000081526004018080602001828103825260138152602001807f5a65726f2061646472657373207061737365640000000000000000000000000081525060200191505060405180910390fd5b61146b89898989898934600080611f23565b505050505050505050565b6060600260008373ffffffffffffffffffffffffffffffffffffffff1673ffffffffffffffffffffffffffffffffffffffff16815260200190815260200160002080548060200260200160405190810160405280929190818152602001828054801561150557602002820191906000526020600020905b815460001916815260200190600101908083116114ed575b50505050509050919050565b6000806000806000886000806000836000191660001916815260200190815260200160002060040154141515156115b0576040517f08c379a000000000000000000000000000000000000000000000000000000000815260040180806020018281038252601b8152602001807f5472616e73616374696f6e20646f6573206e6f7420657869737473000000000081525060200191505060405180910390fd5b89600060018111156115be57fe5b600080836000191660001916815260200190815260200160002060050160009054906101000a900460ff1660018111156115f457fe5b14151561168f576040517f08c379a00000000000000000000000000000000000000000000000000000000081526004018080602001828103825260328152602001807f5472616e73616374696f6e2069732065697468657220696e206469737075746581526020017f206f722072656c6561736564207374617465000000000000000000000000000081525060400191505060405180910390fd5b600089511180156116a1575087518951145b15156116ac57600080fd5b6000808c6000191660001916815260200190815260200160002096506116d28b8b612843565b955085600019168b60001916141515611779576040517f08c379a00000000000000000000000000000000000000000000000000000000081526004018080602001828103825260388152602001807f43616c63756c6174656420736372697074206861736820646f6573206e6f742081526020017f6d6174636820706173736564207363726970742068617368000000000000000081525060400191505060405180910390fd5b6117878e8e8e8e8d8d612eaa565b94506117ab8760080160009054906101000a900463ffffffff1688600701546134b2565b93508660080160049054906101000a900460ff1660ff168e511080156117cf575083155b156117d957600080fd5b60018e511480156117e75750835b801561184357508660020160009054906101000a900473ffffffffffffffffffffffffffffffffffffffff1673ffffffffffffffffffffffffffffffffffffffff168573ffffffffffffffffffffffffffffffffffffffff1614155b1561184d57600080fd5b8660080160049054906101000a900460ff1660ff168e51101561186f57600080fd5b60016000808d6000191660001916815260200190815260200160002060050160006101000a81548160ff021916908360018111156118a957fe5b02179055506118b98b8a8a613506565b92506000808c60001916600019168152602001908152602001600020600401548311151515611976576040517f08c379a000000000000000000000000000000000000000000000000000000000815260040180806020018281038252603c8152602001807f546f74616c2076616c756520746f2062652073656e742069732067726561746581526020017f72207468616e20746865207472616e73616374696f6e2076616c75650000000081525060400191505060405180910390fd5b7f688e2a1b34445bcd47b0e11ba2a9c8c4d850a1831b64199b59d1c70e297015458b8a8a6040518084600019166000191681526020018060200180602001838103835285818151815260200191508051906020019060200280838360005b838110156119ef5780820151818401526020810190506119d4565b50505050905001838103825284818151815260200191508051906020019060200280838360005b83811015611a31578082015181840152602081019050611a16565b505050509050019550505050505060405180910390a15050505050505050505050505050565b6000836000806000836000191660001916815260200190815260200160002060040154141515611aef576040517f08c379a00000000000000000000000000000000000000000000000000000000081526004018080602001828103825260128152602001807f5472616e73616374696f6e20657869737473000000000000000000000000000081525060200191505060405180910390fd5b89600073ffffffffffffffffffffffffffffffffffffffff168173ffffffffffffffffffffffffffffffffffffffff1614151515611b95576040517f08c379a00000000000000000000000000000000000000000000000000000000081526004018080602001828103825260138152602001807f5a65726f2061646472657373207061737365640000000000000000000000000081525060200191505060405180910390fd5b89600073ffffffffffffffffffffffffffffffffffffffff168173ffffffffffffffffffffffffffffffffffffffff1614151515611c3b576040517f08c379a00000000000000000000000000000000000000000000000000000000081526004018080602001828103825260138152602001807f5a65726f2061646472657373207061737365640000000000000000000000000081525060200191505060405180910390fd5b84600073ffffffffffffffffffffffffffffffffffffffff168173ffffffffffffffffffffffffffffffffffffffff1614151515611ce1576040517f08c379a00000000000000000000000000000000000000000000000000000000081526004018080602001828103825260138152602001807f5a65726f2061646472657373207061737365640000000000000000000000000081525060200191505060405180910390fd5b8594508473ffffffffffffffffffffffffffffffffffffffff166323b872dd33308a6040518463ffffffff167c0100000000000000000000000000000000000000000000000000000000028152600401808473ffffffffffffffffffffffffffffffffffffffff1673ffffffffffffffffffffffffffffffffffffffff1681526020018373ffffffffffffffffffffffffffffffffffffffff1673ffffffffffffffffffffffffffffffffffffffff1681526020018281526020019350505050602060405180830381600087803b158015611dbb57600080fd5b505af1158015611dcf573d6000803e3d6000fd5b505050506040513d6020811015611de557600080fd5b81019080805190602001909291905050501515611eb6576040517f08c379a000000000000000000000000000000000000000000000000000000000815260040180806020018281038252605c8152602001807f546f6b656e207472616e73666572206661696c65642c206d6179626520796f7581526020017f20646964206e6f7420617070726f766520657363726f7720636f6e747261637481526020017f20746f207370656e64206f6e20626568616c66206f662062757965720000000081525060600191505060405180910390fd5b611ec88d8d8d8d8d8d8d60018e611f23565b50505050505050505050505050565b600260205281600052604060002081815481101515611ef257fe5b90600052602060002001600091509150505481565b60008183019050828110151515611f1a57fe5b80905092915050565b6000808491508973ffffffffffffffffffffffffffffffffffffffff168b73ffffffffffffffffffffffffffffffffffffffff1614151515611fcd576040517f08c379a00000000000000000000000000000000000000000000000000000000081526004018080602001828103825260198152602001807f427579657220616e642073656c6c6572206172652073616d650000000000000081525060200191505060405180910390fd5b600082111515612045576040517f08c379a00000000000000000000000000000000000000000000000000000000081526004018080602001828103825260118152602001807f56616c756520706173736564206973203000000000000000000000000000000081525060200191505060405180910390fd5b60028951018860ff16111515156120ea576040517f08c379a00000000000000000000000000000000000000000000000000000000081526004018080602001828103825260268152602001807f5468726573686f6c642069732067726561746572207468616e20746f74616c2081526020017f6f776e657273000000000000000000000000000000000000000000000000000081525060400191505060405180910390fd5b61018060405190810160405280876000191681526020018c73ffffffffffffffffffffffffffffffffffffffff1681526020018b73ffffffffffffffffffffffffffffffffffffffff1681526020018a81526020018381526020016000600181111561215257fe5b8152602001602060405190810160405280600081525081526020014281526020018863ffffffff1681526020018960ff16815260200185600181111561219457fe5b81526020018473ffffffffffffffffffffffffffffffffffffffff1681525060008088600019166000191681526020019081526020016000206000820151816000019060001916905560208201518160010160006101000a81548173ffffffffffffffffffffffffffffffffffffffff021916908373ffffffffffffffffffffffffffffffffffffffff16021790555060408201518160020160006101000a81548173ffffffffffffffffffffffffffffffffffffffff021916908373ffffffffffffffffffffffffffffffffffffffff1602179055506060820151816003019080519060200190612287929190613c1e565b506080820151816004015560a08201518160050160006101000a81548160ff021916908360018111156122b657fe5b021790555060c08201518160060190805190602001906122d7929190613ca8565b5060e082015181600701556101008201518160080160006101000a81548163ffffffff021916908363ffffffff1602179055506101208201518160080160046101000a81548160ff021916908360ff16021790555061014082015181600b0160006101000a81548160ff0219169083600181111561235157fe5b021790555061016082015181600b0160016101000a81548173ffffffffffffffffffffffffffffffffffffffff021916908373ffffffffffffffffffffffffffffffffffffffff1602179055509050506001600080886000191660001916815260200190815260200160002060090160008c73ffffffffffffffffffffffffffffffffffffffff1673ffffffffffffffffffffffffffffffffffffffff16815260200190815260200160002060006101000a81548160ff0219169083151502179055506001600080886000191660001916815260200190815260200160002060090160008d73ffffffffffffffffffffffffffffffffffffffff1673ffffffffffffffffffffffffffffffffffffffff16815260200190815260200160002060006101000a81548160ff021916908315150217905550600090505b88518160ff1610156126e857600073ffffffffffffffffffffffffffffffffffffffff16898260ff168151811015156124c157fe5b9060200190602002015173ffffffffffffffffffffffffffffffffffffffff1614151515612557576040517f08c379a00000000000000000000000000000000000000000000000000000000081526004018080602001828103825260138152602001807f5a65726f2061646472657373207061737365640000000000000000000000000081525060200191505060405180910390fd5b600080876000191660001916815260200190815260200160002060090160008a8360ff1681518110151561258757fe5b9060200190602002015173ffffffffffffffffffffffffffffffffffffffff1673ffffffffffffffffffffffffffffffffffffffff16815260200190815260200160002060009054906101000a900460ff1615151561264e576040517f08c379a000000000000000000000000000000000000000000000000000000000815260040180806020018281038252601b8152602001807f4d6f64657261746f7220697320626569676e207265706561746564000000000081525060200191505060405180910390fd5b6001600080886000191660001916815260200190815260200160002060090160008b8460ff1681518110151561268057fe5b9060200190602002015173ffffffffffffffffffffffffffffffffffffffff1673ffffffffffffffffffffffffffffffffffffffff16815260200190815260200160002060006101000a81548160ff021916908315150217905550808060010191505061248c565b600160008154809291906001019190505550600260008c73ffffffffffffffffffffffffffffffffffffffff1673ffffffffffffffffffffffffffffffffffffffff168152602001908152602001600020869080600181540180825580915050906001820390600052602060002001600090919290919091509060001916905550600260008b73ffffffffffffffffffffffffffffffffffffffff1673ffffffffffffffffffffffffffffffffffffffff1681526020019081526020016000208690806001815401808255809150509060018203906000526020600020016000909192909190915090600019169055503373ffffffffffffffffffffffffffffffffffffffff167fce7089d0668849fb9ca29778c0cbf1e764d9efb048d81fd71fb34c94f26db36887846040518083600019166000191681526020018281526020019250505060405180910390a25050505050505050505050565b600080600080856000191660001916815260200190815260200160002090506000600181111561286f57fe5b81600b0160009054906101000a900460ff16600181111561288c57fe5b1415612b5157828160080160049054906101000a900460ff168260080160009054906101000a900463ffffffff168360010160009054906101000a900473ffffffffffffffffffffffffffffffffffffffff168460020160009054906101000a900473ffffffffffffffffffffffffffffffffffffffff1685600301600081548110151561291657fe5b9060005260206000200160009054906101000a900473ffffffffffffffffffffffffffffffffffffffff163060405160200180886bffffffffffffffffffffffff19166bffffffffffffffffffffffff191681526014018760ff1660ff167f01000000000000000000000000000000000000000000000000000000000000000281526001018663ffffffff1663ffffffff167c01000000000000000000000000000000000000000000000000000000000281526004018573ffffffffffffffffffffffffffffffffffffffff1673ffffffffffffffffffffffffffffffffffffffff166c010000000000000000000000000281526014018473ffffffffffffffffffffffffffffffffffffffff1673ffffffffffffffffffffffffffffffffffffffff166c010000000000000000000000000281526014018373ffffffffffffffffffffffffffffffffffffffff1673ffffffffffffffffffffffffffffffffffffffff166c010000000000000000000000000281526014018273ffffffffffffffffffffffffffffffffffffffff1673ffffffffffffffffffffffffffffffffffffffff166c010000000000000000000000000281526014019750505050505050506040516020818303038152906040526040518082805190602001908083835b602083101515612b1d5780518252602082019150602081019050602083039250612af8565b6001836020036101000a03801982511681845116808217855250505050505090500191505060405180910390209150612ea3565b600180811115612b5d57fe5b81600b0160009054906101000a900460ff166001811115612b7a57fe5b1415612ea257828160080160049054906101000a900460ff168260080160009054906101000a900463ffffffff168360010160009054906101000a900473ffffffffffffffffffffffffffffffffffffffff168460020160009054906101000a900473ffffffffffffffffffffffffffffffffffffffff16856003016000815481101515612c0457fe5b9060005260206000200160009054906101000a900473ffffffffffffffffffffffffffffffffffffffff163087600b0160019054906101000a900473ffffffffffffffffffffffffffffffffffffffff1660405160200180896bffffffffffffffffffffffff19166bffffffffffffffffffffffff191681526014018860ff1660ff167f01000000000000000000000000000000000000000000000000000000000000000281526001018763ffffffff1663ffffffff167c01000000000000000000000000000000000000000000000000000000000281526004018673ffffffffffffffffffffffffffffffffffffffff1673ffffffffffffffffffffffffffffffffffffffff166c010000000000000000000000000281526014018573ffffffffffffffffffffffffffffffffffffffff1673ffffffffffffffffffffffffffffffffffffffff166c010000000000000000000000000281526014018473ffffffffffffffffffffffffffffffffffffffff1673ffffffffffffffffffffffffffffffffffffffff166c010000000000000000000000000281526014018373ffffffffffffffffffffffffffffffffffffffff1673ffffffffffffffffffffffffffffffffffffffff166c010000000000000000000000000281526014018273ffffffffffffffffffffffffffffffffffffffff1673ffffffffffffffffffffffffffffffffffffffff166c01000000000000000000000000028152601401985050505050505050506040516020818303038152906040526040518082805190602001908083835b602083101515612e725780518252602082019150602081019050602083039250612e4d565b6001836020036101000a038019825116818451168082178552505050505050905001915050604051809103902091505b5b5092915050565b60008060008087518951148015612ec2575089518951145b1515612ecd57600080fd5b60197f01000000000000000000000000000000000000000000000000000000000000000260007f0100000000000000000000000000000000000000000000000000000000000000023088888b60405160200180877effffffffffffffffffffffffffffffffffffffffffffffffffffffffffffff19167effffffffffffffffffffffffffffffffffffffffffffffffffffffffffffff19168152600101867effffffffffffffffffffffffffffffffffffffffffffffffffffffffffffff19167effffffffffffffffffffffffffffffffffffffffffffffffffffffffffffff191681526001018573ffffffffffffffffffffffffffffffffffffffff1673ffffffffffffffffffffffffffffffffffffffff166c01000000000000000000000000028152601401848051906020019060200280838360005b83811015613021578082015181840152602081019050613006565b50505050905001838051906020019060200280838360005b83811015613054578082015181840152602081019050613039565b50505050905001826000191660001916815260200196505050505050506040516020818303038152906040526040518082805190602001908083835b6020831015156130b55780518252602082019150602081019050602083039250613090565b6001836020036101000a038019825116818451168082178552505050505050905001915050604051809103902060405160200180807f19457468657265756d205369676e6564204d6573736167653a0a333200000000815250601c0182600019166000191681526020019150506040516020818303038152906040526040518082805190602001908083835b6020831015156131665780518252602082019150602081019050602083039250613141565b6001836020036101000a03801982511681845116808217855250505050505090500191505060405180910390209250600091505b88518210156134a5576001838b848151811015156131b457fe5b906020019060200201518b858151811015156131cc57fe5b906020019060200201518b868151811015156131e457fe5b90602001906020020151604051600081526020016040526040518085600019166000191681526020018460ff1660ff168152602001836000191660001916815260200182600019166000191681526020019450505050506020604051602081039080840390855afa15801561325d573d6000803e3d6000fd5b505050602060405103519050600080886000191660001916815260200190815260200160002060090160008273ffffffffffffffffffffffffffffffffffffffff1673ffffffffffffffffffffffffffffffffffffffff16815260200190815260200160002060009054906101000a900460ff161515613345576040517f08c379a00000000000000000000000000000000000000000000000000000000081526004018080602001828103825260118152602001807f496e76616c6964207369676e617475726500000000000000000000000000000081525060200191505060405180910390fd5b6000808860001916600019168152602001908152602001600020600a0160008273ffffffffffffffffffffffffffffffffffffffff1673ffffffffffffffffffffffffffffffffffffffff16815260200190815260200160002060009054906101000a900460ff16151515613422576040517f08c379a00000000000000000000000000000000000000000000000000000000081526004018080602001828103825260198152602001807f53616d65207369676e61747572652073656e742074776963650000000000000081525060200191505060405180910390fd5b60016000808960001916600019168152602001908152602001600020600a0160008373ffffffffffffffffffffffffffffffffffffffff1673ffffffffffffffffffffffffffffffffffffffff16815260200190815260200160002060006101000a81548160ff021916908315150217905550809350818060010192505061319a565b5050509695505050505050565b6000806134c88342613bcd90919063ffffffff16565b905060008463ffffffff16146134fa576134f3610e108563ffffffff16613be690919063ffffffff16565b81116134fd565b60005b91505092915050565b6000806000806000806000896000191660001916815260200190815260200160002093506000600181111561353757fe5b84600b0160009054906101000a900460ff16600181111561355457fe5b141561380f57600092505b86518360ff16101561380a57600073ffffffffffffffffffffffffffffffffffffffff16878460ff1681518110151561359457fe5b9060200190602002015173ffffffffffffffffffffffffffffffffffffffff16141580156136275750836009016000888560ff168151811015156135d457fe5b9060200190602002015173ffffffffffffffffffffffffffffffffffffffff1673ffffffffffffffffffffffffffffffffffffffff16815260200190815260200160002060009054906101000a900460ff165b151561369b576040517f08c379a00000000000000000000000000000000000000000000000000000000081526004018080602001828103825260178152602001807f4e6f7420612076616c69642064657374696e6174696f6e00000000000000000081525060200191505060405180910390fd5b6000868460ff168151811015156136ae57fe5b90602001906020020151111515613753576040517f08c379a000000000000000000000000000000000000000000000000000000000815260040180806020018281038252602a8152602001807f416d6f756e7420746f2062652073656e742073686f756c64206265206772656181526020017f746572207468616e20300000000000000000000000000000000000000000000081525060400191505060405180910390fd5b613780868460ff1681518110151561376757fe5b9060200190602002015186611f0790919063ffffffff16565b9450868360ff1681518110151561379357fe5b9060200190602002015173ffffffffffffffffffffffffffffffffffffffff166108fc878560ff168151811015156137c757fe5b906020019060200201519081150290604051600060405180830381858888f193505050501580156137fc573d6000803e3d6000fd5b50828060010193505061355f565b613bc2565b60018081111561381b57fe5b84600b0160009054906101000a900460ff16600181111561383857fe5b1415613bbc5783600b0160019054906101000a900473ffffffffffffffffffffffffffffffffffffffff169150600090505b86518160ff161015613bb757600073ffffffffffffffffffffffffffffffffffffffff16878260ff1681518110151561389f57fe5b9060200190602002015173ffffffffffffffffffffffffffffffffffffffff16141580156139325750836009016000888360ff168151811015156138df57fe5b9060200190602002015173ffffffffffffffffffffffffffffffffffffffff1673ffffffffffffffffffffffffffffffffffffffff16815260200190815260200160002060009054906101000a900460ff165b15156139a6576040517f08c379a00000000000000000000000000000000000000000000000000000000081526004018080602001828103825260178152602001807f4e6f7420612076616c69642064657374696e6174696f6e00000000000000000081525060200191505060405180910390fd5b6000868260ff168151811015156139b957fe5b90602001906020020151111515613a5e576040517f08c379a000000000000000000000000000000000000000000000000000000000815260040180806020018281038252602a8152602001807f416d6f756e7420746f2062652073656e742073686f756c64206265206772656181526020017f746572207468616e20300000000000000000000000000000000000000000000081525060400191505060405180910390fd5b613a8b868260ff16815181101515613a7257fe5b9060200190602002015186611f0790919063ffffffff16565b94508173ffffffffffffffffffffffffffffffffffffffff1663a9059cbb888360ff16815181101515613aba57fe5b90602001906020020151888460ff16815181101515613ad557fe5b906020019060200201516040518363ffffffff167c0100000000000000000000000000000000000000000000000000000000028152600401808373ffffffffffffffffffffffffffffffffffffffff1673ffffffffffffffffffffffffffffffffffffffff16815260200182815260200192505050602060405180830381600087803b158015613b6457600080fd5b505af1158015613b78573d6000803e3d6000fd5b505050506040513d6020811015613b8e57600080fd5b81019080805190602001909291905050501515613baa57600080fd5b808060010191505061386a565b613bc1565b600080fd5b5b505050509392505050565b6000828211151515613bdb57fe5b818303905092915050565b600080831415613bf95760009050613c18565b8183029050818382811515613c0a57fe5b04141515613c1457fe5b8090505b92915050565b828054828255906000526020600020908101928215613c97579160200282015b82811115613c965782518260006101000a81548173ffffffffffffffffffffffffffffffffffffffff021916908373ffffffffffffffffffffffffffffffffffffffff16021790555091602001919060010190613c3e565b5b509050613ca49190613d28565b5090565b828054600181600116156101000203166002900490600052602060002090601f016020900481019282601f10613ce957805160ff1916838001178555613d17565b82800160010185558215613d17579182015b82811115613d16578251825591602001919060010190613cfb565b5b509050613d249190613d6b565b5090565b613d6891905b80821115613d6457600081816101000a81549073ffffffffffffffffffffffffffffffffffffffff021916905550600101613d2e565b5090565b90565b613d8d91905b80821115613d89576000816000905550600101613d71565b5090565b905600a165627a7a723058204e83a74ecd501878d09f790273eccdf9168f5f61e106ce088f9c9706384aeedd0029",
  "source": "pragma solidity 0.4.24;\npragma experimental \"v0.5.0\";\n\nimport \"openzeppelin-solidity/contracts/math/SafeMath.sol\";\n\nimport \"../token/ITokenContract.sol\";\n\n/**\n* @dev Supports ERC20 tokens\n* The escrow smart contract for the open bazaar trades in Ethereum\n* The smart contract is desgined keeping in mind the current wallet interface of the OB-core\n* https://github.com/OpenBazaar/wallet-interface/blob/master/wallet.go\n* Current wallet interface strictly adheres to UTXO(bitcoin) model\n*/\ncontract Escrow_v1_0 {\n    \n    using SafeMath for uint256;\n    \n    enum Status {FUNDED, RELEASED}\n\n    enum TransactionType {ETHER, TOKEN}\n                       \n    event Executed(bytes32 scriptHash, address[] destinations, uint256[] amounts);\n    \n    event FundAdded(bytes32 scriptHash, address indexed from, uint256 valueAdded);\n\n    event Funded(bytes32 scriptHash, address indexed from, uint256 value);\n\n    struct Transaction {\n        bytes32 scriptHash;//This is unique indentifier for a transaction\n        address buyer;\n        address seller;\n        address[] moderators;\n        uint256 value;\n        Status status;\n        string ipfsHash;\n        uint256 lastFunded;//Time at which transaction was last funded\n        uint32 timeoutHours;\n        uint8 threshold;\n        mapping(address=>bool) isOwner;//to keep track of owners/signers. \n        mapping(address=>bool) voted;//to keep track of who all voted\n        TransactionType transactionType;\n        address tokenAddress;// Token address in case of token transfer\n\n    }\n\n    mapping(bytes32 => Transaction) public transactions;\n \n    uint256 public transactionCount = 0;\n\n    mapping(address => bytes32[])public partyVsTransaction;//Contains mapping between each party and all of his transactions\n\n \n    modifier transactionExists(bytes32 scriptHash) {\n        require(transactions[scriptHash].value != 0, \"Transaction does not exists\");\n        _;\n    }\n\n    modifier transactionDoesNotExists (bytes32 scriptHash) {\n        require(transactions[scriptHash].value == 0, \"Transaction exists\");\n        _;\n    }\n \n    modifier inFundedState(bytes32 scriptHash) {\n        require(transactions[scriptHash].status == Status.FUNDED, \"Transaction is either in dispute or released state\");\n        _;\n    }\n\n    modifier nonZeroAddress(address _address) {\n        require(_address != address(0), \"Zero address passed\");\n        _;\n    }\n\n    modifier checkTransactionType(bytes32 scriptHash, TransactionType transactionType) {\n        require(transactions[scriptHash].transactionType == transactionType);\n        _;\n    }\n\n    modifier onlyBuyer(bytes32 scriptHash) {\n        require(msg.sender == transactions[scriptHash].buyer, \"The initiator of the transaction is not buyer\");\n        _;\n    }\n    \n    /** \n    *@dev Add new transaction in the contract\n    *@param _buyer The buyer of the transaction\n    *@param _seller The seller of the listing associated with the transaction\n    *@param _moderators List of moderators for this transaction. For now only single moderator\n    *@param scriptHash keccak256 hash of the redeem script\n    *@param threshold Minimum number of singatures required to released funds\n    *@param timeoutHours Hours after which seller can release funds into his favour by signing transaction\n    *Redeem Script format will be following\n    <uniqueId: 20><threshold:1><timeoutHours:4><buyer:20><seller:20><moderator:20><multisigAddress:20>\n    * scripthash-> keccak256(uniqueId, threshold, timeoutHours, buyer, seller, moderator)\n    *Pass amount of the ethers to be put in escrow\n    *Please keep in mind you will have to add moderators fees also in the value\n    */\n    function addTransaction(address _buyer, address _seller, address[] _moderators, uint8 threshold, uint32 timeoutHours, bytes32 scriptHash)\n    public payable transactionDoesNotExists(scriptHash) nonZeroAddress(_buyer) nonZeroAddress(_seller){\n\n        addTransactionInternal(_buyer, _seller, _moderators, threshold, timeoutHours, scriptHash, msg.value, TransactionType.ETHER, address(0));\n       \n        \n    }\n    \n     /** \n    *@dev Add new transaction in the contract\n    *@param _buyer The buyer of the transaction\n    *@param _seller The seller of the listing associated with the transaction\n    *@param _moderators List of moderators for this transaction. For now only single moderator\n    *@param scriptHash keccak256 hash of the redeem script\n    *@param threshold Minimum number of singatures required to released funds\n    *@param timeoutHours Hours after which seller can release funds into his favour by signing transaction\n    *@param value Amount of tokens to be put in escrow\n    *@param _tokenAddress Address of the token to be used\n    *Redeem Script format will be following\n    <uniqueId: 20><threshold:1><timeoutHours:4><buyer:20><seller:20><moderator:20><multisigAddress:20><tokenAddress:20>\n    * scripthash-> keccak256(uniqueId, threshold, timeoutHours, buyer, seller, moderator, tokenAddress)\n    *approve escrow contract to spend amount of token on your behalf\n    *Please keep in mind you will have to add moderators fees also in the value\n    */\n    function addTokenTransaction(address _buyer, address _seller, address[] _moderators, uint8 threshold, \n        uint32 timeoutHours, bytes32 scriptHash, uint256 value, address _tokenAddress)public  transactionDoesNotExists(scriptHash) nonZeroAddress(_buyer) nonZeroAddress(_seller) nonZeroAddress(_tokenAddress){\n        \n        ITokenContract token = ITokenContract(_tokenAddress);\n\n        require(token.transferFrom(msg.sender, this, value), \"Token transfer failed, maybe you did not approve escrow contract to spend on behalf of buyer\");\n\n        addTransactionInternal(_buyer, _seller, _moderators, threshold, timeoutHours, scriptHash, value, TransactionType.TOKEN, _tokenAddress);\n       \n        \n    }\n\n    /** \n    * Internal method to add transaction to reduce code redundancy\n    */\n    function addTransactionInternal(address _buyer, address _seller, address[] _moderators, uint8 threshold, \n        uint32 timeoutHours, bytes32 scriptHash, uint256 value, TransactionType _transactionType, address _tokenAddress)internal {\n        \n        uint256 _value = value;\n\n        require(_buyer != _seller, \"Buyer and seller are same\");\n\n        //value passed should be greater than 0\n        require(_value>0, \"Value passed is 0\");\n        \n        // For now allowing 0 moderators to support 1-2 multisig wallet\n        //require(_moderators.length>0,\"There should be atleast 1 moderator\");//TODO- What to do in case of 1-2 multi sig transaction\n\n        require(threshold <= _moderators.length + 2, \"Threshold is greater than total owners\");\n\n    \n        transactions[scriptHash] = Transaction({\n                \n            buyer: _buyer,\n        \n            seller: _seller,\n        \n            moderators: _moderators,\n        \n            value: _value,\n        \n            status: Status.FUNDED,\n                \n            ipfsHash: \"\",\n\n            lastFunded: block.timestamp,\n\n            scriptHash: scriptHash,\n\n            threshold: threshold,\n\n            timeoutHours: timeoutHours,\n            \n            transactionType:_transactionType,\n\n            tokenAddress:_tokenAddress\n\n\n                        \n        });\n\n        transactions[scriptHash].isOwner[_seller] = true;\n        transactions[scriptHash].isOwner[_buyer] = true;\n\n        \n        for(uint8 i=0;i<_moderators.length; i++){\n            \n            require(_moderators[i] != address(0), \"Zero address passed\");\n            require(!transactions[scriptHash].isOwner[_moderators[i]], \"Moderator is beign repeated\");//Check if same moderator is not passed twice in the list\n           \n            transactions[scriptHash].isOwner[_moderators[i]] = true;\n        }    \n\n        transactionCount++;\n\n        partyVsTransaction[_buyer].push(scriptHash);\n        partyVsTransaction[_seller].push(scriptHash);\n\n        emit Funded(scriptHash, msg.sender, _value);\n    }\n\n    /** \n    *@dev Allows buyer of the transaction to add more funds(ether) in the transaction. This will help to cater scenarios wherein initially buyer missed to fund transaction as required\n    *@param scriptHash script hash of the transaction\n    * Only buyer of the transaction can invoke this method\n    */\n    function addFundsToTransaction(bytes32 scriptHash)public transactionExists(scriptHash) inFundedState(scriptHash) checkTransactionType(scriptHash, TransactionType.ETHER) onlyBuyer(scriptHash) payable{\n \n        uint256 _value = msg.value;\n    \n        require(_value > 0);\n\n        transactions[scriptHash].value = transactions[scriptHash].value.add(_value);\n        transactions[scriptHash].lastFunded = block.timestamp;\n\n\n        emit FundAdded(scriptHash, msg.sender, _value);\n    }\n\n    /** \n    *@dev Allows buyer of the transaction to add more funds(Tokens) in the transaction. This will help to cater scenarios wherein initially buyer missed to fund transaction as required\n    *@param scriptHash script hash of the transaction\n    */\n    function addTokensToTransaction(bytes32 scriptHash, uint256 value)public transactionExists(scriptHash) inFundedState(scriptHash) checkTransactionType(scriptHash, TransactionType.TOKEN) onlyBuyer(scriptHash)payable{\n \n        uint256 _value = value;\n    \n        require(_value > 0);\n\n        ITokenContract token = ITokenContract(transactions[scriptHash].tokenAddress);\n\n        require(token.transferFrom(transactions[scriptHash].buyer, this, value), \"Token transfer failed, maybe you did not approve escrow contract to spend on behalf of buyer\");\n\n        transactions[scriptHash].value = transactions[scriptHash].value.add(_value);\n        transactions[scriptHash].lastFunded = block.timestamp;\n\n\n        emit FundAdded(scriptHash, msg.sender, _value);\n\n\n    }\n \n    /**\n    *@dev Allows one of the moderator to collect all the signature to solve dispute and submit it to this method.\n    * If all the required signatures are collected and consensus has been reached than funds will be released to the voted party\n    *@param sigV Array containing V component of all the signatures(signed by each moderator)\n    *@param sigR Array containing R component of all the signatures(signed by each moderator)\n    *@param signS Array containing S component of all the signature(signed by each moderator)\n    *@param scriptHash script hash of the transaction\n    *@param uniqueId bytes20 unique id for the transaction, generated by ETH wallet\n    *@param destinations address of the destination in whose favour dispute resolution is taking place. In case of split payments it will be address of the split payments contract\n    *@param amounts value to send to each destination\n    */  \n    function execute(uint8[] sigV, bytes32[] sigR, bytes32[] sigS, bytes32 scriptHash, bytes20 uniqueId, address[] destinations, uint256[] amounts) public  transactionExists(scriptHash) inFundedState(scriptHash){\n\n        require(destinations.length>0 && destinations.length == amounts.length);\n\n        Transaction storage t = transactions[scriptHash];\n\n        bytes32 calculatedScriptHash = calculateRdeemScriptHash(scriptHash, uniqueId);\n\n        require(scriptHash == calculatedScriptHash, \"Calculated script hash does not match passed script hash\");\n\n        address lastRecovered = verifySignatures(sigV, sigR, sigS, scriptHash, destinations, amounts);\n\n        bool timeLockExpired = isTimeLockExpired(t.timeoutHours, t.lastFunded);\n\n        //assumin threshold will always be greater than 1, else its not multisig\n        if(sigV.length < t.threshold && !timeLockExpired){\n            revert();\n        }else if(sigV.length == 1 && timeLockExpired && lastRecovered != t.seller){\n            revert();\n        }else if(sigV.length < t.threshold){\n            revert();\n        }\n           \n        transactions[scriptHash].status = Status.RELEASED;\n\n        uint256 totalValue = transferFunds(scriptHash, destinations, amounts);\n        \n        require(totalValue <= transactions[scriptHash].value, \"Total value to be sent is greater than the transaction value\");\n\n        emit Executed(scriptHash, destinations, amounts);       \n    }\n\n    /** \n    *@dev Internal method to transfer funds to the destination addresses on the basis of transaction type\n    */\n    function transferFunds(bytes32 scriptHash, address[]destinations, uint256[]amounts)internal returns(uint256 valueTransferred) {\n        Transaction storage t = transactions[scriptHash];\n\n        if(t.transactionType == TransactionType.ETHER){\n            for(uint8 i = 0; i<destinations.length; i++) {\n\n                require(destinations[i] != address(0) && t.isOwner[destinations[i]], \"Not a valid destination\");\n                require(amounts[i] > 0, \"Amount to be sent should be greater than 0\");\n\n                valueTransferred = valueTransferred.add(amounts[i]);\n\n                destinations[i].transfer(amounts[i]);//shall we use send instead of transfer to stop malicious actors from blocking funds?\n            }\n            \n        }else if(t.transactionType == TransactionType.TOKEN){\n\n            ITokenContract token = ITokenContract(t.tokenAddress);\n\n            for(uint8 i = 0; i<destinations.length; i++) {\n\n                require(destinations[i] != address(0) && t.isOwner[destinations[i]], \"Not a valid destination\");\n                require(amounts[i] > 0, \"Amount to be sent should be greater than 0\");\n\n                valueTransferred = valueTransferred.add(amounts[i]);\n\n                require(token.transfer(destinations[i], amounts[i]));\n            }\n        }else{\n            //transaction type is not supported. Ideally this state should never be reached\n            revert();\n        }\n    }\n\n    /** \n    *@dev Internal method for calculating script hash. Calculation will depend upon the type of transaction\n    * ETHER Type transaction-:\n    * Script Hash- keccak256(uniqueId, threshold, timeoutHours, buyer, seller, moderator)\n    * TOKEN Type transaction\n    * Script Hash- keccak256(uniqueId, threshold, timeoutHours, buyer, seller, moderator, tokenAddress)\n    */\n    function calculateRdeemScriptHash(bytes32 scriptHash, bytes20 uniqueId)internal view returns (bytes32 hash){\n        Transaction storage t = transactions[scriptHash];\n        if(t.transactionType == TransactionType.ETHER){\n            hash = keccak256(abi.encodePacked(uniqueId, t.threshold, t.timeoutHours, t.buyer, t.seller, t.moderators[0], this));\n\n        }\n        else if(t.transactionType == TransactionType.TOKEN){\n            hash = keccak256(abi.encodePacked(uniqueId, t.threshold, t.timeoutHours, t.buyer, t.seller, t.moderators[0], this, t.tokenAddress));\n        }\n    }\n    \n    //to check whether the signature are valid or not and if consensus was reached\n    //returns the last address recovered, in case of timeout this must be the sender's address\n    function verifySignatures(uint8[] sigV, bytes32[] sigR, bytes32[] sigS, bytes32 scriptHash, address[] destinations, uint256[]amounts)\n      private returns (address lastAddress){\n\n        require(sigR.length == sigS.length && sigR.length == sigV.length);\n\n        // Follows ERC191 signature scheme: https://github.com/ethereum/EIPs/issues/191\n        bytes32 txHash = keccak256(abi.encodePacked(\"\\x19Ethereum Signed Message:\\n32\", keccak256(abi.encodePacked(byte(0x19), byte(0), this, destinations, amounts, scriptHash))));\n        \n        for (uint i = 0; i < sigR.length; i++) {\n\n            address recovered = ecrecover(txHash, sigV[i], sigR[i], sigS[i]);\n\n            require(transactions[scriptHash].isOwner[recovered], \"Invalid signature\");\n            require(!transactions[scriptHash].voted[recovered], \"Same signature sent twice\");\n            transactions[scriptHash].voted[recovered] = true;\n            lastAddress = recovered;\n        \n        }\n\n    }\n\n    /** \n    *@dev Returns all transaction ids for a party\n    *@param _partyAddress Address of the party\n    */\n    function getAllTransactionsForParty(address _partyAddress)public view returns(bytes32[] scriptHashes) {\n\n        return partyVsTransaction[_partyAddress];\n    }\n\n\n    function isTimeLockExpired(uint32 timeoutHours, uint256 lastFunded)internal view returns(bool expired){\n        uint256 timeSince = now.sub(lastFunded);\n\n        expired = timeoutHours == 0?false:timeSince > uint256(timeoutHours).mul(3600);\n    }\n}\n\n",
  "sourcePath": "/home/sameep/freelancing-projects/toptal/open baazar/openbazaar-smart-contracts/publicReady/contracts/escrow/Escrow_v1_0.sol",
  "compiler": {
    "name": "solc",
    "version": "0.4.24+commit.e67f0147.Emscripten.clang"
  },
  "schemaVersion": "2.0.1",
  "updatedAt": "2018-08-09T10:08:09.557Z"
}