{
  "contractName": "OBRewards",
  "abi": [
    {
      "constant": true,
      "inputs": [
        {
          "name": "",
          "type": "address"
        }
      ],
      "name": "promotedSellers",
      "outputs": [
        {
          "name": "",
          "type": "bool"
        }
      ],
      "payable": false,
      "stateMutability": "view",
      "type": "function",
      "signature": "0x0d80149d"
    },
    {
      "constant": true,
      "inputs": [],
      "name": "maxRewardPerSeller",
      "outputs": [
        {
          "name": "",
          "type": "uint256"
        }
      ],
      "payable": false,
      "stateMutability": "view",
      "type": "function",
      "signature": "0x676c4771"
    },
    {
      "constant": true,
      "inputs": [],
      "name": "obToken",
      "outputs": [
        {
          "name": "",
          "type": "address"
        }
      ],
      "payable": false,
      "stateMutability": "view",
      "type": "function",
      "signature": "0x6a3467a5"
    },
    {
      "constant": false,
      "inputs": [],
      "name": "renounceOwnership",
      "outputs": [],
      "payable": false,
      "stateMutability": "nonpayable",
      "type": "function",
      "signature": "0x715018a6"
    },
    {
      "constant": true,
      "inputs": [],
      "name": "maxRewardToBuyerPerSeller",
      "outputs": [
        {
          "name": "",
          "type": "uint256"
        }
      ],
      "payable": false,
      "stateMutability": "view",
      "type": "function",
      "signature": "0x85788f6f"
    },
    {
      "constant": true,
      "inputs": [],
      "name": "owner",
      "outputs": [
        {
          "name": "",
          "type": "address"
        }
      ],
      "payable": false,
      "stateMutability": "view",
      "type": "function",
      "signature": "0x8da5cb5b"
    },
    {
      "constant": true,
      "inputs": [],
      "name": "isOwner",
      "outputs": [
        {
          "name": "",
          "type": "bool"
        }
      ],
      "payable": false,
      "stateMutability": "view",
      "type": "function",
      "signature": "0x8f32d59b"
    },
    {
      "constant": true,
      "inputs": [],
      "name": "endDate",
      "outputs": [
        {
          "name": "",
          "type": "uint256"
        }
      ],
      "payable": false,
      "stateMutability": "view",
      "type": "function",
      "signature": "0xc24a0f8b"
    },
    {
      "constant": true,
      "inputs": [],
      "name": "timeWindow",
      "outputs": [
        {
          "name": "",
          "type": "uint256"
        }
      ],
      "payable": false,
      "stateMutability": "view",
      "type": "function",
      "signature": "0xd2f343c7"
    },
    {
      "constant": true,
      "inputs": [],
      "name": "totalTokensDistributed",
      "outputs": [
        {
          "name": "",
          "type": "uint256"
        }
      ],
      "payable": false,
      "stateMutability": "view",
      "type": "function",
      "signature": "0xd8f163ab"
    },
    {
      "constant": true,
      "inputs": [],
      "name": "escrowContract",
      "outputs": [
        {
          "name": "",
          "type": "address"
        }
      ],
      "payable": false,
      "stateMutability": "view",
      "type": "function",
      "signature": "0xe42a96e7"
    },
    {
      "constant": false,
      "inputs": [
        {
          "name": "newOwner",
          "type": "address"
        }
      ],
      "name": "transferOwnership",
      "outputs": [],
      "payable": false,
      "stateMutability": "nonpayable",
      "type": "function",
      "signature": "0xf2fde38b"
    },
    {
      "constant": true,
      "inputs": [],
      "name": "rewardsOn",
      "outputs": [
        {
          "name": "",
          "type": "bool"
        }
      ],
      "payable": false,
      "stateMutability": "view",
      "type": "function",
      "signature": "0xf6c5aeb2"
    },
    {
      "inputs": [
        {
          "name": "_maxRewardPerSeller",
          "type": "uint256"
        },
        {
          "name": "_timeWindow",
          "type": "uint256"
        },
        {
          "name": "_escrowContractAddress",
          "type": "address"
        },
        {
          "name": "obTokenAddress",
          "type": "address"
        }
      ],
      "payable": false,
      "stateMutability": "nonpayable",
      "type": "constructor",
      "signature": "constructor"
    },
    {
      "anonymous": false,
      "inputs": [
        {
          "indexed": true,
          "name": "scriptHash",
          "type": "bytes32"
        },
        {
          "indexed": true,
          "name": "seller",
          "type": "address"
        },
        {
          "indexed": true,
          "name": "buyer",
          "type": "address"
        },
        {
          "indexed": false,
          "name": "amount",
          "type": "uint256"
        }
      ],
      "name": "SuccessfulClaim",
      "type": "event",
      "signature": "0xdb28ff209f2a631171420977162edbe85659d93149d92f69f81260675f546a3a"
    },
    {
      "anonymous": false,
      "inputs": [
        {
          "indexed": true,
          "name": "scriptHash",
          "type": "bytes32"
        },
        {
          "indexed": true,
          "name": "seller",
          "type": "address"
        },
        {
          "indexed": true,
          "name": "buyer",
          "type": "address"
        }
      ],
      "name": "UnsuccessfulClaim",
      "type": "event",
      "signature": "0xf939e9640bc0433f3e944a23fbb977ee3d326f2523da16c258cce16734a1c4cf"
    },
    {
      "anonymous": false,
      "inputs": [
        {
          "indexed": false,
          "name": "seller",
          "type": "address[]"
        }
      ],
      "name": "PromotedSellersAdded",
      "type": "event",
      "signature": "0xa61ea6f08d34b0cf93586736a7fdd8becfc2d5f8443cd5fa4e27d7ae0f0c9975"
    },
    {
      "anonymous": false,
      "inputs": [
        {
          "indexed": false,
          "name": "seller",
          "type": "address[]"
        }
      ],
      "name": "PromotedSellersRemoved",
      "type": "event",
      "signature": "0x5d3cc1ddd817cba6d86bf4cb3d582965e47b25685de10dcfe87dcb8607ba5630"
    },
    {
      "anonymous": false,
      "inputs": [],
      "name": "RewardsOn",
      "type": "event",
      "signature": "0xfb3ffd640eb2af7384a797d8a341f421615d81ef4e03359874984268cbd9003a"
    },
    {
      "anonymous": false,
      "inputs": [
        {
          "indexed": false,
          "name": "endDate",
          "type": "uint256"
        }
      ],
      "name": "EndDateChanged",
      "type": "event",
      "signature": "0x78f20fcb2c7d71918cb4f6b5e6c6eb0bf4ed26c77d48c64a29c6f448c40d9ae8"
    },
    {
      "anonymous": false,
      "inputs": [
        {
          "indexed": true,
          "name": "previousOwner",
          "type": "address"
        },
        {
          "indexed": true,
          "name": "newOwner",
          "type": "address"
        }
      ],
      "name": "OwnershipTransferred",
      "type": "event",
      "signature": "0x8be0079c531659141344cd1fd0a4f28419497f9722a3daafe3b4186f6b6457e0"
    },
    {
      "constant": false,
      "inputs": [
        {
          "name": "sellers",
          "type": "address[]"
        }
      ],
      "name": "addPromotedSellers",
      "outputs": [],
      "payable": false,
      "stateMutability": "nonpayable",
      "type": "function",
      "signature": "0xba9b865f"
    },
    {
      "constant": false,
      "inputs": [
        {
          "name": "sellers",
          "type": "address[]"
        }
      ],
      "name": "removePromotedSellers",
      "outputs": [],
      "payable": false,
      "stateMutability": "nonpayable",
      "type": "function",
      "signature": "0x59635375"
    },
    {
      "constant": true,
      "inputs": [
        {
          "name": "seller",
          "type": "address"
        }
      ],
      "name": "getRewardedBuyers",
      "outputs": [
        {
          "name": "buyers",
          "type": "address[]"
        }
      ],
      "payable": false,
      "stateMutability": "view",
      "type": "function",
      "signature": "0xc7285a73"
    },
    {
      "constant": true,
      "inputs": [
        {
          "name": "seller",
          "type": "address"
        },
        {
          "name": "buyer",
          "type": "address"
        }
      ],
      "name": "getBuyerRewardInfo",
      "outputs": [
        {
          "name": "rewardAmount",
          "type": "uint256"
        }
      ],
      "payable": false,
      "stateMutability": "view",
      "type": "function",
      "signature": "0x8c3bc195"
    },
    {
      "constant": true,
      "inputs": [
        {
          "name": "seller",
          "type": "address"
        }
      ],
      "name": "getDistributedReward",
      "outputs": [
        {
          "name": "rewardDistributed",
          "type": "uint256"
        }
      ],
      "payable": false,
      "stateMutability": "view",
      "type": "function",
      "signature": "0x11fe9ec6"
    },
    {
      "constant": false,
      "inputs": [
        {
          "name": "receiver",
          "type": "address"
        }
      ],
      "name": "transferRemainingTokens",
      "outputs": [],
      "payable": false,
      "stateMutability": "nonpayable",
      "type": "function",
      "signature": "0x040f9a5e"
    },
    {
      "constant": false,
      "inputs": [
        {
          "name": "_maxRewardPerSeller",
          "type": "uint256"
        }
      ],
      "name": "changeMaxRewardPerSeller",
      "outputs": [],
      "payable": false,
      "stateMutability": "nonpayable",
      "type": "function",
      "signature": "0xc828b479"
    },
    {
      "constant": false,
      "inputs": [
        {
          "name": "_timeWindow",
          "type": "uint256"
        }
      ],
      "name": "changeTimeWindow",
      "outputs": [],
      "payable": false,
      "stateMutability": "nonpayable",
      "type": "function",
      "signature": "0xbaf3c0ae"
    },
    {
      "constant": true,
      "inputs": [
        {
          "name": "seller",
          "type": "address"
        }
      ],
      "name": "noOfRewardedBuyers",
      "outputs": [
        {
          "name": "size",
          "type": "uint256"
        }
      ],
      "payable": false,
      "stateMutability": "view",
      "type": "function",
      "signature": "0xcb97c585"
    },
    {
      "constant": true,
      "inputs": [
        {
          "name": "seller",
          "type": "address"
        },
        {
          "name": "index",
          "type": "uint256"
        }
      ],
      "name": "getRewardedBuyer",
      "outputs": [
        {
          "name": "buyer",
          "type": "address"
        }
      ],
      "payable": false,
      "stateMutability": "view",
      "type": "function",
      "signature": "0xb05f86c2"
    },
    {
      "constant": false,
      "inputs": [],
      "name": "turnOnRewards",
      "outputs": [],
      "payable": false,
      "stateMutability": "nonpayable",
      "type": "function",
      "signature": "0xf26d8ce8"
    },
    {
      "constant": false,
      "inputs": [
        {
          "name": "_endDate",
          "type": "uint256"
        }
      ],
      "name": "setEndDate",
      "outputs": [],
      "payable": false,
      "stateMutability": "nonpayable",
      "type": "function",
      "signature": "0x3784f000"
    },
    {
      "constant": true,
      "inputs": [],
      "name": "isRewardsRunning",
      "outputs": [
        {
          "name": "running",
          "type": "bool"
        }
      ],
      "payable": false,
      "stateMutability": "view",
      "type": "function",
      "signature": "0xf90b112f"
    },
    {
      "constant": true,
      "inputs": [
        {
          "name": "scriptHash",
          "type": "bytes32"
        }
      ],
      "name": "calculateReward",
      "outputs": [
        {
          "name": "amount",
          "type": "uint256"
        }
      ],
      "payable": false,
      "stateMutability": "view",
      "type": "function",
      "signature": "0x2aea50fe"
    },
    {
      "constant": false,
      "inputs": [
        {
          "name": "sigV",
          "type": "uint8[]"
        },
        {
          "name": "sigR",
          "type": "bytes32[]"
        },
        {
          "name": "sigS",
          "type": "bytes32[]"
        },
        {
          "name": "scriptHash",
          "type": "bytes32"
        },
        {
          "name": "destinations",
          "type": "address[]"
        },
        {
          "name": "amounts",
          "type": "uint256[]"
        }
      ],
      "name": "executeAndClaim",
      "outputs": [],
      "payable": false,
      "stateMutability": "nonpayable",
      "type": "function",
      "signature": "0xb08d687a"
    },
    {
      "constant": false,
      "inputs": [
        {
          "name": "scriptHashes",
          "type": "bytes32[]"
        }
      ],
      "name": "claimRewards",
      "outputs": [],
      "payable": false,
      "stateMutability": "nonpayable",
      "type": "function",
      "signature": "0x0f3c34d1"
    }
  ],
  "bytecode": "0x60806040523480156200001157600080fd5b506040516080806200320d83398101806040528101908080519060200190929190805190602001909291908051906020019092919080519060200190929190505050336000806101000a81548173ffffffffffffffffffffffffffffffffffffffff021916908373ffffffffffffffffffffffffffffffffffffffff1602179055506000809054906101000a900473ffffffffffffffffffffffffffffffffffffffff1673ffffffffffffffffffffffffffffffffffffffff16600073ffffffffffffffffffffffffffffffffffffffff167f8be0079c531659141344cd1fd0a4f28419497f9722a3daafe3b4186f6b6457e060405160405180910390a381600073ffffffffffffffffffffffffffffffffffffffff168173ffffffffffffffffffffffffffffffffffffffff1614151515620001b6576040517f08c379a00000000000000000000000000000000000000000000000000000000081526004018080602001828103825260188152602001807f5a65726f2061646472657373206e6f7420616c6c6f776564000000000000000081525060200191505060405180910390fd5b81600073ffffffffffffffffffffffffffffffffffffffff168173ffffffffffffffffffffffffffffffffffffffff16141515156200025d576040517f08c379a00000000000000000000000000000000000000000000000000000000081526004018080602001828103825260188152602001807f5a65726f2061646472657373206e6f7420616c6c6f776564000000000000000081525060200191505060405180910390fd5b600086111515620002fc576040517f08c379a00000000000000000000000000000000000000000000000000000000081526004018080602001828103825260258152602001807f4d6178696d756d20726577617264206d7573742062652067726561746572207481526020017f68616e203000000000000000000000000000000000000000000000000000000081525060400191505060405180910390fd5b6000851115156200039b576040517f08c379a00000000000000000000000000000000000000000000000000000000081526004018080602001828103825260228152602001807f54696d652077696e646f77206d7573742062652067726561746572207468616e81526020017f203000000000000000000000000000000000000000000000000000000000000081525060400191505060405180910390fd5b856002819055508460058190555083600a60006101000a81548173ffffffffffffffffffffffffffffffffffffffff021916908373ffffffffffffffffffffffffffffffffffffffff16021790555082600b60006101000a81548173ffffffffffffffffffffffffffffffffffffffff021916908373ffffffffffffffffffffffffffffffffffffffff16021790555062000518600b60009054906101000a900473ffffffffffffffffffffffffffffffffffffffff1673ffffffffffffffffffffffffffffffffffffffff1663313ce5676040518163ffffffff167c0100000000000000000000000000000000000000000000000000000000028152600401602060405180830381600087803b158015620004b657600080fd5b505af1158015620004cb573d6000803e3d6000fd5b505050506040513d6020811015620004e257600080fd5b810190808051906020019092919050505060ff16600a0a60326200052a6401000000000262002c27179091906401000000009004565b6003819055505050505050506200056c565b600080600084141562000541576000915062000565565b82840290508284828115156200055357fe5b041415156200056157600080fd5b8091505b5092915050565b612c91806200057c6000396000f300608060405260043610610175576000357c0100000000000000000000000000000000000000000000000000000000900463ffffffff168063040f9a5e1461017a5780630d80149d146101bd5780630f3c34d11461021857806311fe9ec61461027e5780632aea50fe146102d55780633784f0001461031a5780635963537514610347578063676c4771146103825780636a3467a5146103ad578063715018a61461040457806385788f6f1461041b5780638c3bc195146104465780638da5cb5b146104bd5780638f32d59b14610514578063b05f86c214610543578063b08d687a146105d0578063ba9b865f14610750578063baf3c0ae1461078b578063c24a0f8b146107b8578063c7285a73146107e3578063c828b4791461087b578063cb97c585146108a8578063d2f343c7146108ff578063d8f163ab1461092a578063e42a96e714610955578063f26d8ce8146109ac578063f2fde38b146109c3578063f6c5aeb214610a06578063f90b112f14610a35575b600080fd5b34801561018657600080fd5b506101bb600480360381019080803573ffffffffffffffffffffffffffffffffffffffff169060200190929190505050610a64565b005b3480156101c957600080fd5b506101fe600480360381019080803573ffffffffffffffffffffffffffffffffffffffff169060200190929190505050610d1f565b604051808215151515815260200191505060405180910390f35b34801561022457600080fd5b5061027c60048036038101908080359060200190820180359060200190808060200260200160405190810160405280939291908181526020018383602002808284378201915050505050509192919290505050610d3f565b005b34801561028a57600080fd5b506102bf600480360381019080803573ffffffffffffffffffffffffffffffffffffffff169060200190929190505050611582565b6040518082815260200191505060405180910390f35b3480156102e157600080fd5b5061030460048036038101908080356000191690602001909291905050506115ce565b6040518082815260200191505060405180910390f35b34801561032657600080fd5b5061034560048036038101908080359060200190929190505050611602565b005b34801561035357600080fd5b506103806004803603810190808035906020019082018035906020019190919293919293905050506116f5565b005b34801561038e57600080fd5b50610397611802565b6040518082815260200191505060405180910390f35b3480156103b957600080fd5b506103c2611808565b604051808273ffffffffffffffffffffffffffffffffffffffff1673ffffffffffffffffffffffffffffffffffffffff16815260200191505060405180910390f35b34801561041057600080fd5b5061041961182e565b005b34801561042757600080fd5b50610430611900565b6040518082815260200191505060405180910390f35b34801561045257600080fd5b506104a7600480360381019080803573ffffffffffffffffffffffffffffffffffffffff169060200190929190803573ffffffffffffffffffffffffffffffffffffffff169060200190929190505050611906565b6040518082815260200191505060405180910390f35b3480156104c957600080fd5b506104d261198d565b604051808273ffffffffffffffffffffffffffffffffffffffff1673ffffffffffffffffffffffffffffffffffffffff16815260200191505060405180910390f35b34801561052057600080fd5b506105296119b6565b604051808215151515815260200191505060405180910390f35b34801561054f57600080fd5b5061058e600480360381019080803573ffffffffffffffffffffffffffffffffffffffff16906020019092919080359060200190929190505050611a0d565b604051808273ffffffffffffffffffffffffffffffffffffffff1673ffffffffffffffffffffffffffffffffffffffff16815260200191505060405180910390f35b3480156105dc57600080fd5b5061074e60048036038101908080359060200190820180359060200190808060200260200160405190810160405280939291908181526020018383602002808284378201915050505050509192919290803590602001908201803590602001908080602002602001604051908101604052809392919081815260200183836020028082843782019150505050505091929192908035906020019082018035906020019080806020026020016040519081016040528093929190818152602001838360200280828437820191505050505050919291929080356000191690602001909291908035906020019082018035906020019080806020026020016040519081016040528093929190818152602001838360200280828437820191505050505050919291929080359060200190820180359060200190808060200260200160405190810160405280939291908181526020018383602002808284378201915050505050509192919290505050611b4a565b005b34801561075c57600080fd5b50610789600480360381019080803590602001908201803590602001919091929391929390505050611e8e565b005b34801561079757600080fd5b506107b6600480360381019080803590602001909291905050506121a1565b005b3480156107c457600080fd5b506107cd6121be565b6040518082815260200191505060405180910390f35b3480156107ef57600080fd5b50610824600480360381019080803573ffffffffffffffffffffffffffffffffffffffff1690602001909291905050506121c4565b6040518080602001828103825283818151815260200191508051906020019060200280838360005b8381101561086757808201518184015260208101905061084c565b505050509050019250505060405180910390f35b34801561088757600080fd5b506108a660048036038101908080359060200190929190505050612294565b005b3480156108b457600080fd5b506108e9600480360381019080803573ffffffffffffffffffffffffffffffffffffffff1690602001909291905050506122b1565b6040518082815260200191505060405180910390f35b34801561090b57600080fd5b50610914612300565b6040518082815260200191505060405180910390f35b34801561093657600080fd5b5061093f612306565b6040518082815260200191505060405180910390f35b34801561096157600080fd5b5061096a61230c565b604051808273ffffffffffffffffffffffffffffffffffffffff1673ffffffffffffffffffffffffffffffffffffffff16815260200191505060405180910390f35b3480156109b857600080fd5b506109c1612332565b005b3480156109cf57600080fd5b50610a04600480360381019080803573ffffffffffffffffffffffffffffffffffffffff169060200190929190505050612439565b005b348015610a1257600080fd5b50610a1b612458565b604051808215151515815260200191505060405180910390f35b348015610a4157600080fd5b50610a4a61246b565b604051808215151515815260200191505060405180910390f35b6000610a6e6119b6565b1515610a7957600080fd5b81600073ffffffffffffffffffffffffffffffffffffffff168173ffffffffffffffffffffffffffffffffffffffff1614151515610b1f576040517f08c379a00000000000000000000000000000000000000000000000000000000081526004018080602001828103825260188152602001807f5a65726f2061646472657373206e6f7420616c6c6f776564000000000000000081525060200191505060405180910390fd5b600b60009054906101000a900473ffffffffffffffffffffffffffffffffffffffff1673ffffffffffffffffffffffffffffffffffffffff166370a08231306040518263ffffffff167c0100000000000000000000000000000000000000000000000000000000028152600401808273ffffffffffffffffffffffffffffffffffffffff1673ffffffffffffffffffffffffffffffffffffffff168152602001915050602060405180830381600087803b158015610bdc57600080fd5b505af1158015610bf0573d6000803e3d6000fd5b505050506040513d6020811015610c0657600080fd5b81019080805190602001909291905050509150600b60009054906101000a900473ffffffffffffffffffffffffffffffffffffffff1673ffffffffffffffffffffffffffffffffffffffff1663a9059cbb84846040518363ffffffff167c0100000000000000000000000000000000000000000000000000000000028152600401808373ffffffffffffffffffffffffffffffffffffffff1673ffffffffffffffffffffffffffffffffffffffff16815260200182815260200192505050602060405180830381600087803b158015610cde57600080fd5b505af1158015610cf2573d6000803e3d6000fd5b505050506040513d6020811015610d0857600080fd5b810190808051906020019092919050505050505050565b60016020528060005260406000206000915054906101000a900460ff1681565b6000806000806000806000600b60149054906101000a900460ff168015610d67575042600c54115b1515610e01576040517f08c379a00000000000000000000000000000000000000000000000000000000081526004018080602001828103825260228152602001807f52657761726420646973747269627574696f6e206973206e6f742072756e6e6981526020017f6e6700000000000000000000000000000000000000000000000000000000000081525060400191505060405180910390fd5b60008851111515610e7a576040517f08c379a00000000000000000000000000000000000000000000000000000000081526004018080602001828103825260158152602001807f4e6f20736372697074206861736820706173736564000000000000000000000081525060200191505060405180910390fd5b600096505b875187101561157857610ea88888815181101515610e9957fe5b90602001906020020151612492565b9550955095509550610ed48888815181101515610ec157fe5b90602001906020020151878787876125fa565b9150600b60009054906101000a900473ffffffffffffffffffffffffffffffffffffffff1673ffffffffffffffffffffffffffffffffffffffff166370a08231306040518263ffffffff167c0100000000000000000000000000000000000000000000000000000000028152600401808273ffffffffffffffffffffffffffffffffffffffff1673ffffffffffffffffffffffffffffffffffffffff168152602001915050602060405180830381600087803b158015610f9357600080fd5b505af1158015610fa7573d6000803e3d6000fd5b505050506040513d6020811015610fbd57600080fd5b8101908080519060200190929190505050905080821115610fdc578091505b6000821415611060578573ffffffffffffffffffffffffffffffffffffffff168573ffffffffffffffffffffffffffffffffffffffff16898981518110151561102157fe5b90602001906020020151600019167ff939e9640bc0433f3e944a23fbb977ee3d326f2523da16c258cce16734a1c4cf60405160405180910390a461156b565b600760008673ffffffffffffffffffffffffffffffffffffffff1673ffffffffffffffffffffffffffffffffffffffff16815260200190815260200160002060008773ffffffffffffffffffffffffffffffffffffffff1673ffffffffffffffffffffffffffffffffffffffff16815260200190815260200160002060009054906101000a900460ff161515611229576001600760008773ffffffffffffffffffffffffffffffffffffffff1673ffffffffffffffffffffffffffffffffffffffff16815260200190815260200160002060008873ffffffffffffffffffffffffffffffffffffffff1673ffffffffffffffffffffffffffffffffffffffff16815260200190815260200160002060006101000a81548160ff021916908315150217905550600660008673ffffffffffffffffffffffffffffffffffffffff1673ffffffffffffffffffffffffffffffffffffffff1681526020019081526020016000208690806001815401808255809150509060018203906000526020600020016000909192909190916101000a81548173ffffffffffffffffffffffffffffffffffffffff021916908373ffffffffffffffffffffffffffffffffffffffff160217905550505b6112b882600860008873ffffffffffffffffffffffffffffffffffffffff1673ffffffffffffffffffffffffffffffffffffffff16815260200190815260200160002060008973ffffffffffffffffffffffffffffffffffffffff1673ffffffffffffffffffffffffffffffffffffffff1681526020019081526020016000205461263190919063ffffffff16565b600860008773ffffffffffffffffffffffffffffffffffffffff1673ffffffffffffffffffffffffffffffffffffffff16815260200190815260200160002060008873ffffffffffffffffffffffffffffffffffffffff1673ffffffffffffffffffffffffffffffffffffffff1681526020019081526020016000208190555061138a82600960008873ffffffffffffffffffffffffffffffffffffffff1673ffffffffffffffffffffffffffffffffffffffff1681526020019081526020016000205461263190919063ffffffff16565b600960008773ffffffffffffffffffffffffffffffffffffffff1673ffffffffffffffffffffffffffffffffffffffff168152602001908152602001600020819055506113e28260045461263190919063ffffffff16565b6004819055508573ffffffffffffffffffffffffffffffffffffffff168573ffffffffffffffffffffffffffffffffffffffff16898981518110151561142457fe5b90602001906020020151600019167fdb28ff209f2a631171420977162edbe85659d93149d92f69f81260675f546a3a856040518082815260200191505060405180910390a4600b60009054906101000a900473ffffffffffffffffffffffffffffffffffffffff1673ffffffffffffffffffffffffffffffffffffffff1663a9059cbb87846040518363ffffffff167c0100000000000000000000000000000000000000000000000000000000028152600401808373ffffffffffffffffffffffffffffffffffffffff1673ffffffffffffffffffffffffffffffffffffffff16815260200182815260200192505050602060405180830381600087803b15801561152e57600080fd5b505af1158015611542573d6000803e3d6000fd5b505050506040513d602081101561155857600080fd5b8101908080519060200190929190505050505b8680600101975050610e7f565b5050505050505050565b6000600960008373ffffffffffffffffffffffffffffffffffffffff1673ffffffffffffffffffffffffffffffffffffffff168152602001908152602001600020549050809050919050565b60008060008060006115df86612492565b93509350935093506115f486858585856125fa565b945084945050505050919050565b61160a6119b6565b151561161557600080fd5b42811115156116b2576040517f08c379a000000000000000000000000000000000000000000000000000000000815260040180806020018281038252602c8152602001807f456e6420646174652073686f756c642062652067726561746572207468616e2081526020017f63757272656e742064617465000000000000000000000000000000000000000081525060400191505060405180910390fd5b80600c819055507f78f20fcb2c7d71918cb4f6b5e6c6eb0bf4ed26c77d48c64a29c6f448c40d9ae8600c546040518082815260200191505060405180910390a150565b60006116ff6119b6565b151561170a57600080fd5b600090505b828290508110156117a957600060016000858585818110151561172e57fe5b9050602002013573ffffffffffffffffffffffffffffffffffffffff1673ffffffffffffffffffffffffffffffffffffffff1673ffffffffffffffffffffffffffffffffffffffff16815260200190815260200160002060006101000a81548160ff021916908315150217905550808060010191505061170f565b7f5d3cc1ddd817cba6d86bf4cb3d582965e47b25685de10dcfe87dcb8607ba56308383604051808060200182810382528484828181526020019250602002808284378201915050935050505060405180910390a1505050565b60025481565b600b60009054906101000a900473ffffffffffffffffffffffffffffffffffffffff1681565b6118366119b6565b151561184157600080fd5b600073ffffffffffffffffffffffffffffffffffffffff166000809054906101000a900473ffffffffffffffffffffffffffffffffffffffff1673ffffffffffffffffffffffffffffffffffffffff167f8be0079c531659141344cd1fd0a4f28419497f9722a3daafe3b4186f6b6457e060405160405180910390a360008060006101000a81548173ffffffffffffffffffffffffffffffffffffffff021916908373ffffffffffffffffffffffffffffffffffffffff160217905550565b60035481565b6000600860008473ffffffffffffffffffffffffffffffffffffffff1673ffffffffffffffffffffffffffffffffffffffff16815260200190815260200160002060008373ffffffffffffffffffffffffffffffffffffffff1673ffffffffffffffffffffffffffffffffffffffff16815260200190815260200160002054905092915050565b60008060009054906101000a900473ffffffffffffffffffffffffffffffffffffffff16905090565b60008060009054906101000a900473ffffffffffffffffffffffffffffffffffffffff1673ffffffffffffffffffffffffffffffffffffffff163373ffffffffffffffffffffffffffffffffffffffff1614905090565b600081600660008573ffffffffffffffffffffffffffffffffffffffff1673ffffffffffffffffffffffffffffffffffffffff16815260200190815260200160002080549050111515611ac8576040517f08c379a00000000000000000000000000000000000000000000000000000000081526004018080602001828103825260188152602001807f417272617920696e646578206f7574206f6620626f756e64000000000000000081525060200191505060405180910390fd5b600660008473ffffffffffffffffffffffffffffffffffffffff1673ffffffffffffffffffffffffffffffffffffffff16815260200190815260200160002082815481101515611b1457fe5b9060005260206000200160009054906101000a900473ffffffffffffffffffffffffffffffffffffffff16905080905092915050565b6060600b60149054906101000a900460ff168015611b69575042600c54115b1515611c03576040517f08c379a00000000000000000000000000000000000000000000000000000000081526004018080602001828103825260228152602001807f52657761726420646973747269627574696f6e206973206e6f742072756e6e6981526020017f6e6700000000000000000000000000000000000000000000000000000000000081525060400191505060405180910390fd5b600a60009054906101000a900473ffffffffffffffffffffffffffffffffffffffff1673ffffffffffffffffffffffffffffffffffffffff1663e4ec8b008888888888886040518763ffffffff167c0100000000000000000000000000000000000000000000000000000000028152600401808060200180602001806020018760001916600019168152602001806020018060200186810386528c818151815260200191508051906020019060200280838360005b83811015611cd3578082015181840152602081019050611cb8565b5050505090500186810385528b818151815260200191508051906020019060200280838360005b83811015611d15578082015181840152602081019050611cfa565b5050505090500186810384528a818151815260200191508051906020019060200280838360005b83811015611d57578082015181840152602081019050611d3c565b50505050905001868103835288818151815260200191508051906020019060200280838360005b83811015611d99578082015181840152602081019050611d7e565b50505050905001868103825287818151815260200191508051906020019060200280838360005b83811015611ddb578082015181840152602081019050611dc0565b505050509050019b505050505050505050505050600060405180830381600087803b158015611e0957600080fd5b505af1158015611e1d573d6000803e3d6000fd5b505050506001604051908082528060200260200182016040528015611e515781602001602082028038833980820191505090505b50905083816000815181101515611e6457fe5b906020019060200201906000191690816000191681525050611e8581610d3f565b50505050505050565b6000611e986119b6565b1515611ea357600080fd5b600090505b8282905081101561214857600073ffffffffffffffffffffffffffffffffffffffff168383838181101515611ed957fe5b9050602002013573ffffffffffffffffffffffffffffffffffffffff1673ffffffffffffffffffffffffffffffffffffffff1614151515611fa8576040517f08c379a00000000000000000000000000000000000000000000000000000000081526004018080602001828103825260288152602001807f5a65726f20616464726573732063616e6e6f7420626520612070726f6d6f746581526020017f642073656c6c657200000000000000000000000000000000000000000000000081525060400191505060405180910390fd5b600160008484848181101515611fba57fe5b9050602002013573ffffffffffffffffffffffffffffffffffffffff1673ffffffffffffffffffffffffffffffffffffffff1673ffffffffffffffffffffffffffffffffffffffff16815260200190815260200160002060009054906101000a900460ff161515156120ba576040517f08c379a00000000000000000000000000000000000000000000000000000000081526004018080602001828103825260268152602001807f4f6e65206f66207468652073656c6c65727320697320616c726561647920707281526020017f6f6d6f746564000000000000000000000000000000000000000000000000000081525060400191505060405180910390fd5b600180600085858581811015156120cd57fe5b9050602002013573ffffffffffffffffffffffffffffffffffffffff1673ffffffffffffffffffffffffffffffffffffffff1673ffffffffffffffffffffffffffffffffffffffff16815260200190815260200160002060006101000a81548160ff0219169083151502179055508080600101915050611ea8565b7fa61ea6f08d34b0cf93586736a7fdd8becfc2d5f8443cd5fa4e27d7ae0f0c99758383604051808060200182810382528484828181526020019250602002808284378201915050935050505060405180910390a1505050565b6121a96119b6565b15156121b457600080fd5b8060058190555050565b600c5481565b6060600660008373ffffffffffffffffffffffffffffffffffffffff1673ffffffffffffffffffffffffffffffffffffffff16815260200190815260200160002080548060200260200160405190810160405280929190818152602001828054801561228557602002820191906000526020600020905b8160009054906101000a900473ffffffffffffffffffffffffffffffffffffffff1673ffffffffffffffffffffffffffffffffffffffff168152602001906001019080831161223b575b50505050509050809050919050565b61229c6119b6565b15156122a757600080fd5b8060028190555050565b6000600660008373ffffffffffffffffffffffffffffffffffffffff1673ffffffffffffffffffffffffffffffffffffffff168152602001908152602001600020805490509050809050919050565b60055481565b60045481565b600a60009054906101000a900473ffffffffffffffffffffffffffffffffffffffff1681565b61233a6119b6565b151561234557600080fd5b600b60149054906101000a900460ff161515156123f0576040517f08c379a00000000000000000000000000000000000000000000000000000000081526004018080602001828103825260228152602001807f5265776172647320646973747269627574696f6e20697320616c72656164792081526020017f6f6e00000000000000000000000000000000000000000000000000000000000081525060400191505060405180910390fd5b6001600b60146101000a81548160ff0219169083151502179055507ffb3ffd640eb2af7384a797d8a341f421615d81ef4e03359874984268cbd9003a60405160405180910390a1565b6124416119b6565b151561244c57600080fd5b61245581612652565b50565b600b60149054906101000a900460ff1681565b6000600b60149054906101000a900460ff16801561248a575042600c54115b905080905090565b600080600080600a60009054906101000a900473ffffffffffffffffffffffffffffffffffffffff1673ffffffffffffffffffffffffffffffffffffffff1663642f2eaf866040518263ffffffff167c010000000000000000000000000000000000000000000000000000000002815260040180826000191660001916815260200191505061012060405180830381600087803b15801561253257600080fd5b505af1158015612546573d6000803e3d6000fd5b505050506040513d61012081101561255d57600080fd5b8101908080519060200190929190805190602001909291908051906020019092919080519060200190929190805190602001909291908051906020019092919080519060200190929190805190602001909291908051906020019092919050505090919293949596975090919293945090919293509091925050809650819750829550839450505050508383838393509350935093509193509193565b6000612609868686868661274c565b15156126185760009050612625565b6126228585612a62565b90505b80905095945050505050565b600080828401905083811015151561264857600080fd5b8091505092915050565b600073ffffffffffffffffffffffffffffffffffffffff168173ffffffffffffffffffffffffffffffffffffffff161415151561268e57600080fd5b8073ffffffffffffffffffffffffffffffffffffffff166000809054906101000a900473ffffffffffffffffffffffffffffffffffffffff1673ffffffffffffffffffffffffffffffffffffffff167f8be0079c531659141344cd1fd0a4f28419497f9722a3daafe3b4186f6b6457e060405160405180910390a3806000806101000a81548173ffffffffffffffffffffffffffffffffffffffff021916908373ffffffffffffffffffffffffffffffffffffffff16021790555050565b600060019050600073ffffffffffffffffffffffffffffffffffffffff168573ffffffffffffffffffffffffffffffffffffffff1614156127905760009050612a56565b600160008573ffffffffffffffffffffffffffffffffffffffff1673ffffffffffffffffffffffffffffffffffffffff16815260200190815260200160002060009054906101000a900460ff1615156127ec5760009050612a55565b60018360ff161415156128025760009050612a54565b600a60009054906101000a900473ffffffffffffffffffffffffffffffffffffffff1673ffffffffffffffffffffffffffffffffffffffff1663f078656287866040518363ffffffff167c01000000000000000000000000000000000000000000000000000000000281526004018083600019166000191681526020018273ffffffffffffffffffffffffffffffffffffffff1673ffffffffffffffffffffffffffffffffffffffff16815260200192505050602060405180830381600087803b1580156128cf57600080fd5b505af11580156128e3573d6000803e3d6000fd5b505050506040513d60208110156128f957600080fd5b810190808051906020019092919050505015156129195760009050612a53565b600a60009054906101000a900473ffffffffffffffffffffffffffffffffffffffff1673ffffffffffffffffffffffffffffffffffffffff1663b0550c6687866040518363ffffffff167c01000000000000000000000000000000000000000000000000000000000281526004018083600019166000191681526020018273ffffffffffffffffffffffffffffffffffffffff1673ffffffffffffffffffffffffffffffffffffffff16815260200192505050602060405180830381600087803b1580156129e657600080fd5b505af11580156129fa573d6000803e3d6000fd5b505050506040513d6020811015612a1057600080fd5b81019080805190602001909291905050501515612a305760009050612a52565b42612a466005548461263190919063ffffffff16565b1015612a5157600090505b5b5b5b5b5b80905095945050505050565b6000600254600960008473ffffffffffffffffffffffffffffffffffffffff1673ffffffffffffffffffffffffffffffffffffffff16815260200190815260200160002054101515612ab75760009050612bfd565b612b48600860008473ffffffffffffffffffffffffffffffffffffffff1673ffffffffffffffffffffffffffffffffffffffff16815260200190815260200160002060008573ffffffffffffffffffffffffffffffffffffffff1673ffffffffffffffffffffffffffffffffffffffff16815260200190815260200160002054600354612c0690919063ffffffff16565b9050600254612b9f82600960008673ffffffffffffffffffffffffffffffffffffffff1673ffffffffffffffffffffffffffffffffffffffff1681526020019081526020016000205461263190919063ffffffff16565b1115612bfc57612bf9600960008473ffffffffffffffffffffffffffffffffffffffff1673ffffffffffffffffffffffffffffffffffffffff16815260200190815260200160002054600254612c0690919063ffffffff16565b90505b5b80905092915050565b600080838311151515612c1857600080fd5b82840390508091505092915050565b6000806000841415612c3c5760009150612c5e565b8284029050828482811515612c4d57fe5b04141515612c5a57600080fd5b8091505b50929150505600a165627a7a7230582052f15fc472026db479d9bcc02193ca6d5207d3ba864f47a3133ca5fce69955500029",
  "source": "/* solium-disable security/no-block-members */\n\npragma solidity 0.4.24;\n\nimport \"openzeppelin-solidity/contracts/math/SafeMath.sol\";\nimport \"openzeppelin-solidity/contracts/ownership/Ownable.sol\";\nimport \"../token/ITokenContract.sol\";\nimport \"../escrow/IEscrow.sol\";\n\n\n/**\n* @dev This contract will distribute tokens to the buyers who purchase items from\n* the OB verified sellers\n* For more information please visit below mentioned link\n* https://github.com/OB1Company/openbazaar-smart-contracts/issues/10\n*/\ncontract OBRewards is Ownable {\n\n    using SafeMath for uint256;\n\n    //Mapping of promoted sellers\n    mapping(address => bool) public promotedSellers;\n\n    uint256 public maxRewardPerSeller;\n\n    uint256 public maxRewardToBuyerPerSeller;\n\n    uint256 public totalTokensDistributed;\n\n    //A time window in seconds where purchases between A and B will be\n    //rewarded with tokens. Ie if a trade is completed satisfactorily at\n    //time X, then the buyer can claim their reward any time after X and\n    //before X + timeWindow.\n    uint256 public timeWindow;\n\n    //Mapping of seller to all buyers who received rewards by purchasing\n    //from that seller.\n    mapping(address => address[]) sellerVsBuyersArray;\n\n    //Mapping of seller and buyer to a bool indicating whether the buyers has\n    //claimed any rewards from that seller.\n    mapping(address => mapping(address => bool)) sellerVsBuyersBool;\n\n    //Given a seller and a buyer, this will return the amount of tokens that\n    //have been rewarded to the buyer for purchasing from the seller.\n    mapping(address => mapping(address => uint256)) sellerVsBuyerRewards;\n\n    //For each seller, this returns the total number of tokens that have been\n    //given out as rewards for purchasing from that seller.\n    mapping(address => uint256) sellerVsRewardsDistributed;\n\n    //Escrow contract address which will be used to calculate and validate\n    //transactions\n    IEscrow public escrowContract;\n\n    //Address of the reward Token to be distributed to the buyers\n    ITokenContract public obToken;\n\n    //Bool to signify whether reward distribution is active or not\n    bool public rewardsOn;\n\n    //End date of the promotion\n    uint256 public endDate;\n\n    event SuccessfulClaim(\n        bytes32 indexed scriptHash,\n        address indexed seller,\n        address indexed buyer,\n        uint256 amount\n    );\n\n    event UnsuccessfulClaim(\n        bytes32 indexed scriptHash,\n        address indexed seller,\n        address indexed buyer\n    );\n\n    event PromotedSellersAdded(address[] seller);\n\n    event PromotedSellersRemoved(address[] seller);\n\n    event RewardsOn();\n\n    event EndDateChanged(uint256 endDate);\n\n    modifier nonZeroAddress(address _address) {\n        require(_address != address(0), \"Zero address not allowed\");\n        _;\n    }\n\n    modifier rewardsRunning() {\n        require(\n            rewardsOn && (endDate > block.timestamp),\n            \"Reward distribution is not running\"\n        );\n        _;\n    }\n\n    /**\n    * @dev Add details to rewards contract at the time of deployment\n    * @param _maxRewardPerSeller Maximum reward to be distributed from\n    * each seller\n    * @param _timeWindow A time window, in seconds, where purchases\n    * will be rewarded with tokens\n    * @param _escrowContractAddress Escrow address to be considered for\n    * rewards distribution.\n    * @param obTokenAddress Address of the reward token\n    */\n    constructor(\n        uint256 _maxRewardPerSeller,\n        uint256 _timeWindow,\n        address _escrowContractAddress, // this should be a trusted contract\n        address obTokenAddress\n    )\n        public\n        nonZeroAddress(_escrowContractAddress)\n        nonZeroAddress(obTokenAddress)\n    {\n\n        require(\n            _maxRewardPerSeller > 0,\n            \"Maximum reward must be greater than 0\"\n        );\n\n        require(\n            _timeWindow > 0,\n            \"Time window must be greater than 0\"\n        );\n\n        maxRewardPerSeller = _maxRewardPerSeller;\n        timeWindow = _timeWindow;\n        escrowContract = IEscrow(_escrowContractAddress);\n        obToken = ITokenContract(obTokenAddress);\n        maxRewardToBuyerPerSeller = uint256(50).mul(\n            10 ** uint256(obToken.decimals())\n        );\n\n    }\n\n    /**\n    * @dev Allows owner to add new promoted sellers. Previous ones will\n    * remain untouched\n    * @param sellers List of sellers to be marked as promoted\n    * No Seller out of this list should already be promoted, otherwise\n    * transaction will fail\n    */\n    function addPromotedSellers(address[] sellers) external onlyOwner {\n\n        for (uint256 i = 0; i < sellers.length; i++) {\n            require(\n                sellers[i] != address(0),\n                \"Zero address cannot be a promoted seller\"\n            );\n\n            require(\n                !promotedSellers[sellers[i]],\n                \"One of the sellers is already promoted\"\n            ); //Also protects against the same being address passed twice.\n\n            promotedSellers[sellers[i]] = true;\n        }\n        emit PromotedSellersAdded(sellers);\n    }\n\n    /**\n    * @dev Remove exisiting promoted sellers\n    * @param sellers List of sellers to be removed\n    */\n    function removePromotedSellers(address[] sellers) external onlyOwner {\n\n        for (uint256 i = 0; i < sellers.length; i++) {\n\n            promotedSellers[sellers[i]] = false;\n        }\n        emit PromotedSellersRemoved(sellers);\n    }\n\n    /**\n    * @dev Returns list of buyers that have been rewarded for purchasing from\n    * a given seller\n    * @param seller Address of promoted seller\n    * @return buyers List of Buyers\n    */\n    function getRewardedBuyers(\n        address seller\n    )\n        external\n        view\n        returns (address[] buyers)\n    {\n        buyers = sellerVsBuyersArray[seller];\n        return buyers;\n    }\n\n    /**\n    * @dev Return reward info for a buyer against a promoted seller\n    * @param seller Address of promoted seller\n    * @param buyer The buyer who reward info has to be fetched\n    * @return rewardAmount\n    */\n    function getBuyerRewardInfo(\n        address seller,\n        address buyer\n    )\n        external\n        view\n        returns(\n            uint256 rewardAmount\n        )\n    {\n        return sellerVsBuyerRewards[seller][buyer];\n    }\n\n    /**\n    * @dev Total reward distributed for a promoted seller so far\n    * @param seller Promoted seller's address\n    * @return Amount of tokens distributed as reward for a seller\n    */\n    function getDistributedReward(\n        address seller\n    )\n        external\n        view\n        returns (uint256 rewardDistributed)\n    {\n        rewardDistributed = sellerVsRewardsDistributed[seller];\n        return rewardDistributed;\n    }\n\n    /**\n    * @dev Allows the owner of the contract to transfer all remaining tokens to\n    * an address of their choosing.\n    * @param receiver The receiver's address\n    */\n    function transferRemainingTokens(\n        address receiver\n    )\n        external\n        onlyOwner\n        nonZeroAddress(receiver)\n    {\n        uint256 amount = obToken.balanceOf(this);\n\n        obToken.transfer(receiver, amount);\n    }\n\n    /**\n    * @dev Method to allow the owner to adjust the maximum reward per seller\n    * @param _maxRewardPerSeller Max reward to be distributed for each seller\n    */\n    function changeMaxRewardPerSeller(\n        uint256 _maxRewardPerSeller\n    )\n        external\n        onlyOwner\n    {\n        maxRewardPerSeller = _maxRewardPerSeller;\n    }\n\n    /**\n    * @dev Method to allow the owner to change the timeWindow variable\n    * @param _timeWindow A time window in seconds\n    */\n    function changeTimeWindow(uint256 _timeWindow) external onlyOwner {\n        timeWindow = _timeWindow;\n    }\n\n    /**\n    * @dev Returns the number of rewarded buyers associated with a given seller\n    * @param seller Address of the promoted seller\n    */\n    function noOfRewardedBuyers(\n        address seller\n    )\n        external\n        view\n        returns (uint256 size)\n    {\n        size = sellerVsBuyersArray[seller].length;\n        return size;\n    }\n\n    /**\n    * @dev Method to get rewarded buyer address at specific index for a seller\n    * @param seller Seller for whom the rewarded buyer is requested\n    * @param index Index at which buyer has to be retrieved\n    */\n    function getRewardedBuyer(\n        address seller,\n        uint256 index\n    )\n        external\n        view\n        returns (address buyer)\n    {\n        require(\n            sellerVsBuyersArray[seller].length > index,\n            \"Array index out of bound\"\n        );\n        buyer = sellerVsBuyersArray[seller][index];\n        return buyer;\n    }\n\n    /**\n    * @dev Allows the owner of the contract to turn on the rewards distribution\n    * Only if it was not previously turned on\n    */\n    function turnOnRewards() external onlyOwner {\n        require(!rewardsOn, \"Rewards distribution is already on\");\n\n        rewardsOn = true;\n\n        emit RewardsOn();\n    }\n\n    /**\n    * @dev ALlows owner to set endDate\n    * @param _endDate date the promotion ends\n    */\n    function setEndDate(uint256 _endDate) external onlyOwner {\n        require(\n            _endDate > block.timestamp,\n            \"End date should be greater than current date\"\n        );\n\n        endDate = _endDate;\n\n        emit EndDateChanged(endDate);\n    }\n\n    function isRewardsRunning() external view returns (bool running) {\n        running = rewardsOn && (endDate > block.timestamp);\n        return running;\n    }\n\n    /**\n    * @dev Buyer can call this method to calculate the reward for their\n    * transaction\n    * @param scriptHash Script hash of the transaction\n    */\n    function calculateReward(\n        bytes32 scriptHash\n    )\n        public\n        view\n        returns (uint256 amount)\n    {\n        (\n            address buyer,\n            address seller,\n            uint8 status,\n            uint256 lastModified\n        ) = _getTransaction(scriptHash);\n\n        amount = _getTokensToReward(\n            scriptHash,\n            buyer,\n            seller,\n            status,\n            lastModified\n        );\n\n        return amount;\n    }\n\n    /**\n    * @dev Using this method user can choose to execute their transaction and\n    * claim their rewards in one go. This will save one transaction.\n    * Users can only use this method if their trade is using escrowContract\n    * for escrow.\n    * See the execute() method Escrow_v1_0.sol for more information.\n    */\n    function executeAndClaim(\n        uint8[] sigV,\n        bytes32[] sigR,\n        bytes32[] sigS,\n        bytes32 scriptHash,\n        address[] destinations,\n        uint256[] amounts\n    )\n        public\n        rewardsRunning\n\n    {\n        //1. Execute transaction\n        //SECURITY NOTE: `escrowContract` is a known and trusted contract, but\n        //the `execute` function transfers ETH or Tokens, and therefore hands\n        //over control of the logic flow to a potential attacker.\n        escrowContract.execute(\n            sigV,\n            sigR,\n            sigS,\n            scriptHash,\n            destinations,\n            amounts\n        );\n\n        //2. Claim Reward\n        bytes32[] memory scriptHashes = new bytes32[](1);\n        scriptHashes[0] = scriptHash;\n\n        claimRewards(scriptHashes);\n    }\n\n    /**\n    * @dev Function to claim tokens\n    * @param scriptHashes Array of scriptHashes of OB trades for which\n    * the buyer wants to claim reward tokens.\n    * Note that a Buyer can perform trades with multiple promoted sellers and\n    * then can claim their reward tokens all at once for all those trades using\n    * this function.\n    * Be mindful of the block gas limit (do not pass too many scripthashes).\n    */\n    function claimRewards(bytes32[] scriptHashes) public rewardsRunning {\n\n        require(scriptHashes.length > 0, \"No script hash passed\");\n\n        for (uint256 i = 0; i < scriptHashes.length; i++) {\n\n            //1. Get the transaction from Escrow contract\n            (\n                address buyer,\n                address seller,\n                uint8 status,\n                uint256 lastModified\n            ) = _getTransaction(scriptHashes[i]);\n\n            //2. Check that the transaction exists\n            //3. Check seller is promoted seller and the\n            //timeWindow has not closed\n            //4. Get the number of tokens to be given as reward\n            //5. The seller must be one of the beneficiaries\n            uint256 rewardAmount = _getTokensToReward(\n                scriptHashes[i],\n                buyer,\n                seller,\n                status,\n                lastModified\n            );\n\n            uint256 contractBalance = obToken.balanceOf(this);\n\n            if (rewardAmount > contractBalance) {\n                rewardAmount = contractBalance;\n            }\n\n            if (rewardAmount == 0) {\n                emit UnsuccessfulClaim(scriptHashes[i], seller, buyer);\n                continue;\n            }\n\n            //6. Update state\n            if (!sellerVsBuyersBool[seller][buyer]) {\n                sellerVsBuyersBool[seller][buyer] = true;\n                sellerVsBuyersArray[seller].push(buyer);\n            }\n\n            sellerVsBuyerRewards[seller][buyer] = sellerVsBuyerRewards[\n                seller\n            ][\n                buyer\n            ].add(rewardAmount);\n\n            sellerVsRewardsDistributed[seller] = sellerVsRewardsDistributed[\n                seller\n            ].add(rewardAmount);\n\n            totalTokensDistributed = totalTokensDistributed.add(rewardAmount);\n\n            //7. Emit event\n            emit SuccessfulClaim(\n                scriptHashes[i],\n                seller,\n                buyer,\n                rewardAmount\n            );\n\n            //8. Transfer token\n            obToken.transfer(buyer, rewardAmount);\n        }\n\n    }\n\n    //Private method to get transaction info out from the escrow contract\n    function _getTransaction(\n        bytes32 _scriptHash\n    )\n        private\n        view\n        returns(\n            address buyer,\n            address seller,\n            uint8 status,\n            uint256 lastModified\n        )\n        {\n        // calling a trusted contract's view function\n        (\n            ,\n            lastModified,\n            status,\n            ,,,\n            buyer,\n            seller,\n\n        ) = escrowContract.transactions(_scriptHash);\n\n        return (buyer, seller, status, lastModified);\n    }\n\n    /**\n    * @dev Checks -:\n    * 1. If transaction exists\n    * 2. If seller is promoted\n    * 3. Transaction has been closed/released\n    * 4. Transaction happened with the time window.\n    * 5. Seller must be one of the beneficiaries of the transaction execution\n    * @param scriptHash Script hash of the transaction\n    * @param buyer Buyer in the transaction\n    * @param seller Seller in the transaction\n    * @param status Status of the transaction\n    * @param lastModified Last modified time of the transaction\n    * @return bool Returns whether transaction is valid and eligible\n    * for rewards\n    */\n    function _verifyTransactionData(\n        bytes32 scriptHash,\n        address buyer,\n        address seller,\n        uint8 status,\n        uint256 lastModified\n    )\n        private\n        view\n        returns (bool verified)\n    {\n\n        verified = true;\n\n        if (buyer == address(0)) {\n            //If buyer is a zero address then we treat the transaction as\n            //a not verified\n            verified = false;\n        }\n\n        else if (!promotedSellers[seller]) {\n            //seller of the transaction is not a promoted seller\n            verified = false;\n        }\n        else if (status != 1) {\n            //Transaction has not been released\n            verified = false;\n        }\n        else if (\n            //Calling a trusted contract's view function\n            !escrowContract.checkVote(scriptHash, seller)\n        )\n        {\n            //Seller was not one of the signers\n            verified = false;\n        }\n        else if (\n            //Calling a trusted contract's view function\n            !escrowContract.checkBeneficiary(scriptHash, seller)\n        ) {\n            //Seller was not one of the beneficiaries.\n            //This means the transaction was either cancelled or\n            //completely refunded.\n            verified = false;\n        }\n        else if (lastModified.add(timeWindow) < block.timestamp) {\n            //timeWindow has been exceeded\n            verified = false;\n        }\n\n        return verified;\n    }\n\n    /**\n    * @dev Private function to get Tokens to be distributed as reward\n    * Checks whether transaction is verified or not and computes the\n    * amount of the rewards using the _calculateReward() method\n    */\n    function _getTokensToReward(\n        bytes32 scriptHash,\n        address buyer,\n        address seller,\n        uint8 status,\n        uint256 lastModified\n    )\n        private\n        view\n        returns (uint256 amount)\n    {\n\n        if (\n            !_verifyTransactionData(\n                scriptHash,\n                buyer,\n                seller,\n                status,\n                lastModified\n            )\n        )\n        {\n            amount = 0;\n        }\n\n        else {\n            amount = _calculateReward(buyer, seller);\n        }\n\n        return amount;\n    }\n\n    /**\n    * @dev Private function to calculate reward.\n    * Please see link for rewards calculation algo\n    *  https://github.com/OB1Company/openbazaar-smart-contracts/issues/10\n    */\n    function _calculateReward(\n        address buyer,\n        address seller\n    )\n        private\n        view\n        returns (uint256 amount)\n    {\n\n        if (sellerVsRewardsDistributed[seller] >= maxRewardPerSeller) {\n            //No more rewards can be distributed for buying from the\n            //given seller\n            amount = 0;\n          }\n\n        else {\n            //maxRewardToBuyerPerSeller tokens will be given to each buyer per\n            //seller until the maximum amount of rewards for the seller has\n            //been exhausted\n            amount = maxRewardToBuyerPerSeller.sub(sellerVsBuyerRewards[seller][buyer]);\n\n            //Check that we are not disbursing more rewards than are\n            //allocated per seller\n            if (sellerVsRewardsDistributed[seller].add(amount) > maxRewardPerSeller) {\n                amount = maxRewardPerSeller.sub(sellerVsRewardsDistributed[seller]);\n            }\n\n        }\n\n        return amount;\n\n    }\n\n\n}\n",
  "sourcePath": "/home/sameep/freelancing-projects/toptal/open baazar/publicRepo/smart-contracts/contracts/rewards/OBRewards.sol",
  "compiler": {
    "name": "solc",
    "version": "0.4.24+commit.e67f0147.Emscripten.clang"
  },
  "schemaVersion": "3.0.2",
  "updatedAt": "2019-04-02T10:05:51.642Z",
  "devdoc": {
    "methods": {
      "addPromotedSellers(address[])": {
        "details": "Allows owner to add new promoted sellers. Previous ones will remain untouched",
        "params": {
          "sellers": "List of sellers to be marked as promoted No Seller out of this list should already be promoted, otherwise transaction will fail"
        }
      },
      "calculateReward(bytes32)": {
        "details": "Buyer can call this method to calculate the reward for their transaction",
        "params": {
          "scriptHash": "Script hash of the transaction"
        }
      },
      "changeMaxRewardPerSeller(uint256)": {
        "details": "Method to allow the owner to adjust the maximum reward per seller",
        "params": {
          "_maxRewardPerSeller": "Max reward to be distributed for each seller"
        }
      },
      "changeTimeWindow(uint256)": {
        "details": "Method to allow the owner to change the timeWindow variable",
        "params": {
          "_timeWindow": "A time window in seconds"
        }
      },
      "claimRewards(bytes32[])": {
        "details": "Function to claim tokens",
        "params": {
          "scriptHashes": "Array of scriptHashes of OB trades for which the buyer wants to claim reward tokens. Note that a Buyer can perform trades with multiple promoted sellers and then can claim their reward tokens all at once for all those trades using this function. Be mindful of the block gas limit (do not pass too many scripthashes)."
        }
      },
      "executeAndClaim(uint8[],bytes32[],bytes32[],bytes32,address[],uint256[])": {
        "details": "Using this method user can choose to execute their transaction and claim their rewards in one go. This will save one transaction. Users can only use this method if their trade is using escrowContract for escrow. See the execute() method Escrow_v1_0.sol for more information."
      },
      "getBuyerRewardInfo(address,address)": {
        "details": "Return reward info for a buyer against a promoted seller",
        "params": {
          "buyer": "The buyer who reward info has to be fetched",
          "seller": "Address of promoted seller"
        },
        "return": "rewardAmount"
      },
      "getDistributedReward(address)": {
        "details": "Total reward distributed for a promoted seller so far",
        "params": {
          "seller": "Promoted seller's address"
        },
        "return": "Amount of tokens distributed as reward for a seller"
      },
      "getRewardedBuyer(address,uint256)": {
        "details": "Method to get rewarded buyer address at specific index for a seller",
        "params": {
          "index": "Index at which buyer has to be retrieved",
          "seller": "Seller for whom the rewarded buyer is requested"
        }
      },
      "getRewardedBuyers(address)": {
        "details": "Returns list of buyers that have been rewarded for purchasing from a given seller",
        "params": {
          "seller": "Address of promoted seller"
        },
        "return": "buyers List of Buyers"
      },
      "isOwner()": {
        "return": "true if `msg.sender` is the owner of the contract."
      },
      "noOfRewardedBuyers(address)": {
        "details": "Returns the number of rewarded buyers associated with a given seller",
        "params": {
          "seller": "Address of the promoted seller"
        }
      },
      "owner()": {
        "return": "the address of the owner."
      },
      "removePromotedSellers(address[])": {
        "details": "Remove exisiting promoted sellers",
        "params": {
          "sellers": "List of sellers to be removed"
        }
      },
      "renounceOwnership()": {
        "details": "Allows the current owner to relinquish control of the contract."
      },
      "setEndDate(uint256)": {
        "details": "ALlows owner to set endDate",
        "params": {
          "_endDate": "date the promotion ends"
        }
      },
      "transferOwnership(address)": {
        "details": "Allows the current owner to transfer control of the contract to a newOwner.",
        "params": {
          "newOwner": "The address to transfer ownership to."
        }
      },
      "transferRemainingTokens(address)": {
        "details": "Allows the owner of the contract to transfer all remaining tokens to an address of their choosing.",
        "params": {
          "receiver": "The receiver's address"
        }
      },
      "turnOnRewards()": {
        "details": "Allows the owner of the contract to turn on the rewards distribution Only if it was not previously turned on"
      }
    }
  },
  "userdoc": {
    "methods": {
      "renounceOwnership()": {
        "notice": "Renouncing to ownership will leave the contract without an owner. It will not be possible to call the functions with the `onlyOwner` modifier anymore."
      }
    }
  }
}