{
  "contractName": "PowerUps",
  "abi": [
    {
      "constant": true,
      "inputs": [],
      "name": "token",
      "outputs": [
        {
          "name": "",
          "type": "address"
        }
      ],
      "payable": false,
      "stateMutability": "view",
      "type": "function"
    },
    {
      "inputs": [
        {
          "name": "obTokenAddress",
          "type": "address"
        }
      ],
      "payable": false,
      "stateMutability": "nonpayable",
      "type": "constructor"
    },
    {
      "anonymous": false,
      "inputs": [
        {
          "indexed": true,
          "name": "initiator",
          "type": "address"
        },
        {
          "indexed": false,
          "name": "id",
          "type": "uint256"
        },
        {
          "indexed": false,
          "name": "tokensBurned",
          "type": "uint256"
        }
      ],
      "name": "NewPowerUpAdded",
      "type": "event"
    },
    {
      "anonymous": false,
      "inputs": [
        {
          "indexed": true,
          "name": "initiator",
          "type": "address"
        },
        {
          "indexed": false,
          "name": "id",
          "type": "uint256"
        },
        {
          "indexed": false,
          "name": "tokensBurned",
          "type": "uint256"
        }
      ],
      "name": "Topup",
      "type": "event"
    },
    {
      "constant": false,
      "inputs": [
        {
          "name": "contentAddress",
          "type": "string"
        },
        {
          "name": "amount",
          "type": "uint256"
        },
        {
          "name": "keyword",
          "type": "bytes32"
        }
      ],
      "name": "addPowerUp",
      "outputs": [
        {
          "name": "id",
          "type": "uint256"
        }
      ],
      "payable": false,
      "stateMutability": "nonpayable",
      "type": "function"
    },
    {
      "constant": false,
      "inputs": [
        {
          "name": "contentAddress",
          "type": "string"
        },
        {
          "name": "amounts",
          "type": "uint256[]"
        },
        {
          "name": "keywords",
          "type": "bytes32[]"
        }
      ],
      "name": "addPowerUps",
      "outputs": [
        {
          "name": "ids",
          "type": "uint256[]"
        }
      ],
      "payable": false,
      "stateMutability": "nonpayable",
      "type": "function"
    },
    {
      "constant": false,
      "inputs": [
        {
          "name": "id",
          "type": "uint256"
        },
        {
          "name": "amount",
          "type": "uint256"
        }
      ],
      "name": "topUpPowerUp",
      "outputs": [],
      "payable": false,
      "stateMutability": "nonpayable",
      "type": "function"
    },
    {
      "constant": true,
      "inputs": [
        {
          "name": "id",
          "type": "uint256"
        }
      ],
      "name": "getPowerUpInfo",
      "outputs": [
        {
          "name": "contentAddress",
          "type": "string"
        },
        {
          "name": "tokensBurned",
          "type": "uint256"
        },
        {
          "name": "lastTopupTime",
          "type": "uint256"
        },
        {
          "name": "keyword",
          "type": "bytes32"
        }
      ],
      "payable": false,
      "stateMutability": "view",
      "type": "function"
    },
    {
      "constant": true,
      "inputs": [
        {
          "name": "keyword",
          "type": "bytes32"
        }
      ],
      "name": "noOfPowerUps",
      "outputs": [
        {
          "name": "count",
          "type": "uint256"
        }
      ],
      "payable": false,
      "stateMutability": "view",
      "type": "function"
    },
    {
      "constant": true,
      "inputs": [
        {
          "name": "keyword",
          "type": "bytes32"
        },
        {
          "name": "index",
          "type": "uint256"
        }
      ],
      "name": "getPowerUpIdAtIndex",
      "outputs": [
        {
          "name": "id",
          "type": "uint256"
        }
      ],
      "payable": false,
      "stateMutability": "view",
      "type": "function"
    },
    {
      "constant": true,
      "inputs": [
        {
          "name": "keyword",
          "type": "bytes32"
        }
      ],
      "name": "getPowerUpIds",
      "outputs": [
        {
          "name": "ids",
          "type": "uint256[]"
        }
      ],
      "payable": false,
      "stateMutability": "view",
      "type": "function"
    }
  ],
  "bytecode": "0x608060405234801561001057600080fd5b506040516020806111a68339810180604052810190808051906020019092919050505080600073ffffffffffffffffffffffffffffffffffffffff168173ffffffffffffffffffffffffffffffffffffffff16141515156100d9576040517f08c379a00000000000000000000000000000000000000000000000000000000081526004018080602001828103825260138152602001807f5a65726f2061646472657373207061737365640000000000000000000000000081525060200191505060405180910390fd5b816000806101000a81548173ffffffffffffffffffffffffffffffffffffffff021916908373ffffffffffffffffffffffffffffffffffffffff160217905550505061107c8061012a6000396000f30060806040526004361061008e576000357c0100000000000000000000000000000000000000000000000000000000900463ffffffff168063315e6a1b146100935780634920e510146100fa5780636f1a8b57146101495780638a84d8f31461018e57806391cc4d341461025157806398a70e31146102d7578063ece6ac2e14610397578063fc0c546a146103ce575b600080fd5b34801561009f57600080fd5b506100e4600480360381019080803590602001908201803590602001919091929391929390803590602001909291908035600019169060200190929190505050610425565b6040518082815260200191505060405180910390f35b34801561010657600080fd5b506101336004803603810190808035600019169060200190929190803590602001909291905050506104eb565b6040518082815260200191505060405180910390f35b34801561015557600080fd5b5061017860048036038101908080356000191690602001909291905050506105c0565b6040518082815260200191505060405180910390f35b34801561019a57600080fd5b506101b9600480360381019080803590602001909291905050506105eb565b60405180806020018581526020018481526020018360001916600019168152602001828103825286818151815260200191508051906020019080838360005b838110156102135780820151818401526020810190506101f8565b50505050905090810190601f1680156102405780820380516001836020036101000a031916815260200191505b509550505050505060405180910390f35b34801561025d57600080fd5b5061028060048036038101908080356000191690602001909291905050506106e8565b6040518080602001828103825283818151815260200191508051906020019060200280838360005b838110156102c35780820151818401526020810190506102a8565b505050509050019250505060405180910390f35b3480156102e357600080fd5b5061034060048036038101908080359060200190820180359060200191909192939192939080359060200190820180359060200191909192939192939080359060200190820180359060200191909192939192939050505061075e565b6040518080602001828103825283818151815260200191508051906020019060200280838360005b83811015610383578082015181840152602081019050610368565b505050509050019250505060405180910390f35b3480156103a357600080fd5b506103cc6004803603810190808035906020019092919080359060200190929190505050610964565b005b3480156103da57600080fd5b506103e3610c45565b604051808273ffffffffffffffffffffffffffffffffffffffff1673ffffffffffffffffffffffffffffffffffffffff16815260200191505060405180910390f35b600080858590501115156104a1576040517f08c379a00000000000000000000000000000000000000000000000000000000081526004018080602001828103825260188152602001807f436f6e74656e74204164647265737320697320656d707479000000000000000081525060200191505060405180910390fd5b6104de85858080601f0160208091040260200160405190810160405280939291908181526020018383808284378201915050505050508484610c6a565b9050809050949350505050565b60008160026000856000191660001916815260200190815260200160002080549050111515610582576040517f08c379a00000000000000000000000000000000000000000000000000000000081526004018080602001828103825260198152602001807f417272617920696e646578206f7574206f6620626f756e64730000000000000081525060200191505060405180910390fd5b600260008460001916600019168152602001908152602001600020828154811015156105aa57fe5b9060005260206000200154905080905092915050565b6000600260008360001916600019168152602001908152602001600020805490509050809050919050565b60606000806000808560018054905011156106d45760018681548110151561060f57fe5b90600052602060002090600402019050806000018054600181600116156101000203166002900480601f0160208091040260200160405190810160405280929190818152602001828054600181600116156101000203166002900480156106b75780601f1061068c576101008083540402835291602001916106b7565b820191906000526020600020905b81548152906001019060200180831161069a57829003601f168201915b505050505094508060010154935080600201549250806003015491505b848484849450945094509450509193509193565b606060026000836000191660001916815260200190815260200160002080548060200260200160405190810160405280929190818152602001828054801561074f57602002820191906000526020600020905b81548152602001906001019080831161073b575b50505050509050809050919050565b6060600080888890501115156107dc576040517f08c379a00000000000000000000000000000000000000000000000000000000081526004018080602001828103825260188152602001807f436f6e74656e74204164647265737320697320656d707479000000000000000081525060200191505060405180910390fd5b838390508686905014151561087f576040517f08c379a00000000000000000000000000000000000000000000000000000000081526004018080602001828103825260248152602001807f6b6579776f72647320616e6420616d6f756e7473206c656e677468206d69736d81526020017f617463680000000000000000000000000000000000000000000000000000000081525060400191505060405180910390fd5b858590506040519080825280602002602001820160405280156108b15781602001602082028038833980820191505090505b509150600090505b858590508110156109565761092d88888080601f016020809104026020016040519081016040528093929190818152602001838380828437820191505050505050878784818110151561090857fe5b90506020020135868685818110151561091d57fe5b9050602002013560001916610c6a565b828281518110151561093b57fe5b906020019060200201818152505080806001019150506108b9565b819150509695505050505050565b8161097d60018080549050610f6990919063ffffffff16565b81111515156109f4576040517f08c379a00000000000000000000000000000000000000000000000000000000081526004018080602001828103825260178152602001807f506f776572557020646f6573206e6f742065786973747300000000000000000081525060200191505060405180910390fd5b600082111515610a92576040517f08c379a00000000000000000000000000000000000000000000000000000000081526004018080602001828103825260318152602001807f416d6f756e74206f6620746f6b656e7320746f206275726e2073686f756c642081526020017f62652067726561746572207468616e203000000000000000000000000000000081525060400191505060405180910390fd5b610ac582600185815481101515610aa557fe5b906000526020600020906004020160010154610f8a90919063ffffffff16565b600184815481101515610ad457fe5b90600052602060002090600402016001018190555042600184815481101515610af957fe5b9060005260206000209060040201600201819055506000809054906101000a900473ffffffffffffffffffffffffffffffffffffffff1673ffffffffffffffffffffffffffffffffffffffff166379cc679033846040518363ffffffff167c0100000000000000000000000000000000000000000000000000000000028152600401808373ffffffffffffffffffffffffffffffffffffffff1673ffffffffffffffffffffffffffffffffffffffff16815260200182815260200192505050600060405180830381600087803b158015610bd257600080fd5b505af1158015610be6573d6000803e3d6000fd5b505050503373ffffffffffffffffffffffffffffffffffffffff167f6d4f4d29f1e5fcc4cc296c4f82a4091603352c8dd28d9ec455eeb703b3b543938484604051808381526020018281526020019250505060405180910390a2505050565b6000809054906101000a900473ffffffffffffffffffffffffffffffffffffffff1681565b60008083111515610d09576040517f08c379a00000000000000000000000000000000000000000000000000000000081526004018080602001828103825260318152602001807f416d6f756e74206f6620746f6b656e7320746f206275726e2073686f756c642081526020017f62652067726561746572207468616e203000000000000000000000000000000081525060400191505060405180910390fd5b60016080604051908101604052808681526020018581526020014281526020018460001916815250908060018154018082558091505090600182039060005260206000209060040201600090919290919091506000820151816000019080519060200190610d78929190610fab565b50602082015181600101556040820151816002015560608201518160030190600019169055505050600260008360001916600019168152602001908152602001600020610dd360018080549050610f6990919063ffffffff16565b90806001815401808255809150509060018203906000526020600020016000909192909190915055506000809054906101000a900473ffffffffffffffffffffffffffffffffffffffff1673ffffffffffffffffffffffffffffffffffffffff166379cc679033856040518363ffffffff167c0100000000000000000000000000000000000000000000000000000000028152600401808373ffffffffffffffffffffffffffffffffffffffff1673ffffffffffffffffffffffffffffffffffffffff16815260200182815260200192505050600060405180830381600087803b158015610ec057600080fd5b505af1158015610ed4573d6000803e3d6000fd5b505050503373ffffffffffffffffffffffffffffffffffffffff167fc00805983761592a6464687e442bdbf29ac1d3bc2277e56c93c1a3060bbccd5a610f2860018080549050610f6990919063ffffffff16565b85604051808381526020018281526020019250505060405180910390a2610f5d60018080549050610f6990919063ffffffff16565b90508090509392505050565b600080838311151515610f7b57600080fd5b82840390508091505092915050565b6000808284019050838110151515610fa157600080fd5b8091505092915050565b828054600181600116156101000203166002900490600052602060002090601f016020900481019282601f10610fec57805160ff191683800117855561101a565b8280016001018555821561101a579182015b82811115611019578251825591602001919060010190610ffe565b5b509050611027919061102b565b5090565b61104d91905b80821115611049576000816000905550600101611031565b5090565b905600a165627a7a72305820e88e1585850b05b0a965abc5979373781bf0ab2b61f199aad1705b67583e749b0029",
  "source": "/* solium-disable security/no-block-members */\n\npragma solidity 0.4.24;\n\nimport \"openzeppelin-solidity/contracts/math/SafeMath.sol\";\nimport \"../token/ITokenContract.sol\";\n\n\n/**\n* @dev 'Powering-up a listing' is spending OpenBazaar tokens to advertise a\n* listing in one of the OpenBazaar clients.\n*/\ncontract PowerUps {\n\n    using SafeMath for uint256;\n\n    ITokenContract public token;\n\n    struct PowerUp {\n        string contentAddress; // IPFS/IPNS address, peerID, etc\n        uint256 tokensBurned; // total tokens burned towards this PowerUp\n        uint256 lastTopupTime; // last time tokens were burned for this PowerUp\n        bytes32 keyword; // search term, reserved keyword, etc\n    }\n\n    PowerUp[] powerUps; // stores PowerUps\n\n    mapping(bytes32 => uint256[]) keywordVsPowerUpIds;\n\n    event NewPowerUpAdded(\n        address indexed initiator,\n        uint256 id, // the index of this PowerUp in the powerUps[] array\n        uint256 tokensBurned\n    );\n\n    event Topup(\n        address indexed initiator,\n        uint256 id, // the index of the PowerUp in the powerUps[] array\n        uint256 tokensBurned\n    );\n\n    modifier powerUpExists(uint256 id) {\n        require(id <= powerUps.length.sub(1), \"PowerUp does not exists\");\n        _;\n    }\n\n    modifier nonZeroAddress(address addressToCheck) {\n        require(addressToCheck != address(0), \"Zero address passed\");\n        _;\n    }\n\n    constructor(address obTokenAddress) public nonZeroAddress(obTokenAddress) {\n        token = ITokenContract(obTokenAddress);\n    }\n\n    /**\n    * @dev Add new PowerUp\n    * @param contentAddress IPFS/IPNS address, peerID, etc\n    * @param amount Amount of tokens to burn\n    * @param keyword Bytes32 search term, reserved keyword, etc\n    * @return id Index of the PowerUp in the powerUps[] array\n    */\n    function addPowerUp(\n        string contentAddress,\n        uint256 amount,\n        bytes32 keyword\n    )\n        external\n        returns (uint256 id)\n    {\n\n        require(bytes(contentAddress).length > 0, \"Content Address is empty\");\n        id = _addPowerUp(contentAddress, amount, keyword);\n\n        return id;\n    }\n\n    /**\n    * @dev Add multiple PowerUps for different keywords but the same\n    * content address\n    * This is intended to be used for associating a given contentAddress with\n    * multiple search keywords by batching the PowerUps together. This is\n    * simply to allow the creation of multiple PowerUps with a single function\n    * call.\n    * @param contentAddress IPFS/IPNS address of the listing\n    * @param amounts Amount of tokens to be burnt for each PowerUp\n    * @param keywords Keywords in bytes32 form for each PowerUp\n    * Be sure to keep arrays small enough so as not to exceed the block gas\n    * limit.\n    */\n    function addPowerUps(\n        string contentAddress,\n        uint256[] amounts,\n        bytes32[] keywords\n    )\n        external\n        returns (uint256[] ids)\n    {\n\n        require(\n            bytes(contentAddress).length > 0,\n            \"Content Address is empty\"\n        );\n\n        require(\n            amounts.length == keywords.length,\n            \"keywords and amounts length mismatch\"\n        );\n\n        ids = new uint256[](amounts.length);\n\n        for (uint256 i = 0; i < amounts.length; i++) {\n            ids[i] = _addPowerUp(contentAddress, amounts[i], keywords[i]);\n        }\n\n        return ids;\n    }\n\n/**\n    * @dev Topup a PowerUp's balance (that is, burn more tokens in association\n    * with am existing PowerUp)\n    * @param id The index of the PowerUp in the powerUps array\n    * @param amount Amount of tokens to burn\n    */\n    function topUpPowerUp(\n        uint256 id,\n        uint256 amount\n    )\n        external\n        powerUpExists(id)\n    {\n\n        require(\n            amount > 0,\n            \"Amount of tokens to burn should be greater than 0\"\n        );\n\n        powerUps[id].tokensBurned = powerUps[id].tokensBurned.add(amount);\n\n        powerUps[id].lastTopupTime = block.timestamp;\n\n        token.burnFrom(msg.sender, amount);\n\n        emit Topup(msg.sender, id, amount);\n    }\n\n    /**\n    * @dev Returns info about a given PowerUp\n    * @param id The index of the PowerUp in the powerUps array\n    */\n    function getPowerUpInfo(\n        uint256 id\n    )\n        external\n        view\n        returns (\n            string contentAddress,\n            uint256 tokensBurned,\n            uint256 lastTopupTime,\n            bytes32 keyword\n        )\n    {\n        if (powerUps.length > id) {\n\n            PowerUp storage powerUp = powerUps[id];\n\n            contentAddress = powerUp.contentAddress;\n            tokensBurned = powerUp.tokensBurned;\n            lastTopupTime = powerUp.lastTopupTime;\n            keyword = powerUp.keyword;\n\n        }\n\n        return (contentAddress, tokensBurned, lastTopupTime, keyword);\n    }\n\n    /**\n    * @dev returns how many powerups are available for the given keyword\n    * @param keyword Keyword for which the result needs to be fetched\n    */\n    function noOfPowerUps(bytes32 keyword)\n        external\n        view\n        returns (uint256 count)\n    {\n        count = keywordVsPowerUpIds[keyword].length;\n\n        return count;\n    }\n\n    /**\n    * @dev returns the id (index in the powerUps[] array) of the PowerUp\n    * refered to by the `index`th element of a given `keyword` array.\n    * ie: getPowerUpIdAtIndex(\"shoes\",23) will return the id of the 23rd\n    * PowerUp that burned tokens in association with the keyword \"shoes\".\n    * @param keyword Keyword string for which the PowerUp ids will be fetched\n    * @param index Index at which id of the PowerUp needs to be fetched\n    */\n    function getPowerUpIdAtIndex(\n        bytes32 keyword,\n        uint256 index\n    )\n        external\n        view\n        returns (uint256 id)\n    {\n\n        require(\n            keywordVsPowerUpIds[keyword].length > index,\n            \"Array index out of bounds\"\n        );\n\n        id = keywordVsPowerUpIds[keyword][index];\n\n        return id;\n    }\n\n    /**\n    * @dev This method will return an array of ids of PowerUps associated with\n    * the given keyword\n    * @param keyword The keyword for which the array of PowerUps will be fetched\n    */\n    function getPowerUpIds(bytes32 keyword)\n        external\n        view\n        returns (uint256[] ids)\n    {\n\n        ids = keywordVsPowerUpIds[keyword];\n\n        return ids;\n\n    }\n\n    //private helper\n    function _addPowerUp(\n        string contentAddress,\n        uint256 amount,\n        bytes32 keyword\n    )\n        private\n        returns (uint256 id)\n    {\n\n        require(\n            amount > 0,\n            \"Amount of tokens to burn should be greater than 0\"\n        );\n\n        powerUps.push(\n            PowerUp({\n                contentAddress:contentAddress,\n                tokensBurned:amount,\n                lastTopupTime:block.timestamp,\n                keyword: keyword\n            })\n        );\n\n        keywordVsPowerUpIds[keyword].push(powerUps.length.sub(1));\n\n        token.burnFrom(msg.sender, amount);\n\n        emit NewPowerUpAdded(msg.sender, powerUps.length.sub(1), amount);\n\n        id = powerUps.length.sub(1);\n\n        return id;\n    }\n}\n",
  "sourcePath": "/Users/austin/Documents/dev/ob/smart-contracts/contracts/powerUps/PowerUps.sol",
  "compiler": {
    "name": "solc",
    "version": "0.4.24+commit.e67f0147.Emscripten.clang"
  },
  "schemaVersion": "2.0.1",
  "updatedAt": "2019-01-09T21:12:41.393Z"
}